{
  "contractName": "UnicoinRegistry",
  "abi": [
    {
      "constant": true,
      "inputs": [
        {
          "name": "interfaceId",
          "type": "bytes4"
        }
      ],
      "name": "supportsInterface",
      "outputs": [
        {
          "name": "",
          "type": "bool"
        }
      ],
      "payable": false,
      "stateMutability": "view",
      "type": "function"
    },
    {
      "constant": true,
      "inputs": [
        {
          "name": "tokenId",
          "type": "uint256"
        }
      ],
      "name": "getApproved",
      "outputs": [
        {
          "name": "",
          "type": "address"
        }
      ],
      "payable": false,
      "stateMutability": "view",
      "type": "function"
    },
    {
      "constant": false,
      "inputs": [
        {
          "name": "to",
          "type": "address"
        },
        {
          "name": "tokenId",
          "type": "uint256"
        }
      ],
      "name": "approve",
      "outputs": [],
      "payable": false,
      "stateMutability": "nonpayable",
      "type": "function"
    },
    {
      "constant": true,
      "inputs": [
        {
          "name": "",
          "type": "uint256"
        },
        {
          "name": "",
          "type": "uint256"
        }
      ],
      "name": "publicationOwners",
      "outputs": [
        {
          "name": "",
          "type": "uint256"
        }
      ],
      "payable": false,
      "stateMutability": "view",
      "type": "function"
    },
    {
      "constant": true,
      "inputs": [
        {
          "name": "",
          "type": "uint256"
        }
      ],
      "name": "publications",
      "outputs": [
        {
          "name": "author_Id",
          "type": "uint256"
        },
        {
          "name": "publication_uri",
          "type": "string"
        },
        {
          "name": "isAuction",
          "type": "bool"
        },
        {
          "name": "isRunning",
          "type": "bool"
        },
        {
          "name": "sell_price",
          "type": "uint256"
        }
      ],
      "payable": false,
      "stateMutability": "view",
      "type": "function"
    },
    {
      "constant": false,
      "inputs": [
        {
          "name": "from",
          "type": "address"
        },
        {
          "name": "to",
          "type": "address"
        },
        {
          "name": "tokenId",
          "type": "uint256"
        }
      ],
      "name": "transferFrom",
      "outputs": [],
      "payable": false,
      "stateMutability": "nonpayable",
      "type": "function"
    },
    {
      "constant": true,
      "inputs": [
        {
          "name": "",
          "type": "uint256"
        }
      ],
      "name": "users",
      "outputs": [
        {
          "name": "owned_address",
          "type": "address"
        },
        {
          "name": "profile_uri",
          "type": "string"
        }
      ],
      "payable": false,
      "stateMutability": "view",
      "type": "function"
    },
    {
      "constant": false,
      "inputs": [
        {
          "name": "from",
          "type": "address"
        },
        {
          "name": "to",
          "type": "address"
        },
        {
          "name": "tokenId",
          "type": "uint256"
        }
      ],
      "name": "safeTransferFrom",
      "outputs": [],
      "payable": false,
      "stateMutability": "nonpayable",
      "type": "function"
    },
    {
      "constant": true,
      "inputs": [
        {
          "name": "",
          "type": "uint256"
        }
      ],
      "name": "bids",
      "outputs": [
        {
          "name": "offer",
          "type": "uint256"
        },
        {
          "name": "status",
          "type": "uint8"
        },
        {
          "name": "publication_Id",
          "type": "uint256"
        },
        {
          "name": "owner_Id",
          "type": "uint256"
        }
      ],
      "payable": false,
      "stateMutability": "view",
      "type": "function"
    },
    {
      "constant": true,
      "inputs": [
        {
          "name": "tokenId",
          "type": "uint256"
        }
      ],
      "name": "ownerOf",
      "outputs": [
        {
          "name": "",
          "type": "address"
        }
      ],
      "payable": false,
      "stateMutability": "view",
      "type": "function"
    },
    {
      "constant": true,
      "inputs": [
        {
          "name": "",
          "type": "uint256"
        }
      ],
      "name": "licenceOwners",
      "outputs": [
        {
          "name": "",
          "type": "uint256"
        }
      ],
      "payable": false,
      "stateMutability": "view",
      "type": "function"
    },
    {
      "constant": true,
      "inputs": [
        {
          "name": "owner",
          "type": "address"
        }
      ],
      "name": "balanceOf",
      "outputs": [
        {
          "name": "",
          "type": "uint256"
        }
      ],
      "payable": false,
      "stateMutability": "view",
      "type": "function"
    },
    {
      "constant": false,
      "inputs": [
        {
          "name": "to",
          "type": "address"
        },
        {
          "name": "approved",
          "type": "bool"
        }
      ],
      "name": "setApprovalForAll",
      "outputs": [],
      "payable": false,
      "stateMutability": "nonpayable",
      "type": "function"
    },
    {
      "constant": false,
      "inputs": [
        {
          "name": "from",
          "type": "address"
        },
        {
          "name": "to",
          "type": "address"
        },
        {
          "name": "tokenId",
          "type": "uint256"
        },
        {
          "name": "_data",
          "type": "bytes"
        }
      ],
      "name": "safeTransferFrom",
      "outputs": [],
      "payable": false,
      "stateMutability": "nonpayable",
      "type": "function"
    },
    {
      "constant": true,
      "inputs": [
        {
          "name": "",
          "type": "uint256"
        }
      ],
      "name": "licences",
      "outputs": [
        {
          "name": "buyer_Id",
          "type": "uint256"
        },
        {
          "name": "Publication_Id",
          "type": "uint256"
        },
        {
          "name": "bid_Id",
          "type": "uint256"
        }
      ],
      "payable": false,
      "stateMutability": "view",
      "type": "function"
    },
    {
      "constant": true,
      "inputs": [
        {
          "name": "",
          "type": "uint256"
        },
        {
          "name": "",
          "type": "uint256"
        }
      ],
      "name": "publicationLicences",
      "outputs": [
        {
          "name": "",
          "type": "uint256"
        }
      ],
      "payable": false,
      "stateMutability": "view",
      "type": "function"
    },
    {
      "constant": true,
      "inputs": [
        {
          "name": "",
          "type": "uint256"
        },
        {
          "name": "",
          "type": "uint256"
        }
      ],
      "name": "bidOwners",
      "outputs": [
        {
          "name": "",
          "type": "uint256"
        }
      ],
      "payable": false,
      "stateMutability": "view",
      "type": "function"
    },
    {
      "constant": true,
      "inputs": [
        {
          "name": "owner",
          "type": "address"
        },
        {
          "name": "operator",
          "type": "address"
        }
      ],
      "name": "isApprovedForAll",
      "outputs": [
        {
          "name": "",
          "type": "bool"
        }
      ],
      "payable": false,
      "stateMutability": "view",
      "type": "function"
    },
    {
      "constant": true,
      "inputs": [
        {
          "name": "",
          "type": "address"
        }
      ],
      "name": "userAddresses",
      "outputs": [
        {
          "name": "",
          "type": "uint256"
        }
      ],
      "payable": false,
      "stateMutability": "view",
      "type": "function"
    },
    {
      "inputs": [
        {
          "name": "_daiContractAddress",
          "type": "address"
        }
      ],
      "payable": false,
      "stateMutability": "nonpayable",
      "type": "constructor"
    },
    {
      "anonymous": false,
      "inputs": [
        {
          "indexed": true,
          "name": "from",
          "type": "address"
        },
        {
          "indexed": true,
          "name": "to",
          "type": "address"
        },
        {
          "indexed": true,
          "name": "tokenId",
          "type": "uint256"
        }
      ],
      "name": "Transfer",
      "type": "event"
    },
    {
      "anonymous": false,
      "inputs": [
        {
          "indexed": true,
          "name": "owner",
          "type": "address"
        },
        {
          "indexed": true,
          "name": "approved",
          "type": "address"
        },
        {
          "indexed": true,
          "name": "tokenId",
          "type": "uint256"
        }
      ],
      "name": "Approval",
      "type": "event"
    },
    {
      "anonymous": false,
      "inputs": [
        {
          "indexed": true,
          "name": "owner",
          "type": "address"
        },
        {
          "indexed": true,
          "name": "operator",
          "type": "address"
        },
        {
          "indexed": false,
          "name": "approved",
          "type": "bool"
        }
      ],
      "name": "ApprovalForAll",
      "type": "event"
    },
    {
      "constant": false,
      "inputs": [
        {
          "name": "_profile_uri",
          "type": "string"
        }
      ],
      "name": "registerUser",
      "outputs": [],
      "payable": false,
      "stateMutability": "nonpayable",
      "type": "function"
    },
    {
      "constant": false,
      "inputs": [
        {
          "name": "_publication_uri",
          "type": "string"
        },
        {
          "name": "_isAuction",
          "type": "bool"
        },
        {
          "name": "_isRunning",
          "type": "bool"
        },
        {
          "name": "_sell_price",
          "type": "uint256"
        },
        {
          "name": "_contributors",
          "type": "uint256[]"
        },
        {
          "name": "_contributors_weightings",
          "type": "uint256[]"
        }
      ],
      "name": "createPublication",
      "outputs": [],
      "payable": false,
      "stateMutability": "nonpayable",
      "type": "function"
    },
    {
      "constant": false,
      "inputs": [
        {
          "name": "_offer",
          "type": "uint256"
        },
        {
          "name": "_publication_Id",
          "type": "uint256"
        }
      ],
      "name": "makeBid",
      "outputs": [],
      "payable": false,
      "stateMutability": "nonpayable",
      "type": "function"
    },
    {
      "constant": false,
      "inputs": [
        {
          "name": "_id",
          "type": "uint256"
        }
      ],
      "name": "acceptBid",
      "outputs": [],
      "payable": false,
      "stateMutability": "nonpayable",
      "type": "function"
    },
    {
      "constant": false,
      "inputs": [
        {
          "name": "_id",
          "type": "uint256"
        }
      ],
      "name": "rejectBid",
      "outputs": [],
      "payable": false,
      "stateMutability": "nonpayable",
      "type": "function"
    },
    {
      "constant": false,
      "inputs": [
        {
          "name": "_id",
          "type": "uint256"
        }
      ],
      "name": "cancelBid",
      "outputs": [],
      "payable": false,
      "stateMutability": "nonpayable",
      "type": "function"
    },
    {
      "constant": false,
      "inputs": [
        {
          "name": "_publication_Id",
          "type": "uint256"
        },
        {
          "name": "_sell_price",
          "type": "uint256"
        }
      ],
      "name": "changeToSale",
      "outputs": [],
      "payable": false,
      "stateMutability": "nonpayable",
      "type": "function"
    },
    {
      "constant": false,
      "inputs": [
        {
          "name": "_publication_Id",
          "type": "uint256"
        }
      ],
      "name": "changeToAuction",
      "outputs": [],
      "payable": false,
      "stateMutability": "nonpayable",
      "type": "function"
    },
    {
      "constant": false,
      "inputs": [
        {
          "name": "_publication_Id",
          "type": "uint256"
        },
        {
          "name": "_sell_price",
          "type": "uint256"
        }
      ],
      "name": "changeSellPrice",
      "outputs": [],
      "payable": false,
      "stateMutability": "nonpayable",
      "type": "function"
    },
    {
      "constant": false,
      "inputs": [
        {
          "name": "_publication_Id",
          "type": "uint256"
        }
      ],
      "name": "changeRunningStatus",
      "outputs": [],
      "payable": false,
      "stateMutability": "nonpayable",
      "type": "function"
    },
    {
      "constant": true,
      "inputs": [
        {
          "name": "_address",
          "type": "address"
        }
      ],
      "name": "getPublications",
      "outputs": [
        {
          "name": "",
          "type": "uint256[]"
        }
      ],
      "payable": false,
      "stateMutability": "view",
      "type": "function"
    },
    {
      "constant": true,
      "inputs": [
        {
          "name": "_address",
          "type": "address"
        }
      ],
      "name": "getBids",
      "outputs": [
        {
          "name": "",
          "type": "uint256[]"
        }
      ],
      "payable": false,
      "stateMutability": "view",
      "type": "function"
    },
    {
      "constant": true,
      "inputs": [
        {
          "name": "_publication_Id",
          "type": "uint256"
        }
      ],
      "name": "getPublicationBids",
      "outputs": [
        {
          "name": "",
          "type": "uint256[]"
        }
      ],
      "payable": false,
      "stateMutability": "view",
      "type": "function"
    },
    {
      "constant": true,
      "inputs": [],
      "name": "getPublicationLength",
      "outputs": [
        {
          "name": "count",
          "type": "uint256"
        }
      ],
      "payable": false,
      "stateMutability": "view",
      "type": "function"
    }
  ],
  "bytecode": "0x60806040523480156200001157600080fd5b5060405160208062004c8b833981018060405260208110156200003357600080fd5b81019080805190602001909291905050506200005c6301ffc9a760e01b6200018d60201b60201c565b620000746380ac58cd60e01b6200018d60201b60201c565b60056040518060400160405280600073ffffffffffffffffffffffffffffffffffffffff168152602001604051806020016040528060008152508152509080600181540180825580915050906001820390600052602060002090600202016000909192909190915060008201518160000160006101000a81548173ffffffffffffffffffffffffffffffffffffffff021916908373ffffffffffffffffffffffffffffffffffffffff16021790555060208201518160010190805190602001906200014192919062000296565b5050505080600e60006101000a81548173ffffffffffffffffffffffffffffffffffffffff021916908373ffffffffffffffffffffffffffffffffffffffff1602179055505062000345565b63ffffffff60e01b817bffffffffffffffffffffffffffffffffffffffffffffffffffffffff191614156200022a576040517f08c379a000000000000000000000000000000000000000000000000000000000815260040180806020018281038252601c8152602001807f4552433136353a20696e76616c696420696e746572666163652069640000000081525060200191505060405180910390fd5b6001600080837bffffffffffffffffffffffffffffffffffffffffffffffffffffffff19167bffffffffffffffffffffffffffffffffffffffffffffffffffffffff1916815260200190815260200160002060006101000a81548160ff02191690831515021790555050565b828054600181600116156101000203166002900490600052602060002090601f016020900481019282601f10620002d957805160ff19168380011785556200030a565b828001600101855582156200030a579182015b8281111562000309578251825591602001919060010190620002ec565b5b5090506200031991906200031d565b5090565b6200034291905b808211156200033e57600081600090555060010162000324565b5090565b90565b61493680620003556000396000f3fe608060405234801561001057600080fd5b50600436106101fb5760003560e01c8063699b5fa11161011a5780639dccae82116100ad578063bb44aee31161007c578063bb44aee314610ed1578063d628d54014610f21578063dc05d95214610f6d578063e985e9c514610fb9578063fc86dea714611035576101fb565b80639dccae8214610cab578063a22cb46514610d44578063adfcdc1114610d94578063b88d4fde14610dcc576101fb565b80637ece03bb116100e95780637ece03bb14610bf957806390420aee14610c175780639703ef3514610c4f5780639ab7a95414610c7d576101fb565b8063699b5fa114610a805780636e3341b314610ab8578063704f1b9414610ae657806370a0823114610ba1576101fb565b80632b1fd58a116101925780634423c5f1116101615780634423c5f1146107665780635fd814a0146107cb5780636352211e146109d05780636557e4a814610a3e576101fb565b80632b1fd58a1461056d578063365b98b21461059b5780633e7646041461067557806342842e0e146106f8576101fb565b8063142af1ca116101ce578063142af1ca146103ba578063166c6c80146104065780631fd5bbab1461043457806323b872dd146104ff576101fb565b806301ffc9a714610200578063081812fc1461026557806308204780146102d3578063095ea7b31461036c575b600080fd5b61024b6004803603602081101561021657600080fd5b8101908080357bffffffffffffffffffffffffffffffffffffffffffffffffffffffff1916906020019092919050505061108d565b604051808215151515815260200191505060405180910390f35b6102916004803603602081101561027b57600080fd5b81019080803590602001909291905050506110f4565b604051808273ffffffffffffffffffffffffffffffffffffffff1673ffffffffffffffffffffffffffffffffffffffff16815260200191505060405180910390f35b610315600480360360208110156102e957600080fd5b81019080803573ffffffffffffffffffffffffffffffffffffffff16906020019092919050505061118f565b6040518080602001828103825283818151815260200191508051906020019060200280838360005b8381101561035857808201518184015260208101905061033d565b505050509050019250505060405180910390f35b6103b86004803603604081101561038257600080fd5b81019080803573ffffffffffffffffffffffffffffffffffffffff1690602001909291908035906020019092919050505061123f565b005b6103f0600480360360408110156103d057600080fd5b810190808035906020019092919080359060200190929190505050611418565b6040518082815260200191505060405180910390f35b6104326004803603602081101561041c57600080fd5b8101908080359060200190929190505050611446565b005b6104606004803603602081101561044a57600080fd5b81019080803590602001909291905050506115db565b60405180868152602001806020018515151515815260200184151515158152602001838152602001828103825286818151815260200191508051906020019080838360005b838110156104c05780820151818401526020810190506104a5565b50505050905090810190601f1680156104ed5780820380516001836020036101000a031916815260200191505b50965050505050505060405180910390f35b61056b6004803603606081101561051557600080fd5b81019080803573ffffffffffffffffffffffffffffffffffffffff169060200190929190803573ffffffffffffffffffffffffffffffffffffffff169060200190929190803590602001909291905050506116d0565b005b6105996004803603602081101561058357600080fd5b810190808035906020019092919050505061173f565b005b6105c7600480360360208110156105b157600080fd5b8101908080359060200190929190505050611afb565b604051808373ffffffffffffffffffffffffffffffffffffffff1673ffffffffffffffffffffffffffffffffffffffff16815260200180602001828103825283818151815260200191508051906020019080838360005b8381101561063957808201518184015260208101905061061e565b50505050905090810190601f1680156106665780820380516001836020036101000a031916815260200191505b50935050505060405180910390f35b6106a16004803603602081101561068b57600080fd5b8101908080359060200190929190505050611be4565b6040518080602001828103825283818151815260200191508051906020019060200280838360005b838110156106e45780820151818401526020810190506106c9565b505050509050019250505060405180910390f35b6107646004803603606081101561070e57600080fd5b81019080803573ffffffffffffffffffffffffffffffffffffffff169060200190929190803573ffffffffffffffffffffffffffffffffffffffff16906020019092919080359060200190929190505050611c5a565b005b6107926004803603602081101561077c57600080fd5b8101908080359060200190929190505050611c7a565b604051808581526020018460048111156107a857fe5b60ff16815260200183815260200182815260200194505050505060405180910390f35b6109ce600480360360c08110156107e157600080fd5b81019080803590602001906401000000008111156107fe57600080fd5b82018360208201111561081057600080fd5b8035906020019184600183028401116401000000008311171561083257600080fd5b91908080601f016020809104026020016040519081016040528093929190818152602001838380828437600081840152601f19601f82011690508083019250505050505050919291929080351515906020019092919080351515906020019092919080359060200190929190803590602001906401000000008111156108b757600080fd5b8201836020820111156108c957600080fd5b803590602001918460208302840111640100000000831117156108eb57600080fd5b919080806020026020016040519081016040528093929190818152602001838360200280828437600081840152601f19601f8201169050808301925050505050505091929192908035906020019064010000000081111561094b57600080fd5b82018360208201111561095d57600080fd5b8035906020019184602083028401116401000000008311171561097f57600080fd5b919080806020026020016040519081016040528093929190818152602001838360200280828437600081840152601f19601f820116905080830192505050505050509192919290505050611cc4565b005b6109fc600480360360208110156109e657600080fd5b8101908080359060200190929190505050612085565b604051808273ffffffffffffffffffffffffffffffffffffffff1673ffffffffffffffffffffffffffffffffffffffff16815260200191505060405180910390f35b610a6a60048036036020811015610a5457600080fd5b810190808035906020019092919050505061214d565b6040518082815260200191505060405180910390f35b610ab660048036036040811015610a9657600080fd5b810190808035906020019092919080359060200190929190505050612165565b005b610ae460048036036020811015610ace57600080fd5b8101908080359060200190929190505050612316565b005b610b9f60048036036020811015610afc57600080fd5b8101908080359060200190640100000000811115610b1957600080fd5b820183602082011115610b2b57600080fd5b80359060200191846001830284011164010000000083111715610b4d57600080fd5b91908080601f016020809104026020016040519081016040528093929190818152602001838380828437600081840152601f19601f82011690508083019250505050505050919291929050505061256e565b005b610be360048036036020811015610bb757600080fd5b81019080803573ffffffffffffffffffffffffffffffffffffffff1690602001909291905050506127a7565b6040518082815260200191505060405180910390f35b610c0161287c565b6040518082815260200191505060405180910390f35b610c4d60048036036040811015610c2d57600080fd5b810190808035906020019092919080359060200190929190505050612889565b005b610c7b60048036036020811015610c6557600080fd5b8101908080359060200190929190505050612a04565b005b610ca960048036036020811015610c9357600080fd5b8101908080359060200190929190505050612c5c565b005b610ced60048036036020811015610cc157600080fd5b81019080803573ffffffffffffffffffffffffffffffffffffffff169060200190929190505050612d76565b6040518080602001828103825283818151815260200191508051906020019060200280838360005b83811015610d30578082015181840152602081019050610d15565b505050509050019250505060405180910390f35b610d9260048036036040811015610d5a57600080fd5b81019080803573ffffffffffffffffffffffffffffffffffffffff169060200190929190803515159060200190929190505050612e26565b005b610dca60048036036040811015610daa57600080fd5b810190808035906020019092919080359060200190929190505050612fc9565b005b610ecf60048036036080811015610de257600080fd5b81019080803573ffffffffffffffffffffffffffffffffffffffff169060200190929190803573ffffffffffffffffffffffffffffffffffffffff1690602001909291908035906020019092919080359060200190640100000000811115610e4957600080fd5b820183602082011115610e5b57600080fd5b80359060200191846001830284011164010000000083111715610e7d57600080fd5b91908080601f016020809104026020016040519081016040528093929190818152602001838380828437600081840152601f19601f820116905080830192505050505050509192919290505050613a50565b005b610efd60048036036020811015610ee757600080fd5b8101908080359060200190929190505050613ac2565b60405180848152602001838152602001828152602001935050505060405180910390f35b610f5760048036036040811015610f3757600080fd5b810190808035906020019092919080359060200190929190505050613af9565b6040518082815260200191505060405180910390f35b610fa360048036036040811015610f8357600080fd5b810190808035906020019092919080359060200190929190505050613b27565b6040518082815260200191505060405180910390f35b61101b60048036036040811015610fcf57600080fd5b81019080803573ffffffffffffffffffffffffffffffffffffffff169060200190929190803573ffffffffffffffffffffffffffffffffffffffff169060200190929190505050613b55565b604051808215151515815260200191505060405180910390f35b6110776004803603602081101561104b57600080fd5b81019080803573ffffffffffffffffffffffffffffffffffffffff169060200190929190505050613be9565b6040518082815260200191505060405180910390f35b6000806000837bffffffffffffffffffffffffffffffffffffffffffffffffffffffff19167bffffffffffffffffffffffffffffffffffffffffffffffffffffffff1916815260200190815260200160002060009054906101000a900460ff169050919050565b60006110ff82613c01565b611154576040517f08c379a000000000000000000000000000000000000000000000000000000000815260040180806020018281038252602c8152602001806147f2602c913960400191505060405180910390fd5b6002600083815260200190815260200160002060009054906101000a900473ffffffffffffffffffffffffffffffffffffffff169050919050565b60606000600660008473ffffffffffffffffffffffffffffffffffffffff1673ffffffffffffffffffffffffffffffffffffffff168152602001908152602001600020549050600a600082815260200190815260200160002080548060200260200160405190810160405280929190818152602001828054801561123257602002820191906000526020600020905b81548152602001906001019080831161121e575b5050505050915050919050565b600061124a82612085565b90508073ffffffffffffffffffffffffffffffffffffffff168373ffffffffffffffffffffffffffffffffffffffff1614156112d1576040517f08c379a00000000000000000000000000000000000000000000000000000000081526004018080602001828103825260218152602001806148716021913960400191505060405180910390fd5b8073ffffffffffffffffffffffffffffffffffffffff163373ffffffffffffffffffffffffffffffffffffffff16148061131157506113108133613b55565b5b611366576040517f08c379a00000000000000000000000000000000000000000000000000000000081526004018080602001828103825260388152602001806147676038913960400191505060405180910390fd5b826002600084815260200190815260200160002060006101000a81548173ffffffffffffffffffffffffffffffffffffffff021916908373ffffffffffffffffffffffffffffffffffffffff160217905550818373ffffffffffffffffffffffffffffffffffffffff168273ffffffffffffffffffffffffffffffffffffffff167f8c5be1e5ebec7d5bd14f71427d1e84f3dd0314c0f7b2291e5b200ac8c7c3b92560405160405180910390a4505050565b600a602052816000526040600020818154811061143157fe5b90600052602060002001600091509150505481565b6009818154811061145357fe5b906000526020600020906007020160000154600660003373ffffffffffffffffffffffffffffffffffffffff1673ffffffffffffffffffffffffffffffffffffffff16815260200190815260200160002054146114fb576040517f08c379a00000000000000000000000000000000000000000000000000000000081526004018080602001828103825260278152602001806148926027913960400191505060405180910390fd5b6009818154811061150857fe5b906000526020600020906007020160030160009054906101000a900460ff161561157d576040517f08c379a00000000000000000000000000000000000000000000000000000000081526004018080602001828103825260218152602001806148ea6021913960400191505060405180910390fd5b60006009828154811061158c57fe5b9060005260206000209060070201600401819055506001600982815481106115b057fe5b906000526020600020906007020160030160006101000a81548160ff02191690831515021790555050565b600981815481106115e857fe5b9060005260206000209060070201600091509050806000015490806001018054600181600116156101000203166002900480601f01602080910402602001604051908101604052809291908181526020018280546001816001161561010002031660029004801561169a5780601f1061166f5761010080835404028352916020019161169a565b820191906000526020600020905b81548152906001019060200180831161167d57829003601f168201915b5050505050908060030160009054906101000a900460ff16908060030160019054906101000a900460ff16908060040154905085565b6116da3382613c73565b61172f576040517f08c379a00000000000000000000000000000000000000000000000000000000081526004018080602001828103825260318152602001806148b96031913960400191505060405180910390fd5b61173a838383613d67565b505050565b60006007828154811061174e57fe5b90600052602060002090600402016002015490506009818154811061176f57fe5b906000526020600020906007020160000154600660003373ffffffffffffffffffffffffffffffffffffffff1673ffffffffffffffffffffffffffffffffffffffff1681526020019081526020016000205414611817576040517f08c379a00000000000000000000000000000000000000000000000000000000081526004018080602001828103825260278152602001806148926027913960400191505060405180910390fd5b6009818154811061182457fe5b906000526020600020906007020160030160009054906101000a900460ff166118b5576040517f08c379a000000000000000000000000000000000000000000000000000000000815260040180806020018281038252601b8152602001807f5075626c69636174696f6e206e6f7420616e2061756374696f6e2e000000000081525060200191505060405180910390fd5b600981815481106118c257fe5b906000526020600020906007020160030160019054906101000a900460ff16611953576040517f08c379a00000000000000000000000000000000000000000000000000000000081526004018080602001828103825260178152602001807f41756374696f6e206973206e6f742072756e6e696e672e00000000000000000081525060200191505060405180910390fd5b60016007838154811061196257fe5b906000526020600020906004020160010160006101000a81548160ff0219169083600481111561198e57fe5b02179055506000600b6040518060600160405280600786815481106119af57fe5b906000526020600020906004020160030154815260200184815260200185815250908060018154018082558091505090600182039060005260206000209060030201600090919290919091506000820151816000015560208201518160010155604082015181600201555050905080600c600060078681548110611a2f57fe5b906000526020600020906004020160030154815260200190815260200160002081905550600d6000838152602001908152602001600020819080600181540180825580915050906001820390600052602060002001600090919290919091505550611af6600560078581548110611aa257fe5b90600052602060002090600402016003015481548110611abe57fe5b906000526020600020906002020160000160009054906101000a900473ffffffffffffffffffffffffffffffffffffffff1682613fc2565b505050565b60058181548110611b0857fe5b90600052602060002090600202016000915090508060000160009054906101000a900473ffffffffffffffffffffffffffffffffffffffff1690806001018054600181600116156101000203166002900480601f016020809104026020016040519081016040528092919081815260200182805460018160011615610100020316600290048015611bda5780601f10611baf57610100808354040283529160200191611bda565b820191906000526020600020905b815481529060010190602001808311611bbd57829003601f168201915b5050505050905082565b606060098281548110611bf357fe5b9060005260206000209060070201600201805480602002602001604051908101604052809291908181526020018280548015611c4e57602002820191906000526020600020905b815481526020019060010190808311611c3a575b50505050509050919050565b611c7583838360405180602001604052806000815250613a50565b505050565b60078181548110611c8757fe5b90600052602060002090600402016000915090508060000154908060010160009054906101000a900460ff16908060020154908060030154905084565b6000865111611d1e576040517f08c379a00000000000000000000000000000000000000000000000000000000081526004018080602001828103825260248152602001806146a06024913960400191505060405180910390fd5b6000600660003373ffffffffffffffffffffffffffffffffffffffff1673ffffffffffffffffffffffffffffffffffffffff168152602001908152602001600020541415611dd4576040517f08c379a000000000000000000000000000000000000000000000000000000000815260040180806020018281038252601f8152602001807f557365722061646472657373206973206e6f7420726567697374657265642e0081525060200191505060405180910390fd5b8415611e385760008314611e33576040517f08c379a000000000000000000000000000000000000000000000000000000000815260040180806020018281038252602a815260200180614847602a913960400191505060405180910390fd5b611eaf565b60008311611eae576040517f08c379a00000000000000000000000000000000000000000000000000000000081526004018080602001828103825260198152602001807f53656c6c207072696365206e6f74207370656369666965642e0000000000000081525060200191505060405180910390fd5b5b6000600660003373ffffffffffffffffffffffffffffffffffffffff1673ffffffffffffffffffffffffffffffffffffffff1681526020019081526020016000205490506060611efd614564565b6040518061010001604052808481526020018a815260200183815260200189151581526020018815158152602001878152602001868152602001858152509050600060098290806001815401808255809150509060018203906000526020600020906007020160009091929091909150600082015181600001556020820151816001019080519060200190611f939291906145ad565b506040820151816002019080519060200190611fb092919061462d565b5060608201518160030160006101000a81548160ff02191690831515021790555060808201518160030160016101000a81548160ff02191690831515021790555060a0820151816004015560c082015181600501908051906020019061201792919061462d565b5060e082015181600601908051906020019061203492919061462d565b5050509050600a600085815260200190815260200160002060018203908060018154018082558091505090600182039060005260206000200160009091929091909150555050505050505050505050565b6000806001600084815260200190815260200160002060009054906101000a900473ffffffffffffffffffffffffffffffffffffffff169050600073ffffffffffffffffffffffffffffffffffffffff168173ffffffffffffffffffffffffffffffffffffffff161415612144576040517f08c379a00000000000000000000000000000000000000000000000000000000081526004018080602001828103825260298152602001806147c96029913960400191505060405180910390fd5b80915050919050565b600c6020528060005260406000206000915090505481565b6009828154811061217257fe5b906000526020600020906007020160000154600660003373ffffffffffffffffffffffffffffffffffffffff1673ffffffffffffffffffffffffffffffffffffffff168152602001908152602001600020541461221a576040517f08c379a00000000000000000000000000000000000000000000000000000000081526004018080602001828103825260278152602001806148926027913960400191505060405180910390fd5b6009828154811061222757fe5b906000526020600020906007020160030160009054906101000a900460ff166122b8576040517f08c379a000000000000000000000000000000000000000000000000000000000815260040180806020018281038252601d8152602001807f5075626c69636174696f6e206973206e6f7420616e2061756374696f6e00000081525060200191505060405180910390fd5b80600983815481106122c657fe5b9060005260206000209060070201600401819055506000600983815481106122ea57fe5b906000526020600020906007020160030160006101000a81548160ff0219169083151502179055505050565b60006007828154811061232557fe5b90600052602060002090600402016002015490506009818154811061234657fe5b906000526020600020906007020160000154600660003373ffffffffffffffffffffffffffffffffffffffff1673ffffffffffffffffffffffffffffffffffffffff16815260200190815260200160002054146123ee576040517f08c379a00000000000000000000000000000000000000000000000000000000081526004018080602001828103825260278152602001806148926027913960400191505060405180910390fd5b600981815481106123fb57fe5b906000526020600020906007020160030160009054906101000a900460ff1661248c576040517f08c379a000000000000000000000000000000000000000000000000000000000815260040180806020018281038252601b8152602001807f5075626c69636174696f6e206e6f7420616e2061756374696f6e2e000000000081525060200191505060405180910390fd5b6009818154811061249957fe5b906000526020600020906007020160030160019054906101000a900460ff1661252a576040517f08c379a00000000000000000000000000000000000000000000000000000000081526004018080602001828103825260148152602001807f41756374696f6e206e6f742072756e6e696e672e00000000000000000000000081525060200191505060405180910390fd5b60026007838154811061253957fe5b906000526020600020906004020160010160006101000a81548160ff0219169083600481111561256557fe5b02179055505050565b60008151116125e5576040517f08c379a00000000000000000000000000000000000000000000000000000000081526004018080602001828103825260208152602001807f50726f66696c65205552492073686f756c64206e6f7420626520656d7074792e81525060200191505060405180910390fd5b6000600660003373ffffffffffffffffffffffffffffffffffffffff1673ffffffffffffffffffffffffffffffffffffffff168152602001908152602001600020541461269a576040517f08c379a00000000000000000000000000000000000000000000000000000000081526004018080602001828103825260188152602001807f5573657220616c726561647920726567697374657265642e000000000000000081525060200191505060405180910390fd5b6000600560405180604001604052803373ffffffffffffffffffffffffffffffffffffffff168152602001848152509080600181540180825580915050906001820390600052602060002090600202016000909192909190915060008201518160000160006101000a81548173ffffffffffffffffffffffffffffffffffffffff021916908373ffffffffffffffffffffffffffffffffffffffff16021790555060208201518160010190805190602001906127579291906145ad565b505050905060018103600660003373ffffffffffffffffffffffffffffffffffffffff1673ffffffffffffffffffffffffffffffffffffffff168152602001908152602001600020819055505050565b60008073ffffffffffffffffffffffffffffffffffffffff168273ffffffffffffffffffffffffffffffffffffffff16141561282e576040517f08c379a000000000000000000000000000000000000000000000000000000000815260040180806020018281038252602a81526020018061479f602a913960400191505060405180910390fd5b612875600360008473ffffffffffffffffffffffffffffffffffffffff1673ffffffffffffffffffffffffffffffffffffffff1681526020019081526020016000206141da565b9050919050565b6000600980549050905090565b6009828154811061289657fe5b906000526020600020906007020160000154600660003373ffffffffffffffffffffffffffffffffffffffff1673ffffffffffffffffffffffffffffffffffffffff168152602001908152602001600020541461293e576040517f08c379a00000000000000000000000000000000000000000000000000000000081526004018080602001828103825260278152602001806148926027913960400191505060405180910390fd5b6009828154811061294b57fe5b906000526020600020906007020160030160009054906101000a900460ff16156129dd576040517f08c379a000000000000000000000000000000000000000000000000000000000815260040180806020018281038252601a8152602001807f5075626c69636174696f6e206973206f6e2061756374696f6e2e00000000000081525060200191505060405180910390fd5b80600983815481106129eb57fe5b9060005260206000209060070201600401819055505050565b600060078281548110612a1357fe5b906000526020600020906004020160020154905060098181548110612a3457fe5b906000526020600020906007020160000154600660003373ffffffffffffffffffffffffffffffffffffffff1673ffffffffffffffffffffffffffffffffffffffff1681526020019081526020016000205414612adc576040517f08c379a00000000000000000000000000000000000000000000000000000000081526004018080602001828103825260278152602001806148926027913960400191505060405180910390fd5b60098181548110612ae957fe5b906000526020600020906007020160030160009054906101000a900460ff16612b7a576040517f08c379a000000000000000000000000000000000000000000000000000000000815260040180806020018281038252601b8152602001807f5075626c69636174696f6e206e6f7420616e2061756374696f6e2e000000000081525060200191505060405180910390fd5b60098181548110612b8757fe5b906000526020600020906007020160030160019054906101000a900460ff16612c18576040517f08c379a00000000000000000000000000000000000000000000000000000000081526004018080602001828103825260148152602001807f41756374696f6e206e6f742072756e6e696e672e00000000000000000000000081525060200191505060405180910390fd5b600460078381548110612c2757fe5b906000526020600020906004020160010160006101000a81548160ff02191690836004811115612c5357fe5b02179055505050565b60098181548110612c6957fe5b906000526020600020906007020160000154600660003373ffffffffffffffffffffffffffffffffffffffff1673ffffffffffffffffffffffffffffffffffffffff1681526020019081526020016000205414612d11576040517f08c379a00000000000000000000000000000000000000000000000000000000081526004018080602001828103825260278152602001806148926027913960400191505060405180910390fd5b60098181548110612d1e57fe5b906000526020600020906007020160030160019054906101000a900460ff161560098281548110612d4b57fe5b906000526020600020906007020160030160016101000a81548160ff02191690831515021790555050565b60606000600660008473ffffffffffffffffffffffffffffffffffffffff1673ffffffffffffffffffffffffffffffffffffffff16815260200190815260200160002054905060086000828152602001908152602001600020805480602002602001604051908101604052809291908181526020018280548015612e1957602002820191906000526020600020905b815481526020019060010190808311612e05575b5050505050915050919050565b3373ffffffffffffffffffffffffffffffffffffffff168273ffffffffffffffffffffffffffffffffffffffff161415612ec8576040517f08c379a00000000000000000000000000000000000000000000000000000000081526004018080602001828103825260198152602001807f4552433732313a20617070726f766520746f2063616c6c65720000000000000081525060200191505060405180910390fd5b80600460003373ffffffffffffffffffffffffffffffffffffffff1673ffffffffffffffffffffffffffffffffffffffff16815260200190815260200160002060008473ffffffffffffffffffffffffffffffffffffffff1673ffffffffffffffffffffffffffffffffffffffff16815260200190815260200160002060006101000a81548160ff0219169083151502179055508173ffffffffffffffffffffffffffffffffffffffff163373ffffffffffffffffffffffffffffffffffffffff167f17307eab39ab6107e8899845ad3d59bd9653f200f220920489ca2b5937696c3183604051808215151515815260200191505060405180910390a35050565b600060098281548110612fd857fe5b906000526020600020906007020160000154141561305e576040517f08c379a00000000000000000000000000000000000000000000000000000000081526004018080602001828103825260198152602001807f5075626c69636174696f6e206e6f7420656e6c69737465642e0000000000000081525060200191505060405180910390fd5b6000600660003373ffffffffffffffffffffffffffffffffffffffff1673ffffffffffffffffffffffffffffffffffffffff1681526020019081526020016000205414156130f7576040517f08c379a00000000000000000000000000000000000000000000000000000000081526004018080602001828103825260218152602001806146f66021913960400191505060405180910390fd5b6009818154811061310457fe5b906000526020600020906007020160030160009054906101000a900460ff1615613378576009818154811061313557fe5b906000526020600020906007020160030160019054906101000a900460ff166131c6576040517f08c379a00000000000000000000000000000000000000000000000000000000081526004018080602001828103825260178152602001807f41756374696f6e206973206e6f742072756e6e696e672e00000000000000000081525060200191505060405180910390fd5b600060076040518060800160405280858152602001600060048111156131e857fe5b8152602001848152602001600660003373ffffffffffffffffffffffffffffffffffffffff1673ffffffffffffffffffffffffffffffffffffffff16815260200190815260200160002054815250908060018154018082558091505090600182039060005260206000209060040201600090919290919091506000820151816000015560208201518160010160006101000a81548160ff0219169083600481111561328f57fe5b0217905550604082015181600201556060820151816003015550509050600982815481106132b957fe5b906000526020600020906007020160020160018203908060018154018082558091505090600182039060005260206000200160009091929091909150555060086000600660003373ffffffffffffffffffffffffffffffffffffffff1673ffffffffffffffffffffffffffffffffffffffff168152602001908152602001600020548152602001908152602001600020600182039080600181540180825580915050906001820390600052602060002001600090919290919091505550505b6009818154811061338557fe5b906000526020600020906007020160030160009054906101000a900460ff16613a4c57600981815481106133b557fe5b906000526020600020906007020160040154821461343b576040517f08c379a00000000000000000000000000000000000000000000000000000000081526004018080602001828103825260158152602001807f496e636f72726563742066756e64732073656e742e000000000000000000000081525060200191505060405180910390fd5b60006001600760405180608001604052808681526020016003600481111561345f57fe5b8152602001858152602001600660003373ffffffffffffffffffffffffffffffffffffffff1673ffffffffffffffffffffffffffffffffffffffff16815260200190815260200160002054815250908060018154018082558091505090600182039060005260206000209060040201600090919290919091506000820151816000015560208201518160010160006101000a81548160ff0219169083600481111561350657fe5b0217905550604082015181600201556060820151816003015550500390506009828154811061353157fe5b906000526020600020906007020160020181908060018154018082558091505090600182039060005260206000200160009091929091909150555060086000600660003373ffffffffffffffffffffffffffffffffffffffff1673ffffffffffffffffffffffffffffffffffffffff16815260200190815260200160002054815260200190815260200160002081908060018154018082558091505090600182039060005260206000200160009091929091909150555082600e60009054906101000a900473ffffffffffffffffffffffffffffffffffffffff1673ffffffffffffffffffffffffffffffffffffffff1663dd62ed3e33306040518363ffffffff1660e01b8152600401808373ffffffffffffffffffffffffffffffffffffffff1673ffffffffffffffffffffffffffffffffffffffff1681526020018273ffffffffffffffffffffffffffffffffffffffff1673ffffffffffffffffffffffffffffffffffffffff1681526020019250505060206040518083038186803b1580156136bc57600080fd5b505afa1580156136d0573d6000803e3d6000fd5b505050506040513d60208110156136e657600080fd5b8101908080519060200190929190505050101561376b576040517f08c379a000000000000000000000000000000000000000000000000000000000815260040180806020018281038252601b8152602001807f496e73756666696369656e742066756e6420616c6c6f77616e6365000000000081525060200191505060405180910390fd5b600060056009848154811061377c57fe5b9060005260206000209060070201600001548154811061379857fe5b906000526020600020906002020160000160009054906101000a900473ffffffffffffffffffffffffffffffffffffffff169050600e60009054906101000a900473ffffffffffffffffffffffffffffffffffffffff1673ffffffffffffffffffffffffffffffffffffffff166323b872dd3383876040518463ffffffff1660e01b8152600401808473ffffffffffffffffffffffffffffffffffffffff1673ffffffffffffffffffffffffffffffffffffffff1681526020018373ffffffffffffffffffffffffffffffffffffffff1673ffffffffffffffffffffffffffffffffffffffff1681526020018281526020019350505050602060405180830381600087803b1580156138a957600080fd5b505af11580156138bd573d6000803e3d6000fd5b505050506040513d60208110156138d357600080fd5b8101908080519060200190929190505050506000600b60405180606001604052806007868154811061390157fe5b906000526020600020906004020160030154815260200186815260200185815250908060018154018082558091505090600182039060005260206000209060030201600090919290919091506000820151816000015560208201518160010155604082015181600201555050905080600c60006007868154811061398157fe5b906000526020600020906004020160030154815260200190815260200160002081905550600d6000858152602001908152602001600020819080600181540180825580915050906001820390600052602060002001600090919290919091505550613a486005600785815481106139f457fe5b90600052602060002090600402016003015481548110613a1057fe5b906000526020600020906002020160000160009054906101000a900473ffffffffffffffffffffffffffffffffffffffff1682613fc2565b5050505b5050565b613a5b8484846116d0565b613a67848484846141e8565b613abc576040517f08c379a00000000000000000000000000000000000000000000000000000000081526004018080602001828103825260328152602001806146c46032913960400191505060405180910390fd5b50505050565b600b8181548110613acf57fe5b90600052602060002090600302016000915090508060000154908060010154908060020154905083565b600d6020528160005260406000208181548110613b1257fe5b90600052602060002001600091509150505481565b60086020528160005260406000208181548110613b4057fe5b90600052602060002001600091509150505481565b6000600460008473ffffffffffffffffffffffffffffffffffffffff1673ffffffffffffffffffffffffffffffffffffffff16815260200190815260200160002060008373ffffffffffffffffffffffffffffffffffffffff1673ffffffffffffffffffffffffffffffffffffffff16815260200190815260200160002060009054906101000a900460ff16905092915050565b60066020528060005260406000206000915090505481565b6000806001600084815260200190815260200160002060009054906101000a900473ffffffffffffffffffffffffffffffffffffffff169050600073ffffffffffffffffffffffffffffffffffffffff168173ffffffffffffffffffffffffffffffffffffffff161415915050919050565b6000613c7e82613c01565b613cd3576040517f08c379a000000000000000000000000000000000000000000000000000000000815260040180806020018281038252602c81526020018061473b602c913960400191505060405180910390fd5b6000613cde83612085565b90508073ffffffffffffffffffffffffffffffffffffffff168473ffffffffffffffffffffffffffffffffffffffff161480613d4d57508373ffffffffffffffffffffffffffffffffffffffff16613d35846110f4565b73ffffffffffffffffffffffffffffffffffffffff16145b80613d5e5750613d5d8185613b55565b5b91505092915050565b8273ffffffffffffffffffffffffffffffffffffffff16613d8782612085565b73ffffffffffffffffffffffffffffffffffffffff1614613df3576040517f08c379a000000000000000000000000000000000000000000000000000000000815260040180806020018281038252602981526020018061481e6029913960400191505060405180910390fd5b600073ffffffffffffffffffffffffffffffffffffffff168273ffffffffffffffffffffffffffffffffffffffff161415613e79576040517f08c379a00000000000000000000000000000000000000000000000000000000081526004018080602001828103825260248152602001806147176024913960400191505060405180910390fd5b613e82816143d1565b613ec9600360008573ffffffffffffffffffffffffffffffffffffffff1673ffffffffffffffffffffffffffffffffffffffff16815260200190815260200160002061448f565b613f10600360008473ffffffffffffffffffffffffffffffffffffffff1673ffffffffffffffffffffffffffffffffffffffff1681526020019081526020016000206144b2565b816001600083815260200190815260200160002060006101000a81548173ffffffffffffffffffffffffffffffffffffffff021916908373ffffffffffffffffffffffffffffffffffffffff160217905550808273ffffffffffffffffffffffffffffffffffffffff168473ffffffffffffffffffffffffffffffffffffffff167fddf252ad1be2c89b69c2b068fc378daa952ba7f163c4a11628f55a4df523b3ef60405160405180910390a4505050565b600073ffffffffffffffffffffffffffffffffffffffff168273ffffffffffffffffffffffffffffffffffffffff161415614065576040517f08c379a00000000000000000000000000000000000000000000000000000000081526004018080602001828103825260208152602001807f4552433732313a206d696e7420746f20746865207a65726f206164647265737381525060200191505060405180910390fd5b61406e81613c01565b156140e1576040517f08c379a000000000000000000000000000000000000000000000000000000000815260040180806020018281038252601c8152602001807f4552433732313a20746f6b656e20616c7265616479206d696e7465640000000081525060200191505060405180910390fd5b816001600083815260200190815260200160002060006101000a81548173ffffffffffffffffffffffffffffffffffffffff021916908373ffffffffffffffffffffffffffffffffffffffff16021790555061417a600360008473ffffffffffffffffffffffffffffffffffffffff1673ffffffffffffffffffffffffffffffffffffffff1681526020019081526020016000206144b2565b808273ffffffffffffffffffffffffffffffffffffffff16600073ffffffffffffffffffffffffffffffffffffffff167fddf252ad1be2c89b69c2b068fc378daa952ba7f163c4a11628f55a4df523b3ef60405160405180910390a45050565b600081600001549050919050565b60006142098473ffffffffffffffffffffffffffffffffffffffff166144c8565b61421657600190506143c9565b60008473ffffffffffffffffffffffffffffffffffffffff1663150b7a02338887876040518563ffffffff1660e01b8152600401808573ffffffffffffffffffffffffffffffffffffffff1673ffffffffffffffffffffffffffffffffffffffff1681526020018473ffffffffffffffffffffffffffffffffffffffff1673ffffffffffffffffffffffffffffffffffffffff16815260200183815260200180602001828103825283818151815260200191508051906020019080838360005b838110156142f15780820151818401526020810190506142d6565b50505050905090810190601f16801561431e5780820380516001836020036101000a031916815260200191505b5095505050505050602060405180830381600087803b15801561434057600080fd5b505af1158015614354573d6000803e3d6000fd5b505050506040513d602081101561436a57600080fd5b8101908080519060200190929190505050905063150b7a0260e01b7bffffffffffffffffffffffffffffffffffffffffffffffffffffffff1916817bffffffffffffffffffffffffffffffffffffffffffffffffffffffff1916149150505b949350505050565b600073ffffffffffffffffffffffffffffffffffffffff166002600083815260200190815260200160002060009054906101000a900473ffffffffffffffffffffffffffffffffffffffff1673ffffffffffffffffffffffffffffffffffffffff161461448c5760006002600083815260200190815260200160002060006101000a81548173ffffffffffffffffffffffffffffffffffffffff021916908373ffffffffffffffffffffffffffffffffffffffff1602179055505b50565b6144a7600182600001546144db90919063ffffffff16565b816000018190555050565b6001816000016000828254019250508190555050565b600080823b905060008111915050919050565b600082821115614553576040517f08c379a000000000000000000000000000000000000000000000000000000000815260040180806020018281038252601e8152602001807f536166654d6174683a207375627472616374696f6e206f766572666c6f77000081525060200191505060405180910390fd5b600082840390508091505092915050565b6040518061010001604052806000815260200160608152602001606081526020016000151581526020016000151581526020016000815260200160608152602001606081525090565b828054600181600116156101000203166002900490600052602060002090601f016020900481019282601f106145ee57805160ff191683800117855561461c565b8280016001018555821561461c579182015b8281111561461b578251825591602001919060010190614600565b5b509050614629919061467a565b5090565b828054828255906000526020600020908101928215614669579160200282015b8281111561466857825182559160200191906001019061464d565b5b509050614676919061467a565b5090565b61469c91905b80821115614698576000816000905550600101614680565b5090565b9056fe5075626c69636174696f6e205552492073686f756c64206e6f7420626520656d7074792e4552433732313a207472616e7366657220746f206e6f6e20455243373231526563656976657220696d706c656d656e7465724269646465722061646472657373206973206e6f7420726567697374657265642e4552433732313a207472616e7366657220746f20746865207a65726f20616464726573734552433732313a206f70657261746f7220717565727920666f72206e6f6e6578697374656e7420746f6b656e4552433732313a20617070726f76652063616c6c6572206973206e6f74206f776e6572206e6f7220617070726f76656420666f7220616c6c4552433732313a2062616c616e636520717565727920666f7220746865207a65726f20616464726573734552433732313a206f776e657220717565727920666f72206e6f6e6578697374656e7420746f6b656e4552433732313a20617070726f76656420717565727920666f72206e6f6e6578697374656e7420746f6b656e4552433732313a207472616e73666572206f6620746f6b656e2074686174206973206e6f74206f776e53686f756c64206e6f7420737065636966792073656c6c20707269636520666f722061756374696f6e2e4552433732313a20617070726f76616c20746f2063757272656e74206f776e657255736572206e6f742074686520617574686f72206f662074686973207075626c69636174696f6e4552433732313a207472616e736665722063616c6c6572206973206e6f74206f776e6572206e6f7220617070726f7665645075626c69636174696f6e20697320616c7265616479206f6e2061756374696f6ea165627a7a7230582035b098c75a328dbd19425e875d8e259300e5f4f5fbfc993b5aa7c314980b28e80029",
  "source": "pragma solidity^0.5.0;\r\n\r\n/// @title UniCoin smart contract\r\n/// @author Chris Maree, Helda Mandlate, Luke Meiklejohn \r\n\r\n/// @dev import contracts from openzeppelin related to ownable and ERC20, ERC721 tokens\r\nimport \"openzeppelin-solidity/contracts/ownership/Ownable.sol\";\r\nimport \"openzeppelin-solidity/contracts/token/ERC20/ERC20.sol\";\r\nimport \"openzeppelin-solidity/contracts/token/ERC721/ERC721.sol\";\r\n\r\n/// @notice contract begins here\r\ncontract UnicoinRegistry is ERC721 {\r\n    /// @notice Creates a struct for users of the plaform, needs their Ethereum address and profile URL\r\n    struct User {\r\n        address owned_address;\r\n        string profile_uri;\r\n    }\r\n    /// @notice Creates an array of users that a registered\r\n    User[] public users;\r\n\r\n    /// @notice The mapping below maps all users' addresses to their userID\r\n    mapping (address => uint256) public userAddresses ;\r\n\r\n    /// @param Creates user defined type\r\n    enum bidStatus {Pending, Accepted, Rejected, Sale, Cancelled}\r\n\r\n    /// @notice Creates a struct for all bids, takes in the offer (amount of the bid), one of the enum parameters, publication Id and owner Id\r\n    struct Bid {\r\n        uint256 offer;\r\n        bidStatus status;\r\n        uint256 publication_Id;\r\n        uint256 owner_Id; /// @dev owner of the bid\r\n    }\r\n    /// @notice Creates an array of bids that have been placed\r\n    Bid[] public bids;\r\n\r\n    /// @notice The mapping below maps all bidders' IDs to their userID\r\n    mapping(uint256 => uint256[]) public bidOwners;\r\n\r\n    /// @notice Creates a struct for all publications\r\n    struct Publication {\r\n        uint256 author_Id;\r\n        string publication_uri;\r\n        /// @dev The array below will contain all bids received for that work.\r\n        uint256[] publication_bids;\r\n        /// @dev If the researcher has chosen the auction pricing structure, the below is TRUE.\r\n        bool isAuction;\r\n        /// @dev If the auction is still running, the below is TRUE, because the researcher can choose to stop the auction at any point.\r\n        bool isRunning;\r\n        /// @dev If both of the booleans above are FALSE, the price below is the flat sale price of the work.\r\n        uint256 sell_price;\r\n        /// @dev The value of the publication\r\n        uint256[] contributors;\r\n        /// @dev The co-authors/ contributors of the publication\r\n        uint256[] contributors_weightings;\r\n        /// @dev The contributor's respective weighting contributions\r\n    }\r\n    /// @notice Creates an array of publications for every published document\r\n    Publication[] public publications;\r\n    \r\n    /// @notice The mapping below will map the addresses of all the successful bidders' addresses to the ID of their owned publications\r\n    mapping(uint256 => uint256[]) public publicationOwners;\r\n    \r\n    /// @notice Creates a struct for licencing\r\n    struct LicenceDesign {\r\n        uint256 buyer_Id;\r\n        /// @dev Id of each publication's buyer\r\n        uint256 Publication_Id;\r\n        /// @dev Id of the publication being bought\r\n        uint256 bid_Id;\r\n        /// @dev The bid's Id for the publication\r\n    }\r\n    /// @notice Creates an array of purchased licences\r\n    LicenceDesign[] public licences;\r\n    /// @notice Mapping of licence Id to get the licence owners\r\n    mapping(uint256 => uint256) public licenceOwners;\r\n    /// @notice Mapping of licence Id to get the publication Id\r\n    mapping(uint256 => uint256[]) public publicationLicences;\r\n\r\n    /// @dev ERC20 is now daiContract\r\n    ERC20 daiContract;\r\n    /// @dev The constructor below reserves user 0 for all unregistered users\r\n    constructor(address _daiContractAddress) public ERC721(){\r\n        users.push(User(address(0),\"\"));\r\n        daiContract = ERC20(_daiContractAddress);\r\n    }\r\n\r\n    /// @notice This function registers a user on the platform by taking in their profile URL\r\n    function registerUser(string memory _profile_uri) public {\r\n        require(bytes(_profile_uri).length > 0, \"Profile URI should not be empty.\");\r\n        /// @dev If the user's address is in position 0 of the userAddresses array, they are unregistered\r\n        require(userAddresses[msg.sender]==0,\"User already registered.\");\r\n        /// @dev Create an instance of the user and add the Id to their address\r\n        uint256 id = users.push(User(msg.sender,_profile_uri));\r\n        userAddresses[msg.sender] = id - 1;\r\n    }\r\n\r\n    /// @notice This function creates a publication on the system, with blank arrays for publication bids and owners,\r\n    /// @notice since no one has bidded for or bought a licence yet\r\n    function createPublication(string memory _publication_uri, bool _isAuction, bool _isRunning, uint256 _sell_price, uint256[] memory _contributors, uint256[] memory _contributors_weightings) public {\r\n        require(bytes(_publication_uri).length > 0, \"Publication URI should not be empty.\");\r\n        require(userAddresses[msg.sender] != 0, \"User address is not registered.\");\r\n        /// @dev The researcher only specifies the flat rate if they have chosen not to auction the work\r\n        if(_isAuction) {\r\n            require(_sell_price == 0, \"Should not specify sell price for auction.\");\r\n        }\r\n        else {\r\n            require(_sell_price > 0, \"Sell price not specified.\");\r\n        }\r\n        /// @dev Add instance to the respective arrays\r\n        uint256 _author_Id = userAddresses[msg.sender];\r\n        uint256[] memory _publication_bids;\r\n        Publication memory _publication = Publication(_author_Id, _publication_uri, _publication_bids, _isAuction, _isRunning, _sell_price, _contributors, _contributors_weightings);\r\n        uint256 _id = publications.push(_publication);\r\n        publicationOwners[_author_Id].push(_id - 1);\r\n    }\r\n\r\n    /// @notice This function creates a new bid for a particular publication\r\n    function makeBid(uint256 _offer, uint256 _publication_Id) public {\r\n        require(publications[_publication_Id].author_Id != 0, \"Publication not enlisted.\");\r\n        require(userAddresses[msg.sender] != 0, \"Bidder address is not registered.\");\r\n        /// @dev The bidder should only be able to submit a bid if the publication's pricing structure is an auction and the auction is running\r\n        if(publications[_publication_Id].isAuction) {\r\n            require(publications[_publication_Id].isRunning, \"Auction is not running.\");\r\n            /// @dev By default the bid will have a status of Pending until it is accepted or rejected by the author\r\n            uint256 _id = bids.push(Bid(_offer, bidStatus.Pending, _publication_Id, userAddresses[msg.sender]));\r\n            publications[_publication_Id].publication_bids.push(_id - 1);\r\n            bidOwners[userAddresses[msg.sender]].push(_id - 1);\r\n        }\r\n        /// @dev If the author has specified a flat rate, the buyer doesn't submit a bid but just sends the funds.\r\n        if(!publications[_publication_Id].isAuction) {\r\n            /// @dev The funds sent should match the sale price specified by the author.\r\n            require(_offer == publications[_publication_Id].sell_price, \"Incorrect funds sent.\");\r\n            /// @dev This 'bid' has a status of sale because the author does not need to evaluate and accept/reject these bids.\r\n            uint256 _id = bids.push(Bid(_offer, bidStatus.Sale, _publication_Id, userAddresses[msg.sender])) - 1;\r\n            publications[_publication_Id].publication_bids.push(_id);\r\n            bidOwners[userAddresses[msg.sender]].push(_id);\r\n\r\n            /// @dev Transfer Dai from buyer to seller\r\n            require(daiContract.allowance(msg.sender, address(this)) >= _offer, \"Insufficient fund allowance\");\r\n            address publisherAddress = users[publications[_publication_Id].author_Id].owned_address;\r\n            daiContract.transferFrom(msg.sender, publisherAddress, _offer);\r\n\r\n            /// @dev parameters of licence design: buyer_id, publication id, bid_id\r\n            uint256 _licence_Id = licences.push(LicenceDesign(bids[_id].owner_Id, _publication_Id, _id));\r\n            licenceOwners[bids[_id].owner_Id] = _licence_Id;\r\n            publicationLicences[_publication_Id].push(_licence_Id);\r\n            _mint(users[bids[_id].owner_Id].owned_address, _licence_Id);\r\n        }\r\n    }\r\n        \r\n    /// @notice This function allows the auctioneer to accept the bids\r\n    function acceptBid(uint256 _id) public {\r\n        uint256 _publication_Id = bids[_id].publication_Id;\r\n        require(userAddresses[msg.sender] == publications[_publication_Id].author_Id, \"User not the author of this publication\");\r\n        require(publications[_publication_Id].isAuction, \"Publication not an auction.\");\r\n        require(publications[_publication_Id].isRunning, \"Auction is not running.\");\r\n        bids[_id].status = bidStatus.Accepted;\r\n        \r\n        /// @dev parameters of licence design: buyer_id, publication id, bid_id\r\n        uint256 _licence_Id = licences.push(LicenceDesign(bids[_id].owner_Id, _publication_Id, _id));\r\n        licenceOwners[bids[_id].owner_Id] = _licence_Id;\r\n        publicationLicences[_publication_Id].push(_licence_Id);\r\n        _mint(users[bids[_id].owner_Id].owned_address, _licence_Id);\r\n    }\r\n\r\n    /// @notice This function allows the auctioneer to reject the bids\r\n    function rejectBid(uint256 _id) public {\r\n        uint256 _publication_Id = bids[_id].publication_Id;\r\n        require(userAddresses[msg.sender] == publications[_publication_Id].author_Id, \"User not the author of this publication\");\r\n        require(publications[_publication_Id].isAuction, \"Publication not an auction.\");\r\n        require(publications[_publication_Id].isRunning, \"Auction not running.\");\r\n        bids[_id].status = bidStatus.Rejected;\r\n    }\r\n\r\n    /// @notice This function allows the auctioneer to cancel the bids\r\n    function cancelBid(uint256 _id) public {\r\n        uint256 _publication_Id = bids[_id].publication_Id;\r\n        require(userAddresses[msg.sender] == publications[_publication_Id].author_Id, \"User not the author of this publication\");\r\n        require(publications[_publication_Id].isAuction, \"Publication not an auction.\");\r\n        require(publications[_publication_Id].isRunning, \"Auction not running.\");\r\n        bids[_id].status = bidStatus.Cancelled;\r\n    }\r\n    \r\n    /// @notice This function allows the auctioneer to change from an auction to a sale\r\n    function changeToSale(uint256 _publication_Id, uint256 _sell_price) public {\r\n        require(userAddresses[msg.sender] == publications[_publication_Id].author_Id, \"User not the author of this publication\");\r\n        require(publications[_publication_Id].isAuction, \"Publication is not an auction\");\r\n        publications[_publication_Id].sell_price = _sell_price;\r\n        publications[_publication_Id].isAuction = false;\r\n    }\r\n\r\n    /// @notice This function allows the auctioneer to change from a sale to an auction\r\n    function changeToAuction(uint256 _publication_Id) public {\r\n        require(userAddresses[msg.sender] == publications[_publication_Id].author_Id, \"User not the author of this publication\");\r\n        require(!publications[_publication_Id].isAuction, \"Publication is already on auction\");\r\n        publications[_publication_Id].sell_price = 0;\r\n        publications[_publication_Id].isAuction = true;\r\n    }\r\n\r\n    /// @notice This function allows the auctioneer to change the sell price\r\n    function changeSellPrice(uint256 _publication_Id, uint256 _sell_price) public {\r\n        require(userAddresses[msg.sender] == publications[_publication_Id].author_Id, \"User not the author of this publication\");\r\n        require(!publications[_publication_Id].isAuction, \"Publication is on auction.\");\r\n        publications[_publication_Id].sell_price = _sell_price;\r\n    }\r\n    /// @notice This function allows the auctioneer to change the running status\r\n    function changeRunningStatus(uint256 _publication_Id) public {\r\n        require(userAddresses[msg.sender] == publications[_publication_Id].author_Id, \"User not the author of this publication\");\r\n        publications[_publication_Id].isRunning = !publications[_publication_Id].isRunning;\r\n    }\r\n\r\n    /// @return This function allows anyone to get the list of publications based on the address of the publisher\r\n    function getPublications(address _address) public view returns(uint256[] memory) {\r\n        uint256 _author_Id = userAddresses[_address];\r\n        return publicationOwners[_author_Id];\r\n    }\r\n\r\n    /// @return This function allows anyone to get the list of bids based on address of the user\r\n    function getBids(address _address) public view returns(uint256[] memory) {\r\n        uint256 _userAddress = userAddresses[_address];\r\n        return bidOwners[_userAddress];\r\n    }\r\n\r\n    // From the user ID, get a list of all publications owned by the user ()\r\n    // function getPublications(uint256 _user_Id) public view returns(uint256[] memory) {\r\n    //     return publicationOwners[_user_Id];\r\n    // }\r\n\r\n    // function getBids(uint256 _user_Id) public view returns(uint256[] memory) {\r\n    //     return bidOwners[_user_Id];\r\n    // }\r\n\r\n    /// @return This function allows anyone to get list of bids per publication\r\n    function getPublicationBids(uint256 _publication_Id) public view returns(uint256[] memory) {\r\n        return publications[_publication_Id].publication_bids;\r\n    }\r\n\r\n\r\n    /// @return This function allows the return of the total number of publications\r\n    function getPublicationLength() public view returns(uint count) {\r\n        return publications.length;\r\n    }\r\n    \r\n}",
  "sourcePath": "D:/unicoindapp/contracts/UnicoinRegistry.sol",
  "compiler": {
    "name": "solc",
    "version": "0.5.8+commit.23d335f2.Emscripten.clang"
  },
  "schemaVersion": "3.0.11",
  "updatedAt": "2019-07-19T07:30:41.459Z",
  "devdoc": {
    "methods": {
      "approve(address,uint256)": {
        "details": "Approves another address to transfer the given token ID The zero address indicates there is no approved address. There can only be one approved address per token at a given time. Can only be called by the token owner or an approved operator.",
        "params": {
          "to": "address to be approved for the given token ID",
          "tokenId": "uint256 ID of the token to be approved"
        }
      },
      "balanceOf(address)": {
        "details": "Gets the balance of the specified address.",
        "params": {
          "owner": "address to query the balance of"
        },
        "return": "uint256 representing the amount owned by the passed address"
      },
      "constructor": {
        "details": "The constructor below reserves user 0 for all unregistered users"
      },
      "getApproved(uint256)": {
        "details": "Gets the approved address for a token ID, or zero if no address set Reverts if the token ID does not exist.",
        "params": {
          "tokenId": "uint256 ID of the token to query the approval of"
        },
        "return": "address currently approved for the given token ID"
      },
      "getBids(address)": {
        "return": "This function allows anyone to get the list of bids based on address of the user"
      },
      "getPublicationBids(uint256)": {
        "return": "This function allows anyone to get list of bids per publication"
      },
      "getPublicationLength()": {
        "return": "This function allows the return of the total number of publications"
      },
      "getPublications(address)": {
        "return": "This function allows anyone to get the list of publications based on the address of the publisher"
      },
      "isApprovedForAll(address,address)": {
        "details": "Tells whether an operator is approved by a given owner.",
        "params": {
          "operator": "operator address which you want to query the approval of",
          "owner": "owner address which you want to query the approval of"
        },
        "return": "bool whether the given operator is approved by the given owner"
      },
      "ownerOf(uint256)": {
        "details": "Gets the owner of the specified token ID.",
        "params": {
          "tokenId": "uint256 ID of the token to query the owner of"
        },
        "return": "address currently marked as the owner of the given token ID"
      },
      "safeTransferFrom(address,address,uint256)": {
        "details": "Safely transfers the ownership of a given token ID to another address If the target address is a contract, it must implement `onERC721Received`, which is called upon a safe transfer, and return the magic value `bytes4(keccak256(\"onERC721Received(address,address,uint256,bytes)\"))`; otherwise, the transfer is reverted. Requires the msg.sender to be the owner, approved, or operator",
        "params": {
          "from": "current owner of the token",
          "to": "address to receive the ownership of the given token ID",
          "tokenId": "uint256 ID of the token to be transferred"
        }
      },
      "safeTransferFrom(address,address,uint256,bytes)": {
        "details": "Safely transfers the ownership of a given token ID to another address If the target address is a contract, it must implement `onERC721Received`, which is called upon a safe transfer, and return the magic value `bytes4(keccak256(\"onERC721Received(address,address,uint256,bytes)\"))`; otherwise, the transfer is reverted. Requires the msg.sender to be the owner, approved, or operator",
        "params": {
          "_data": "bytes data to send along with a safe transfer check",
          "from": "current owner of the token",
          "to": "address to receive the ownership of the given token ID",
          "tokenId": "uint256 ID of the token to be transferred"
        }
      },
      "setApprovalForAll(address,bool)": {
        "details": "Sets or unsets the approval of a given operator An operator is allowed to transfer all tokens of the sender on their behalf.",
        "params": {
          "approved": "representing the status of the approval to be set",
          "to": "operator address to set the approval"
        }
      },
      "supportsInterface(bytes4)": {
        "details": "See `IERC165.supportsInterface`.     * Time complexity O(1), guaranteed to always use less than 30 000 gas."
      },
      "transferFrom(address,address,uint256)": {
        "details": "Transfers the ownership of a given token ID to another address. Usage of this method is discouraged, use `safeTransferFrom` whenever possible. Requires the msg.sender to be the owner, approved, or operator.",
        "params": {
          "from": "current owner of the token",
          "to": "address to receive the ownership of the given token ID",
          "tokenId": "uint256 ID of the token to be transferred"
        }
      }
    }
  },
  "userdoc": {
    "methods": {
      "acceptBid(uint256)": {
        "notice": "This function allows the auctioneer to accept the bids"
      },
      "cancelBid(uint256)": {
        "notice": "This function allows the auctioneer to cancel the bids"
      },
      "changeRunningStatus(uint256)": {
        "notice": "This function allows the auctioneer to change the running status"
      },
      "changeSellPrice(uint256,uint256)": {
        "notice": "This function allows the auctioneer to change the sell price"
      },
      "changeToAuction(uint256)": {
        "notice": "This function allows the auctioneer to change from a sale to an auction"
      },
      "changeToSale(uint256,uint256)": {
        "notice": "This function allows the auctioneer to change from an auction to a sale"
      },
      "createPublication(string,bool,bool,uint256,uint256[],uint256[])": {
        "notice": "since no one has bidded for or bought a licence yet"
      },
      "makeBid(uint256,uint256)": {
        "notice": "This function creates a new bid for a particular publication"
      },
      "registerUser(string)": {
        "notice": "This function registers a user on the platform by taking in their profile URL"
      },
      "rejectBid(uint256)": {
        "notice": "This function allows the auctioneer to reject the bids"
      }
    },
    "notice": "contract begins here"
  }
}