{
  "contractName": "UnicoinRegistry",
  "abi": [
    {
      "constant": true,
      "inputs": [
        {
          "name": "interfaceId",
          "type": "bytes4"
        }
      ],
      "name": "supportsInterface",
      "outputs": [
        {
          "name": "",
          "type": "bool"
        }
      ],
      "payable": false,
      "stateMutability": "view",
      "type": "function"
    },
    {
      "constant": true,
      "inputs": [
        {
          "name": "tokenId",
          "type": "uint256"
        }
      ],
      "name": "getApproved",
      "outputs": [
        {
          "name": "",
          "type": "address"
        }
      ],
      "payable": false,
      "stateMutability": "view",
      "type": "function"
    },
    {
      "constant": false,
      "inputs": [
        {
          "name": "to",
          "type": "address"
        },
        {
          "name": "tokenId",
          "type": "uint256"
        }
      ],
      "name": "approve",
      "outputs": [],
      "payable": false,
      "stateMutability": "nonpayable",
      "type": "function"
    },
    {
      "constant": true,
      "inputs": [
        {
          "name": "",
          "type": "uint256"
        },
        {
          "name": "",
          "type": "uint256"
        }
      ],
      "name": "publicationOwners",
      "outputs": [
        {
          "name": "",
          "type": "uint256"
        }
      ],
      "payable": false,
      "stateMutability": "view",
      "type": "function"
    },
    {
      "constant": true,
      "inputs": [
        {
          "name": "",
          "type": "uint256"
        }
      ],
      "name": "publications",
      "outputs": [
        {
          "name": "author_Id",
          "type": "uint256"
        },
        {
          "name": "publication_uri",
          "type": "string"
        },
        {
          "name": "isAuction",
          "type": "bool"
        },
        {
          "name": "isRunning",
          "type": "bool"
        },
        {
          "name": "sell_price",
          "type": "uint256"
        }
      ],
      "payable": false,
      "stateMutability": "view",
      "type": "function"
    },
    {
      "constant": false,
      "inputs": [
        {
          "name": "from",
          "type": "address"
        },
        {
          "name": "to",
          "type": "address"
        },
        {
          "name": "tokenId",
          "type": "uint256"
        }
      ],
      "name": "transferFrom",
      "outputs": [],
      "payable": false,
      "stateMutability": "nonpayable",
      "type": "function"
    },
    {
      "constant": true,
      "inputs": [
        {
          "name": "",
          "type": "uint256"
        }
      ],
      "name": "users",
      "outputs": [
        {
          "name": "owned_address",
          "type": "address"
        },
        {
          "name": "profile_uri",
          "type": "string"
        }
      ],
      "payable": false,
      "stateMutability": "view",
      "type": "function"
    },
    {
      "constant": false,
      "inputs": [
        {
          "name": "from",
          "type": "address"
        },
        {
          "name": "to",
          "type": "address"
        },
        {
          "name": "tokenId",
          "type": "uint256"
        }
      ],
      "name": "safeTransferFrom",
      "outputs": [],
      "payable": false,
      "stateMutability": "nonpayable",
      "type": "function"
    },
    {
      "constant": true,
      "inputs": [
        {
          "name": "",
          "type": "uint256"
        }
      ],
      "name": "bids",
      "outputs": [
        {
          "name": "offer",
          "type": "uint256"
        },
        {
          "name": "status",
          "type": "uint8"
        },
        {
          "name": "publication_Id",
          "type": "uint256"
        },
        {
          "name": "owner_Id",
          "type": "uint256"
        }
      ],
      "payable": false,
      "stateMutability": "view",
      "type": "function"
    },
    {
      "constant": true,
      "inputs": [
        {
          "name": "tokenId",
          "type": "uint256"
        }
      ],
      "name": "ownerOf",
      "outputs": [
        {
          "name": "",
          "type": "address"
        }
      ],
      "payable": false,
      "stateMutability": "view",
      "type": "function"
    },
    {
      "constant": true,
      "inputs": [
        {
          "name": "",
          "type": "uint256"
        }
      ],
      "name": "licenceOwners",
      "outputs": [
        {
          "name": "",
          "type": "uint256"
        }
      ],
      "payable": false,
      "stateMutability": "view",
      "type": "function"
    },
    {
      "constant": true,
      "inputs": [
        {
          "name": "owner",
          "type": "address"
        }
      ],
      "name": "balanceOf",
      "outputs": [
        {
          "name": "",
          "type": "uint256"
        }
      ],
      "payable": false,
      "stateMutability": "view",
      "type": "function"
    },
    {
      "constant": false,
      "inputs": [
        {
          "name": "to",
          "type": "address"
        },
        {
          "name": "approved",
          "type": "bool"
        }
      ],
      "name": "setApprovalForAll",
      "outputs": [],
      "payable": false,
      "stateMutability": "nonpayable",
      "type": "function"
    },
    {
      "constant": false,
      "inputs": [
        {
          "name": "from",
          "type": "address"
        },
        {
          "name": "to",
          "type": "address"
        },
        {
          "name": "tokenId",
          "type": "uint256"
        },
        {
          "name": "_data",
          "type": "bytes"
        }
      ],
      "name": "safeTransferFrom",
      "outputs": [],
      "payable": false,
      "stateMutability": "nonpayable",
      "type": "function"
    },
    {
      "constant": true,
      "inputs": [
        {
          "name": "",
          "type": "uint256"
        }
      ],
      "name": "licences",
      "outputs": [
        {
          "name": "buyer_Id",
          "type": "uint256"
        },
        {
          "name": "Publication_Id",
          "type": "uint256"
        },
        {
          "name": "bid_Id",
          "type": "uint256"
        }
      ],
      "payable": false,
      "stateMutability": "view",
      "type": "function"
    },
    {
      "constant": true,
      "inputs": [
        {
          "name": "",
          "type": "uint256"
        },
        {
          "name": "",
          "type": "uint256"
        }
      ],
      "name": "publicationLicences",
      "outputs": [
        {
          "name": "",
          "type": "uint256"
        }
      ],
      "payable": false,
      "stateMutability": "view",
      "type": "function"
    },
    {
      "constant": true,
      "inputs": [
        {
          "name": "",
          "type": "uint256"
        },
        {
          "name": "",
          "type": "uint256"
        }
      ],
      "name": "bidOwners",
      "outputs": [
        {
          "name": "",
          "type": "uint256"
        }
      ],
      "payable": false,
      "stateMutability": "view",
      "type": "function"
    },
    {
      "constant": true,
      "inputs": [
        {
          "name": "owner",
          "type": "address"
        },
        {
          "name": "operator",
          "type": "address"
        }
      ],
      "name": "isApprovedForAll",
      "outputs": [
        {
          "name": "",
          "type": "bool"
        }
      ],
      "payable": false,
      "stateMutability": "view",
      "type": "function"
    },
    {
      "constant": true,
      "inputs": [
        {
          "name": "",
          "type": "address"
        }
      ],
      "name": "userAddresses",
      "outputs": [
        {
          "name": "",
          "type": "uint256"
        }
      ],
      "payable": false,
      "stateMutability": "view",
      "type": "function"
    },
    {
      "inputs": [
        {
          "name": "_daiContractAddress",
          "type": "address"
        }
      ],
      "payable": false,
      "stateMutability": "nonpayable",
      "type": "constructor"
    },
    {
      "anonymous": false,
      "inputs": [
        {
          "indexed": true,
          "name": "from",
          "type": "address"
        },
        {
          "indexed": true,
          "name": "to",
          "type": "address"
        },
        {
          "indexed": true,
          "name": "tokenId",
          "type": "uint256"
        }
      ],
      "name": "Transfer",
      "type": "event"
    },
    {
      "anonymous": false,
      "inputs": [
        {
          "indexed": true,
          "name": "owner",
          "type": "address"
        },
        {
          "indexed": true,
          "name": "approved",
          "type": "address"
        },
        {
          "indexed": true,
          "name": "tokenId",
          "type": "uint256"
        }
      ],
      "name": "Approval",
      "type": "event"
    },
    {
      "anonymous": false,
      "inputs": [
        {
          "indexed": true,
          "name": "owner",
          "type": "address"
        },
        {
          "indexed": true,
          "name": "operator",
          "type": "address"
        },
        {
          "indexed": false,
          "name": "approved",
          "type": "bool"
        }
      ],
      "name": "ApprovalForAll",
      "type": "event"
    },
    {
      "constant": false,
      "inputs": [
        {
          "name": "_profile_uri",
          "type": "string"
        }
      ],
      "name": "registerUser",
      "outputs": [],
      "payable": false,
      "stateMutability": "nonpayable",
      "type": "function"
    },
    {
      "constant": false,
      "inputs": [
        {
          "name": "_publication_uri",
          "type": "string"
        },
        {
          "name": "_isAuction",
          "type": "bool"
        },
        {
          "name": "_isRunning",
          "type": "bool"
        },
        {
          "name": "_sell_price",
          "type": "uint256"
        },
        {
          "name": "_contributors",
          "type": "uint256[]"
        },
        {
          "name": "_contributors_weightings",
          "type": "uint256[]"
        }
      ],
      "name": "createPublication",
      "outputs": [],
      "payable": false,
      "stateMutability": "nonpayable",
      "type": "function"
    },
    {
      "constant": false,
      "inputs": [
        {
          "name": "_offer",
          "type": "uint256"
        },
        {
          "name": "_publication_Id",
          "type": "uint256"
        }
      ],
      "name": "makeBid",
      "outputs": [],
      "payable": false,
      "stateMutability": "nonpayable",
      "type": "function"
    },
    {
      "constant": false,
      "inputs": [
        {
          "name": "_id",
          "type": "uint256"
        }
      ],
      "name": "acceptBid",
      "outputs": [],
      "payable": false,
      "stateMutability": "nonpayable",
      "type": "function"
    },
    {
      "constant": false,
      "inputs": [
        {
          "name": "_id",
          "type": "uint256"
        }
      ],
      "name": "rejectBid",
      "outputs": [],
      "payable": false,
      "stateMutability": "nonpayable",
      "type": "function"
    },
    {
      "constant": false,
      "inputs": [
        {
          "name": "_id",
          "type": "uint256"
        }
      ],
      "name": "cancelBid",
      "outputs": [],
      "payable": false,
      "stateMutability": "nonpayable",
      "type": "function"
    },
    {
      "constant": false,
      "inputs": [
        {
          "name": "_publication_Id",
          "type": "uint256"
        },
        {
          "name": "_sell_price",
          "type": "uint256"
        }
      ],
      "name": "changeToSale",
      "outputs": [],
      "payable": false,
      "stateMutability": "nonpayable",
      "type": "function"
    },
    {
      "constant": false,
      "inputs": [
        {
          "name": "_publication_Id",
          "type": "uint256"
        }
      ],
      "name": "changeToAuction",
      "outputs": [],
      "payable": false,
      "stateMutability": "nonpayable",
      "type": "function"
    },
    {
      "constant": false,
      "inputs": [
        {
          "name": "_publication_Id",
          "type": "uint256"
        },
        {
          "name": "_sell_price",
          "type": "uint256"
        }
      ],
      "name": "changeSellPrice",
      "outputs": [],
      "payable": false,
      "stateMutability": "nonpayable",
      "type": "function"
    },
    {
      "constant": false,
      "inputs": [
        {
          "name": "_publication_Id",
          "type": "uint256"
        }
      ],
      "name": "changeRunningStatus",
      "outputs": [],
      "payable": false,
      "stateMutability": "nonpayable",
      "type": "function"
    },
    {
      "constant": true,
      "inputs": [
        {
          "name": "_address",
          "type": "address"
        }
      ],
      "name": "getPublications",
      "outputs": [
        {
          "name": "",
          "type": "uint256[]"
        }
      ],
      "payable": false,
      "stateMutability": "view",
      "type": "function"
    },
    {
      "constant": true,
      "inputs": [
        {
          "name": "_address",
          "type": "address"
        }
      ],
      "name": "getBids",
      "outputs": [
        {
          "name": "",
          "type": "uint256[]"
        }
      ],
      "payable": false,
      "stateMutability": "view",
      "type": "function"
    },
    {
      "constant": true,
      "inputs": [
        {
          "name": "_publication_Id",
          "type": "uint256"
        }
      ],
      "name": "getPublicationBids",
      "outputs": [
        {
          "name": "",
          "type": "uint256[]"
        }
      ],
      "payable": false,
      "stateMutability": "view",
      "type": "function"
    },
    {
      "constant": true,
      "inputs": [],
      "name": "getPublicationLength",
      "outputs": [
        {
          "name": "count",
          "type": "uint256"
        }
      ],
      "payable": false,
      "stateMutability": "view",
      "type": "function"
    },
    {
      "constant": true,
      "inputs": [
        {
          "name": "_publication_Id",
          "type": "uint256"
        }
      ],
      "name": "getPublication",
      "outputs": [
        {
          "name": "",
          "type": "uint256"
        },
        {
          "name": "",
          "type": "string"
        },
        {
          "name": "",
          "type": "uint256[]"
        },
        {
          "name": "",
          "type": "bool"
        },
        {
          "name": "",
          "type": "bool"
        },
        {
          "name": "",
          "type": "uint256"
        },
        {
          "name": "",
          "type": "uint256[]"
        },
        {
          "name": "",
          "type": "uint256[]"
        }
      ],
      "payable": false,
      "stateMutability": "view",
      "type": "function"
    }
  ],
  "bytecode": "0x60806040523480156200001157600080fd5b5060405160208062004dbd833981018060405260208110156200003357600080fd5b81019080805190602001909291905050506200005c6301ffc9a760e01b6200018d60201b60201c565b620000746380ac58cd60e01b6200018d60201b60201c565b60056040518060400160405280600073ffffffffffffffffffffffffffffffffffffffff168152602001604051806020016040528060008152508152509080600181540180825580915050906001820390600052602060002090600202016000909192909190915060008201518160000160006101000a81548173ffffffffffffffffffffffffffffffffffffffff021916908373ffffffffffffffffffffffffffffffffffffffff16021790555060208201518160010190805190602001906200014192919062000296565b5050505080600e60006101000a81548173ffffffffffffffffffffffffffffffffffffffff021916908373ffffffffffffffffffffffffffffffffffffffff1602179055505062000345565b63ffffffff60e01b817bffffffffffffffffffffffffffffffffffffffffffffffffffffffff191614156200022a576040517f08c379a000000000000000000000000000000000000000000000000000000000815260040180806020018281038252601c8152602001807f4552433136353a20696e76616c696420696e746572666163652069640000000081525060200191505060405180910390fd5b6001600080837bffffffffffffffffffffffffffffffffffffffffffffffffffffffff19167bffffffffffffffffffffffffffffffffffffffffffffffffffffffff1916815260200190815260200160002060006101000a81548160ff02191690831515021790555050565b828054600181600116156101000203166002900490600052602060002090601f016020900481019282601f10620002d957805160ff19168380011785556200030a565b828001600101855582156200030a579182015b8281111562000309578251825591602001919060010190620002ec565b5b5090506200031991906200031d565b5090565b6200034291905b808211156200033e57600081600090555060010162000324565b5090565b90565b614a6880620003556000396000f3fe608060405234801561001057600080fd5b50600436106102065760003560e01c80636e3341b31161011a578063a22cb465116100ad578063bb44aee31161007c578063bb44aee31461107f578063d628d540146110cf578063dc05d9521461111b578063e985e9c514611167578063fc86dea7146111e357610206565b8063a22cb46514610d4f578063a564e83c14610d9f578063adfcdc1114610f42578063b88d4fde14610f7a57610206565b806390420aee116100e957806390420aee14610c225780639703ef3514610c5a5780639ab7a95414610c885780639dccae8214610cb657610206565b80636e3341b314610ac3578063704f1b9414610af157806370a0823114610bac5780637ece03bb14610c0457610206565b80632b1fd58a1161019d5780634423c5f11161016c5780634423c5f1146107715780635fd814a0146107d65780636352211e146109db5780636557e4a814610a49578063699b5fa114610a8b57610206565b80632b1fd58a14610578578063365b98b2146105a65780633e7646041461068057806342842e0e1461070357610206565b8063142af1ca116101d9578063142af1ca146103c5578063166c6c80146104115780631fd5bbab1461043f57806323b872dd1461050a57610206565b806301ffc9a71461020b578063081812fc1461027057806308204780146102de578063095ea7b314610377575b600080fd5b6102566004803603602081101561022157600080fd5b8101908080357bffffffffffffffffffffffffffffffffffffffffffffffffffffffff1916906020019092919050505061123b565b604051808215151515815260200191505060405180910390f35b61029c6004803603602081101561028657600080fd5b81019080803590602001909291905050506112a2565b604051808273ffffffffffffffffffffffffffffffffffffffff1673ffffffffffffffffffffffffffffffffffffffff16815260200191505060405180910390f35b610320600480360360208110156102f457600080fd5b81019080803573ffffffffffffffffffffffffffffffffffffffff16906020019092919050505061133d565b6040518080602001828103825283818151815260200191508051906020019060200280838360005b83811015610363578082015181840152602081019050610348565b505050509050019250505060405180910390f35b6103c36004803603604081101561038d57600080fd5b81019080803573ffffffffffffffffffffffffffffffffffffffff169060200190929190803590602001909291905050506113ed565b005b6103fb600480360360408110156103db57600080fd5b8101908080359060200190929190803590602001909291905050506115c6565b6040518082815260200191505060405180910390f35b61043d6004803603602081101561042757600080fd5b81019080803590602001909291905050506115f4565b005b61046b6004803603602081101561045557600080fd5b8101908080359060200190929190505050611789565b60405180868152602001806020018515151515815260200184151515158152602001838152602001828103825286818151815260200191508051906020019080838360005b838110156104cb5780820151818401526020810190506104b0565b50505050905090810190601f1680156104f85780820380516001836020036101000a031916815260200191505b50965050505050505060405180910390f35b6105766004803603606081101561052057600080fd5b81019080803573ffffffffffffffffffffffffffffffffffffffff169060200190929190803573ffffffffffffffffffffffffffffffffffffffff1690602001909291908035906020019092919050505061187e565b005b6105a46004803603602081101561058e57600080fd5b81019080803590602001909291905050506118ed565b005b6105d2600480360360208110156105bc57600080fd5b8101908080359060200190929190505050611ca9565b604051808373ffffffffffffffffffffffffffffffffffffffff1673ffffffffffffffffffffffffffffffffffffffff16815260200180602001828103825283818151815260200191508051906020019080838360005b83811015610644578082015181840152602081019050610629565b50505050905090810190601f1680156106715780820380516001836020036101000a031916815260200191505b50935050505060405180910390f35b6106ac6004803603602081101561069657600080fd5b8101908080359060200190929190505050611d92565b6040518080602001828103825283818151815260200191508051906020019060200280838360005b838110156106ef5780820151818401526020810190506106d4565b505050509050019250505060405180910390f35b61076f6004803603606081101561071957600080fd5b81019080803573ffffffffffffffffffffffffffffffffffffffff169060200190929190803573ffffffffffffffffffffffffffffffffffffffff16906020019092919080359060200190929190505050611e08565b005b61079d6004803603602081101561078757600080fd5b8101908080359060200190929190505050611e28565b604051808581526020018460048111156107b357fe5b60ff16815260200183815260200182815260200194505050505060405180910390f35b6109d9600480360360c08110156107ec57600080fd5b810190808035906020019064010000000081111561080957600080fd5b82018360208201111561081b57600080fd5b8035906020019184600183028401116401000000008311171561083d57600080fd5b91908080601f016020809104026020016040519081016040528093929190818152602001838380828437600081840152601f19601f82011690508083019250505050505050919291929080351515906020019092919080351515906020019092919080359060200190929190803590602001906401000000008111156108c257600080fd5b8201836020820111156108d457600080fd5b803590602001918460208302840111640100000000831117156108f657600080fd5b919080806020026020016040519081016040528093929190818152602001838360200280828437600081840152601f19601f8201169050808301925050505050505091929192908035906020019064010000000081111561095657600080fd5b82018360208201111561096857600080fd5b8035906020019184602083028401116401000000008311171561098a57600080fd5b919080806020026020016040519081016040528093929190818152602001838360200280828437600081840152601f19601f820116905080830192505050505050509192919290505050611e72565b005b610a07600480360360208110156109f157600080fd5b8101908080359060200190929190505050612233565b604051808273ffffffffffffffffffffffffffffffffffffffff1673ffffffffffffffffffffffffffffffffffffffff16815260200191505060405180910390f35b610a7560048036036020811015610a5f57600080fd5b81019080803590602001909291905050506122fb565b6040518082815260200191505060405180910390f35b610ac160048036036040811015610aa157600080fd5b810190808035906020019092919080359060200190929190505050612313565b005b610aef60048036036020811015610ad957600080fd5b81019080803590602001909291905050506124c4565b005b610baa60048036036020811015610b0757600080fd5b8101908080359060200190640100000000811115610b2457600080fd5b820183602082011115610b3657600080fd5b80359060200191846001830284011164010000000083111715610b5857600080fd5b91908080601f016020809104026020016040519081016040528093929190818152602001838380828437600081840152601f19601f82011690508083019250505050505050919291929050505061271c565b005b610bee60048036036020811015610bc257600080fd5b81019080803573ffffffffffffffffffffffffffffffffffffffff169060200190929190505050612955565b6040518082815260200191505060405180910390f35b610c0c612a2a565b6040518082815260200191505060405180910390f35b610c5860048036036040811015610c3857600080fd5b810190808035906020019092919080359060200190929190505050612a37565b005b610c8660048036036020811015610c7057600080fd5b8101908080359060200190929190505050612bb2565b005b610cb460048036036020811015610c9e57600080fd5b8101908080359060200190929190505050612e0a565b005b610cf860048036036020811015610ccc57600080fd5b81019080803573ffffffffffffffffffffffffffffffffffffffff169060200190929190505050612f24565b6040518080602001828103825283818151815260200191508051906020019060200280838360005b83811015610d3b578082015181840152602081019050610d20565b505050509050019250505060405180910390f35b610d9d60048036036040811015610d6557600080fd5b81019080803573ffffffffffffffffffffffffffffffffffffffff169060200190929190803515159060200190929190505050612fd4565b005b610dcb60048036036020811015610db557600080fd5b8101908080359060200190929190505050613177565b6040518089815260200180602001806020018815151515815260200187151515158152602001868152602001806020018060200185810385528c818151815260200191508051906020019080838360005b83811015610e37578082015181840152602081019050610e1c565b50505050905090810190601f168015610e645780820380516001836020036101000a031916815260200191505b5085810384528b818151815260200191508051906020019060200280838360005b83811015610ea0578082015181840152602081019050610e85565b50505050905001858103835287818151815260200191508051906020019060200280838360005b83811015610ee2578082015181840152602081019050610ec7565b50505050905001858103825286818151815260200191508051906020019060200280838360005b83811015610f24578082015181840152602081019050610f09565b505050509050019c5050505050505050505050505060405180910390f35b610f7860048036036040811015610f5857600080fd5b8101908080359060200190929190803590602001909291905050506133f9565b005b61107d60048036036080811015610f9057600080fd5b81019080803573ffffffffffffffffffffffffffffffffffffffff169060200190929190803573ffffffffffffffffffffffffffffffffffffffff1690602001909291908035906020019092919080359060200190640100000000811115610ff757600080fd5b82018360208201111561100957600080fd5b8035906020019184600183028401116401000000008311171561102b57600080fd5b91908080601f016020809104026020016040519081016040528093929190818152602001838380828437600081840152601f19601f820116905080830192505050505050509192919290505050613b82565b005b6110ab6004803603602081101561109557600080fd5b8101908080359060200190929190505050613bf4565b60405180848152602001838152602001828152602001935050505060405180910390f35b611105600480360360408110156110e557600080fd5b810190808035906020019092919080359060200190929190505050613c2b565b6040518082815260200191505060405180910390f35b6111516004803603604081101561113157600080fd5b810190808035906020019092919080359060200190929190505050613c59565b6040518082815260200191505060405180910390f35b6111c96004803603604081101561117d57600080fd5b81019080803573ffffffffffffffffffffffffffffffffffffffff169060200190929190803573ffffffffffffffffffffffffffffffffffffffff169060200190929190505050613c87565b604051808215151515815260200191505060405180910390f35b611225600480360360208110156111f957600080fd5b81019080803573ffffffffffffffffffffffffffffffffffffffff169060200190929190505050613d1b565b6040518082815260200191505060405180910390f35b6000806000837bffffffffffffffffffffffffffffffffffffffffffffffffffffffff19167bffffffffffffffffffffffffffffffffffffffffffffffffffffffff1916815260200190815260200160002060009054906101000a900460ff169050919050565b60006112ad82613d33565b611302576040517f08c379a000000000000000000000000000000000000000000000000000000000815260040180806020018281038252602c815260200180614924602c913960400191505060405180910390fd5b6002600083815260200190815260200160002060009054906101000a900473ffffffffffffffffffffffffffffffffffffffff169050919050565b60606000600660008473ffffffffffffffffffffffffffffffffffffffff1673ffffffffffffffffffffffffffffffffffffffff168152602001908152602001600020549050600a60008281526020019081526020016000208054806020026020016040519081016040528092919081815260200182805480156113e057602002820191906000526020600020905b8154815260200190600101908083116113cc575b5050505050915050919050565b60006113f882612233565b90508073ffffffffffffffffffffffffffffffffffffffff168373ffffffffffffffffffffffffffffffffffffffff16141561147f576040517f08c379a00000000000000000000000000000000000000000000000000000000081526004018080602001828103825260218152602001806149a36021913960400191505060405180910390fd5b8073ffffffffffffffffffffffffffffffffffffffff163373ffffffffffffffffffffffffffffffffffffffff1614806114bf57506114be8133613c87565b5b611514576040517f08c379a00000000000000000000000000000000000000000000000000000000081526004018080602001828103825260388152602001806148996038913960400191505060405180910390fd5b826002600084815260200190815260200160002060006101000a81548173ffffffffffffffffffffffffffffffffffffffff021916908373ffffffffffffffffffffffffffffffffffffffff160217905550818373ffffffffffffffffffffffffffffffffffffffff168273ffffffffffffffffffffffffffffffffffffffff167f8c5be1e5ebec7d5bd14f71427d1e84f3dd0314c0f7b2291e5b200ac8c7c3b92560405160405180910390a4505050565b600a60205281600052604060002081815481106115df57fe5b90600052602060002001600091509150505481565b6009818154811061160157fe5b906000526020600020906007020160000154600660003373ffffffffffffffffffffffffffffffffffffffff1673ffffffffffffffffffffffffffffffffffffffff16815260200190815260200160002054146116a9576040517f08c379a00000000000000000000000000000000000000000000000000000000081526004018080602001828103825260278152602001806149c46027913960400191505060405180910390fd5b600981815481106116b657fe5b906000526020600020906007020160030160009054906101000a900460ff161561172b576040517f08c379a0000000000000000000000000000000000000000000000000000000008152600401808060200182810382526021815260200180614a1c6021913960400191505060405180910390fd5b60006009828154811061173a57fe5b90600052602060002090600702016004018190555060016009828154811061175e57fe5b906000526020600020906007020160030160006101000a81548160ff02191690831515021790555050565b6009818154811061179657fe5b9060005260206000209060070201600091509050806000015490806001018054600181600116156101000203166002900480601f0160208091040260200160405190810160405280929190818152602001828054600181600116156101000203166002900480156118485780601f1061181d57610100808354040283529160200191611848565b820191906000526020600020905b81548152906001019060200180831161182b57829003601f168201915b5050505050908060030160009054906101000a900460ff16908060030160019054906101000a900460ff16908060040154905085565b6118883382613da5565b6118dd576040517f08c379a00000000000000000000000000000000000000000000000000000000081526004018080602001828103825260318152602001806149eb6031913960400191505060405180910390fd5b6118e8838383613e99565b505050565b6000600782815481106118fc57fe5b90600052602060002090600402016002015490506009818154811061191d57fe5b906000526020600020906007020160000154600660003373ffffffffffffffffffffffffffffffffffffffff1673ffffffffffffffffffffffffffffffffffffffff16815260200190815260200160002054146119c5576040517f08c379a00000000000000000000000000000000000000000000000000000000081526004018080602001828103825260278152602001806149c46027913960400191505060405180910390fd5b600981815481106119d257fe5b906000526020600020906007020160030160009054906101000a900460ff16611a63576040517f08c379a000000000000000000000000000000000000000000000000000000000815260040180806020018281038252601b8152602001807f5075626c69636174696f6e206e6f7420616e2061756374696f6e2e000000000081525060200191505060405180910390fd5b60098181548110611a7057fe5b906000526020600020906007020160030160019054906101000a900460ff16611b01576040517f08c379a00000000000000000000000000000000000000000000000000000000081526004018080602001828103825260178152602001807f41756374696f6e206973206e6f742072756e6e696e672e00000000000000000081525060200191505060405180910390fd5b600160078381548110611b1057fe5b906000526020600020906004020160010160006101000a81548160ff02191690836004811115611b3c57fe5b02179055506000600b604051806060016040528060078681548110611b5d57fe5b906000526020600020906004020160030154815260200184815260200185815250908060018154018082558091505090600182039060005260206000209060030201600090919290919091506000820151816000015560208201518160010155604082015181600201555050905080600c600060078681548110611bdd57fe5b906000526020600020906004020160030154815260200190815260200160002081905550600d6000838152602001908152602001600020819080600181540180825580915050906001820390600052602060002001600090919290919091505550611ca4600560078581548110611c5057fe5b90600052602060002090600402016003015481548110611c6c57fe5b906000526020600020906002020160000160009054906101000a900473ffffffffffffffffffffffffffffffffffffffff16826140f4565b505050565b60058181548110611cb657fe5b90600052602060002090600202016000915090508060000160009054906101000a900473ffffffffffffffffffffffffffffffffffffffff1690806001018054600181600116156101000203166002900480601f016020809104026020016040519081016040528092919081815260200182805460018160011615610100020316600290048015611d885780601f10611d5d57610100808354040283529160200191611d88565b820191906000526020600020905b815481529060010190602001808311611d6b57829003601f168201915b5050505050905082565b606060098281548110611da157fe5b9060005260206000209060070201600201805480602002602001604051908101604052809291908181526020018280548015611dfc57602002820191906000526020600020905b815481526020019060010190808311611de8575b50505050509050919050565b611e2383838360405180602001604052806000815250613b82565b505050565b60078181548110611e3557fe5b90600052602060002090600402016000915090508060000154908060010160009054906101000a900460ff16908060020154908060030154905084565b6000865111611ecc576040517f08c379a00000000000000000000000000000000000000000000000000000000081526004018080602001828103825260248152602001806147d26024913960400191505060405180910390fd5b6000600660003373ffffffffffffffffffffffffffffffffffffffff1673ffffffffffffffffffffffffffffffffffffffff168152602001908152602001600020541415611f82576040517f08c379a000000000000000000000000000000000000000000000000000000000815260040180806020018281038252601f8152602001807f557365722061646472657373206973206e6f7420726567697374657265642e0081525060200191505060405180910390fd5b8415611fe65760008314611fe1576040517f08c379a000000000000000000000000000000000000000000000000000000000815260040180806020018281038252602a815260200180614979602a913960400191505060405180910390fd5b61205d565b6000831161205c576040517f08c379a00000000000000000000000000000000000000000000000000000000081526004018080602001828103825260198152602001807f53656c6c207072696365206e6f74207370656369666965642e0000000000000081525060200191505060405180910390fd5b5b6000600660003373ffffffffffffffffffffffffffffffffffffffff1673ffffffffffffffffffffffffffffffffffffffff16815260200190815260200160002054905060606120ab614696565b6040518061010001604052808481526020018a8152602001838152602001891515815260200188151581526020018781526020018681526020018581525090506000600982908060018154018082558091505090600182039060005260206000209060070201600090919290919091506000820151816000015560208201518160010190805190602001906121419291906146df565b50604082015181600201908051906020019061215e92919061475f565b5060608201518160030160006101000a81548160ff02191690831515021790555060808201518160030160016101000a81548160ff02191690831515021790555060a0820151816004015560c08201518160050190805190602001906121c592919061475f565b5060e08201518160060190805190602001906121e292919061475f565b5050509050600a600085815260200190815260200160002060018203908060018154018082558091505090600182039060005260206000200160009091929091909150555050505050505050505050565b6000806001600084815260200190815260200160002060009054906101000a900473ffffffffffffffffffffffffffffffffffffffff169050600073ffffffffffffffffffffffffffffffffffffffff168173ffffffffffffffffffffffffffffffffffffffff1614156122f2576040517f08c379a00000000000000000000000000000000000000000000000000000000081526004018080602001828103825260298152602001806148fb6029913960400191505060405180910390fd5b80915050919050565b600c6020528060005260406000206000915090505481565b6009828154811061232057fe5b906000526020600020906007020160000154600660003373ffffffffffffffffffffffffffffffffffffffff1673ffffffffffffffffffffffffffffffffffffffff16815260200190815260200160002054146123c8576040517f08c379a00000000000000000000000000000000000000000000000000000000081526004018080602001828103825260278152602001806149c46027913960400191505060405180910390fd5b600982815481106123d557fe5b906000526020600020906007020160030160009054906101000a900460ff16612466576040517f08c379a000000000000000000000000000000000000000000000000000000000815260040180806020018281038252601d8152602001807f5075626c69636174696f6e206973206e6f7420616e2061756374696f6e00000081525060200191505060405180910390fd5b806009838154811061247457fe5b90600052602060002090600702016004018190555060006009838154811061249857fe5b906000526020600020906007020160030160006101000a81548160ff0219169083151502179055505050565b6000600782815481106124d357fe5b9060005260206000209060040201600201549050600981815481106124f457fe5b906000526020600020906007020160000154600660003373ffffffffffffffffffffffffffffffffffffffff1673ffffffffffffffffffffffffffffffffffffffff168152602001908152602001600020541461259c576040517f08c379a00000000000000000000000000000000000000000000000000000000081526004018080602001828103825260278152602001806149c46027913960400191505060405180910390fd5b600981815481106125a957fe5b906000526020600020906007020160030160009054906101000a900460ff1661263a576040517f08c379a000000000000000000000000000000000000000000000000000000000815260040180806020018281038252601b8152602001807f5075626c69636174696f6e206e6f7420616e2061756374696f6e2e000000000081525060200191505060405180910390fd5b6009818154811061264757fe5b906000526020600020906007020160030160019054906101000a900460ff166126d8576040517f08c379a00000000000000000000000000000000000000000000000000000000081526004018080602001828103825260148152602001807f41756374696f6e206e6f742072756e6e696e672e00000000000000000000000081525060200191505060405180910390fd5b6002600783815481106126e757fe5b906000526020600020906004020160010160006101000a81548160ff0219169083600481111561271357fe5b02179055505050565b6000815111612793576040517f08c379a00000000000000000000000000000000000000000000000000000000081526004018080602001828103825260208152602001807f50726f66696c65205552492073686f756c64206e6f7420626520656d7074792e81525060200191505060405180910390fd5b6000600660003373ffffffffffffffffffffffffffffffffffffffff1673ffffffffffffffffffffffffffffffffffffffff1681526020019081526020016000205414612848576040517f08c379a00000000000000000000000000000000000000000000000000000000081526004018080602001828103825260188152602001807f5573657220616c726561647920726567697374657265642e000000000000000081525060200191505060405180910390fd5b6000600560405180604001604052803373ffffffffffffffffffffffffffffffffffffffff168152602001848152509080600181540180825580915050906001820390600052602060002090600202016000909192909190915060008201518160000160006101000a81548173ffffffffffffffffffffffffffffffffffffffff021916908373ffffffffffffffffffffffffffffffffffffffff16021790555060208201518160010190805190602001906129059291906146df565b505050905060018103600660003373ffffffffffffffffffffffffffffffffffffffff1673ffffffffffffffffffffffffffffffffffffffff168152602001908152602001600020819055505050565b60008073ffffffffffffffffffffffffffffffffffffffff168273ffffffffffffffffffffffffffffffffffffffff1614156129dc576040517f08c379a000000000000000000000000000000000000000000000000000000000815260040180806020018281038252602a8152602001806148d1602a913960400191505060405180910390fd5b612a23600360008473ffffffffffffffffffffffffffffffffffffffff1673ffffffffffffffffffffffffffffffffffffffff16815260200190815260200160002061430c565b9050919050565b6000600980549050905090565b60098281548110612a4457fe5b906000526020600020906007020160000154600660003373ffffffffffffffffffffffffffffffffffffffff1673ffffffffffffffffffffffffffffffffffffffff1681526020019081526020016000205414612aec576040517f08c379a00000000000000000000000000000000000000000000000000000000081526004018080602001828103825260278152602001806149c46027913960400191505060405180910390fd5b60098281548110612af957fe5b906000526020600020906007020160030160009054906101000a900460ff1615612b8b576040517f08c379a000000000000000000000000000000000000000000000000000000000815260040180806020018281038252601a8152602001807f5075626c69636174696f6e206973206f6e2061756374696f6e2e00000000000081525060200191505060405180910390fd5b8060098381548110612b9957fe5b9060005260206000209060070201600401819055505050565b600060078281548110612bc157fe5b906000526020600020906004020160020154905060098181548110612be257fe5b906000526020600020906007020160000154600660003373ffffffffffffffffffffffffffffffffffffffff1673ffffffffffffffffffffffffffffffffffffffff1681526020019081526020016000205414612c8a576040517f08c379a00000000000000000000000000000000000000000000000000000000081526004018080602001828103825260278152602001806149c46027913960400191505060405180910390fd5b60098181548110612c9757fe5b906000526020600020906007020160030160009054906101000a900460ff16612d28576040517f08c379a000000000000000000000000000000000000000000000000000000000815260040180806020018281038252601b8152602001807f5075626c69636174696f6e206e6f7420616e2061756374696f6e2e000000000081525060200191505060405180910390fd5b60098181548110612d3557fe5b906000526020600020906007020160030160019054906101000a900460ff16612dc6576040517f08c379a00000000000000000000000000000000000000000000000000000000081526004018080602001828103825260148152602001807f41756374696f6e206e6f742072756e6e696e672e00000000000000000000000081525060200191505060405180910390fd5b600460078381548110612dd557fe5b906000526020600020906004020160010160006101000a81548160ff02191690836004811115612e0157fe5b02179055505050565b60098181548110612e1757fe5b906000526020600020906007020160000154600660003373ffffffffffffffffffffffffffffffffffffffff1673ffffffffffffffffffffffffffffffffffffffff1681526020019081526020016000205414612ebf576040517f08c379a00000000000000000000000000000000000000000000000000000000081526004018080602001828103825260278152602001806149c46027913960400191505060405180910390fd5b60098181548110612ecc57fe5b906000526020600020906007020160030160019054906101000a900460ff161560098281548110612ef957fe5b906000526020600020906007020160030160016101000a81548160ff02191690831515021790555050565b60606000600660008473ffffffffffffffffffffffffffffffffffffffff1673ffffffffffffffffffffffffffffffffffffffff16815260200190815260200160002054905060086000828152602001908152602001600020805480602002602001604051908101604052809291908181526020018280548015612fc757602002820191906000526020600020905b815481526020019060010190808311612fb3575b5050505050915050919050565b3373ffffffffffffffffffffffffffffffffffffffff168273ffffffffffffffffffffffffffffffffffffffff161415613076576040517f08c379a00000000000000000000000000000000000000000000000000000000081526004018080602001828103825260198152602001807f4552433732313a20617070726f766520746f2063616c6c65720000000000000081525060200191505060405180910390fd5b80600460003373ffffffffffffffffffffffffffffffffffffffff1673ffffffffffffffffffffffffffffffffffffffff16815260200190815260200160002060008473ffffffffffffffffffffffffffffffffffffffff1673ffffffffffffffffffffffffffffffffffffffff16815260200190815260200160002060006101000a81548160ff0219169083151502179055508173ffffffffffffffffffffffffffffffffffffffff163373ffffffffffffffffffffffffffffffffffffffff167f17307eab39ab6107e8899845ad3d59bd9653f200f220920489ca2b5937696c3183604051808215151515815260200191505060405180910390a35050565b6000606080600080600060608061318c614696565b60098a8154811061319957fe5b90600052602060002090600702016040518061010001604052908160008201548152602001600182018054600181600116156101000203166002900480601f0160208091040260200160405190810160405280929190818152602001828054600181600116156101000203166002900480156132565780601f1061322b57610100808354040283529160200191613256565b820191906000526020600020905b81548152906001019060200180831161323957829003601f168201915b50505050508152602001600282018054806020026020016040519081016040528092919081815260200182805480156132ae57602002820191906000526020600020905b81548152602001906001019080831161329a575b505050505081526020016003820160009054906101000a900460ff161515151581526020016003820160019054906101000a900460ff16151515158152602001600482015481526020016005820180548060200260200160405190810160405280929190818152602001828054801561334657602002820191906000526020600020905b815481526020019060010190808311613332575b505050505081526020016006820180548060200260200160405190810160405280929190818152602001828054801561339e57602002820191906000526020600020905b81548152602001906001019080831161338a575b5050505050815250509050806000015181602001518260400151836060015184608001518560a001518660c001518760e001518696508595508191508090509850985098509850985098509850985050919395975091939597565b60006009828154811061340857fe5b906000526020600020906007020160000154141561348e576040517f08c379a00000000000000000000000000000000000000000000000000000000081526004018080602001828103825260198152602001807f5075626c69636174696f6e206e6f7420656e6c69737465642e0000000000000081525060200191505060405180910390fd5b6000600660003373ffffffffffffffffffffffffffffffffffffffff1673ffffffffffffffffffffffffffffffffffffffff168152602001908152602001600020541415613527576040517f08c379a00000000000000000000000000000000000000000000000000000000081526004018080602001828103825260218152602001806148286021913960400191505060405180910390fd5b6009818154811061353457fe5b906000526020600020906007020160030160009054906101000a900460ff16156137a8576009818154811061356557fe5b906000526020600020906007020160030160019054906101000a900460ff166135f6576040517f08c379a00000000000000000000000000000000000000000000000000000000081526004018080602001828103825260178152602001807f41756374696f6e206973206e6f742072756e6e696e672e00000000000000000081525060200191505060405180910390fd5b6000600760405180608001604052808581526020016000600481111561361857fe5b8152602001848152602001600660003373ffffffffffffffffffffffffffffffffffffffff1673ffffffffffffffffffffffffffffffffffffffff16815260200190815260200160002054815250908060018154018082558091505090600182039060005260206000209060040201600090919290919091506000820151816000015560208201518160010160006101000a81548160ff021916908360048111156136bf57fe5b0217905550604082015181600201556060820151816003015550509050600982815481106136e957fe5b906000526020600020906007020160020160018203908060018154018082558091505090600182039060005260206000200160009091929091909150555060086000600660003373ffffffffffffffffffffffffffffffffffffffff1673ffffffffffffffffffffffffffffffffffffffff168152602001908152602001600020548152602001908152602001600020600182039080600181540180825580915050906001820390600052602060002001600090919290919091505550505b600981815481106137b557fe5b906000526020600020906007020160030160009054906101000a900460ff16613b7e57600981815481106137e557fe5b906000526020600020906007020160040154821461386b576040517f08c379a00000000000000000000000000000000000000000000000000000000081526004018080602001828103825260158152602001807f496e636f72726563742066756e64732073656e742e000000000000000000000081525060200191505060405180910390fd5b60006001600760405180608001604052808681526020016003600481111561388f57fe5b8152602001858152602001600660003373ffffffffffffffffffffffffffffffffffffffff1673ffffffffffffffffffffffffffffffffffffffff16815260200190815260200160002054815250908060018154018082558091505090600182039060005260206000209060040201600090919290919091506000820151816000015560208201518160010160006101000a81548160ff0219169083600481111561393657fe5b0217905550604082015181600201556060820151816003015550500390506009828154811061396157fe5b906000526020600020906007020160020181908060018154018082558091505090600182039060005260206000200160009091929091909150555060086000600660003373ffffffffffffffffffffffffffffffffffffffff1673ffffffffffffffffffffffffffffffffffffffff1681526020019081526020016000205481526020019081526020016000208190806001815401808255809150509060018203906000526020600020016000909192909190915055506000600b604051806060016040528060078581548110613a3457fe5b906000526020600020906004020160030154815260200185815260200184815250908060018154018082558091505090600182039060005260206000209060030201600090919290919091506000820151816000015560208201518160010155604082015181600201555050905080600c600060078581548110613ab457fe5b906000526020600020906004020160030154815260200190815260200160002081905550600d6000848152602001908152602001600020819080600181540180825580915050906001820390600052602060002001600090919290919091505550613b7b600560078481548110613b2757fe5b90600052602060002090600402016003015481548110613b4357fe5b906000526020600020906002020160000160009054906101000a900473ffffffffffffffffffffffffffffffffffffffff16826140f4565b50505b5050565b613b8d84848461187e565b613b998484848461431a565b613bee576040517f08c379a00000000000000000000000000000000000000000000000000000000081526004018080602001828103825260328152602001806147f66032913960400191505060405180910390fd5b50505050565b600b8181548110613c0157fe5b90600052602060002090600302016000915090508060000154908060010154908060020154905083565b600d6020528160005260406000208181548110613c4457fe5b90600052602060002001600091509150505481565b60086020528160005260406000208181548110613c7257fe5b90600052602060002001600091509150505481565b6000600460008473ffffffffffffffffffffffffffffffffffffffff1673ffffffffffffffffffffffffffffffffffffffff16815260200190815260200160002060008373ffffffffffffffffffffffffffffffffffffffff1673ffffffffffffffffffffffffffffffffffffffff16815260200190815260200160002060009054906101000a900460ff16905092915050565b60066020528060005260406000206000915090505481565b6000806001600084815260200190815260200160002060009054906101000a900473ffffffffffffffffffffffffffffffffffffffff169050600073ffffffffffffffffffffffffffffffffffffffff168173ffffffffffffffffffffffffffffffffffffffff161415915050919050565b6000613db082613d33565b613e05576040517f08c379a000000000000000000000000000000000000000000000000000000000815260040180806020018281038252602c81526020018061486d602c913960400191505060405180910390fd5b6000613e1083612233565b90508073ffffffffffffffffffffffffffffffffffffffff168473ffffffffffffffffffffffffffffffffffffffff161480613e7f57508373ffffffffffffffffffffffffffffffffffffffff16613e67846112a2565b73ffffffffffffffffffffffffffffffffffffffff16145b80613e905750613e8f8185613c87565b5b91505092915050565b8273ffffffffffffffffffffffffffffffffffffffff16613eb982612233565b73ffffffffffffffffffffffffffffffffffffffff1614613f25576040517f08c379a00000000000000000000000000000000000000000000000000000000081526004018080602001828103825260298152602001806149506029913960400191505060405180910390fd5b600073ffffffffffffffffffffffffffffffffffffffff168273ffffffffffffffffffffffffffffffffffffffff161415613fab576040517f08c379a00000000000000000000000000000000000000000000000000000000081526004018080602001828103825260248152602001806148496024913960400191505060405180910390fd5b613fb481614503565b613ffb600360008573ffffffffffffffffffffffffffffffffffffffff1673ffffffffffffffffffffffffffffffffffffffff1681526020019081526020016000206145c1565b614042600360008473ffffffffffffffffffffffffffffffffffffffff1673ffffffffffffffffffffffffffffffffffffffff1681526020019081526020016000206145e4565b816001600083815260200190815260200160002060006101000a81548173ffffffffffffffffffffffffffffffffffffffff021916908373ffffffffffffffffffffffffffffffffffffffff160217905550808273ffffffffffffffffffffffffffffffffffffffff168473ffffffffffffffffffffffffffffffffffffffff167fddf252ad1be2c89b69c2b068fc378daa952ba7f163c4a11628f55a4df523b3ef60405160405180910390a4505050565b600073ffffffffffffffffffffffffffffffffffffffff168273ffffffffffffffffffffffffffffffffffffffff161415614197576040517f08c379a00000000000000000000000000000000000000000000000000000000081526004018080602001828103825260208152602001807f4552433732313a206d696e7420746f20746865207a65726f206164647265737381525060200191505060405180910390fd5b6141a081613d33565b15614213576040517f08c379a000000000000000000000000000000000000000000000000000000000815260040180806020018281038252601c8152602001807f4552433732313a20746f6b656e20616c7265616479206d696e7465640000000081525060200191505060405180910390fd5b816001600083815260200190815260200160002060006101000a81548173ffffffffffffffffffffffffffffffffffffffff021916908373ffffffffffffffffffffffffffffffffffffffff1602179055506142ac600360008473ffffffffffffffffffffffffffffffffffffffff1673ffffffffffffffffffffffffffffffffffffffff1681526020019081526020016000206145e4565b808273ffffffffffffffffffffffffffffffffffffffff16600073ffffffffffffffffffffffffffffffffffffffff167fddf252ad1be2c89b69c2b068fc378daa952ba7f163c4a11628f55a4df523b3ef60405160405180910390a45050565b600081600001549050919050565b600061433b8473ffffffffffffffffffffffffffffffffffffffff166145fa565b61434857600190506144fb565b60008473ffffffffffffffffffffffffffffffffffffffff1663150b7a02338887876040518563ffffffff1660e01b8152600401808573ffffffffffffffffffffffffffffffffffffffff1673ffffffffffffffffffffffffffffffffffffffff1681526020018473ffffffffffffffffffffffffffffffffffffffff1673ffffffffffffffffffffffffffffffffffffffff16815260200183815260200180602001828103825283818151815260200191508051906020019080838360005b83811015614423578082015181840152602081019050614408565b50505050905090810190601f1680156144505780820380516001836020036101000a031916815260200191505b5095505050505050602060405180830381600087803b15801561447257600080fd5b505af1158015614486573d6000803e3d6000fd5b505050506040513d602081101561449c57600080fd5b8101908080519060200190929190505050905063150b7a0260e01b7bffffffffffffffffffffffffffffffffffffffffffffffffffffffff1916817bffffffffffffffffffffffffffffffffffffffffffffffffffffffff1916149150505b949350505050565b600073ffffffffffffffffffffffffffffffffffffffff166002600083815260200190815260200160002060009054906101000a900473ffffffffffffffffffffffffffffffffffffffff1673ffffffffffffffffffffffffffffffffffffffff16146145be5760006002600083815260200190815260200160002060006101000a81548173ffffffffffffffffffffffffffffffffffffffff021916908373ffffffffffffffffffffffffffffffffffffffff1602179055505b50565b6145d96001826000015461460d90919063ffffffff16565b816000018190555050565b6001816000016000828254019250508190555050565b600080823b905060008111915050919050565b600082821115614685576040517f08c379a000000000000000000000000000000000000000000000000000000000815260040180806020018281038252601e8152602001807f536166654d6174683a207375627472616374696f6e206f766572666c6f77000081525060200191505060405180910390fd5b600082840390508091505092915050565b6040518061010001604052806000815260200160608152602001606081526020016000151581526020016000151581526020016000815260200160608152602001606081525090565b828054600181600116156101000203166002900490600052602060002090601f016020900481019282601f1061472057805160ff191683800117855561474e565b8280016001018555821561474e579182015b8281111561474d578251825591602001919060010190614732565b5b50905061475b91906147ac565b5090565b82805482825590600052602060002090810192821561479b579160200282015b8281111561479a57825182559160200191906001019061477f565b5b5090506147a891906147ac565b5090565b6147ce91905b808211156147ca5760008160009055506001016147b2565b5090565b9056fe5075626c69636174696f6e205552492073686f756c64206e6f7420626520656d7074792e4552433732313a207472616e7366657220746f206e6f6e20455243373231526563656976657220696d706c656d656e7465724269646465722061646472657373206973206e6f7420726567697374657265642e4552433732313a207472616e7366657220746f20746865207a65726f20616464726573734552433732313a206f70657261746f7220717565727920666f72206e6f6e6578697374656e7420746f6b656e4552433732313a20617070726f76652063616c6c6572206973206e6f74206f776e6572206e6f7220617070726f76656420666f7220616c6c4552433732313a2062616c616e636520717565727920666f7220746865207a65726f20616464726573734552433732313a206f776e657220717565727920666f72206e6f6e6578697374656e7420746f6b656e4552433732313a20617070726f76656420717565727920666f72206e6f6e6578697374656e7420746f6b656e4552433732313a207472616e73666572206f6620746f6b656e2074686174206973206e6f74206f776e53686f756c64206e6f7420737065636966792073656c6c20707269636520666f722061756374696f6e2e4552433732313a20617070726f76616c20746f2063757272656e74206f776e657255736572206e6f742074686520617574686f72206f662074686973207075626c69636174696f6e4552433732313a207472616e736665722063616c6c6572206973206e6f74206f776e6572206e6f7220617070726f7665645075626c69636174696f6e20697320616c7265616479206f6e2061756374696f6ea165627a7a72305820c559604d354a299944f145fc99efdee4ad4e828c034e2e73afa76d72afead74c0029",
  "source": "pragma solidity^0.5.0;\r\n\r\n/// @title UniCoin smart contract\r\n/// @author Chris Maree, Helda Mandlate, Luke Meiklejohn \r\n\r\n/// @dev import contracts from openzeppelin related to ownable and ERC20, ERC721 tokens\r\nimport \"openzeppelin-solidity/contracts/ownership/Ownable.sol\";\r\nimport \"openzeppelin-solidity/contracts/token/ERC20/ERC20.sol\";\r\nimport \"openzeppelin-solidity/contracts/token/ERC721/ERC721.sol\";\r\n\r\n/// @notice contract begins here\r\ncontract UnicoinRegistry is ERC721 {\r\n    /// @notice Creates a struct for users of the plaform, needs their Ethereum address and profile URL\r\n    struct User {\r\n        address owned_address;\r\n        string profile_uri;\r\n    }\r\n    /// @notice Creates an array of users that a registered\r\n    User[] public users;\r\n\r\n    /// @notice The mapping below maps all users' addresses to their userID\r\n    mapping (address => uint256) public userAddresses ;\r\n\r\n    enum bidStatus {Pending, Accepted, Rejected, Sale, Cancelled}\r\n\r\n    /// @notice Creates a struct for all bids, takes in the offer (amount of the bid), one of the enum parameters, publication Id and owner Id\r\n    struct Bid {\r\n        uint256 offer;\r\n        bidStatus status;\r\n        uint256 publication_Id;\r\n        uint256 owner_Id; /// @dev owner of the bid\r\n    }\r\n    /// @notice Creates an array of bids that have been placed\r\n    Bid[] public bids;\r\n\r\n    /// @notice The mapping below maps all bidders' IDs to their userID\r\n    mapping(uint256 => uint256[]) public bidOwners;\r\n\r\n    /// @notice Creates a struct for all publications\r\n    struct Publication {\r\n        uint256 author_Id;\r\n        string publication_uri;\r\n        uint256[] publication_bids;\r\n        bool isAuction;\r\n        bool isRunning;\r\n        uint256 sell_price;\r\n        uint256[] contributors;\r\n        uint256[] contributors_weightings;\r\n    }\r\n    /// @notice Creates an array of publications for every published document\r\n    Publication[] public publications;\r\n    \r\n    /// @notice The mapping below will map the addresses of all the successful bidders' addresses to the ID of their owned publications\r\n    mapping(uint256 => uint256[]) public publicationOwners;\r\n    \r\n    /// @notice Creates a struct for licencing\r\n    struct LicenceDesign {\r\n        uint256 buyer_Id;\r\n        uint256 Publication_Id;\r\n        uint256 bid_Id;\r\n    }\r\n    /// @notice Creates an array of purchased licences\r\n    LicenceDesign[] public licences;\r\n    /// @notice Mapping of licence Id to get the licence owners\r\n    mapping(uint256 => uint256) public licenceOwners;\r\n    /// @notice Mapping of licence Id to get the publication Id\r\n    mapping(uint256 => uint256[]) public publicationLicences;\r\n\r\n    /// @dev ERC20 is now daiContract\r\n    ERC20 daiContract;\r\n    /// @dev The constructor below reserves user 0 for all unregistered users\r\n    constructor(address _daiContractAddress) public ERC721(){\r\n        users.push(User(address(0),\"\"));\r\n        daiContract = ERC20(_daiContractAddress);\r\n    }\r\n\r\n    /// @notice This function registers a user on the platform by taking in their profile URL\r\n    /// @dev If the user's address is in position 0 of the userAddresses array, they are unregistered\r\n    /// @dev Create an instance of the user and add the Id to their address\r\n    function registerUser(string memory _profile_uri) public {\r\n        require(bytes(_profile_uri).length > 0, \"Profile URI should not be empty.\");\r\n       require(userAddresses[msg.sender]==0,\"User already registered.\");\r\n        uint256 id = users.push(User(msg.sender,_profile_uri));\r\n        userAddresses[msg.sender] = id - 1;\r\n    }\r\n\r\n    /// @notice This function creates a publication on the system, with blank arrays for publication bids and owners,\r\n    /// @notice since no one has bidded for or bought a licence yet\r\n    /// @dev The researcher only specifies the flat rate if they have chosen not to auction the work\r\n    /// @dev Add instance to the respective arrays\r\n    function createPublication(string memory _publication_uri, bool _isAuction, bool _isRunning, uint256 _sell_price, uint256[] memory _contributors, uint256[] memory _contributors_weightings) public {\r\n        require(bytes(_publication_uri).length > 0, \"Publication URI should not be empty.\");\r\n        require(userAddresses[msg.sender] != 0, \"User address is not registered.\");\r\n        if(_isAuction) {\r\n            require(_sell_price == 0, \"Should not specify sell price for auction.\");\r\n        }\r\n        else {\r\n            require(_sell_price > 0, \"Sell price not specified.\");\r\n        }\r\n        uint256 _author_Id = userAddresses[msg.sender];\r\n        uint256[] memory _publication_bids;\r\n        Publication memory _publication = Publication(_author_Id, _publication_uri, _publication_bids, _isAuction, _isRunning, _sell_price, _contributors, _contributors_weightings);\r\n        uint256 _id = publications.push(_publication);\r\n        publicationOwners[_author_Id].push(_id - 1);\r\n    }\r\n\r\n    /// @notice This function creates a new bid for a particular publication\r\n    /// @dev The bidder should only be able to submit a bid if the publication's pricing structure is an auction and the auction is running\r\n    /// @dev By default the bid will have a status of Pending until it is accepted or rejected by the author\r\n    /// @dev If the author has specified a flat rate, the buyer doesn't submit a bid but just sends the funds.\r\n    /// @dev The funds sent should match the sale price specified by the author.\r\n    /// @dev This 'bid' has a status of sale because the author does not need to evaluate and accept/reject these bids.\r\n    /// @dev Transfer Dai from buyer to seller\r\n    /// @dev parameters of licence design: buyer_id, publication id, bid_id\r\n    function makeBid(uint256 _offer, uint256 _publication_Id) public {\r\n        require(publications[_publication_Id].author_Id != 0, \"Publication not enlisted.\");\r\n        require(userAddresses[msg.sender] != 0, \"Bidder address is not registered.\");\r\n        if(publications[_publication_Id].isAuction) {\r\n            require(publications[_publication_Id].isRunning, \"Auction is not running.\");\r\n            uint256 _id = bids.push(Bid(_offer, bidStatus.Pending, _publication_Id, userAddresses[msg.sender]));\r\n            publications[_publication_Id].publication_bids.push(_id - 1);\r\n            bidOwners[userAddresses[msg.sender]].push(_id - 1);\r\n        }\r\n        if(!publications[_publication_Id].isAuction) {\r\n            require(_offer == publications[_publication_Id].sell_price, \"Incorrect funds sent.\");\r\n            uint256 _id = bids.push(Bid(_offer, bidStatus.Sale, _publication_Id, userAddresses[msg.sender])) - 1;\r\n            publications[_publication_Id].publication_bids.push(_id);\r\n            bidOwners[userAddresses[msg.sender]].push(_id);\r\n\r\n            // require(daiContract.allowance(msg.sender, address(this)) >= _offer, \"Insufficient fund allowance\");\r\n            // address publisherAddress = users[publications[_publication_Id].author_Id].owned_address;\r\n            // daiContract.transferFrom(msg.sender, publisherAddress, _offer);\r\n\r\n            uint256 _licence_Id = licences.push(LicenceDesign(bids[_id].owner_Id, _publication_Id, _id));\r\n            licenceOwners[bids[_id].owner_Id] = _licence_Id;\r\n            publicationLicences[_publication_Id].push(_licence_Id);\r\n            _mint(users[bids[_id].owner_Id].owned_address, _licence_Id);\r\n        }\r\n    }\r\n        \r\n    /// @notice This function allows the auctioneer to accept the bids\r\n    /// @dev parameters of licence design: buyer_id, publication id, bid_id\r\n    /// @notice This function allows the auctioneer to reject the bids\r\n    function acceptBid(uint256 _id) public {\r\n        uint256 _publication_Id = bids[_id].publication_Id;\r\n        require(userAddresses[msg.sender] == publications[_publication_Id].author_Id, \"User not the author of this publication\");\r\n        require(publications[_publication_Id].isAuction, \"Publication not an auction.\");\r\n        require(publications[_publication_Id].isRunning, \"Auction is not running.\");\r\n        bids[_id].status = bidStatus.Accepted;\r\n        \r\n        uint256 _licence_Id = licences.push(LicenceDesign(bids[_id].owner_Id, _publication_Id, _id));\r\n        licenceOwners[bids[_id].owner_Id] = _licence_Id;\r\n        publicationLicences[_publication_Id].push(_licence_Id);\r\n        _mint(users[bids[_id].owner_Id].owned_address, _licence_Id);\r\n    }\r\n\r\n    function rejectBid(uint256 _id) public {\r\n        uint256 _publication_Id = bids[_id].publication_Id;\r\n        require(userAddresses[msg.sender] == publications[_publication_Id].author_Id, \"User not the author of this publication\");\r\n        require(publications[_publication_Id].isAuction, \"Publication not an auction.\");\r\n        require(publications[_publication_Id].isRunning, \"Auction not running.\");\r\n        bids[_id].status = bidStatus.Rejected;\r\n    }\r\n\r\n    /// @notice This function allows the auctioneer to cancel the bids\r\n    function cancelBid(uint256 _id) public {\r\n        uint256 _publication_Id = bids[_id].publication_Id;\r\n        require(userAddresses[msg.sender] == publications[_publication_Id].author_Id, \"User not the author of this publication\");\r\n        require(publications[_publication_Id].isAuction, \"Publication not an auction.\");\r\n        require(publications[_publication_Id].isRunning, \"Auction not running.\");\r\n        bids[_id].status = bidStatus.Cancelled;\r\n    }\r\n    \r\n    /// @notice This function allows the auctioneer to change from an auction to a sale\r\n    function changeToSale(uint256 _publication_Id, uint256 _sell_price) public {\r\n        require(userAddresses[msg.sender] == publications[_publication_Id].author_Id, \"User not the author of this publication\");\r\n        require(publications[_publication_Id].isAuction, \"Publication is not an auction\");\r\n        publications[_publication_Id].sell_price = _sell_price;\r\n        publications[_publication_Id].isAuction = false;\r\n    }\r\n\r\n    /// @notice This function allows the auctioneer to change from a sale to an auction\r\n    function changeToAuction(uint256 _publication_Id) public {\r\n        require(userAddresses[msg.sender] == publications[_publication_Id].author_Id, \"User not the author of this publication\");\r\n        require(!publications[_publication_Id].isAuction, \"Publication is already on auction\");\r\n        publications[_publication_Id].sell_price = 0;\r\n        publications[_publication_Id].isAuction = true;\r\n    }\r\n\r\n    /// @notice This function allows the auctioneer to change the sell price\r\n    function changeSellPrice(uint256 _publication_Id, uint256 _sell_price) public {\r\n        require(userAddresses[msg.sender] == publications[_publication_Id].author_Id, \"User not the author of this publication\");\r\n        require(!publications[_publication_Id].isAuction, \"Publication is on auction.\");\r\n        publications[_publication_Id].sell_price = _sell_price;\r\n    }\r\n    /// @notice This function allows the auctioneer to change the running status\r\n    function changeRunningStatus(uint256 _publication_Id) public {\r\n        require(userAddresses[msg.sender] == publications[_publication_Id].author_Id, \"User not the author of this publication\");\r\n        publications[_publication_Id].isRunning = !publications[_publication_Id].isRunning;\r\n    }\r\n\r\n    /// @return This function allows anyone to get the list of publications based on the address of the publisher\r\n    function getPublications(address _address) public view returns(uint256[] memory) {\r\n        uint256 _author_Id = userAddresses[_address];\r\n        return publicationOwners[_author_Id];\r\n    }\r\n\r\n    /// @return This function allows anyone to get the list of bids based on address of the user\r\n    function getBids(address _address) public view returns(uint256[] memory) {\r\n        uint256 _userAddress = userAddresses[_address];\r\n        return bidOwners[_userAddress];\r\n    }\r\n\r\n    // From the user ID, get a list of all publications owned by the user ()\r\n    // function getPublications(uint256 _user_Id) public view returns(uint256[] memory) {\r\n    //     return publicationOwners[_user_Id];\r\n    // }\r\n\r\n    // function getBids(uint256 _user_Id) public view returns(uint256[] memory) {\r\n    //     return bidOwners[_user_Id];\r\n    // }\r\n\r\n    /// @return This function allows anyone to get list of bids per publication\r\n    function getPublicationBids(uint256 _publication_Id) public view returns(uint256[] memory) {\r\n        return publications[_publication_Id].publication_bids;\r\n    }\r\n\r\n\r\n    /// @return This function allows the return of the total number of publications\r\n    function getPublicationLength() public view returns(uint count) {\r\n        return publications.length;\r\n    }\r\n\r\n    function getPublication(uint256 _publication_Id) public view returns(uint256, string memory, uint256[] memory, bool, bool, uint256, uint256[] memory, uint256[] memory){\r\n        Publication memory _publication = publications[_publication_Id];\r\n        return (\r\n        _publication.author_Id,\r\n        _publication.publication_uri,\r\n        _publication.publication_bids,\r\n        _publication.isAuction,\r\n        _publication.isRunning,\r\n        _publication.sell_price,\r\n        _publication.contributors,\r\n        _publication.contributors_weightings);\r\n    }\r\n}",
  "sourcePath": "D:/unicoindapp/contracts/UnicoinRegistry.sol",
  "compiler": {
    "name": "solc",
    "version": "0.5.8+commit.23d335f2.Emscripten.clang"
  },
  "schemaVersion": "3.0.11",
  "updatedAt": "2019-07-21T13:02:27.388Z",
  "devdoc": {
    "methods": {
      "approve(address,uint256)": {
        "details": "Approves another address to transfer the given token ID The zero address indicates there is no approved address. There can only be one approved address per token at a given time. Can only be called by the token owner or an approved operator.",
        "params": {
          "to": "address to be approved for the given token ID",
          "tokenId": "uint256 ID of the token to be approved"
        }
      },
      "balanceOf(address)": {
        "details": "Gets the balance of the specified address.",
        "params": {
          "owner": "address to query the balance of"
        },
        "return": "uint256 representing the amount owned by the passed address"
      },
      "constructor": {
        "details": "The constructor below reserves user 0 for all unregistered users"
      },
      "createPublication(string,bool,bool,uint256,uint256[],uint256[])": {
        "details": "Add instance to the respective arrays"
      },
      "getApproved(uint256)": {
        "details": "Gets the approved address for a token ID, or zero if no address set Reverts if the token ID does not exist.",
        "params": {
          "tokenId": "uint256 ID of the token to query the approval of"
        },
        "return": "address currently approved for the given token ID"
      },
      "getBids(address)": {
        "return": "This function allows anyone to get the list of bids based on address of the user"
      },
      "getPublicationBids(uint256)": {
        "return": "This function allows anyone to get list of bids per publication"
      },
      "getPublicationLength()": {
        "return": "This function allows the return of the total number of publications"
      },
      "getPublications(address)": {
        "return": "This function allows anyone to get the list of publications based on the address of the publisher"
      },
      "isApprovedForAll(address,address)": {
        "details": "Tells whether an operator is approved by a given owner.",
        "params": {
          "operator": "operator address which you want to query the approval of",
          "owner": "owner address which you want to query the approval of"
        },
        "return": "bool whether the given operator is approved by the given owner"
      },
      "makeBid(uint256,uint256)": {
        "details": "parameters of licence design: buyer_id, publication id, bid_id"
      },
      "ownerOf(uint256)": {
        "details": "Gets the owner of the specified token ID.",
        "params": {
          "tokenId": "uint256 ID of the token to query the owner of"
        },
        "return": "address currently marked as the owner of the given token ID"
      },
      "registerUser(string)": {
        "details": "Create an instance of the user and add the Id to their address"
      },
      "safeTransferFrom(address,address,uint256)": {
        "details": "Safely transfers the ownership of a given token ID to another address If the target address is a contract, it must implement `onERC721Received`, which is called upon a safe transfer, and return the magic value `bytes4(keccak256(\"onERC721Received(address,address,uint256,bytes)\"))`; otherwise, the transfer is reverted. Requires the msg.sender to be the owner, approved, or operator",
        "params": {
          "from": "current owner of the token",
          "to": "address to receive the ownership of the given token ID",
          "tokenId": "uint256 ID of the token to be transferred"
        }
      },
      "safeTransferFrom(address,address,uint256,bytes)": {
        "details": "Safely transfers the ownership of a given token ID to another address If the target address is a contract, it must implement `onERC721Received`, which is called upon a safe transfer, and return the magic value `bytes4(keccak256(\"onERC721Received(address,address,uint256,bytes)\"))`; otherwise, the transfer is reverted. Requires the msg.sender to be the owner, approved, or operator",
        "params": {
          "_data": "bytes data to send along with a safe transfer check",
          "from": "current owner of the token",
          "to": "address to receive the ownership of the given token ID",
          "tokenId": "uint256 ID of the token to be transferred"
        }
      },
      "setApprovalForAll(address,bool)": {
        "details": "Sets or unsets the approval of a given operator An operator is allowed to transfer all tokens of the sender on their behalf.",
        "params": {
          "approved": "representing the status of the approval to be set",
          "to": "operator address to set the approval"
        }
      },
      "supportsInterface(bytes4)": {
        "details": "See `IERC165.supportsInterface`.     * Time complexity O(1), guaranteed to always use less than 30 000 gas."
      },
      "transferFrom(address,address,uint256)": {
        "details": "Transfers the ownership of a given token ID to another address. Usage of this method is discouraged, use `safeTransferFrom` whenever possible. Requires the msg.sender to be the owner, approved, or operator.",
        "params": {
          "from": "current owner of the token",
          "to": "address to receive the ownership of the given token ID",
          "tokenId": "uint256 ID of the token to be transferred"
        }
      }
    }
  },
  "userdoc": {
    "methods": {
      "acceptBid(uint256)": {
        "notice": "This function allows the auctioneer to reject the bids"
      },
      "cancelBid(uint256)": {
        "notice": "This function allows the auctioneer to cancel the bids"
      },
      "changeRunningStatus(uint256)": {
        "notice": "This function allows the auctioneer to change the running status"
      },
      "changeSellPrice(uint256,uint256)": {
        "notice": "This function allows the auctioneer to change the sell price"
      },
      "changeToAuction(uint256)": {
        "notice": "This function allows the auctioneer to change from a sale to an auction"
      },
      "changeToSale(uint256,uint256)": {
        "notice": "This function allows the auctioneer to change from an auction to a sale"
      }
    },
    "notice": "contract begins here"
  }
}