{
  "contractName": "UnicoinRegistry",
  "abi": [
    {
      "constant": true,
      "inputs": [
        {
          "name": "",
          "type": "uint256"
        },
        {
          "name": "",
          "type": "uint256"
        }
      ],
      "name": "publicationOwners",
      "outputs": [
        {
          "name": "",
          "type": "uint256"
        }
      ],
      "payable": false,
      "stateMutability": "view",
      "type": "function"
    },
    {
      "constant": true,
      "inputs": [
        {
          "name": "",
          "type": "uint256"
        }
      ],
      "name": "publications",
      "outputs": [
        {
          "name": "author_Id",
          "type": "uint256"
        },
        {
          "name": "publication_url",
          "type": "string"
        },
        {
          "name": "isAuction",
          "type": "bool"
        },
        {
          "name": "isRunning",
          "type": "bool"
        },
        {
          "name": "sell_price",
          "type": "uint256"
        }
      ],
      "payable": false,
      "stateMutability": "view",
      "type": "function"
    },
    {
      "constant": true,
      "inputs": [
        {
          "name": "",
          "type": "uint256"
        }
      ],
      "name": "users",
      "outputs": [
        {
          "name": "owned_address",
          "type": "address"
        },
        {
          "name": "profile_url",
          "type": "string"
        }
      ],
      "payable": false,
      "stateMutability": "view",
      "type": "function"
    },
    {
      "constant": true,
      "inputs": [
        {
          "name": "",
          "type": "uint256"
        }
      ],
      "name": "bids",
      "outputs": [
        {
          "name": "offer",
          "type": "uint256"
        },
        {
          "name": "status",
          "type": "uint8"
        },
        {
          "name": "publication_Id",
          "type": "uint256"
        },
        {
          "name": "owner_Id",
          "type": "uint256"
        }
      ],
      "payable": false,
      "stateMutability": "view",
      "type": "function"
    },
    {
      "constant": true,
      "inputs": [
        {
          "name": "",
          "type": "uint256"
        },
        {
          "name": "",
          "type": "uint256"
        }
      ],
      "name": "bidOwners",
      "outputs": [
        {
          "name": "",
          "type": "uint256"
        }
      ],
      "payable": false,
      "stateMutability": "view",
      "type": "function"
    },
    {
      "constant": true,
      "inputs": [
        {
          "name": "",
          "type": "address"
        }
      ],
      "name": "userAddresses",
      "outputs": [
        {
          "name": "",
          "type": "uint256"
        }
      ],
      "payable": false,
      "stateMutability": "view",
      "type": "function"
    },
    {
      "inputs": [],
      "payable": false,
      "stateMutability": "nonpayable",
      "type": "constructor"
    },
    {
      "constant": false,
      "inputs": [
        {
          "name": "_profile_url",
          "type": "string"
        }
      ],
      "name": "registerUser",
      "outputs": [],
      "payable": false,
      "stateMutability": "nonpayable",
      "type": "function"
    },
    {
      "constant": false,
      "inputs": [
        {
          "name": "_publication_url",
          "type": "string"
        },
        {
          "name": "_isAuction",
          "type": "bool"
        },
        {
          "name": "_isRunning",
          "type": "bool"
        },
        {
          "name": "_sell_price",
          "type": "uint256"
        },
        {
          "name": "_contributors",
          "type": "uint256[]"
        },
        {
          "name": "_contributors_weightings",
          "type": "uint256[]"
        }
      ],
      "name": "createPublication",
      "outputs": [],
      "payable": false,
      "stateMutability": "nonpayable",
      "type": "function"
    },
    {
      "constant": false,
      "inputs": [
        {
          "name": "_offer",
          "type": "uint256"
        },
        {
          "name": "_publication_Id",
          "type": "uint256"
        }
      ],
      "name": "makeBid",
      "outputs": [],
      "payable": false,
      "stateMutability": "nonpayable",
      "type": "function"
    },
    {
      "constant": false,
      "inputs": [
        {
          "name": "_id",
          "type": "uint256"
        }
      ],
      "name": "acceptBid",
      "outputs": [],
      "payable": false,
      "stateMutability": "nonpayable",
      "type": "function"
    },
    {
      "constant": false,
      "inputs": [
        {
          "name": "_id",
          "type": "uint256"
        }
      ],
      "name": "rejectBid",
      "outputs": [],
      "payable": false,
      "stateMutability": "nonpayable",
      "type": "function"
    },
    {
      "constant": false,
      "inputs": [
        {
          "name": "_id",
          "type": "uint256"
        }
      ],
      "name": "cancelBid",
      "outputs": [],
      "payable": false,
      "stateMutability": "nonpayable",
      "type": "function"
    },
    {
      "constant": false,
      "inputs": [
        {
          "name": "_publication_Id",
          "type": "uint256"
        },
        {
          "name": "_sell_price",
          "type": "uint256"
        }
      ],
      "name": "changeToSale",
      "outputs": [],
      "payable": false,
      "stateMutability": "nonpayable",
      "type": "function"
    },
    {
      "constant": false,
      "inputs": [
        {
          "name": "_publication_Id",
          "type": "uint256"
        }
      ],
      "name": "changeToAuction",
      "outputs": [],
      "payable": false,
      "stateMutability": "nonpayable",
      "type": "function"
    },
    {
      "constant": false,
      "inputs": [
        {
          "name": "_publication_Id",
          "type": "uint256"
        },
        {
          "name": "_sell_price",
          "type": "uint256"
        }
      ],
      "name": "changeSellPrice",
      "outputs": [],
      "payable": false,
      "stateMutability": "nonpayable",
      "type": "function"
    },
    {
      "constant": false,
      "inputs": [
        {
          "name": "_publication_Id",
          "type": "uint256"
        }
      ],
      "name": "changeRunningStatus",
      "outputs": [],
      "payable": false,
      "stateMutability": "nonpayable",
      "type": "function"
    },
    {
      "constant": true,
      "inputs": [
        {
          "name": "_address",
          "type": "address"
        }
      ],
      "name": "getPublications",
      "outputs": [
        {
          "name": "",
          "type": "uint256[]"
        }
      ],
      "payable": false,
      "stateMutability": "view",
      "type": "function"
    },
    {
      "constant": true,
      "inputs": [
        {
          "name": "_user_Id",
          "type": "uint256"
        }
      ],
      "name": "getPublications",
      "outputs": [
        {
          "name": "",
          "type": "uint256[]"
        }
      ],
      "payable": false,
      "stateMutability": "view",
      "type": "function"
    },
    {
      "constant": true,
      "inputs": [
        {
          "name": "_user_Id",
          "type": "uint256"
        }
      ],
      "name": "getBids",
      "outputs": [
        {
          "name": "",
          "type": "uint256[]"
        }
      ],
      "payable": false,
      "stateMutability": "view",
      "type": "function"
    },
    {
      "constant": true,
      "inputs": [
        {
          "name": "_address",
          "type": "address"
        }
      ],
      "name": "getBids",
      "outputs": [
        {
          "name": "",
          "type": "uint256[]"
        }
      ],
      "payable": false,
      "stateMutability": "view",
      "type": "function"
    },
    {
      "constant": true,
      "inputs": [
        {
          "name": "_publication_Id",
          "type": "uint256"
        }
      ],
      "name": "getPublicationBids",
      "outputs": [
        {
          "name": "",
          "type": "uint256[]"
        }
      ],
      "payable": false,
      "stateMutability": "view",
      "type": "function"
    }
  ],
  "bytecode": "0x60806040523480156200001157600080fd5b5060006040518060400160405280600073ffffffffffffffffffffffffffffffffffffffff168152602001604051806020016040528060008152508152509080600181540180825580915050906001820390600052602060002090600202016000909192909190915060008201518160000160006101000a81548173ffffffffffffffffffffffffffffffffffffffff021916908373ffffffffffffffffffffffffffffffffffffffff1602179055506020820151816001019080519060200190620000df929190620000e9565b5050505062000198565b828054600181600116156101000203166002900490600052602060002090601f016020900481019282601f106200012c57805160ff19168380011785556200015d565b828001600101855582156200015d579182015b828111156200015c5782518255916020019190600101906200013f565b5b5090506200016c919062000170565b5090565b6200019591905b808211156200019157600081600090555060010162000177565b5090565b90565b61268e80620001a86000396000f3fe608060405234801561001057600080fd5b50600436106101375760003560e01c8063699b5fa1116100b85780639703ef351161007c5780639703ef351461096e5780639ab7a9541461099c5780639dccae82146109ca578063adfcdc1114610a63578063dc05d95214610a9b578063fc86dea714610ae757610137565b8063699b5fa1146107925780636e3341b3146107ca578063704f1b94146107f85780637b79c4ec146108b357806390420aee1461093657610137565b80632b1fd58a116100ff5780632b1fd58a1461039d578063365b98b2146103cb5780633e764604146104a55780634423c5f1146105285780635fd814a01461058d57610137565b8063082047801461013c578063131d9a27146101d5578063142af1ca14610258578063166c6c80146102a45780631fd5bbab146102d2575b600080fd5b61017e6004803603602081101561015257600080fd5b81019080803573ffffffffffffffffffffffffffffffffffffffff169060200190929190505050610b3f565b6040518080602001828103825283818151815260200191508051906020019060200280838360005b838110156101c15780820151818401526020810190506101a6565b505050509050019250505060405180910390f35b610201600480360360208110156101eb57600080fd5b8101908080359060200190929190505050610bef565b6040518080602001828103825283818151815260200191508051906020019060200280838360005b83811015610244578082015181840152602081019050610229565b505050509050019250505060405180910390f35b61028e6004803603604081101561026e57600080fd5b810190808035906020019092919080359060200190929190505050610c5a565b6040518082815260200191505060405180910390f35b6102d0600480360360208110156102ba57600080fd5b8101908080359060200190929190505050610c88565b005b6102fe600480360360208110156102e857600080fd5b8101908080359060200190929190505050610d68565b60405180868152602001806020018515151515815260200184151515158152602001838152602001828103825286818151815260200191508051906020019080838360005b8381101561035e578082015181840152602081019050610343565b50505050905090810190601f16801561038b5780820380516001836020036101000a031916815260200191505b50965050505050505060405180910390f35b6103c9600480360360208110156103b357600080fd5b8101908080359060200190929190505050610e5d565b005b6103f7600480360360208110156103e157600080fd5b8101908080359060200190929190505050611000565b604051808373ffffffffffffffffffffffffffffffffffffffff1673ffffffffffffffffffffffffffffffffffffffff16815260200180602001828103825283818151815260200191508051906020019080838360005b8381101561046957808201518184015260208101905061044e565b50505050905090810190601f1680156104965780820380516001836020036101000a031916815260200191505b50935050505060405180910390f35b6104d1600480360360208110156104bb57600080fd5b81019080803590602001909291905050506110e9565b6040518080602001828103825283818151815260200191508051906020019060200280838360005b838110156105145780820151818401526020810190506104f9565b505050509050019250505060405180910390f35b6105546004803603602081101561053e57600080fd5b810190808035906020019092919050505061115f565b6040518085815260200184600481111561056a57fe5b60ff16815260200183815260200182815260200194505050505060405180910390f35b610790600480360360c08110156105a357600080fd5b81019080803590602001906401000000008111156105c057600080fd5b8201836020820111156105d257600080fd5b803590602001918460018302840111640100000000831117156105f457600080fd5b91908080601f016020809104026020016040519081016040528093929190818152602001838380828437600081840152601f19601f820116905080830192505050505050509192919290803515159060200190929190803515159060200190929190803590602001909291908035906020019064010000000081111561067957600080fd5b82018360208201111561068b57600080fd5b803590602001918460208302840111640100000000831117156106ad57600080fd5b919080806020026020016040519081016040528093929190818152602001838360200280828437600081840152601f19601f8201169050808301925050505050505091929192908035906020019064010000000081111561070d57600080fd5b82018360208201111561071f57600080fd5b8035906020019184602083028401116401000000008311171561074157600080fd5b919080806020026020016040519081016040528093929190818152602001838360200280828437600081840152601f19601f8201169050808301925050505050505091929192905050506111a9565b005b6107c8600480360360408110156107a857600080fd5b81019080803590602001909291908035906020019092919050505061156a565b005b6107f6600480360360208110156107e057600080fd5b8101908080359060200190929190505050611666565b005b6108b16004803603602081101561080e57600080fd5b810190808035906020019064010000000081111561082b57600080fd5b82018360208201111561083d57600080fd5b8035906020019184600183028401116401000000008311171561085f57600080fd5b91908080601f016020809104026020016040519081016040528093929190818152602001838380828437600081840152601f19601f820116905080830192505050505050509192919290505050611808565b005b6108df600480360360208110156108c957600080fd5b8101908080359060200190929190505050611a40565b6040518080602001828103825283818151815260200191508051906020019060200280838360005b83811015610922578082015181840152602081019050610907565b505050509050019250505060405180910390f35b61096c6004803603604081101561094c57600080fd5b810190808035906020019092919080359060200190929190505050611aab565b005b61099a6004803603602081101561098457600080fd5b8101908080359060200190929190505050611b71565b005b6109c8600480360360208110156109b257600080fd5b8101908080359060200190929190505050611d14565b005b610a0c600480360360208110156109e057600080fd5b81019080803573ffffffffffffffffffffffffffffffffffffffff169060200190929190505050611d79565b6040518080602001828103825283818151815260200191508051906020019060200280838360005b83811015610a4f578082015181840152602081019050610a34565b505050509050019250505060405180910390f35b610a9960048036036040811015610a7957600080fd5b810190808035906020019092919080359060200190929190505050611e29565b005b610ad160048036036040811015610ab157600080fd5b810190808035906020019092919080359060200190929190505050612451565b6040518082815260200191505060405180910390f35b610b2960048036036020811015610afd57600080fd5b81019080803573ffffffffffffffffffffffffffffffffffffffff16906020019092919050505061247f565b6040518082815260200191505060405180910390f35b60606000600160008473ffffffffffffffffffffffffffffffffffffffff1673ffffffffffffffffffffffffffffffffffffffff16815260200190815260200160002054905060056000828152602001908152602001600020805480602002602001604051908101604052809291908181526020018280548015610be257602002820191906000526020600020905b815481526020019060010190808311610bce575b5050505050915050919050565b606060036000838152602001908152602001600020805480602002602001604051908101604052809291908181526020018280548015610c4e57602002820191906000526020600020905b815481526020019060010190808311610c3a575b50505050509050919050565b60056020528160005260406000208181548110610c7357fe5b90600052602060002001600091509150505481565b60048181548110610c9557fe5b906000526020600020906007020160030160009054906101000a900460ff1615610d0a576040517f08c379a000000000000000000000000000000000000000000000000000000000815260040180806020018281038252602181526020018061261e6021913960400191505060405180910390fd5b600060048281548110610d1957fe5b906000526020600020906007020160040181905550600160048281548110610d3d57fe5b906000526020600020906007020160030160006101000a81548160ff02191690831515021790555050565b60048181548110610d7557fe5b9060005260206000209060070201600091509050806000015490806001018054600181600116156101000203166002900480601f016020809104026020016040519081016040528092919081815260200182805460018160011615610100020316600290048015610e275780601f10610dfc57610100808354040283529160200191610e27565b820191906000526020600020905b815481529060010190602001808311610e0a57829003601f168201915b5050505050908060030160009054906101000a900460ff16908060030160019054906101000a900460ff16908060040154905085565b600060028281548110610e6c57fe5b906000526020600020906004020160020154905060048181548110610e8d57fe5b906000526020600020906007020160030160009054906101000a900460ff16610f1e576040517f08c379a000000000000000000000000000000000000000000000000000000000815260040180806020018281038252601b8152602001807f5075626c69636174696f6e206e6f7420616e2061756374696f6e2e000000000081525060200191505060405180910390fd5b60048181548110610f2b57fe5b906000526020600020906007020160030160019054906101000a900460ff16610fbc576040517f08c379a00000000000000000000000000000000000000000000000000000000081526004018080602001828103825260178152602001807f41756374696f6e206973206e6f742072756e6e696e672e00000000000000000081525060200191505060405180910390fd5b600160028381548110610fcb57fe5b906000526020600020906004020160010160006101000a81548160ff02191690836004811115610ff757fe5b02179055505050565b6000818154811061100d57fe5b90600052602060002090600202016000915090508060000160009054906101000a900473ffffffffffffffffffffffffffffffffffffffff1690806001018054600181600116156101000203166002900480601f0160208091040260200160405190810160405280929190818152602001828054600181600116156101000203166002900480156110df5780601f106110b4576101008083540402835291602001916110df565b820191906000526020600020905b8154815290600101906020018083116110c257829003601f168201915b5050505050905082565b6060600482815481106110f857fe5b906000526020600020906007020160020180548060200260200160405190810160405280929190818152602001828054801561115357602002820191906000526020600020905b81548152602001906001019080831161113f575b50505050509050919050565b6002818154811061116c57fe5b90600052602060002090600402016000915090508060000154908060010160009054906101000a900460ff16908060020154908060030154905084565b6000865111611203576040517f08c379a000000000000000000000000000000000000000000000000000000000815260040180806020018281038252602481526020018061263f6024913960400191505060405180910390fd5b6000600160003373ffffffffffffffffffffffffffffffffffffffff1673ffffffffffffffffffffffffffffffffffffffff1681526020019081526020016000205414156112b9576040517f08c379a000000000000000000000000000000000000000000000000000000000815260040180806020018281038252601f8152602001807f557365722061646472657373206973206e6f7420726567697374657265642e0081525060200191505060405180910390fd5b841561131d5760008314611318576040517f08c379a000000000000000000000000000000000000000000000000000000000815260040180806020018281038252602a8152602001806125f4602a913960400191505060405180910390fd5b611394565b60008311611393576040517f08c379a00000000000000000000000000000000000000000000000000000000081526004018080602001828103825260198152602001807f53656c6c207072696365206e6f74207370656369666965642e0000000000000081525060200191505060405180910390fd5b5b6000600160003373ffffffffffffffffffffffffffffffffffffffff1673ffffffffffffffffffffffffffffffffffffffff16815260200190815260200160002054905060606113e2612497565b6040518061010001604052808481526020018a8152602001838152602001891515815260200188151581526020018781526020018681526020018581525090506000600482908060018154018082558091505090600182039060005260206000209060070201600090919290919091506000820151816000015560208201518160010190805190602001906114789291906124e0565b506040820151816002019080519060200190611495929190612560565b5060608201518160030160006101000a81548160ff02191690831515021790555060808201518160030160016101000a81548160ff02191690831515021790555060a0820151816004015560c08201518160050190805190602001906114fc929190612560565b5060e0820151816006019080519060200190611519929190612560565b50505090506005600085815260200190815260200160002060018203908060018154018082558091505090600182039060005260206000200160009091929091909150555050505050505050505050565b6004828154811061157757fe5b906000526020600020906007020160030160009054906101000a900460ff16611608576040517f08c379a000000000000000000000000000000000000000000000000000000000815260040180806020018281038252601d8152602001807f5075626c69636174696f6e206973206e6f7420616e2061756374696f6e00000081525060200191505060405180910390fd5b806004838154811061161657fe5b90600052602060002090600702016004018190555060006004838154811061163a57fe5b906000526020600020906007020160030160006101000a81548160ff0219169083151502179055505050565b60006002828154811061167557fe5b90600052602060002090600402016002015490506004818154811061169657fe5b906000526020600020906007020160030160009054906101000a900460ff16611727576040517f08c379a000000000000000000000000000000000000000000000000000000000815260040180806020018281038252601b8152602001807f5075626c69636174696f6e206e6f7420616e2061756374696f6e2e000000000081525060200191505060405180910390fd5b6004818154811061173457fe5b906000526020600020906007020160030160019054906101000a900460ff166117c5576040517f08c379a00000000000000000000000000000000000000000000000000000000081526004018080602001828103825260148152602001807f41756374696f6e206e6f742072756e6e696e672e00000000000000000000000081525060200191505060405180910390fd5b60028083815481106117d357fe5b906000526020600020906004020160010160006101000a81548160ff021916908360048111156117ff57fe5b02179055505050565b600081511161187f576040517f08c379a00000000000000000000000000000000000000000000000000000000081526004018080602001828103825260208152602001807f50726f66696c652055524c2073686f756c64206e6f7420626520656d7074792e81525060200191505060405180910390fd5b6000600160003373ffffffffffffffffffffffffffffffffffffffff1673ffffffffffffffffffffffffffffffffffffffff1681526020019081526020016000205414611934576040517f08c379a00000000000000000000000000000000000000000000000000000000081526004018080602001828103825260188152602001807f5573657220616c726561647920726567697374657265642e000000000000000081525060200191505060405180910390fd5b60008060405180604001604052803373ffffffffffffffffffffffffffffffffffffffff168152602001848152509080600181540180825580915050906001820390600052602060002090600202016000909192909190915060008201518160000160006101000a81548173ffffffffffffffffffffffffffffffffffffffff021916908373ffffffffffffffffffffffffffffffffffffffff16021790555060208201518160010190805190602001906119f09291906124e0565b505050905060018103600160003373ffffffffffffffffffffffffffffffffffffffff1673ffffffffffffffffffffffffffffffffffffffff168152602001908152602001600020819055505050565b606060056000838152602001908152602001600020805480602002602001604051908101604052809291908181526020018280548015611a9f57602002820191906000526020600020905b815481526020019060010190808311611a8b575b50505050509050919050565b60048281548110611ab857fe5b906000526020600020906007020160030160009054906101000a900460ff1615611b4a576040517f08c379a000000000000000000000000000000000000000000000000000000000815260040180806020018281038252601a8152602001807f5075626c69636174696f6e206973206f6e2061756374696f6e2e00000000000081525060200191505060405180910390fd5b8060048381548110611b5857fe5b9060005260206000209060070201600401819055505050565b600060028281548110611b8057fe5b906000526020600020906004020160020154905060048181548110611ba157fe5b906000526020600020906007020160030160009054906101000a900460ff16611c32576040517f08c379a000000000000000000000000000000000000000000000000000000000815260040180806020018281038252601b8152602001807f5075626c69636174696f6e206e6f7420616e2061756374696f6e2e000000000081525060200191505060405180910390fd5b60048181548110611c3f57fe5b906000526020600020906007020160030160019054906101000a900460ff16611cd0576040517f08c379a00000000000000000000000000000000000000000000000000000000081526004018080602001828103825260148152602001807f41756374696f6e206e6f742072756e6e696e672e00000000000000000000000081525060200191505060405180910390fd5b600460028381548110611cdf57fe5b906000526020600020906004020160010160006101000a81548160ff02191690836004811115611d0b57fe5b02179055505050565b60048181548110611d2157fe5b906000526020600020906007020160030160019054906101000a900460ff161560048281548110611d4e57fe5b906000526020600020906007020160030160016101000a81548160ff02191690831515021790555050565b60606000600160008473ffffffffffffffffffffffffffffffffffffffff1673ffffffffffffffffffffffffffffffffffffffff16815260200190815260200160002054905060036000828152602001908152602001600020805480602002602001604051908101604052809291908181526020018280548015611e1c57602002820191906000526020600020905b815481526020019060010190808311611e08575b5050505050915050919050565b600060048281548110611e3857fe5b9060005260206000209060070201600001541415611ebe576040517f08c379a00000000000000000000000000000000000000000000000000000000081526004018080602001828103825260198152602001807f5075626c69636174696f6e206e6f7420656e6c69737465642e0000000000000081525060200191505060405180910390fd5b6000600160003373ffffffffffffffffffffffffffffffffffffffff1673ffffffffffffffffffffffffffffffffffffffff168152602001908152602001600020541415611f57576040517f08c379a00000000000000000000000000000000000000000000000000000000081526004018080602001828103825260218152602001806125d36021913960400191505060405180910390fd5b60048181548110611f6457fe5b906000526020600020906007020160030160009054906101000a900460ff16156121d85760048181548110611f9557fe5b906000526020600020906007020160030160019054906101000a900460ff16612026576040517f08c379a00000000000000000000000000000000000000000000000000000000081526004018080602001828103825260178152602001807f41756374696f6e206973206e6f742072756e6e696e672e00000000000000000081525060200191505060405180910390fd5b6000600260405180608001604052808581526020016000600481111561204857fe5b8152602001848152602001600160003373ffffffffffffffffffffffffffffffffffffffff1673ffffffffffffffffffffffffffffffffffffffff16815260200190815260200160002054815250908060018154018082558091505090600182039060005260206000209060040201600090919290919091506000820151816000015560208201518160010160006101000a81548160ff021916908360048111156120ef57fe5b02179055506040820151816002015560608201518160030155505090506004828154811061211957fe5b906000526020600020906007020160020160018203908060018154018082558091505090600182039060005260206000200160009091929091909150555060036000600160003373ffffffffffffffffffffffffffffffffffffffff1673ffffffffffffffffffffffffffffffffffffffff168152602001908152602001600020548152602001908152602001600020600182039080600181540180825580915050906001820390600052602060002001600090919290919091505550505b600481815481106121e557fe5b906000526020600020906007020160030160009054906101000a900460ff1661244d576004818154811061221557fe5b906000526020600020906007020160040154821461229b576040517f08c379a00000000000000000000000000000000000000000000000000000000081526004018080602001828103825260158152602001807f496e636f72726563742066756e64732073656e742e000000000000000000000081525060200191505060405180910390fd5b600060026040518060800160405280858152602001600360048111156122bd57fe5b8152602001848152602001600160003373ffffffffffffffffffffffffffffffffffffffff1673ffffffffffffffffffffffffffffffffffffffff16815260200190815260200160002054815250908060018154018082558091505090600182039060005260206000209060040201600090919290919091506000820151816000015560208201518160010160006101000a81548160ff0219169083600481111561236457fe5b02179055506040820151816002015560608201518160030155505090506004828154811061238e57fe5b906000526020600020906007020160020160018203908060018154018082558091505090600182039060005260206000200160009091929091909150555060036000600160003373ffffffffffffffffffffffffffffffffffffffff1673ffffffffffffffffffffffffffffffffffffffff168152602001908152602001600020548152602001908152602001600020600182039080600181540180825580915050906001820390600052602060002001600090919290919091505550505b5050565b6003602052816000526040600020818154811061246a57fe5b90600052602060002001600091509150505481565b60016020528060005260406000206000915090505481565b6040518061010001604052806000815260200160608152602001606081526020016000151581526020016000151581526020016000815260200160608152602001606081525090565b828054600181600116156101000203166002900490600052602060002090601f016020900481019282601f1061252157805160ff191683800117855561254f565b8280016001018555821561254f579182015b8281111561254e578251825591602001919060010190612533565b5b50905061255c91906125ad565b5090565b82805482825590600052602060002090810192821561259c579160200282015b8281111561259b578251825591602001919060010190612580565b5b5090506125a991906125ad565b5090565b6125cf91905b808211156125cb5760008160009055506001016125b3565b5090565b9056fe4269646465722061646472657373206973206e6f7420726567697374657265642e53686f756c64206e6f7420737065636966792073656c6c20707269636520666f722061756374696f6e2e5075626c69636174696f6e20697320616c7265616479206f6e2061756374696f6e5075626c69636174696f6e2055524c2073686f756c64206e6f7420626520656d7074792ea165627a7a72305820ce213e6b5450d5a8d84a724cd4f2b323d00090ca5b271cbb583f7171373057c20029",
  "source": "pragma solidity^0.5.0;\nimport \"openzeppelin-solidity/contracts/ownership/Ownable.sol\";\n\ncontract UnicoinRegistry {\n    // Creates a struct for users of the plaform.\n    struct User {\n        address owned_address;\n        string profile_url;\n    }\n    User[] public users;\n\n    // The mapping below maps all users' addresses to their userID\n    mapping (address => uint256) public userAddresses ;\n\n    enum bidStatus {Pending, Accepted, Rejected, Sale, Cancelled}\n\n    // Creates a struct for all bids.\n    struct Bid {\n        uint256 offer;\n        bidStatus status;\n        uint256 publication_Id;\n        uint256 owner_Id;\n    }\n    Bid[] public bids;\n\n    // The mapping below maps all bidders' IDs to their userID\n    mapping(uint256 => uint256[]) public bidOwners;\n\n    struct Publication {\n        uint256 author_Id;\n        string publication_url;\n        // The array below will contain all bids received for that work.\n        uint256[] publication_bids;\n        // If the researcher has chosen the auction pricing structure, the below is TRUE.\n        bool isAuction;\n        // If the auction is still running, the below is TRUE, because the researcher can choose to stop the auction at any point.\n        bool isRunning;\n        // If both of the booleans above are FALSE, the price below is the flat sale price of the work.\n        uint256 sell_price;\n        uint256[] contributors;\n        uint256[] contributors_weightings;\n    }\n    Publication[] public publications;\n    \n    // The mapping below will map the addresses of all the successful bidders' addresses to the ID of their owned publications\n    mapping(uint256 => uint256[]) public publicationOwners;\n    \n    // The constructer below reserves user 0 for all unregistered users.\n    constructor() public {\n        users.push(User(address(0),\"\"));\n    }\n\n    // This function registers a user on the platform.\n    function registerUser(string memory _profile_url) public {\n        require(bytes(_profile_url).length > 0, \"Profile URL should not be empty.\");\n        // If the user's address is in position 0 of the userAddresses array, they are unregistered.\n        require(userAddresses[msg.sender]==0,\"User already registered.\");\n        uint256 id = users.push(User(msg.sender,_profile_url));\n        userAddresses[msg.sender] = id - 1;\n    }\n\n    // This function creates a publication on the system, with blank arrays for publication bids and owners,\n    // since no one has bidded for or bought a licence yet.\n    function createPublication(string memory _publication_url, bool _isAuction, bool _isRunning, uint256 _sell_price, uint256[] memory _contributors, uint256[] memory _contributors_weightings) public {\n        require(bytes(_publication_url).length > 0, \"Publication URL should not be empty.\");\n        require(userAddresses[msg.sender] != 0, \"User address is not registered.\");\n        // The researcher only specifies the flat rate if they have chosen not to auction the work.\n        if(_isAuction) {\n            require(_sell_price == 0, \"Should not specify sell price for auction.\");\n        }\n        else {\n            require(_sell_price > 0, \"Sell price not specified.\");\n        }\n        uint256 _author_Id = userAddresses[msg.sender];\n        uint256[] memory _publication_bids;\n        Publication memory _publication = Publication(_author_Id, _publication_url, _publication_bids, _isAuction, _isRunning, _sell_price, _contributors, _contributors_weightings);\n        uint256 _id = publications.push(_publication);\n        publicationOwners[_author_Id].push(_id - 1);\n    }\n\n    // This function creates a new bid for a particular publication.\n    function makeBid(uint256 _offer, uint256 _publication_Id) public {\n        require(publications[_publication_Id].author_Id != 0, \"Publication not enlisted.\");\n        require(userAddresses[msg.sender] != 0, \"Bidder address is not registered.\");\n        // The bidder should only be able to submit a bid if the publication's pricing structure is an auction and the auction is running\n        if(publications[_publication_Id].isAuction) {\n            require(publications[_publication_Id].isRunning, \"Auction is not running.\");\n            // By default the bid will have a status of Pending until it is accepted or rejected by the author\n            uint256 _id = bids.push(Bid(_offer, bidStatus.Pending, _publication_Id, userAddresses[msg.sender]));\n            publications[_publication_Id].publication_bids.push(_id - 1);\n            bidOwners[userAddresses[msg.sender]].push(_id - 1);\n        }\n        // If the author has specified a flat rate, the buyer doesn't submit a bid but just sends the funds.\n        if(!publications[_publication_Id].isAuction) {\n            // The funds sent should match the sale price specified by the author.\n            require(_offer == publications[_publication_Id].sell_price, \"Incorrect funds sent.\");\n            // This 'bid' has a status of sale because the author does not need to evaluate and accept/reject these bids.\n            uint256 _id = bids.push(Bid(_offer, bidStatus.Sale, _publication_Id, userAddresses[msg.sender]));\n            publications[_publication_Id].publication_bids.push(_id - 1);\n            bidOwners[userAddresses[msg.sender]].push(_id - 1);\n        }\n    }\n        \n    // This function allows the auctioneer to accept the bids\n    function acceptBid(uint256 _id) public {\n        uint256 _publication_Id = bids[_id].publication_Id;\n        require(publications[_publication_Id].isAuction, \"Publication not an auction.\");\n        require(publications[_publication_Id].isRunning, \"Auction is not running.\");\n        bids[_id].status = bidStatus.Accepted;\n    }\n\n    // This function allows the auctioneer to reject the bids\n    function rejectBid(uint256 _id) public {\n        uint256 _publication_Id = bids[_id].publication_Id;\n        require(publications[_publication_Id].isAuction, \"Publication not an auction.\");\n        require(publications[_publication_Id].isRunning, \"Auction not running.\");\n        bids[_id].status = bidStatus.Rejected;\n    }\n\n    // This function allows the auctioneer to cancel the bids\n    function cancelBid(uint256 _id) public {\n        uint256 _publication_Id = bids[_id].publication_Id;\n        require(publications[_publication_Id].isAuction, \"Publication not an auction.\");\n        require(publications[_publication_Id].isRunning, \"Auction not running.\");\n        bids[_id].status = bidStatus.Cancelled;\n    }\n    \n    function changeToSale(uint256 _publication_Id, uint256 _sell_price) public {\n        require(publications[_publication_Id].isAuction, \"Publication is not an auction\");\n        publications[_publication_Id].sell_price = _sell_price;\n        publications[_publication_Id].isAuction = false;\n    }\n   \n    function changeToAuction(uint256 _publication_Id) public {\n        require(!publications[_publication_Id].isAuction, \"Publication is already on auction\");\n        publications[_publication_Id].sell_price = 0;\n        publications[_publication_Id].isAuction = true;\n    }\n\n    function changeSellPrice(uint256 _publication_Id, uint256 _sell_price) public {\n        require(!publications[_publication_Id].isAuction, \"Publication is on auction.\");\n        publications[_publication_Id].sell_price = _sell_price;\n    }\n\n    function changeRunningStatus(uint256 _publication_Id) public {\n        publications[_publication_Id].isRunning = !publications[_publication_Id].isRunning;\n    }\n\n    function getPublications(address _address) public view returns(uint256[] memory) {\n        uint256 _author_Id = userAddresses[_address];\n        return publicationOwners[_author_Id];\n    }\n\n    function getBids(address _address) public view returns(uint256[] memory) {\n        uint256 _userAddress = userAddresses[_address];\n        return bidOwners[_userAddress];\n    }\n\n    function getPublications(uint256 _user_Id) public view returns(uint256[] memory) {\n        return publicationOwners[_user_Id];\n    }\n\n    function getBids(uint256 _user_Id) public view returns(uint256[] memory) {\n        return bidOwners[_user_Id];\n    }\n\n    function getPublicationBids(uint256 _publication_Id) public view returns(uint256[] memory) {\n        return publications[_publication_Id].publication_bids;\n    }\n}\n",
  "sourcePath": "/Users/chris/Projects/unicoindapp/contracts/UnicoinRegistry.sol",
  "compiler": {
    "name": "solc",
    "version": "0.5.8+commit.23d335f2.Emscripten.clang"
  },
  "schemaVersion": "3.0.11",
  "updatedAt": "2019-07-12T12:42:39.420Z",
  "devdoc": {
    "methods": {}
  },
  "userdoc": {
    "methods": {}
  }
}