{
  "contractName": "UnicoinRegistry",
  "abi": [
    {
      "constant": true,
      "inputs": [
        {
          "name": "interfaceId",
          "type": "bytes4"
        }
      ],
      "name": "supportsInterface",
      "outputs": [
        {
          "name": "",
          "type": "bool"
        }
      ],
      "payable": false,
      "stateMutability": "view",
      "type": "function"
    },
    {
      "constant": true,
      "inputs": [],
      "name": "name",
      "outputs": [
        {
          "name": "",
          "type": "string"
        }
      ],
      "payable": false,
      "stateMutability": "view",
      "type": "function"
    },
    {
      "constant": true,
      "inputs": [
        {
          "name": "tokenId",
          "type": "uint256"
        }
      ],
      "name": "getApproved",
      "outputs": [
        {
          "name": "",
          "type": "address"
        }
      ],
      "payable": false,
      "stateMutability": "view",
      "type": "function"
    },
    {
      "constant": false,
      "inputs": [
        {
          "name": "to",
          "type": "address"
        },
        {
          "name": "tokenId",
          "type": "uint256"
        }
      ],
      "name": "approve",
      "outputs": [],
      "payable": false,
      "stateMutability": "nonpayable",
      "type": "function"
    },
    {
      "constant": true,
      "inputs": [
        {
          "name": "",
          "type": "uint256"
        },
        {
          "name": "",
          "type": "uint256"
        }
      ],
      "name": "publicationOwners",
      "outputs": [
        {
          "name": "",
          "type": "uint256"
        }
      ],
      "payable": false,
      "stateMutability": "view",
      "type": "function"
    },
    {
      "constant": true,
      "inputs": [
        {
          "name": "",
          "type": "uint256"
        }
      ],
      "name": "publications",
      "outputs": [
        {
          "name": "author_Id",
          "type": "uint256"
        },
        {
          "name": "publication_uri",
          "type": "string"
        },
        {
          "name": "isAuction",
          "type": "bool"
        },
        {
          "name": "isRunning",
          "type": "bool"
        },
        {
          "name": "sell_price",
          "type": "uint256"
        }
      ],
      "payable": false,
      "stateMutability": "view",
      "type": "function"
    },
    {
      "constant": false,
      "inputs": [
        {
          "name": "from",
          "type": "address"
        },
        {
          "name": "to",
          "type": "address"
        },
        {
          "name": "tokenId",
          "type": "uint256"
        }
      ],
      "name": "transferFrom",
      "outputs": [],
      "payable": false,
      "stateMutability": "nonpayable",
      "type": "function"
    },
    {
      "constant": true,
      "inputs": [
        {
          "name": "",
          "type": "uint256"
        }
      ],
      "name": "users",
      "outputs": [
        {
          "name": "owned_address",
          "type": "address"
        },
        {
          "name": "profile_uri",
          "type": "string"
        }
      ],
      "payable": false,
      "stateMutability": "view",
      "type": "function"
    },
    {
      "constant": false,
      "inputs": [
        {
          "name": "from",
          "type": "address"
        },
        {
          "name": "to",
          "type": "address"
        },
        {
          "name": "tokenId",
          "type": "uint256"
        }
      ],
      "name": "safeTransferFrom",
      "outputs": [],
      "payable": false,
      "stateMutability": "nonpayable",
      "type": "function"
    },
    {
      "constant": true,
      "inputs": [
        {
          "name": "",
          "type": "uint256"
        }
      ],
      "name": "bids",
      "outputs": [
        {
          "name": "offer",
          "type": "uint256"
        },
        {
          "name": "status",
          "type": "uint8"
        },
        {
          "name": "publication_Id",
          "type": "uint256"
        },
        {
          "name": "owner_Id",
          "type": "uint256"
        }
      ],
      "payable": false,
      "stateMutability": "view",
      "type": "function"
    },
    {
      "constant": true,
      "inputs": [
        {
          "name": "tokenId",
          "type": "uint256"
        }
      ],
      "name": "ownerOf",
      "outputs": [
        {
          "name": "",
          "type": "address"
        }
      ],
      "payable": false,
      "stateMutability": "view",
      "type": "function"
    },
    {
      "constant": true,
      "inputs": [
        {
          "name": "",
          "type": "uint256"
        }
      ],
      "name": "licenceOwners",
      "outputs": [
        {
          "name": "",
          "type": "uint256"
        }
      ],
      "payable": false,
      "stateMutability": "view",
      "type": "function"
    },
    {
      "constant": true,
      "inputs": [
        {
          "name": "owner",
          "type": "address"
        }
      ],
      "name": "balanceOf",
      "outputs": [
        {
          "name": "",
          "type": "uint256"
        }
      ],
      "payable": false,
      "stateMutability": "view",
      "type": "function"
    },
    {
      "constant": true,
      "inputs": [],
      "name": "symbol",
      "outputs": [
        {
          "name": "",
          "type": "string"
        }
      ],
      "payable": false,
      "stateMutability": "view",
      "type": "function"
    },
    {
      "constant": false,
      "inputs": [
        {
          "name": "to",
          "type": "address"
        },
        {
          "name": "approved",
          "type": "bool"
        }
      ],
      "name": "setApprovalForAll",
      "outputs": [],
      "payable": false,
      "stateMutability": "nonpayable",
      "type": "function"
    },
    {
      "constant": false,
      "inputs": [
        {
          "name": "from",
          "type": "address"
        },
        {
          "name": "to",
          "type": "address"
        },
        {
          "name": "tokenId",
          "type": "uint256"
        },
        {
          "name": "_data",
          "type": "bytes"
        }
      ],
      "name": "safeTransferFrom",
      "outputs": [],
      "payable": false,
      "stateMutability": "nonpayable",
      "type": "function"
    },
    {
      "constant": true,
      "inputs": [
        {
          "name": "",
          "type": "uint256"
        }
      ],
      "name": "licences",
      "outputs": [
        {
          "name": "buyer_Id",
          "type": "uint256"
        },
        {
          "name": "Publication_Id",
          "type": "uint256"
        },
        {
          "name": "bid_Id",
          "type": "uint256"
        }
      ],
      "payable": false,
      "stateMutability": "view",
      "type": "function"
    },
    {
      "constant": true,
      "inputs": [
        {
          "name": "tokenId",
          "type": "uint256"
        }
      ],
      "name": "tokenURI",
      "outputs": [
        {
          "name": "",
          "type": "string"
        }
      ],
      "payable": false,
      "stateMutability": "view",
      "type": "function"
    },
    {
      "constant": true,
      "inputs": [
        {
          "name": "",
          "type": "uint256"
        },
        {
          "name": "",
          "type": "uint256"
        }
      ],
      "name": "publicationLicences",
      "outputs": [
        {
          "name": "",
          "type": "uint256"
        }
      ],
      "payable": false,
      "stateMutability": "view",
      "type": "function"
    },
    {
      "constant": true,
      "inputs": [
        {
          "name": "",
          "type": "uint256"
        },
        {
          "name": "",
          "type": "uint256"
        }
      ],
      "name": "bidOwners",
      "outputs": [
        {
          "name": "",
          "type": "uint256"
        }
      ],
      "payable": false,
      "stateMutability": "view",
      "type": "function"
    },
    {
      "constant": true,
      "inputs": [
        {
          "name": "owner",
          "type": "address"
        },
        {
          "name": "operator",
          "type": "address"
        }
      ],
      "name": "isApprovedForAll",
      "outputs": [
        {
          "name": "",
          "type": "bool"
        }
      ],
      "payable": false,
      "stateMutability": "view",
      "type": "function"
    },
    {
      "constant": true,
      "inputs": [
        {
          "name": "",
          "type": "address"
        }
      ],
      "name": "userAddresses",
      "outputs": [
        {
          "name": "",
          "type": "uint256"
        }
      ],
      "payable": false,
      "stateMutability": "view",
      "type": "function"
    },
    {
      "inputs": [
        {
          "name": "_daiContractAddress",
          "type": "address"
        }
      ],
      "payable": false,
      "stateMutability": "nonpayable",
      "type": "constructor"
    },
    {
      "anonymous": false,
      "inputs": [
        {
          "indexed": true,
          "name": "_from",
          "type": "address"
        },
        {
          "indexed": false,
          "name": "_publication_uri",
          "type": "string"
        },
        {
          "indexed": false,
          "name": "_isAuction",
          "type": "bool"
        },
        {
          "indexed": false,
          "name": "_sell_price",
          "type": "uint256"
        }
      ],
      "name": "NewPublication",
      "type": "event"
    },
    {
      "anonymous": false,
      "inputs": [
        {
          "indexed": true,
          "name": "_from",
          "type": "address"
        },
        {
          "indexed": true,
          "name": "_publication_Id",
          "type": "uint256"
        },
        {
          "indexed": false,
          "name": "_offer",
          "type": "uint256"
        }
      ],
      "name": "NewBid",
      "type": "event"
    },
    {
      "anonymous": false,
      "inputs": [
        {
          "indexed": true,
          "name": "_from",
          "type": "address"
        },
        {
          "indexed": false,
          "name": "_id",
          "type": "uint256"
        }
      ],
      "name": "AcceptedBid",
      "type": "event"
    },
    {
      "anonymous": false,
      "inputs": [
        {
          "indexed": true,
          "name": "_from",
          "type": "address"
        },
        {
          "indexed": false,
          "name": "_id",
          "type": "uint256"
        }
      ],
      "name": "RejectedBid",
      "type": "event"
    },
    {
      "anonymous": false,
      "inputs": [
        {
          "indexed": true,
          "name": "_from",
          "type": "address"
        },
        {
          "indexed": false,
          "name": "_id",
          "type": "uint256"
        }
      ],
      "name": "CancelledBid",
      "type": "event"
    },
    {
      "anonymous": false,
      "inputs": [
        {
          "indexed": true,
          "name": "_from",
          "type": "address"
        },
        {
          "indexed": true,
          "name": "_publication_Id",
          "type": "uint256"
        },
        {
          "indexed": false,
          "name": "_sell_price",
          "type": "uint256"
        }
      ],
      "name": "ChangeToSale",
      "type": "event"
    },
    {
      "anonymous": false,
      "inputs": [
        {
          "indexed": true,
          "name": "_from",
          "type": "address"
        },
        {
          "indexed": true,
          "name": "_publication_Id",
          "type": "uint256"
        }
      ],
      "name": "ChangeToAuction",
      "type": "event"
    },
    {
      "anonymous": false,
      "inputs": [
        {
          "indexed": true,
          "name": "_from",
          "type": "address"
        },
        {
          "indexed": true,
          "name": "_publication_Id",
          "type": "uint256"
        },
        {
          "indexed": false,
          "name": "_sell_price",
          "type": "uint256"
        }
      ],
      "name": "ChangeSellPrice",
      "type": "event"
    },
    {
      "anonymous": false,
      "inputs": [
        {
          "indexed": true,
          "name": "_from",
          "type": "address"
        },
        {
          "indexed": true,
          "name": "_publication_Id",
          "type": "uint256"
        },
        {
          "indexed": false,
          "name": "_isRunning",
          "type": "bool"
        }
      ],
      "name": "ChangeRunningStatus",
      "type": "event"
    },
    {
      "anonymous": false,
      "inputs": [
        {
          "indexed": true,
          "name": "from",
          "type": "address"
        },
        {
          "indexed": true,
          "name": "to",
          "type": "address"
        },
        {
          "indexed": true,
          "name": "tokenId",
          "type": "uint256"
        }
      ],
      "name": "Transfer",
      "type": "event"
    },
    {
      "anonymous": false,
      "inputs": [
        {
          "indexed": true,
          "name": "owner",
          "type": "address"
        },
        {
          "indexed": true,
          "name": "approved",
          "type": "address"
        },
        {
          "indexed": true,
          "name": "tokenId",
          "type": "uint256"
        }
      ],
      "name": "Approval",
      "type": "event"
    },
    {
      "anonymous": false,
      "inputs": [
        {
          "indexed": true,
          "name": "owner",
          "type": "address"
        },
        {
          "indexed": true,
          "name": "operator",
          "type": "address"
        },
        {
          "indexed": false,
          "name": "approved",
          "type": "bool"
        }
      ],
      "name": "ApprovalForAll",
      "type": "event"
    },
    {
      "constant": false,
      "inputs": [
        {
          "name": "_profile_uri",
          "type": "string"
        }
      ],
      "name": "registerUser",
      "outputs": [],
      "payable": false,
      "stateMutability": "nonpayable",
      "type": "function"
    },
    {
      "constant": false,
      "inputs": [
        {
          "name": "_publication_uri",
          "type": "string"
        },
        {
          "name": "_isAuction",
          "type": "bool"
        },
        {
          "name": "_isRunning",
          "type": "bool"
        },
        {
          "name": "_sell_price",
          "type": "uint256"
        },
        {
          "name": "_contributors",
          "type": "uint256[]"
        },
        {
          "name": "_contributors_weightings",
          "type": "uint256[]"
        }
      ],
      "name": "createPublication",
      "outputs": [],
      "payable": false,
      "stateMutability": "nonpayable",
      "type": "function"
    },
    {
      "constant": false,
      "inputs": [
        {
          "name": "_offer",
          "type": "uint256"
        },
        {
          "name": "_publication_Id",
          "type": "uint256"
        }
      ],
      "name": "makeBid",
      "outputs": [],
      "payable": false,
      "stateMutability": "nonpayable",
      "type": "function"
    },
    {
      "constant": false,
      "inputs": [
        {
          "name": "_id",
          "type": "uint256"
        }
      ],
      "name": "acceptBid",
      "outputs": [],
      "payable": false,
      "stateMutability": "nonpayable",
      "type": "function"
    },
    {
      "constant": false,
      "inputs": [
        {
          "name": "_id",
          "type": "uint256"
        }
      ],
      "name": "rejectBid",
      "outputs": [],
      "payable": false,
      "stateMutability": "nonpayable",
      "type": "function"
    },
    {
      "constant": false,
      "inputs": [
        {
          "name": "_id",
          "type": "uint256"
        }
      ],
      "name": "cancelBid",
      "outputs": [],
      "payable": false,
      "stateMutability": "nonpayable",
      "type": "function"
    },
    {
      "constant": false,
      "inputs": [
        {
          "name": "_publication_Id",
          "type": "uint256"
        },
        {
          "name": "_sell_price",
          "type": "uint256"
        }
      ],
      "name": "changeToSale",
      "outputs": [],
      "payable": false,
      "stateMutability": "nonpayable",
      "type": "function"
    },
    {
      "constant": false,
      "inputs": [
        {
          "name": "_publication_Id",
          "type": "uint256"
        }
      ],
      "name": "changeToAuction",
      "outputs": [],
      "payable": false,
      "stateMutability": "nonpayable",
      "type": "function"
    },
    {
      "constant": false,
      "inputs": [
        {
          "name": "_publication_Id",
          "type": "uint256"
        },
        {
          "name": "_sell_price",
          "type": "uint256"
        }
      ],
      "name": "changeSellPrice",
      "outputs": [],
      "payable": false,
      "stateMutability": "nonpayable",
      "type": "function"
    },
    {
      "constant": false,
      "inputs": [
        {
          "name": "_publication_Id",
          "type": "uint256"
        }
      ],
      "name": "changeRunningStatus",
      "outputs": [],
      "payable": false,
      "stateMutability": "nonpayable",
      "type": "function"
    },
    {
      "constant": true,
      "inputs": [
        {
          "name": "_address",
          "type": "address"
        }
      ],
      "name": "getPublications",
      "outputs": [
        {
          "name": "",
          "type": "uint256[]"
        }
      ],
      "payable": false,
      "stateMutability": "view",
      "type": "function"
    },
    {
      "constant": true,
      "inputs": [
        {
          "name": "_address",
          "type": "address"
        }
      ],
      "name": "getBids",
      "outputs": [
        {
          "name": "",
          "type": "uint256[]"
        }
      ],
      "payable": false,
      "stateMutability": "view",
      "type": "function"
    },
    {
      "constant": true,
      "inputs": [
        {
          "name": "_publication_Id",
          "type": "uint256"
        }
      ],
      "name": "getPublicationBids",
      "outputs": [
        {
          "name": "",
          "type": "uint256[]"
        }
      ],
      "payable": false,
      "stateMutability": "view",
      "type": "function"
    },
    {
      "constant": true,
      "inputs": [],
      "name": "getPublicationLength",
      "outputs": [
        {
          "name": "count",
          "type": "uint256"
        }
      ],
      "payable": false,
      "stateMutability": "view",
      "type": "function"
    },
    {
      "constant": true,
      "inputs": [
        {
          "name": "_publication_Id",
          "type": "uint256"
        }
      ],
      "name": "getPublication",
      "outputs": [
        {
          "name": "",
          "type": "uint256"
        },
        {
          "name": "",
          "type": "string"
        },
        {
          "name": "",
          "type": "uint256[]"
        },
        {
          "name": "",
          "type": "bool"
        },
        {
          "name": "",
          "type": "bool"
        },
        {
          "name": "",
          "type": "uint256"
        },
        {
          "name": "",
          "type": "uint256[]"
        },
        {
          "name": "",
          "type": "uint256[]"
        }
      ],
      "payable": false,
      "stateMutability": "view",
      "type": "function"
    },
    {
      "constant": false,
      "inputs": [
        {
          "name": "_publication_Id",
          "type": "uint256"
        },
        {
          "name": "_value",
          "type": "uint256"
        }
      ],
      "name": "donate",
      "outputs": [],
      "payable": false,
      "stateMutability": "nonpayable",
      "type": "function"
    }
  ],
  "bytecode": "0x60806040523480156200001157600080fd5b5060405160208062005b17833981018060405260208110156200003357600080fd5b81019080805190602001909291905050506040518060400160405280600f81526020017f556e69436f696e204c6963656e636500000000000000000000000000000000008152506040518060400160405280600481526020017f554e494300000000000000000000000000000000000000000000000000000000815250620000c86301ffc9a760e01b620002b160201b60201c565b620000e06380ac58cd60e01b620002b160201b60201c565b8160059080519060200190620000f8929190620003ba565b50806006908051906020019062000111929190620003ba565b506200012a635b5e139f60e01b620002b160201b60201c565b505060086040518060400160405280600073ffffffffffffffffffffffffffffffffffffffff168152602001604051806020016040528060008152508152509080600181540180825580915050906001820390600052602060002090600202016000909192909190915060008201518160000160006101000a81548173ffffffffffffffffffffffffffffffffffffffff021916908373ffffffffffffffffffffffffffffffffffffffff1602179055506020820151816001019080519060200190620001f992919062000441565b50505050600e6040518060600160405280600081526020016000815260200160008152509080600181540180825580915050906001820390600052602060002090600302016000909192909190915060008201518160000155602082015181600101556040820151816002015550505080601160006101000a81548173ffffffffffffffffffffffffffffffffffffffff021916908373ffffffffffffffffffffffffffffffffffffffff16021790555050620004f0565b63ffffffff60e01b817bffffffffffffffffffffffffffffffffffffffffffffffffffffffff191614156200034e576040517f08c379a000000000000000000000000000000000000000000000000000000000815260040180806020018281038252601c8152602001807f4552433136353a20696e76616c696420696e746572666163652069640000000081525060200191505060405180910390fd5b6001600080837bffffffffffffffffffffffffffffffffffffffffffffffffffffffff19167bffffffffffffffffffffffffffffffffffffffffffffffffffffffff1916815260200190815260200160002060006101000a81548160ff02191690831515021790555050565b828054600181600116156101000203166002900490600052602060002090601f016020900481019282601f10620003fd57805160ff19168380011785556200042e565b828001600101855582156200042e579182015b828111156200042d57825182559160200191906001019062000410565b5b5090506200043d9190620004c8565b5090565b828054600181600116156101000203166002900490600052602060002090601f016020900481019282601f106200048457805160ff1916838001178555620004b5565b82800160010185558215620004b5579182015b82811115620004b457825182559160200191906001019062000497565b5b509050620004c49190620004c8565b5090565b620004ed91905b80821115620004e9576000816000905550600101620004cf565b5090565b90565b61561780620005006000396000f3fe608060405234801561001057600080fd5b50600436106102325760003560e01c80636e3341b311610130578063a22cb465116100b8578063c87b56dd1161007c578063c87b56dd14611239578063d628d540146112e0578063dc05d9521461132c578063e985e9c514611378578063fc86dea7146113f457610232565b8063a22cb46514610eb9578063a564e83c14610f09578063adfcdc11146110ac578063b88d4fde146110e4578063bb44aee3146111e957610232565b806390420aee116100ff57806390420aee14610d0957806395d89b4114610d415780639703ef3514610dc45780639ab7a95414610df25780639dccae8214610e2057610232565b80636e3341b314610baa578063704f1b9414610bd857806370a0823114610c935780637ece03bb14610ceb57610232565b806323b872dd116101be5780634423c5f1116101825780634423c5f1146108585780635fd814a0146108bd5780636352211e14610ac25780636557e4a814610b30578063699b5fa114610b7257610232565b806323b872dd146105f15780632b1fd58a1461065f578063365b98b21461068d5780633e7646041461076757806342842e0e146107ea57610232565b8063095ea7b311610205578063095ea7b3146104265780630cdd53f614610474578063142af1ca146104ac578063166c6c80146104f85780631fd5bbab1461052657610232565b806301ffc9a71461023757806306fdde031461029c578063081812fc1461031f578063082047801461038d575b600080fd5b6102826004803603602081101561024d57600080fd5b8101908080357bffffffffffffffffffffffffffffffffffffffffffffffffffffffff1916906020019092919050505061144c565b604051808215151515815260200191505060405180910390f35b6102a46114b3565b6040518080602001828103825283818151815260200191508051906020019080838360005b838110156102e45780820151818401526020810190506102c9565b50505050905090810190601f1680156103115780820380516001836020036101000a031916815260200191505b509250505060405180910390f35b61034b6004803603602081101561033557600080fd5b8101908080359060200190929190505050611555565b604051808273ffffffffffffffffffffffffffffffffffffffff1673ffffffffffffffffffffffffffffffffffffffff16815260200191505060405180910390f35b6103cf600480360360208110156103a357600080fd5b81019080803573ffffffffffffffffffffffffffffffffffffffff1690602001909291905050506115f0565b6040518080602001828103825283818151815260200191508051906020019060200280838360005b838110156104125780820151818401526020810190506103f7565b505050509050019250505060405180910390f35b6104726004803603604081101561043c57600080fd5b81019080803573ffffffffffffffffffffffffffffffffffffffff169060200190929190803590602001909291905050506116a0565b005b6104aa6004803603604081101561048a57600080fd5b810190808035906020019092919080359060200190929190505050611879565b005b6104e2600480360360408110156104c257600080fd5b810190808035906020019092919080359060200190929190505050611c31565b6040518082815260200191505060405180910390f35b6105246004803603602081101561050e57600080fd5b8101908080359060200190929190505050611c5f565b005b6105526004803603602081101561053c57600080fd5b8101908080359060200190929190505050611e38565b60405180868152602001806020018515151515815260200184151515158152602001838152602001828103825286818151815260200191508051906020019080838360005b838110156105b2578082015181840152602081019050610597565b50505050905090810190601f1680156105df5780820380516001836020036101000a031916815260200191505b50965050505050505060405180910390f35b61065d6004803603606081101561060757600080fd5b81019080803573ffffffffffffffffffffffffffffffffffffffff169060200190929190803573ffffffffffffffffffffffffffffffffffffffff16906020019092919080359060200190929190505050611f2d565b005b61068b6004803603602081101561067557600080fd5b8101908080359060200190929190505050611f9c565b005b6106b9600480360360208110156106a357600080fd5b81019080803590602001909291905050506123a6565b604051808373ffffffffffffffffffffffffffffffffffffffff1673ffffffffffffffffffffffffffffffffffffffff16815260200180602001828103825283818151815260200191508051906020019080838360005b8381101561072b578082015181840152602081019050610710565b50505050905090810190601f1680156107585780820380516001836020036101000a031916815260200191505b50935050505060405180910390f35b6107936004803603602081101561077d57600080fd5b810190808035906020019092919050505061248f565b6040518080602001828103825283818151815260200191508051906020019060200280838360005b838110156107d65780820151818401526020810190506107bb565b505050509050019250505060405180910390f35b6108566004803603606081101561080057600080fd5b81019080803573ffffffffffffffffffffffffffffffffffffffff169060200190929190803573ffffffffffffffffffffffffffffffffffffffff16906020019092919080359060200190929190505050612505565b005b6108846004803603602081101561086e57600080fd5b8101908080359060200190929190505050612525565b6040518085815260200184600481111561089a57fe5b60ff16815260200183815260200182815260200194505050505060405180910390f35b610ac0600480360360c08110156108d357600080fd5b81019080803590602001906401000000008111156108f057600080fd5b82018360208201111561090257600080fd5b8035906020019184600183028401116401000000008311171561092457600080fd5b91908080601f016020809104026020016040519081016040528093929190818152602001838380828437600081840152601f19601f82011690508083019250505050505050919291929080351515906020019092919080351515906020019092919080359060200190929190803590602001906401000000008111156109a957600080fd5b8201836020820111156109bb57600080fd5b803590602001918460208302840111640100000000831117156109dd57600080fd5b919080806020026020016040519081016040528093929190818152602001838360200280828437600081840152601f19601f82011690508083019250505050505050919291929080359060200190640100000000811115610a3d57600080fd5b820183602082011115610a4f57600080fd5b80359060200191846020830284011164010000000083111715610a7157600080fd5b919080806020026020016040519081016040528093929190818152602001838360200280828437600081840152601f19601f82011690508083019250505050505050919291929050505061256f565b005b610aee60048036036020811015610ad857600080fd5b81019080803590602001909291905050506129f7565b604051808273ffffffffffffffffffffffffffffffffffffffff1673ffffffffffffffffffffffffffffffffffffffff16815260200191505060405180910390f35b610b5c60048036036020811015610b4657600080fd5b8101908080359060200190929190505050612abf565b6040518082815260200191505060405180910390f35b610ba860048036036040811015610b8857600080fd5b810190808035906020019092919080359060200190929190505050612ad7565b005b610bd660048036036020811015610bc057600080fd5b8101908080359060200190929190505050612cd7565b005b610c9160048036036020811015610bee57600080fd5b8101908080359060200190640100000000811115610c0b57600080fd5b820183602082011115610c1d57600080fd5b80359060200191846001830284011164010000000083111715610c3f57600080fd5b91908080601f016020809104026020016040519081016040528093929190818152602001838380828437600081840152601f19601f820116905080830192505050505050509192919290505050612f7d565b005b610cd560048036036020811015610ca957600080fd5b81019080803573ffffffffffffffffffffffffffffffffffffffff1690602001909291905050506131b6565b6040518082815260200191505060405180910390f35b610cf361328b565b6040518082815260200191505060405180910390f35b610d3f60048036036040811015610d1f57600080fd5b810190808035906020019092919080359060200190929190505050613298565b005b610d49613462565b6040518080602001828103825283818151815260200191508051906020019080838360005b83811015610d89578082015181840152602081019050610d6e565b50505050905090810190601f168015610db65780820380516001836020036101000a031916815260200191505b509250505060405180910390f35b610df060048036036020811015610dda57600080fd5b8101908080359060200190929190505050613504565b005b610e1e60048036036020811015610e0857600080fd5b81019080803590602001909291905050506137aa565b005b610e6260048036036020811015610e3657600080fd5b81019080803573ffffffffffffffffffffffffffffffffffffffff169060200190929190505050613942565b6040518080602001828103825283818151815260200191508051906020019060200280838360005b83811015610ea5578082015181840152602081019050610e8a565b505050509050019250505060405180910390f35b610f0760048036036040811015610ecf57600080fd5b81019080803573ffffffffffffffffffffffffffffffffffffffff1690602001909291908035151590602001909291905050506139f2565b005b610f3560048036036020811015610f1f57600080fd5b8101908080359060200190929190505050613b95565b6040518089815260200180602001806020018815151515815260200187151515158152602001868152602001806020018060200185810385528c818151815260200191508051906020019080838360005b83811015610fa1578082015181840152602081019050610f86565b50505050905090810190601f168015610fce5780820380516001836020036101000a031916815260200191505b5085810384528b818151815260200191508051906020019060200280838360005b8381101561100a578082015181840152602081019050610fef565b50505050905001858103835287818151815260200191508051906020019060200280838360005b8381101561104c578082015181840152602081019050611031565b50505050905001858103825286818151815260200191508051906020019060200280838360005b8381101561108e578082015181840152602081019050611073565b505050509050019c5050505050505050505050505060405180910390f35b6110e2600480360360408110156110c257600080fd5b810190808035906020019092919080359060200190929190505050613e17565b005b6111e7600480360360808110156110fa57600080fd5b81019080803573ffffffffffffffffffffffffffffffffffffffff169060200190929190803573ffffffffffffffffffffffffffffffffffffffff169060200190929190803590602001909291908035906020019064010000000081111561116157600080fd5b82018360208201111561117357600080fd5b8035906020019184600183028401116401000000008311171561119557600080fd5b91908080601f016020809104026020016040519081016040528093929190818152602001838380828437600081840152601f19601f8201169050808301925050505050505091929192905050506145ef565b005b611215600480360360208110156111ff57600080fd5b8101908080359060200190929190505050614661565b60405180848152602001838152602001828152602001935050505060405180910390f35b6112656004803603602081101561124f57600080fd5b8101908080359060200190929190505050614698565b6040518080602001828103825283818151815260200191508051906020019080838360005b838110156112a557808201518184015260208101905061128a565b50505050905090810190601f1680156112d25780820380516001836020036101000a031916815260200191505b509250505060405180910390f35b611316600480360360408110156112f657600080fd5b8101908080359060200190929190803590602001909291905050506147ab565b6040518082815260200191505060405180910390f35b6113626004803603604081101561134257600080fd5b8101908080359060200190929190803590602001909291905050506147d9565b6040518082815260200191505060405180910390f35b6113da6004803603604081101561138e57600080fd5b81019080803573ffffffffffffffffffffffffffffffffffffffff169060200190929190803573ffffffffffffffffffffffffffffffffffffffff169060200190929190505050614807565b604051808215151515815260200191505060405180910390f35b6114366004803603602081101561140a57600080fd5b81019080803573ffffffffffffffffffffffffffffffffffffffff16906020019092919050505061489b565b6040518082815260200191505060405180910390f35b6000806000837bffffffffffffffffffffffffffffffffffffffffffffffffffffffff19167bffffffffffffffffffffffffffffffffffffffffffffffffffffffff1916815260200190815260200160002060009054906101000a900460ff169050919050565b606060058054600181600116156101000203166002900480601f01602080910402602001604051908101604052809291908181526020018280546001816001161561010002031660029004801561154b5780601f106115205761010080835404028352916020019161154b565b820191906000526020600020905b81548152906001019060200180831161152e57829003601f168201915b5050505050905090565b6000611560826148b3565b6115b5576040517f08c379a000000000000000000000000000000000000000000000000000000000815260040180806020018281038252602c8152602001806154a4602c913960400191505060405180910390fd5b6002600083815260200190815260200160002060009054906101000a900473ffffffffffffffffffffffffffffffffffffffff169050919050565b60606000600960008473ffffffffffffffffffffffffffffffffffffffff1673ffffffffffffffffffffffffffffffffffffffff168152602001908152602001600020549050600d600082815260200190815260200160002080548060200260200160405190810160405280929190818152602001828054801561169357602002820191906000526020600020905b81548152602001906001019080831161167f575b5050505050915050919050565b60006116ab826129f7565b90508073ffffffffffffffffffffffffffffffffffffffff168373ffffffffffffffffffffffffffffffffffffffff161415611732576040517f08c379a00000000000000000000000000000000000000000000000000000000081526004018080602001828103825260218152602001806155526021913960400191505060405180910390fd5b8073ffffffffffffffffffffffffffffffffffffffff163373ffffffffffffffffffffffffffffffffffffffff16148061177257506117718133614807565b5b6117c7576040517f08c379a00000000000000000000000000000000000000000000000000000000081526004018080602001828103825260388152602001806154196038913960400191505060405180910390fd5b826002600084815260200190815260200160002060006101000a81548173ffffffffffffffffffffffffffffffffffffffff021916908373ffffffffffffffffffffffffffffffffffffffff160217905550818373ffffffffffffffffffffffffffffffffffffffff168273ffffffffffffffffffffffffffffffffffffffff167f8c5be1e5ebec7d5bd14f71427d1e84f3dd0314c0f7b2291e5b200ac8c7c3b92560405160405180910390a4505050565b6000600960003373ffffffffffffffffffffffffffffffffffffffff1673ffffffffffffffffffffffffffffffffffffffff16815260200190815260200160002054141561192f576040517f08c379a000000000000000000000000000000000000000000000000000000000815260040180806020018281038252601f8152602001807f557365722061646472657373206973206e6f7420726567697374657265642e0081525060200191505060405180910390fd5b80601160009054906101000a900473ffffffffffffffffffffffffffffffffffffffff1673ffffffffffffffffffffffffffffffffffffffff1663dd62ed3e33306040518363ffffffff1660e01b8152600401808373ffffffffffffffffffffffffffffffffffffffff1673ffffffffffffffffffffffffffffffffffffffff1681526020018273ffffffffffffffffffffffffffffffffffffffff1673ffffffffffffffffffffffffffffffffffffffff1681526020019250505060206040518083038186803b158015611a0357600080fd5b505afa158015611a17573d6000803e3d6000fd5b505050506040513d6020811015611a2d57600080fd5b81019080805190602001909291905050501015611ab2576040517f08c379a000000000000000000000000000000000000000000000000000000000815260040180806020018281038252601b8152602001807f496e73756666696369656e742066756e6420616c6c6f77616e6365000000000081525060200191505060405180910390fd5b60006008600c8481548110611ac357fe5b90600052602060002090600702016000015481548110611adf57fe5b906000526020600020906002020160000160009054906101000a900473ffffffffffffffffffffffffffffffffffffffff169050601160009054906101000a900473ffffffffffffffffffffffffffffffffffffffff1673ffffffffffffffffffffffffffffffffffffffff166323b872dd3383856040518463ffffffff1660e01b8152600401808473ffffffffffffffffffffffffffffffffffffffff1673ffffffffffffffffffffffffffffffffffffffff1681526020018373ffffffffffffffffffffffffffffffffffffffff1673ffffffffffffffffffffffffffffffffffffffff1681526020018281526020019350505050602060405180830381600087803b158015611bf057600080fd5b505af1158015611c04573d6000803e3d6000fd5b505050506040513d6020811015611c1a57600080fd5b810190808051906020019092919050505050505050565b600d6020528160005260406000208181548110611c4a57fe5b90600052602060002001600091509150505481565b600c8181548110611c6c57fe5b906000526020600020906007020160000154600960003373ffffffffffffffffffffffffffffffffffffffff1673ffffffffffffffffffffffffffffffffffffffff1681526020019081526020016000205414611d14576040517f08c379a00000000000000000000000000000000000000000000000000000000081526004018080602001828103825260278152602001806155736027913960400191505060405180910390fd5b600c8181548110611d2157fe5b906000526020600020906007020160030160009054906101000a900460ff1615611d96576040517f08c379a00000000000000000000000000000000000000000000000000000000081526004018080602001828103825260218152602001806155cb6021913960400191505060405180910390fd5b6000600c8281548110611da557fe5b9060005260206000209060070201600401819055506001600c8281548110611dc957fe5b906000526020600020906007020160030160006101000a81548160ff021916908315150217905550803373ffffffffffffffffffffffffffffffffffffffff167fed3628c645cd5f837f2e20e2e7d612b35ed6266f622397f8cf6e70fdf8b1a93d60405160405180910390a350565b600c8181548110611e4557fe5b9060005260206000209060070201600091509050806000015490806001018054600181600116156101000203166002900480601f016020809104026020016040519081016040528092919081815260200182805460018160011615610100020316600290048015611ef75780601f10611ecc57610100808354040283529160200191611ef7565b820191906000526020600020905b815481529060010190602001808311611eda57829003601f168201915b5050505050908060030160009054906101000a900460ff16908060030160019054906101000a900460ff16908060040154905085565b611f373382614925565b611f8c576040517f08c379a000000000000000000000000000000000000000000000000000000000815260040180806020018281038252603181526020018061559a6031913960400191505060405180910390fd5b611f97838383614a19565b505050565b6000600a8281548110611fab57fe5b9060005260206000209060040201600201549050600c8181548110611fcc57fe5b906000526020600020906007020160000154600960003373ffffffffffffffffffffffffffffffffffffffff1673ffffffffffffffffffffffffffffffffffffffff1681526020019081526020016000205414612074576040517f08c379a00000000000000000000000000000000000000000000000000000000081526004018080602001828103825260278152602001806155736027913960400191505060405180910390fd5b600c818154811061208157fe5b906000526020600020906007020160030160009054906101000a900460ff16612112576040517f08c379a000000000000000000000000000000000000000000000000000000000815260040180806020018281038252601b8152602001807f5075626c69636174696f6e206e6f7420616e2061756374696f6e2e000000000081525060200191505060405180910390fd5b600c818154811061211f57fe5b906000526020600020906007020160030160019054906101000a900460ff166121b0576040517f08c379a00000000000000000000000000000000000000000000000000000000081526004018080602001828103825260178152602001807f41756374696f6e206973206e6f742072756e6e696e672e00000000000000000081525060200191505060405180910390fd5b6001600a83815481106121bf57fe5b906000526020600020906004020160010160006101000a81548160ff021916908360048111156121eb57fe5b02179055506000600e6040518060600160405280600a868154811061220c57fe5b906000526020600020906004020160030154815260200184815260200185815250908060018154018082558091505090600182039060005260206000209060030201600090919290919091506000820151816000015560208201518160010155604082015181600201555050905080600f6000600a868154811061228c57fe5b906000526020600020906004020160030154815260200190815260200160002081905550601060008381526020019081526020016000208190806001815401808255809150509060018203906000526020600020016000909192909190915055506123536008600a85815481106122ff57fe5b9060005260206000209060040201600301548154811061231b57fe5b906000526020600020906002020160000160009054906101000a900473ffffffffffffffffffffffffffffffffffffffff1682614c74565b3373ffffffffffffffffffffffffffffffffffffffff167fdefdc4699ae6600934634bec71e3e4081368537fb24e45ea245b17b8c448c391846040518082815260200191505060405180910390a2505050565b600881815481106123b357fe5b90600052602060002090600202016000915090508060000160009054906101000a900473ffffffffffffffffffffffffffffffffffffffff1690806001018054600181600116156101000203166002900480601f0160208091040260200160405190810160405280929190818152602001828054600181600116156101000203166002900480156124855780601f1061245a57610100808354040283529160200191612485565b820191906000526020600020905b81548152906001019060200180831161246857829003601f168201915b5050505050905082565b6060600c828154811061249e57fe5b90600052602060002090600702016002018054806020026020016040519081016040528092919081815260200182805480156124f957602002820191906000526020600020905b8154815260200190600101908083116124e5575b50505050509050919050565b612520838383604051806020016040528060008152506145ef565b505050565b600a818154811061253257fe5b90600052602060002090600402016000915090508060000154908060010160009054906101000a900460ff16908060020154908060030154905084565b60008651116125c9576040517f08c379a00000000000000000000000000000000000000000000000000000000081526004018080602001828103825260248152602001806153526024913960400191505060405180910390fd5b6000600960003373ffffffffffffffffffffffffffffffffffffffff1673ffffffffffffffffffffffffffffffffffffffff16815260200190815260200160002054141561267f576040517f08c379a000000000000000000000000000000000000000000000000000000000815260040180806020018281038252601f8152602001807f557365722061646472657373206973206e6f7420726567697374657265642e0081525060200191505060405180910390fd5b84156126e357600083146126de576040517f08c379a000000000000000000000000000000000000000000000000000000000815260040180806020018281038252602a815260200180615528602a913960400191505060405180910390fd5b61275a565b60008311612759576040517f08c379a00000000000000000000000000000000000000000000000000000000081526004018080602001828103825260198152602001807f53656c6c207072696365206e6f74207370656369666965642e0000000000000081525060200191505060405180910390fd5b5b6000600960003373ffffffffffffffffffffffffffffffffffffffff1673ffffffffffffffffffffffffffffffffffffffff16815260200190815260200160002054905060606127a8615216565b6040518061010001604052808481526020018a8152602001838152602001891515815260200188151581526020018781526020018681526020018581525090506000600c829080600181540180825580915050906001820390600052602060002090600702016000909192909190915060008201518160000155602082015181600101908051906020019061283e92919061525f565b50604082015181600201908051906020019061285b9291906152df565b5060608201518160030160006101000a81548160ff02191690831515021790555060808201518160030160016101000a81548160ff02191690831515021790555060a0820151816004015560c08201518160050190805190602001906128c29291906152df565b5060e08201518160060190805190602001906128df9291906152df565b5050509050600d60008581526020019081526020016000206001820390806001815401808255809150509060018203906000526020600020016000909192909190915055503373ffffffffffffffffffffffffffffffffffffffff167fc5c8be27db4aa3feaacd664a304c17843e7eb46882bf882c614339864d3fa9348b8b8a604051808060200184151515158152602001838152602001828103825285818151815260200191508051906020019080838360005b838110156129af578082015181840152602081019050612994565b50505050905090810190601f1680156129dc5780820380516001836020036101000a031916815260200191505b5094505050505060405180910390a250505050505050505050565b6000806001600084815260200190815260200160002060009054906101000a900473ffffffffffffffffffffffffffffffffffffffff169050600073ffffffffffffffffffffffffffffffffffffffff168173ffffffffffffffffffffffffffffffffffffffff161415612ab6576040517f08c379a000000000000000000000000000000000000000000000000000000000815260040180806020018281038252602981526020018061547b6029913960400191505060405180910390fd5b80915050919050565b600f6020528060005260406000206000915090505481565b600c8281548110612ae457fe5b906000526020600020906007020160000154600960003373ffffffffffffffffffffffffffffffffffffffff1673ffffffffffffffffffffffffffffffffffffffff1681526020019081526020016000205414612b8c576040517f08c379a00000000000000000000000000000000000000000000000000000000081526004018080602001828103825260278152602001806155736027913960400191505060405180910390fd5b600c8281548110612b9957fe5b906000526020600020906007020160030160009054906101000a900460ff16612c2a576040517f08c379a000000000000000000000000000000000000000000000000000000000815260040180806020018281038252601d8152602001807f5075626c69636174696f6e206973206e6f7420616e2061756374696f6e00000081525060200191505060405180910390fd5b80600c8381548110612c3857fe5b9060005260206000209060070201600401819055506000600c8381548110612c5c57fe5b906000526020600020906007020160030160006101000a81548160ff021916908315150217905550813373ffffffffffffffffffffffffffffffffffffffff167feb01c69f283d553c999e4a1f4fec7c1b89accdb3e03ab88c13060bd7ba52956d836040518082815260200191505060405180910390a35050565b6000600a8281548110612ce657fe5b9060005260206000209060040201600201549050600c8181548110612d0757fe5b906000526020600020906007020160000154600960003373ffffffffffffffffffffffffffffffffffffffff1673ffffffffffffffffffffffffffffffffffffffff1681526020019081526020016000205414612daf576040517f08c379a00000000000000000000000000000000000000000000000000000000081526004018080602001828103825260278152602001806155736027913960400191505060405180910390fd5b600c8181548110612dbc57fe5b906000526020600020906007020160030160009054906101000a900460ff16612e4d576040517f08c379a000000000000000000000000000000000000000000000000000000000815260040180806020018281038252601b8152602001807f5075626c69636174696f6e206e6f7420616e2061756374696f6e2e000000000081525060200191505060405180910390fd5b600c8181548110612e5a57fe5b906000526020600020906007020160030160019054906101000a900460ff16612eeb576040517f08c379a00000000000000000000000000000000000000000000000000000000081526004018080602001828103825260148152602001807f41756374696f6e206e6f742072756e6e696e672e00000000000000000000000081525060200191505060405180910390fd5b6002600a8381548110612efa57fe5b906000526020600020906004020160010160006101000a81548160ff02191690836004811115612f2657fe5b02179055503373ffffffffffffffffffffffffffffffffffffffff167fa97dd0c2abeef1f0a272ee5692396209ab3491ef31f466732c8d24f162e8f491836040518082815260200191505060405180910390a25050565b6000815111612ff4576040517f08c379a00000000000000000000000000000000000000000000000000000000081526004018080602001828103825260208152602001807f50726f66696c65205552492073686f756c64206e6f7420626520656d7074792e81525060200191505060405180910390fd5b6000600960003373ffffffffffffffffffffffffffffffffffffffff1673ffffffffffffffffffffffffffffffffffffffff16815260200190815260200160002054146130a9576040517f08c379a00000000000000000000000000000000000000000000000000000000081526004018080602001828103825260188152602001807f5573657220616c726561647920726567697374657265642e000000000000000081525060200191505060405180910390fd5b6000600860405180604001604052803373ffffffffffffffffffffffffffffffffffffffff168152602001848152509080600181540180825580915050906001820390600052602060002090600202016000909192909190915060008201518160000160006101000a81548173ffffffffffffffffffffffffffffffffffffffff021916908373ffffffffffffffffffffffffffffffffffffffff160217905550602082015181600101908051906020019061316692919061525f565b505050905060018103600960003373ffffffffffffffffffffffffffffffffffffffff1673ffffffffffffffffffffffffffffffffffffffff168152602001908152602001600020819055505050565b60008073ffffffffffffffffffffffffffffffffffffffff168273ffffffffffffffffffffffffffffffffffffffff16141561323d576040517f08c379a000000000000000000000000000000000000000000000000000000000815260040180806020018281038252602a815260200180615451602a913960400191505060405180910390fd5b613284600360008473ffffffffffffffffffffffffffffffffffffffff1673ffffffffffffffffffffffffffffffffffffffff168152602001908152602001600020614e8c565b9050919050565b6000600c80549050905090565b600c82815481106132a557fe5b906000526020600020906007020160000154600960003373ffffffffffffffffffffffffffffffffffffffff1673ffffffffffffffffffffffffffffffffffffffff168152602001908152602001600020541461334d576040517f08c379a00000000000000000000000000000000000000000000000000000000081526004018080602001828103825260278152602001806155736027913960400191505060405180910390fd5b600c828154811061335a57fe5b906000526020600020906007020160030160009054906101000a900460ff16156133ec576040517f08c379a000000000000000000000000000000000000000000000000000000000815260040180806020018281038252601a8152602001807f5075626c69636174696f6e206973206f6e2061756374696f6e2e00000000000081525060200191505060405180910390fd5b80600c83815481106133fa57fe5b906000526020600020906007020160040181905550813373ffffffffffffffffffffffffffffffffffffffff167f9bb7e7778469d9687fcfa57546d6e1eebc04b3fa55fabe83c2d4d0baae3a32b4836040518082815260200191505060405180910390a35050565b606060068054600181600116156101000203166002900480601f0160208091040260200160405190810160405280929190818152602001828054600181600116156101000203166002900480156134fa5780601f106134cf576101008083540402835291602001916134fa565b820191906000526020600020905b8154815290600101906020018083116134dd57829003601f168201915b5050505050905090565b6000600a828154811061351357fe5b9060005260206000209060040201600201549050600c818154811061353457fe5b906000526020600020906007020160000154600960003373ffffffffffffffffffffffffffffffffffffffff1673ffffffffffffffffffffffffffffffffffffffff16815260200190815260200160002054146135dc576040517f08c379a00000000000000000000000000000000000000000000000000000000081526004018080602001828103825260278152602001806155736027913960400191505060405180910390fd5b600c81815481106135e957fe5b906000526020600020906007020160030160009054906101000a900460ff1661367a576040517f08c379a000000000000000000000000000000000000000000000000000000000815260040180806020018281038252601b8152602001807f5075626c69636174696f6e206e6f7420616e2061756374696f6e2e000000000081525060200191505060405180910390fd5b600c818154811061368757fe5b906000526020600020906007020160030160019054906101000a900460ff16613718576040517f08c379a00000000000000000000000000000000000000000000000000000000081526004018080602001828103825260148152602001807f41756374696f6e206e6f742072756e6e696e672e00000000000000000000000081525060200191505060405180910390fd5b6004600a838154811061372757fe5b906000526020600020906004020160010160006101000a81548160ff0219169083600481111561375357fe5b02179055503373ffffffffffffffffffffffffffffffffffffffff167f501720be89f6a98b45d2037d3d01fbbb1b327b894b2137f8a52c608e7c4e8156836040518082815260200191505060405180910390a25050565b600c81815481106137b757fe5b906000526020600020906007020160000154600960003373ffffffffffffffffffffffffffffffffffffffff1673ffffffffffffffffffffffffffffffffffffffff168152602001908152602001600020541461385f576040517f08c379a00000000000000000000000000000000000000000000000000000000081526004018080602001828103825260278152602001806155736027913960400191505060405180910390fd5b600c818154811061386c57fe5b906000526020600020906007020160030160019054906101000a900460ff1615600c828154811061389957fe5b906000526020600020906007020160030160016101000a81548160ff021916908315150217905550803373ffffffffffffffffffffffffffffffffffffffff167fe0bd549884d6be9a8162c0a6068c65f6ece0c544934a3e3d9a81bfcd39aadc88600c848154811061390757fe5b906000526020600020906007020160030160019054906101000a900460ff16604051808215151515815260200191505060405180910390a350565b60606000600960008473ffffffffffffffffffffffffffffffffffffffff1673ffffffffffffffffffffffffffffffffffffffff168152602001908152602001600020549050600b60008281526020019081526020016000208054806020026020016040519081016040528092919081815260200182805480156139e557602002820191906000526020600020905b8154815260200190600101908083116139d1575b5050505050915050919050565b3373ffffffffffffffffffffffffffffffffffffffff168273ffffffffffffffffffffffffffffffffffffffff161415613a94576040517f08c379a00000000000000000000000000000000000000000000000000000000081526004018080602001828103825260198152602001807f4552433732313a20617070726f766520746f2063616c6c65720000000000000081525060200191505060405180910390fd5b80600460003373ffffffffffffffffffffffffffffffffffffffff1673ffffffffffffffffffffffffffffffffffffffff16815260200190815260200160002060008473ffffffffffffffffffffffffffffffffffffffff1673ffffffffffffffffffffffffffffffffffffffff16815260200190815260200160002060006101000a81548160ff0219169083151502179055508173ffffffffffffffffffffffffffffffffffffffff163373ffffffffffffffffffffffffffffffffffffffff167f17307eab39ab6107e8899845ad3d59bd9653f200f220920489ca2b5937696c3183604051808215151515815260200191505060405180910390a35050565b60006060806000806000606080613baa615216565b600c8a81548110613bb757fe5b90600052602060002090600702016040518061010001604052908160008201548152602001600182018054600181600116156101000203166002900480601f016020809104026020016040519081016040528092919081815260200182805460018160011615610100020316600290048015613c745780601f10613c4957610100808354040283529160200191613c74565b820191906000526020600020905b815481529060010190602001808311613c5757829003601f168201915b5050505050815260200160028201805480602002602001604051908101604052809291908181526020018280548015613ccc57602002820191906000526020600020905b815481526020019060010190808311613cb8575b505050505081526020016003820160009054906101000a900460ff161515151581526020016003820160019054906101000a900460ff161515151581526020016004820154815260200160058201805480602002602001604051908101604052809291908181526020018280548015613d6457602002820191906000526020600020905b815481526020019060010190808311613d50575b5050505050815260200160068201805480602002602001604051908101604052809291908181526020018280548015613dbc57602002820191906000526020600020905b815481526020019060010190808311613da8575b5050505050815250509050806000015181602001518260400151836060015184608001518560a001518660c001518760e001518696508595508191508090509850985098509850985098509850985050919395975091939597565b6000600c8281548110613e2657fe5b9060005260206000209060070201600001541415613eac576040517f08c379a00000000000000000000000000000000000000000000000000000000081526004018080602001828103825260198152602001807f5075626c69636174696f6e206e6f7420656e6c69737465642e0000000000000081525060200191505060405180910390fd5b6000600960003373ffffffffffffffffffffffffffffffffffffffff1673ffffffffffffffffffffffffffffffffffffffff168152602001908152602001600020541415613f45576040517f08c379a00000000000000000000000000000000000000000000000000000000081526004018080602001828103825260218152602001806153a86021913960400191505060405180910390fd5b600c8181548110613f5257fe5b906000526020600020906007020160030160009054906101000a900460ff16156141c657600c8181548110613f8357fe5b906000526020600020906007020160030160019054906101000a900460ff16614014576040517f08c379a00000000000000000000000000000000000000000000000000000000081526004018080602001828103825260178152602001807f41756374696f6e206973206e6f742072756e6e696e672e00000000000000000081525060200191505060405180910390fd5b6000600a60405180608001604052808581526020016000600481111561403657fe5b8152602001848152602001600960003373ffffffffffffffffffffffffffffffffffffffff1673ffffffffffffffffffffffffffffffffffffffff16815260200190815260200160002054815250908060018154018082558091505090600182039060005260206000209060040201600090919290919091506000820151816000015560208201518160010160006101000a81548160ff021916908360048111156140dd57fe5b0217905550604082015181600201556060820151816003015550509050600c828154811061410757fe5b9060005260206000209060070201600201600182039080600181540180825580915050906001820390600052602060002001600090919290919091505550600b6000600960003373ffffffffffffffffffffffffffffffffffffffff1673ffffffffffffffffffffffffffffffffffffffff168152602001908152602001600020548152602001908152602001600020600182039080600181540180825580915050906001820390600052602060002001600090919290919091505550505b600c81815481106141d357fe5b906000526020600020906007020160030160009054906101000a900460ff166145eb57600c818154811061420357fe5b9060005260206000209060070201600401548214614289576040517f08c379a00000000000000000000000000000000000000000000000000000000081526004018080602001828103825260158152602001807f496e636f72726563742066756e64732073656e742e000000000000000000000081525060200191505060405180910390fd5b60006001600a6040518060800160405280868152602001600360048111156142ad57fe5b8152602001858152602001600960003373ffffffffffffffffffffffffffffffffffffffff1673ffffffffffffffffffffffffffffffffffffffff16815260200190815260200160002054815250908060018154018082558091505090600182039060005260206000209060040201600090919290919091506000820151816000015560208201518160010160006101000a81548160ff0219169083600481111561435457fe5b021790555060408201518160020155606082015181600301555050039050600c828154811061437f57fe5b9060005260206000209060070201600201819080600181540180825580915050906001820390600052602060002001600090919290919091505550600b6000600960003373ffffffffffffffffffffffffffffffffffffffff1673ffffffffffffffffffffffffffffffffffffffff1681526020019081526020016000205481526020019081526020016000208190806001815401808255809150509060018203906000526020600020016000909192909190915055506000600e6040518060600160405280600a858154811061445257fe5b906000526020600020906004020160030154815260200185815260200184815250908060018154018082558091505090600182039060005260206000209060030201600090919290919091506000820151816000015560208201518160010155604082015181600201555050905080600f6000600a85815481106144d257fe5b906000526020600020906004020160030154815260200190815260200160002081905550601060008481526020019081526020016000208190806001815401808255809150509060018203906000526020600020016000909192909190915055506145996008600a848154811061454557fe5b9060005260206000209060040201600301548154811061456157fe5b906000526020600020906002020160000160009054906101000a900473ffffffffffffffffffffffffffffffffffffffff1682614c74565b823373ffffffffffffffffffffffffffffffffffffffff167f87f5b2fe112bf269d30fb8ca9dc0bde0afd0cc39258e13fafd75fe794795bf0e866040518082815260200191505060405180910390a350505b5050565b6145fa848484611f2d565b61460684848484614e9a565b61465b576040517f08c379a00000000000000000000000000000000000000000000000000000000081526004018080602001828103825260328152602001806153766032913960400191505060405180910390fd5b50505050565b600e818154811061466e57fe5b90600052602060002090600302016000915090508060000154908060010154908060020154905083565b60606146a3826148b3565b6146f8576040517f08c379a000000000000000000000000000000000000000000000000000000000815260040180806020018281038252602f8152602001806154f9602f913960400191505060405180910390fd5b600760008381526020019081526020016000208054600181600116156101000203166002900480601f01602080910402602001604051908101604052809291908181526020018280546001816001161561010002031660029004801561479f5780601f106147745761010080835404028352916020019161479f565b820191906000526020600020905b81548152906001019060200180831161478257829003601f168201915b50505050509050919050565b601060205281600052604060002081815481106147c457fe5b90600052602060002001600091509150505481565b600b60205281600052604060002081815481106147f257fe5b90600052602060002001600091509150505481565b6000600460008473ffffffffffffffffffffffffffffffffffffffff1673ffffffffffffffffffffffffffffffffffffffff16815260200190815260200160002060008373ffffffffffffffffffffffffffffffffffffffff1673ffffffffffffffffffffffffffffffffffffffff16815260200190815260200160002060009054906101000a900460ff16905092915050565b60096020528060005260406000206000915090505481565b6000806001600084815260200190815260200160002060009054906101000a900473ffffffffffffffffffffffffffffffffffffffff169050600073ffffffffffffffffffffffffffffffffffffffff168173ffffffffffffffffffffffffffffffffffffffff161415915050919050565b6000614930826148b3565b614985576040517f08c379a000000000000000000000000000000000000000000000000000000000815260040180806020018281038252602c8152602001806153ed602c913960400191505060405180910390fd5b6000614990836129f7565b90508073ffffffffffffffffffffffffffffffffffffffff168473ffffffffffffffffffffffffffffffffffffffff1614806149ff57508373ffffffffffffffffffffffffffffffffffffffff166149e784611555565b73ffffffffffffffffffffffffffffffffffffffff16145b80614a105750614a0f8185614807565b5b91505092915050565b8273ffffffffffffffffffffffffffffffffffffffff16614a39826129f7565b73ffffffffffffffffffffffffffffffffffffffff1614614aa5576040517f08c379a00000000000000000000000000000000000000000000000000000000081526004018080602001828103825260298152602001806154d06029913960400191505060405180910390fd5b600073ffffffffffffffffffffffffffffffffffffffff168273ffffffffffffffffffffffffffffffffffffffff161415614b2b576040517f08c379a00000000000000000000000000000000000000000000000000000000081526004018080602001828103825260248152602001806153c96024913960400191505060405180910390fd5b614b3481615083565b614b7b600360008573ffffffffffffffffffffffffffffffffffffffff1673ffffffffffffffffffffffffffffffffffffffff168152602001908152602001600020615141565b614bc2600360008473ffffffffffffffffffffffffffffffffffffffff1673ffffffffffffffffffffffffffffffffffffffff168152602001908152602001600020615164565b816001600083815260200190815260200160002060006101000a81548173ffffffffffffffffffffffffffffffffffffffff021916908373ffffffffffffffffffffffffffffffffffffffff160217905550808273ffffffffffffffffffffffffffffffffffffffff168473ffffffffffffffffffffffffffffffffffffffff167fddf252ad1be2c89b69c2b068fc378daa952ba7f163c4a11628f55a4df523b3ef60405160405180910390a4505050565b600073ffffffffffffffffffffffffffffffffffffffff168273ffffffffffffffffffffffffffffffffffffffff161415614d17576040517f08c379a00000000000000000000000000000000000000000000000000000000081526004018080602001828103825260208152602001807f4552433732313a206d696e7420746f20746865207a65726f206164647265737381525060200191505060405180910390fd5b614d20816148b3565b15614d93576040517f08c379a000000000000000000000000000000000000000000000000000000000815260040180806020018281038252601c8152602001807f4552433732313a20746f6b656e20616c7265616479206d696e7465640000000081525060200191505060405180910390fd5b816001600083815260200190815260200160002060006101000a81548173ffffffffffffffffffffffffffffffffffffffff021916908373ffffffffffffffffffffffffffffffffffffffff160217905550614e2c600360008473ffffffffffffffffffffffffffffffffffffffff1673ffffffffffffffffffffffffffffffffffffffff168152602001908152602001600020615164565b808273ffffffffffffffffffffffffffffffffffffffff16600073ffffffffffffffffffffffffffffffffffffffff167fddf252ad1be2c89b69c2b068fc378daa952ba7f163c4a11628f55a4df523b3ef60405160405180910390a45050565b600081600001549050919050565b6000614ebb8473ffffffffffffffffffffffffffffffffffffffff1661517a565b614ec8576001905061507b565b60008473ffffffffffffffffffffffffffffffffffffffff1663150b7a02338887876040518563ffffffff1660e01b8152600401808573ffffffffffffffffffffffffffffffffffffffff1673ffffffffffffffffffffffffffffffffffffffff1681526020018473ffffffffffffffffffffffffffffffffffffffff1673ffffffffffffffffffffffffffffffffffffffff16815260200183815260200180602001828103825283818151815260200191508051906020019080838360005b83811015614fa3578082015181840152602081019050614f88565b50505050905090810190601f168015614fd05780820380516001836020036101000a031916815260200191505b5095505050505050602060405180830381600087803b158015614ff257600080fd5b505af1158015615006573d6000803e3d6000fd5b505050506040513d602081101561501c57600080fd5b8101908080519060200190929190505050905063150b7a0260e01b7bffffffffffffffffffffffffffffffffffffffffffffffffffffffff1916817bffffffffffffffffffffffffffffffffffffffffffffffffffffffff1916149150505b949350505050565b600073ffffffffffffffffffffffffffffffffffffffff166002600083815260200190815260200160002060009054906101000a900473ffffffffffffffffffffffffffffffffffffffff1673ffffffffffffffffffffffffffffffffffffffff161461513e5760006002600083815260200190815260200160002060006101000a81548173ffffffffffffffffffffffffffffffffffffffff021916908373ffffffffffffffffffffffffffffffffffffffff1602179055505b50565b6151596001826000015461518d90919063ffffffff16565b816000018190555050565b6001816000016000828254019250508190555050565b600080823b905060008111915050919050565b600082821115615205576040517f08c379a000000000000000000000000000000000000000000000000000000000815260040180806020018281038252601e8152602001807f536166654d6174683a207375627472616374696f6e206f766572666c6f77000081525060200191505060405180910390fd5b600082840390508091505092915050565b6040518061010001604052806000815260200160608152602001606081526020016000151581526020016000151581526020016000815260200160608152602001606081525090565b828054600181600116156101000203166002900490600052602060002090601f016020900481019282601f106152a057805160ff19168380011785556152ce565b828001600101855582156152ce579182015b828111156152cd5782518255916020019190600101906152b2565b5b5090506152db919061532c565b5090565b82805482825590600052602060002090810192821561531b579160200282015b8281111561531a5782518255916020019190600101906152ff565b5b509050615328919061532c565b5090565b61534e91905b8082111561534a576000816000905550600101615332565b5090565b9056fe5075626c69636174696f6e205552492073686f756c64206e6f7420626520656d7074792e4552433732313a207472616e7366657220746f206e6f6e20455243373231526563656976657220696d706c656d656e7465724269646465722061646472657373206973206e6f7420726567697374657265642e4552433732313a207472616e7366657220746f20746865207a65726f20616464726573734552433732313a206f70657261746f7220717565727920666f72206e6f6e6578697374656e7420746f6b656e4552433732313a20617070726f76652063616c6c6572206973206e6f74206f776e6572206e6f7220617070726f76656420666f7220616c6c4552433732313a2062616c616e636520717565727920666f7220746865207a65726f20616464726573734552433732313a206f776e657220717565727920666f72206e6f6e6578697374656e7420746f6b656e4552433732313a20617070726f76656420717565727920666f72206e6f6e6578697374656e7420746f6b656e4552433732313a207472616e73666572206f6620746f6b656e2074686174206973206e6f74206f776e4552433732314d657461646174613a2055524920717565727920666f72206e6f6e6578697374656e7420746f6b656e53686f756c64206e6f7420737065636966792073656c6c20707269636520666f722061756374696f6e2e4552433732313a20617070726f76616c20746f2063757272656e74206f776e657255736572206e6f742074686520617574686f72206f662074686973207075626c69636174696f6e4552433732313a207472616e736665722063616c6c6572206973206e6f74206f776e6572206e6f7220617070726f7665645075626c69636174696f6e20697320616c7265616479206f6e2061756374696f6ea165627a7a723058209e080da7121bb6c883026af306cbfabc862118cc607f5e19349963895d1785640029",
  "source": "pragma solidity^0.5.0;\n\n/// @title UniCoin smart contract\n/// @author Chris Maree, Helda Mandlate, Luke Meiklejohn \n\n/// @dev import contracts from openzeppelin related to ownable and ERC20, ERC721 tokens\nimport \"openzeppelin-solidity/contracts/ownership/Ownable.sol\";\nimport \"openzeppelin-solidity/contracts/token/ERC20/ERC20.sol\";\nimport \"openzeppelin-solidity/contracts/token/ERC721/ERC721Metadata.sol\";\n\n/// @notice contract begins here\ncontract UnicoinRegistry is ERC721Metadata {\n    /// @notice Creates a struct for users of the plaform, needs their Ethereum address and profile URL\n    struct User {\n        address owned_address;\n        string profile_uri;\n    }\n    /// @notice Creates an array of users that a registered\n    User[] public users;\n\n    /// @notice The mapping below maps all users' addresses to their userID\n    mapping (address => uint256) public userAddresses ;\n\n    /// @notice Creates user defined type\n    enum bidStatus {Pending, Accepted, Rejected, Sale, Cancelled}\n\n    /// @notice Creates a struct for all bids, takes in the offer (amount of the bid), one of the enum parameters, publication Id and owner Id\n    struct Bid {\n        uint256 offer;\n        bidStatus status;\n        uint256 publication_Id;\n        uint256 owner_Id; /// @dev owner of the bid\n    }\n    /// @notice Creates an array of bids that have been placed\n    Bid[] public bids;\n\n    /// @notice The mapping below maps all bidders' IDs to their userID\n    mapping(uint256 => uint256[]) public bidOwners;\n\n    /// @notice Creates a struct for all publications\n    /// @param author_Id The array below will contain all bids received for that work\n    /// @param publication_uri If the researcher has chosen the auction pricing structure, the below is TRUE.\n    /// @param publication_bids If the auction is still running, the below is TRUE, because the researcher can choose to stop the auction at any point.\n    /// @param isAuction If both of the booleans above are FALSE, the price below is the flat sale price of the work.\n    /// @param isRunning The value of the publication\n    /// @param sell_price The co-authors/ contributors of the publication\n    /// @param contributors_weightings The contributor's respective weighting contributions\n    struct Publication {\n        uint256 author_Id;\n        string publication_uri;\n        uint256[] publication_bids;\n        bool isAuction;\n        bool isRunning;\n        uint256 sell_price;\n        uint256[] contributors;\n        uint256[] contributors_weightings;\n    }\n    /// @notice Creates an array of publications for every published document\n    Publication[] public publications;\n    \n    /// @notice The mapping below will map the addresses of all the successful bidders' addresses to the ID of their owned publications\n    mapping(uint256 => uint256[]) public publicationOwners;\n    \n    /// @notice Creates a struct for licencing\n    /// @param buyer_Id of each publication's buyer\n    /// @param publication_Id of the publication being bought\n    /// @param bid_Id The bid's Id for the publication    \n    struct LicenceDesign {\n        uint256 buyer_Id;\n        uint256 Publication_Id;\n        uint256 bid_Id;\n    }\n    /// @notice Creates an array of purchased licences\n    LicenceDesign[] public licences;\n    /// @notice Mapping of licence Id to get the licence owners\n    mapping(uint256 => uint256) public licenceOwners;\n    /// @notice Mapping of licence Id to get the publication Id\n    mapping(uint256 => uint256[]) public publicationLicences;\n\n    event NewPublication(\n        address indexed _from,\n        string _publication_uri,\n        bool _isAuction,\n        uint256 _sell_price\n    );\n\n    event NewBid(\n        address indexed _from,\n        uint256 indexed _publication_Id,\n        uint256 _offer\n    );\n\n    event AcceptedBid(\n        address indexed _from,\n        uint256 _id\n    );\n\n    event RejectedBid(\n        address indexed _from,\n        uint256 _id\n    ); \n\n    event CancelledBid(\n        address indexed _from,\n        uint256 _id\n    );\n\n    event ChangeToSale(\n        address indexed _from,\n        uint256 indexed _publication_Id,\n        uint256 _sell_price\n    );   \n\n    event ChangeToAuction(\n        address indexed _from,\n        uint256 indexed _publication_Id\n    ); \n\n    event ChangeSellPrice(\n        address indexed _from,\n        uint256 indexed _publication_Id,\n        uint256 _sell_price\n    );\n\n    event ChangeRunningStatus(\n        address indexed _from,\n        uint256 indexed _publication_Id,\n        bool _isRunning \n    );\n\n    /// @dev ERC20 is now daiContract\n    ERC20 daiContract;\n    /// @dev The constructor below reserves user 0 for all unregistered users\n    /// @param _daiContractAddress DAI contract address\n    constructor(address _daiContractAddress) public ERC721Metadata(\"UniCoin Licence\", \"UNIC\"){\n        users.push(User(address(0), \"\"));\n        licences.push(LicenceDesign(0, 0, 0));\n\n        daiContract = ERC20(_daiContractAddress);\n    }\n\n    /// @notice This function registers a user on the platform by taking in their profile URL\n    /// @param _profile_uri user profile url\n    /// @dev If the user's address is in position 0 of the userAddresses array, they are unregistered\n    /// @dev Create an instance of the user and add the Id to their address\n    function registerUser(string memory _profile_uri) public {\n        require(bytes(_profile_uri).length > 0, \"Profile URI should not be empty.\");\n        require(userAddresses[msg.sender]==0,\"User already registered.\");\n        uint256 id = users.push(User(msg.sender,_profile_uri));\n        userAddresses[msg.sender] = id - 1;\n    }\n\n    /// @notice This function creates a publication on the system, with blank arrays for publication bids and owners,\n    /// @notice since no one has bidded for or bought a licence yet\n    /// @dev The researcher only specifies the flat rate if they have chosen not to auction the work\n    /// @dev Add instance to the respective arrays\n\n    function createPublication(\n        string memory _publication_uri,\n        bool _isAuction,\n        bool _isRunning,\n        uint256 _sell_price,\n        uint256[] memory _contributors,\n        uint256[] memory _contributors_weightings) public {\n        require(bytes(_publication_uri).length > 0, \"Publication URI should not be empty.\");\n        require(userAddresses[msg.sender] != 0, \"User address is not registered.\");\n        if(_isAuction) {\n            require(_sell_price == 0, \"Should not specify sell price for auction.\");\n        }\n        else {\n            require(_sell_price > 0, \"Sell price not specified.\");\n        }\n        uint256 _author_Id = userAddresses[msg.sender];\n        uint256[] memory _publication_bids;\n        Publication memory _publication = Publication(\n            _author_Id,\n            _publication_uri,\n            _publication_bids,\n            _isAuction,\n            _isRunning,\n            _sell_price,\n            _contributors,\n            _contributors_weightings);\n        uint256 _id = publications.push(_publication);\n        publicationOwners[_author_Id].push(_id - 1);\n\n        emit NewPublication(msg.sender,_publication_uri, _isAuction, _sell_price);\n    }\n\n    /// @notice This function creates a new bid for a particular publication\n    /// @param _offer for the research\n    /// @param _publication_Id is the index for the publication Id\n    /// @dev The bidder should only be able to submit a bid if the publication's pricing structure is an auction and the auction is running\n    /// @dev By default the bid will have a status of Pending until it is accepted or rejected by the author\n    /// @dev If the author has specified a flat rate, the buyer doesn't submit a bid but just sends the funds.\n    /// @dev The funds sent should match the sale price specified by the author.\n    /// @dev This 'bid' has a status of sale because the author does not need to evaluate and accept/reject these bids.\n    /// @dev Transfer Dai from buyer to seller\n    /// @dev parameters of licence design: buyer_id, publication id, bid_id\n    function makeBid(uint256 _offer, uint256 _publication_Id) public {\n        require(publications[_publication_Id].author_Id != 0, \"Publication not enlisted.\");\n        require(userAddresses[msg.sender] != 0, \"Bidder address is not registered.\");\n        if(publications[_publication_Id].isAuction) {\n            require(publications[_publication_Id].isRunning, \"Auction is not running.\");\n            uint256 _id = bids.push(Bid(_offer, bidStatus.Pending, _publication_Id, userAddresses[msg.sender]));\n            publications[_publication_Id].publication_bids.push(_id - 1);\n            bidOwners[userAddresses[msg.sender]].push(_id - 1);\n        }\n        if(!publications[_publication_Id].isAuction) {\n            require(_offer == publications[_publication_Id].sell_price, \"Incorrect funds sent.\");\n            uint256 _id = bids.push(Bid(_offer, bidStatus.Sale, _publication_Id, userAddresses[msg.sender])) - 1;\n            publications[_publication_Id].publication_bids.push(_id);\n            bidOwners[userAddresses[msg.sender]].push(_id);\n\n            // require(daiContract.allowance(msg.sender, address(this)) >= _offer, \"Insufficient fund allowance\");\n            // address publisherAddress = users[publications[_publication_Id].author_Id].owned_address;\n            // daiContract.transferFrom(msg.sender, publisherAddress, _offer);\n\n            uint256 _licence_Id = licences.push(LicenceDesign(bids[_id].owner_Id, _publication_Id, _id));\n            licenceOwners[bids[_id].owner_Id] = _licence_Id;\n            publicationLicences[_publication_Id].push(_licence_Id);\n            _mint(users[bids[_id].owner_Id].owned_address, _licence_Id);\n\n            emit NewBid(msg.sender, _publication_Id, _offer);\n        }\n    }\n\n    /// @notice This function allows the auctioneer to accept the bids\n    /// @dev parameters of licence design: buyer_id, publication id, bid_id\n    /// @notice This function allows the auctioneer to reject the bids\n    /// @param _id is the bid Id\n    function acceptBid(uint256 _id) public {\n        uint256 _publication_Id = bids[_id].publication_Id;\n        require(userAddresses[msg.sender] == publications[_publication_Id].author_Id, \"User not the author of this publication\");\n        require(publications[_publication_Id].isAuction, \"Publication not an auction.\");\n        require(publications[_publication_Id].isRunning, \"Auction is not running.\");\n        bids[_id].status = bidStatus.Accepted;\n        \n        uint256 _licence_Id = licences.push(LicenceDesign(bids[_id].owner_Id, _publication_Id, _id));\n        licenceOwners[bids[_id].owner_Id] = _licence_Id;\n        publicationLicences[_publication_Id].push(_licence_Id);\n        _mint(users[bids[_id].owner_Id].owned_address, _licence_Id);\n\n        emit AcceptedBid(msg.sender,_id);\n    }\n\n    /// @notice This function allows the auctioneer to reject the bids\n    /// @param _id is the bid Id\n    function rejectBid(uint256 _id) public {\n        uint256 _publication_Id = bids[_id].publication_Id;\n        require(userAddresses[msg.sender] == publications[_publication_Id].author_Id, \"User not the author of this publication\");\n        require(publications[_publication_Id].isAuction, \"Publication not an auction.\");\n        require(publications[_publication_Id].isRunning, \"Auction not running.\");\n        bids[_id].status = bidStatus.Rejected;\n\n        emit RejectedBid(msg.sender,_id);\n    }\n\n    /// @notice This function allows the auctioneer to cancel the bids\n    /// @param _id is the bid Id\n    function cancelBid(uint256 _id) public {\n        uint256 _publication_Id = bids[_id].publication_Id;\n        require(userAddresses[msg.sender] == publications[_publication_Id].author_Id, \"User not the author of this publication\");\n        require(publications[_publication_Id].isAuction, \"Publication not an auction.\");\n        require(publications[_publication_Id].isRunning, \"Auction not running.\");\n        bids[_id].status = bidStatus.Cancelled;\n\n        emit CancelledBid(msg.sender,_id);\n    }\n\n    /// @notice This function allows the auctioneer to change from an auction to a sale\n    /// @param _publication_Id publication id number\n    /// @param _sell_price for the research\n    function changeToSale(uint256 _publication_Id, uint256 _sell_price) public {\n        require(userAddresses[msg.sender] == publications[_publication_Id].author_Id, \"User not the author of this publication\");\n        require(publications[_publication_Id].isAuction, \"Publication is not an auction\");\n        publications[_publication_Id].sell_price = _sell_price;\n        publications[_publication_Id].isAuction = false;\n\n        emit ChangeToSale(msg.sender, _publication_Id, _sell_price);\n    }\n\n    /// @notice This function allows the auctioneer to change from a sale to an auction\n    /// @param _publication_Id publication id number\n    function changeToAuction(uint256 _publication_Id) public {\n        require(userAddresses[msg.sender] == publications[_publication_Id].author_Id, \"User not the author of this publication\");\n        require(!publications[_publication_Id].isAuction, \"Publication is already on auction\");\n        publications[_publication_Id].sell_price = 0;\n        publications[_publication_Id].isAuction = true;\n\n        emit ChangeToAuction(msg.sender, _publication_Id);        \n    }\n    \n    /// @notice This function allows the auctioneer to change the sell price\n    /// @param _publication_Id publication id number\n    /// @param _sell_price for the research\n    function changeSellPrice(uint256 _publication_Id, uint256 _sell_price) public {\n        require(userAddresses[msg.sender] == publications[_publication_Id].author_Id, \"User not the author of this publication\");\n        require(!publications[_publication_Id].isAuction, \"Publication is on auction.\");\n        publications[_publication_Id].sell_price = _sell_price;\n\n        emit ChangeSellPrice(msg.sender, _publication_Id, _sell_price);        \n\n    }\n\n    /// @notice This function allows the auctioneer to change the running status\n    /// @param _publication_Id publication id number\n    function changeRunningStatus(uint256 _publication_Id) public {\n        require(userAddresses[msg.sender] == publications[_publication_Id].author_Id, \"User not the author of this publication\");\n        publications[_publication_Id].isRunning = !publications[_publication_Id].isRunning;\n\n        emit ChangeRunningStatus(msg.sender, _publication_Id, publications[_publication_Id].isRunning);        \n\n    }\n\n    /// @return This function allows anyone to get the list of publications based on the address of the publisher\n    /// @param _address eth address for the user\n    function getPublications(address _address) public view returns(uint256[] memory) {\n        uint256 _author_Id = userAddresses[_address];\n        return publicationOwners[_author_Id];\n    }\n\n    /// @return This function allows anyone to get the list of bids based on address of the user\n    function getBids(address _address) public view returns(uint256[] memory) {\n        uint256 _userAddress = userAddresses[_address];\n        return bidOwners[_userAddress];\n    }\n\n    // From the user ID, get a list of all publications owned by the user ()\n    // function getPublications(uint256 _user_Id) public view returns(uint256[] memory) {\n    //     return publicationOwners[_user_Id];\n    // }\n\n    // function getBids(uint256 _user_Id) public view returns(uint256[] memory) {\n    //     return bidOwners[_user_Id];\n    // }\n\n    /// @return This function allows anyone to get list of bids per publication\n    /// @param _publication_Id publication id number\n    function getPublicationBids(uint256 _publication_Id) public view returns(uint256[] memory) {\n        return publications[_publication_Id].publication_bids;\n    }\n\n    /// @return This function allows the return of the total number of publications\n    function getPublicationLength() public view returns(uint count) {\n        return publications.length;\n    }\n\n    /// @return Returns information about a spesific publication ID\n    /// @param _publication_Id publication id number\n    function getPublication(uint256 _publication_Id) public view returns(\n        uint256,\n        string memory,\n        uint256[] memory,\n        bool,\n        bool,\n        uint256,\n        uint256[] memory,\n        uint256[] memory){\n        Publication memory _publication = publications[_publication_Id];\n        return (\n        _publication.author_Id,\n        _publication.publication_uri,\n        _publication.publication_bids,\n        _publication.isAuction,\n        _publication.isRunning,\n        _publication.sell_price,\n        _publication.contributors,\n        _publication.contributors_weightings);\n    }\n\n    /// @notice Donates funds to a research\n    /// @param _publication_Id The id of the publication\n    /// @param _value the amount that is being donated\n    function donate(uint256 _publication_Id, uint256 _value) public {\n        require(userAddresses[msg.sender] != 0, \"User address is not registered.\");\n        require(daiContract.allowance(msg.sender, address(this)) >= _value, \"Insufficient fund allowance\");\n        address publisherAddress = users[publications[_publication_Id].author_Id].owned_address;\n        daiContract.transferFrom(msg.sender, publisherAddress, _value);\n    }\n}",
  "sourcePath": "/Users/chris/Projects/unicoindapp/contracts/UnicoinRegistry.sol",
  "compiler": {
    "name": "solc",
    "version": "0.5.8+commit.23d335f2.Emscripten.clang"
  },
  "schemaVersion": "3.0.11",
  "updatedAt": "2019-07-24T09:06:02.075Z",
  "devdoc": {
    "methods": {
      "acceptBid(uint256)": {
        "details": "parameters of licence design: buyer_id, publication id, bid_id",
        "params": {
          "_id": "is the bid Id"
        }
      },
      "approve(address,uint256)": {
        "details": "Approves another address to transfer the given token ID The zero address indicates there is no approved address. There can only be one approved address per token at a given time. Can only be called by the token owner or an approved operator.",
        "params": {
          "to": "address to be approved for the given token ID",
          "tokenId": "uint256 ID of the token to be approved"
        }
      },
      "balanceOf(address)": {
        "details": "Gets the balance of the specified address.",
        "params": {
          "owner": "address to query the balance of"
        },
        "return": "uint256 representing the amount owned by the passed address"
      },
      "cancelBid(uint256)": {
        "params": {
          "_id": "is the bid Id"
        }
      },
      "changeRunningStatus(uint256)": {
        "params": {
          "_publication_Id": "publication id number"
        }
      },
      "changeSellPrice(uint256,uint256)": {
        "params": {
          "_publication_Id": "publication id number",
          "_sell_price": "for the research"
        }
      },
      "changeToAuction(uint256)": {
        "params": {
          "_publication_Id": "publication id number"
        }
      },
      "changeToSale(uint256,uint256)": {
        "params": {
          "_publication_Id": "publication id number",
          "_sell_price": "for the research"
        }
      },
      "constructor": {
        "details": "The constructor below reserves user 0 for all unregistered users",
        "params": {
          "_daiContractAddress": "DAI contract address"
        }
      },
      "createPublication(string,bool,bool,uint256,uint256[],uint256[])": {
        "details": "The researcher only specifies the flat rate if they have chosen not to auction the workAdd instance to the respective arrays"
      },
      "donate(uint256,uint256)": {
        "params": {
          "_publication_Id": "The id of the publication",
          "_value": "the amount that is being donated"
        }
      },
      "getApproved(uint256)": {
        "details": "Gets the approved address for a token ID, or zero if no address set Reverts if the token ID does not exist.",
        "params": {
          "tokenId": "uint256 ID of the token to query the approval of"
        },
        "return": "address currently approved for the given token ID"
      },
      "getBids(address)": {
        "return": "This function allows anyone to get the list of bids based on address of the user"
      },
      "getPublication(uint256)": {
        "params": {
          "_publication_Id": "publication id number"
        },
        "return": "Returns information about a spesific publication ID"
      },
      "getPublicationBids(uint256)": {
        "params": {
          "_publication_Id": "publication id number"
        },
        "return": "This function allows anyone to get list of bids per publication"
      },
      "getPublicationLength()": {
        "return": "This function allows the return of the total number of publications"
      },
      "getPublications(address)": {
        "params": {
          "_address": "eth address for the user"
        },
        "return": "This function allows anyone to get the list of publications based on the address of the publisher"
      },
      "isApprovedForAll(address,address)": {
        "details": "Tells whether an operator is approved by a given owner.",
        "params": {
          "operator": "operator address which you want to query the approval of",
          "owner": "owner address which you want to query the approval of"
        },
        "return": "bool whether the given operator is approved by the given owner"
      },
      "makeBid(uint256,uint256)": {
        "details": "The bidder should only be able to submit a bid if the publication's pricing structure is an auction and the auction is runningBy default the bid will have a status of Pending until it is accepted or rejected by the authorIf the author has specified a flat rate, the buyer doesn't submit a bid but just sends the funds.The funds sent should match the sale price specified by the author.This 'bid' has a status of sale because the author does not need to evaluate and accept/reject these bids.Transfer Dai from buyer to sellerparameters of licence design: buyer_id, publication id, bid_id",
        "params": {
          "_offer": "for the research",
          "_publication_Id": "is the index for the publication Id"
        }
      },
      "name()": {
        "details": "Gets the token name.",
        "return": "string representing the token name"
      },
      "ownerOf(uint256)": {
        "details": "Gets the owner of the specified token ID.",
        "params": {
          "tokenId": "uint256 ID of the token to query the owner of"
        },
        "return": "address currently marked as the owner of the given token ID"
      },
      "registerUser(string)": {
        "details": "If the user's address is in position 0 of the userAddresses array, they are unregisteredCreate an instance of the user and add the Id to their address",
        "params": {
          "_profile_uri": "user profile url"
        }
      },
      "rejectBid(uint256)": {
        "params": {
          "_id": "is the bid Id"
        }
      },
      "safeTransferFrom(address,address,uint256)": {
        "details": "Safely transfers the ownership of a given token ID to another address If the target address is a contract, it must implement `onERC721Received`, which is called upon a safe transfer, and return the magic value `bytes4(keccak256(\"onERC721Received(address,address,uint256,bytes)\"))`; otherwise, the transfer is reverted. Requires the msg.sender to be the owner, approved, or operator",
        "params": {
          "from": "current owner of the token",
          "to": "address to receive the ownership of the given token ID",
          "tokenId": "uint256 ID of the token to be transferred"
        }
      },
      "safeTransferFrom(address,address,uint256,bytes)": {
        "details": "Safely transfers the ownership of a given token ID to another address If the target address is a contract, it must implement `onERC721Received`, which is called upon a safe transfer, and return the magic value `bytes4(keccak256(\"onERC721Received(address,address,uint256,bytes)\"))`; otherwise, the transfer is reverted. Requires the msg.sender to be the owner, approved, or operator",
        "params": {
          "_data": "bytes data to send along with a safe transfer check",
          "from": "current owner of the token",
          "to": "address to receive the ownership of the given token ID",
          "tokenId": "uint256 ID of the token to be transferred"
        }
      },
      "setApprovalForAll(address,bool)": {
        "details": "Sets or unsets the approval of a given operator An operator is allowed to transfer all tokens of the sender on their behalf.",
        "params": {
          "approved": "representing the status of the approval to be set",
          "to": "operator address to set the approval"
        }
      },
      "supportsInterface(bytes4)": {
        "details": "See `IERC165.supportsInterface`.     * Time complexity O(1), guaranteed to always use less than 30 000 gas."
      },
      "symbol()": {
        "details": "Gets the token symbol.",
        "return": "string representing the token symbol"
      },
      "tokenURI(uint256)": {
        "details": "Returns an URI for a given token ID. Throws if the token ID does not exist. May return an empty string.",
        "params": {
          "tokenId": "uint256 ID of the token to query"
        }
      },
      "transferFrom(address,address,uint256)": {
        "details": "Transfers the ownership of a given token ID to another address. Usage of this method is discouraged, use `safeTransferFrom` whenever possible. Requires the msg.sender to be the owner, approved, or operator.",
        "params": {
          "from": "current owner of the token",
          "to": "address to receive the ownership of the given token ID",
          "tokenId": "uint256 ID of the token to be transferred"
        }
      }
    }
  },
  "userdoc": {
    "methods": {
      "acceptBid(uint256)": {
        "notice": "This function allows the auctioneer to accept the bidsThis function allows the auctioneer to reject the bids"
      },
      "cancelBid(uint256)": {
        "notice": "This function allows the auctioneer to cancel the bids"
      },
      "changeRunningStatus(uint256)": {
        "notice": "This function allows the auctioneer to change the running status"
      },
      "changeSellPrice(uint256,uint256)": {
        "notice": "This function allows the auctioneer to change the sell price"
      },
      "changeToAuction(uint256)": {
        "notice": "This function allows the auctioneer to change from a sale to an auction"
      },
      "changeToSale(uint256,uint256)": {
        "notice": "This function allows the auctioneer to change from an auction to a sale"
      },
      "createPublication(string,bool,bool,uint256,uint256[],uint256[])": {
        "notice": "This function creates a publication on the system, with blank arrays for publication bids and owners,since no one has bidded for or bought a licence yet"
      },
      "donate(uint256,uint256)": {
        "notice": "Donates funds to a research"
      },
      "makeBid(uint256,uint256)": {
        "notice": "This function creates a new bid for a particular publication"
      },
      "registerUser(string)": {
        "notice": "This function registers a user on the platform by taking in their profile URL"
      },
      "rejectBid(uint256)": {
        "notice": "This function allows the auctioneer to reject the bids"
      }
    },
    "notice": "contract begins here"
  }
}