{
  "contractName": "UnicoinRegistry",
  "abi": [
    {
      "constant": true,
      "inputs": [
        {
          "name": "interfaceId",
          "type": "bytes4"
        }
      ],
      "name": "supportsInterface",
      "outputs": [
        {
          "name": "",
          "type": "bool"
        }
      ],
      "payable": false,
      "stateMutability": "view",
      "type": "function"
    },
    {
      "constant": true,
      "inputs": [
        {
          "name": "tokenId",
          "type": "uint256"
        }
      ],
      "name": "getApproved",
      "outputs": [
        {
          "name": "",
          "type": "address"
        }
      ],
      "payable": false,
      "stateMutability": "view",
      "type": "function"
    },
    {
      "constant": false,
      "inputs": [
        {
          "name": "to",
          "type": "address"
        },
        {
          "name": "tokenId",
          "type": "uint256"
        }
      ],
      "name": "approve",
      "outputs": [],
      "payable": false,
      "stateMutability": "nonpayable",
      "type": "function"
    },
    {
      "constant": true,
      "inputs": [
        {
          "name": "",
          "type": "uint256"
        },
        {
          "name": "",
          "type": "uint256"
        }
      ],
      "name": "publicationOwners",
      "outputs": [
        {
          "name": "",
          "type": "uint256"
        }
      ],
      "payable": false,
      "stateMutability": "view",
      "type": "function"
    },
    {
      "constant": true,
      "inputs": [
        {
          "name": "",
          "type": "uint256"
        }
      ],
      "name": "publications",
      "outputs": [
        {
          "name": "author_Id",
          "type": "uint256"
        },
        {
          "name": "publication_uri",
          "type": "string"
        },
        {
          "name": "isAuction",
          "type": "bool"
        },
        {
          "name": "isRunning",
          "type": "bool"
        },
        {
          "name": "sell_price",
          "type": "uint256"
        }
      ],
      "payable": false,
      "stateMutability": "view",
      "type": "function"
    },
    {
      "constant": false,
      "inputs": [
        {
          "name": "from",
          "type": "address"
        },
        {
          "name": "to",
          "type": "address"
        },
        {
          "name": "tokenId",
          "type": "uint256"
        }
      ],
      "name": "transferFrom",
      "outputs": [],
      "payable": false,
      "stateMutability": "nonpayable",
      "type": "function"
    },
    {
      "constant": true,
      "inputs": [
        {
          "name": "",
          "type": "uint256"
        }
      ],
      "name": "users",
      "outputs": [
        {
          "name": "owned_address",
          "type": "address"
        },
        {
          "name": "profile_uri",
          "type": "string"
        }
      ],
      "payable": false,
      "stateMutability": "view",
      "type": "function"
    },
    {
      "constant": false,
      "inputs": [
        {
          "name": "from",
          "type": "address"
        },
        {
          "name": "to",
          "type": "address"
        },
        {
          "name": "tokenId",
          "type": "uint256"
        }
      ],
      "name": "safeTransferFrom",
      "outputs": [],
      "payable": false,
      "stateMutability": "nonpayable",
      "type": "function"
    },
    {
      "constant": true,
      "inputs": [
        {
          "name": "",
          "type": "uint256"
        }
      ],
      "name": "bids",
      "outputs": [
        {
          "name": "offer",
          "type": "uint256"
        },
        {
          "name": "status",
          "type": "uint8"
        },
        {
          "name": "publication_Id",
          "type": "uint256"
        },
        {
          "name": "owner_Id",
          "type": "uint256"
        }
      ],
      "payable": false,
      "stateMutability": "view",
      "type": "function"
    },
    {
      "constant": true,
      "inputs": [
        {
          "name": "tokenId",
          "type": "uint256"
        }
      ],
      "name": "ownerOf",
      "outputs": [
        {
          "name": "",
          "type": "address"
        }
      ],
      "payable": false,
      "stateMutability": "view",
      "type": "function"
    },
    {
      "constant": true,
      "inputs": [
        {
          "name": "",
          "type": "uint256"
        }
      ],
      "name": "licenceOwners",
      "outputs": [
        {
          "name": "",
          "type": "uint256"
        }
      ],
      "payable": false,
      "stateMutability": "view",
      "type": "function"
    },
    {
      "constant": true,
      "inputs": [
        {
          "name": "owner",
          "type": "address"
        }
      ],
      "name": "balanceOf",
      "outputs": [
        {
          "name": "",
          "type": "uint256"
        }
      ],
      "payable": false,
      "stateMutability": "view",
      "type": "function"
    },
    {
      "constant": false,
      "inputs": [
        {
          "name": "to",
          "type": "address"
        },
        {
          "name": "approved",
          "type": "bool"
        }
      ],
      "name": "setApprovalForAll",
      "outputs": [],
      "payable": false,
      "stateMutability": "nonpayable",
      "type": "function"
    },
    {
      "constant": false,
      "inputs": [
        {
          "name": "from",
          "type": "address"
        },
        {
          "name": "to",
          "type": "address"
        },
        {
          "name": "tokenId",
          "type": "uint256"
        },
        {
          "name": "_data",
          "type": "bytes"
        }
      ],
      "name": "safeTransferFrom",
      "outputs": [],
      "payable": false,
      "stateMutability": "nonpayable",
      "type": "function"
    },
    {
      "constant": true,
      "inputs": [
        {
          "name": "",
          "type": "uint256"
        }
      ],
      "name": "licences",
      "outputs": [
        {
          "name": "buyer_Id",
          "type": "uint256"
        },
        {
          "name": "Publication_Id",
          "type": "uint256"
        },
        {
          "name": "bid_Id",
          "type": "uint256"
        }
      ],
      "payable": false,
      "stateMutability": "view",
      "type": "function"
    },
    {
      "constant": true,
      "inputs": [
        {
          "name": "",
          "type": "uint256"
        },
        {
          "name": "",
          "type": "uint256"
        }
      ],
      "name": "publicationLicences",
      "outputs": [
        {
          "name": "",
          "type": "uint256"
        }
      ],
      "payable": false,
      "stateMutability": "view",
      "type": "function"
    },
    {
      "constant": true,
      "inputs": [
        {
          "name": "",
          "type": "uint256"
        },
        {
          "name": "",
          "type": "uint256"
        }
      ],
      "name": "bidOwners",
      "outputs": [
        {
          "name": "",
          "type": "uint256"
        }
      ],
      "payable": false,
      "stateMutability": "view",
      "type": "function"
    },
    {
      "constant": true,
      "inputs": [
        {
          "name": "owner",
          "type": "address"
        },
        {
          "name": "operator",
          "type": "address"
        }
      ],
      "name": "isApprovedForAll",
      "outputs": [
        {
          "name": "",
          "type": "bool"
        }
      ],
      "payable": false,
      "stateMutability": "view",
      "type": "function"
    },
    {
      "constant": true,
      "inputs": [
        {
          "name": "",
          "type": "address"
        }
      ],
      "name": "userAddresses",
      "outputs": [
        {
          "name": "",
          "type": "uint256"
        }
      ],
      "payable": false,
      "stateMutability": "view",
      "type": "function"
    },
    {
      "inputs": [
        {
          "name": "_daiContractAddress",
          "type": "address"
        }
      ],
      "payable": false,
      "stateMutability": "nonpayable",
      "type": "constructor"
    },
    {
      "anonymous": false,
      "inputs": [
        {
          "indexed": true,
          "name": "from",
          "type": "address"
        },
        {
          "indexed": true,
          "name": "to",
          "type": "address"
        },
        {
          "indexed": true,
          "name": "tokenId",
          "type": "uint256"
        }
      ],
      "name": "Transfer",
      "type": "event"
    },
    {
      "anonymous": false,
      "inputs": [
        {
          "indexed": true,
          "name": "owner",
          "type": "address"
        },
        {
          "indexed": true,
          "name": "approved",
          "type": "address"
        },
        {
          "indexed": true,
          "name": "tokenId",
          "type": "uint256"
        }
      ],
      "name": "Approval",
      "type": "event"
    },
    {
      "anonymous": false,
      "inputs": [
        {
          "indexed": true,
          "name": "owner",
          "type": "address"
        },
        {
          "indexed": true,
          "name": "operator",
          "type": "address"
        },
        {
          "indexed": false,
          "name": "approved",
          "type": "bool"
        }
      ],
      "name": "ApprovalForAll",
      "type": "event"
    },
    {
      "constant": false,
      "inputs": [
        {
          "name": "_profile_uri",
          "type": "string"
        }
      ],
      "name": "registerUser",
      "outputs": [],
      "payable": false,
      "stateMutability": "nonpayable",
      "type": "function"
    },
    {
      "constant": false,
      "inputs": [
        {
          "name": "_publication_uri",
          "type": "string"
        },
        {
          "name": "_isAuction",
          "type": "bool"
        },
        {
          "name": "_isRunning",
          "type": "bool"
        },
        {
          "name": "_sell_price",
          "type": "uint256"
        },
        {
          "name": "_contributors",
          "type": "uint256[]"
        },
        {
          "name": "_contributors_weightings",
          "type": "uint256[]"
        }
      ],
      "name": "createPublication",
      "outputs": [],
      "payable": false,
      "stateMutability": "nonpayable",
      "type": "function"
    },
    {
      "constant": false,
      "inputs": [
        {
          "name": "_offer",
          "type": "uint256"
        },
        {
          "name": "_publication_Id",
          "type": "uint256"
        }
      ],
      "name": "makeBid",
      "outputs": [],
      "payable": false,
      "stateMutability": "nonpayable",
      "type": "function"
    },
    {
      "constant": false,
      "inputs": [
        {
          "name": "_id",
          "type": "uint256"
        }
      ],
      "name": "acceptBid",
      "outputs": [],
      "payable": false,
      "stateMutability": "nonpayable",
      "type": "function"
    },
    {
      "constant": false,
      "inputs": [
        {
          "name": "_id",
          "type": "uint256"
        }
      ],
      "name": "rejectBid",
      "outputs": [],
      "payable": false,
      "stateMutability": "nonpayable",
      "type": "function"
    },
    {
      "constant": false,
      "inputs": [
        {
          "name": "_id",
          "type": "uint256"
        }
      ],
      "name": "cancelBid",
      "outputs": [],
      "payable": false,
      "stateMutability": "nonpayable",
      "type": "function"
    },
    {
      "constant": false,
      "inputs": [
        {
          "name": "_publication_Id",
          "type": "uint256"
        },
        {
          "name": "_sell_price",
          "type": "uint256"
        }
      ],
      "name": "changeToSale",
      "outputs": [],
      "payable": false,
      "stateMutability": "nonpayable",
      "type": "function"
    },
    {
      "constant": false,
      "inputs": [
        {
          "name": "_publication_Id",
          "type": "uint256"
        }
      ],
      "name": "changeToAuction",
      "outputs": [],
      "payable": false,
      "stateMutability": "nonpayable",
      "type": "function"
    },
    {
      "constant": false,
      "inputs": [
        {
          "name": "_publication_Id",
          "type": "uint256"
        },
        {
          "name": "_sell_price",
          "type": "uint256"
        }
      ],
      "name": "changeSellPrice",
      "outputs": [],
      "payable": false,
      "stateMutability": "nonpayable",
      "type": "function"
    },
    {
      "constant": false,
      "inputs": [
        {
          "name": "_publication_Id",
          "type": "uint256"
        }
      ],
      "name": "changeRunningStatus",
      "outputs": [],
      "payable": false,
      "stateMutability": "nonpayable",
      "type": "function"
    },
    {
      "constant": true,
      "inputs": [
        {
          "name": "_address",
          "type": "address"
        }
      ],
      "name": "getPublications",
      "outputs": [
        {
          "name": "",
          "type": "uint256[]"
        }
      ],
      "payable": false,
      "stateMutability": "view",
      "type": "function"
    },
    {
      "constant": true,
      "inputs": [
        {
          "name": "_address",
          "type": "address"
        }
      ],
      "name": "getBids",
      "outputs": [
        {
          "name": "",
          "type": "uint256[]"
        }
      ],
      "payable": false,
      "stateMutability": "view",
      "type": "function"
    },
    {
      "constant": true,
      "inputs": [
        {
          "name": "_publication_Id",
          "type": "uint256"
        }
      ],
      "name": "getPublicationBids",
      "outputs": [
        {
          "name": "",
          "type": "uint256[]"
        }
      ],
      "payable": false,
      "stateMutability": "view",
      "type": "function"
    }
  ],
  "bytecode": "0x60806040523480156200001157600080fd5b5060405160208062004c55833981018060405260208110156200003357600080fd5b81019080805190602001909291905050506200005c6301ffc9a760e01b6200018d60201b60201c565b620000746380ac58cd60e01b6200018d60201b60201c565b60056040518060400160405280600073ffffffffffffffffffffffffffffffffffffffff168152602001604051806020016040528060008152508152509080600181540180825580915050906001820390600052602060002090600202016000909192909190915060008201518160000160006101000a81548173ffffffffffffffffffffffffffffffffffffffff021916908373ffffffffffffffffffffffffffffffffffffffff16021790555060208201518160010190805190602001906200014192919062000296565b5050505080600e60006101000a81548173ffffffffffffffffffffffffffffffffffffffff021916908373ffffffffffffffffffffffffffffffffffffffff1602179055505062000345565b63ffffffff60e01b817bffffffffffffffffffffffffffffffffffffffffffffffffffffffff191614156200022a576040517f08c379a000000000000000000000000000000000000000000000000000000000815260040180806020018281038252601c8152602001807f4552433136353a20696e76616c696420696e746572666163652069640000000081525060200191505060405180910390fd5b6001600080837bffffffffffffffffffffffffffffffffffffffffffffffffffffffff19167bffffffffffffffffffffffffffffffffffffffffffffffffffffffff1916815260200190815260200160002060006101000a81548160ff02191690831515021790555050565b828054600181600116156101000203166002900490600052602060002090601f016020900481019282601f10620002d957805160ff19168380011785556200030a565b828001600101855582156200030a579182015b8281111562000309578251825591602001919060010190620002ec565b5b5090506200031991906200031d565b5090565b6200034291905b808211156200033e57600081600090555060010162000324565b5090565b90565b61490080620003556000396000f3fe608060405234801561001057600080fd5b50600436106101f05760003560e01c8063699b5fa11161010f578063a22cb465116100a2578063d628d54011610071578063d628d54014610ef8578063dc05d95214610f44578063e985e9c514610f90578063fc86dea71461100c576101f0565b8063a22cb46514610d1b578063adfcdc1114610d6b578063b88d4fde14610da3578063bb44aee314610ea8576101f0565b806390420aee116100de57806390420aee14610bee5780639703ef3514610c265780639ab7a95414610c545780639dccae8214610c82576101f0565b8063699b5fa114610a755780636e3341b314610aad578063704f1b9414610adb57806370a0823114610b96576101f0565b80632b1fd58a116101875780634423c5f1116101565780634423c5f11461075b5780635fd814a0146107c05780636352211e146109c55780636557e4a814610a33576101f0565b80632b1fd58a14610562578063365b98b2146105905780633e7646041461066a57806342842e0e146106ed576101f0565b8063142af1ca116101c3578063142af1ca146103af578063166c6c80146103fb5780631fd5bbab1461042957806323b872dd146104f4576101f0565b806301ffc9a7146101f5578063081812fc1461025a57806308204780146102c8578063095ea7b314610361575b600080fd5b6102406004803603602081101561020b57600080fd5b8101908080357bffffffffffffffffffffffffffffffffffffffffffffffffffffffff19169060200190929190505050611064565b604051808215151515815260200191505060405180910390f35b6102866004803603602081101561027057600080fd5b81019080803590602001909291905050506110cb565b604051808273ffffffffffffffffffffffffffffffffffffffff1673ffffffffffffffffffffffffffffffffffffffff16815260200191505060405180910390f35b61030a600480360360208110156102de57600080fd5b81019080803573ffffffffffffffffffffffffffffffffffffffff169060200190929190505050611166565b6040518080602001828103825283818151815260200191508051906020019060200280838360005b8381101561034d578082015181840152602081019050610332565b505050509050019250505060405180910390f35b6103ad6004803603604081101561037757600080fd5b81019080803573ffffffffffffffffffffffffffffffffffffffff16906020019092919080359060200190929190505050611216565b005b6103e5600480360360408110156103c557600080fd5b8101908080359060200190929190803590602001909291905050506113ef565b6040518082815260200191505060405180910390f35b6104276004803603602081101561041157600080fd5b810190808035906020019092919050505061141d565b005b6104556004803603602081101561043f57600080fd5b81019080803590602001909291905050506115b2565b60405180868152602001806020018515151515815260200184151515158152602001838152602001828103825286818151815260200191508051906020019080838360005b838110156104b557808201518184015260208101905061049a565b50505050905090810190601f1680156104e25780820380516001836020036101000a031916815260200191505b50965050505050505060405180910390f35b6105606004803603606081101561050a57600080fd5b81019080803573ffffffffffffffffffffffffffffffffffffffff169060200190929190803573ffffffffffffffffffffffffffffffffffffffff169060200190929190803590602001909291905050506116a7565b005b61058e6004803603602081101561057857600080fd5b8101908080359060200190929190505050611716565b005b6105bc600480360360208110156105a657600080fd5b8101908080359060200190929190505050611ad2565b604051808373ffffffffffffffffffffffffffffffffffffffff1673ffffffffffffffffffffffffffffffffffffffff16815260200180602001828103825283818151815260200191508051906020019080838360005b8381101561062e578082015181840152602081019050610613565b50505050905090810190601f16801561065b5780820380516001836020036101000a031916815260200191505b50935050505060405180910390f35b6106966004803603602081101561068057600080fd5b8101908080359060200190929190505050611bbb565b6040518080602001828103825283818151815260200191508051906020019060200280838360005b838110156106d95780820151818401526020810190506106be565b505050509050019250505060405180910390f35b6107596004803603606081101561070357600080fd5b81019080803573ffffffffffffffffffffffffffffffffffffffff169060200190929190803573ffffffffffffffffffffffffffffffffffffffff16906020019092919080359060200190929190505050611c31565b005b6107876004803603602081101561077157600080fd5b8101908080359060200190929190505050611c51565b6040518085815260200184600481111561079d57fe5b60ff16815260200183815260200182815260200194505050505060405180910390f35b6109c3600480360360c08110156107d657600080fd5b81019080803590602001906401000000008111156107f357600080fd5b82018360208201111561080557600080fd5b8035906020019184600183028401116401000000008311171561082757600080fd5b91908080601f016020809104026020016040519081016040528093929190818152602001838380828437600081840152601f19601f82011690508083019250505050505050919291929080351515906020019092919080351515906020019092919080359060200190929190803590602001906401000000008111156108ac57600080fd5b8201836020820111156108be57600080fd5b803590602001918460208302840111640100000000831117156108e057600080fd5b919080806020026020016040519081016040528093929190818152602001838360200280828437600081840152601f19601f8201169050808301925050505050505091929192908035906020019064010000000081111561094057600080fd5b82018360208201111561095257600080fd5b8035906020019184602083028401116401000000008311171561097457600080fd5b919080806020026020016040519081016040528093929190818152602001838360200280828437600081840152601f19601f820116905080830192505050505050509192919290505050611c9b565b005b6109f1600480360360208110156109db57600080fd5b810190808035906020019092919050505061205c565b604051808273ffffffffffffffffffffffffffffffffffffffff1673ffffffffffffffffffffffffffffffffffffffff16815260200191505060405180910390f35b610a5f60048036036020811015610a4957600080fd5b8101908080359060200190929190505050612124565b6040518082815260200191505060405180910390f35b610aab60048036036040811015610a8b57600080fd5b81019080803590602001909291908035906020019092919050505061213c565b005b610ad960048036036020811015610ac357600080fd5b81019080803590602001909291905050506122ed565b005b610b9460048036036020811015610af157600080fd5b8101908080359060200190640100000000811115610b0e57600080fd5b820183602082011115610b2057600080fd5b80359060200191846001830284011164010000000083111715610b4257600080fd5b91908080601f016020809104026020016040519081016040528093929190818152602001838380828437600081840152601f19601f820116905080830192505050505050509192919290505050612545565b005b610bd860048036036020811015610bac57600080fd5b81019080803573ffffffffffffffffffffffffffffffffffffffff16906020019092919050505061277e565b6040518082815260200191505060405180910390f35b610c2460048036036040811015610c0457600080fd5b810190808035906020019092919080359060200190929190505050612853565b005b610c5260048036036020811015610c3c57600080fd5b81019080803590602001909291905050506129ce565b005b610c8060048036036020811015610c6a57600080fd5b8101908080359060200190929190505050612c26565b005b610cc460048036036020811015610c9857600080fd5b81019080803573ffffffffffffffffffffffffffffffffffffffff169060200190929190505050612d40565b6040518080602001828103825283818151815260200191508051906020019060200280838360005b83811015610d07578082015181840152602081019050610cec565b505050509050019250505060405180910390f35b610d6960048036036040811015610d3157600080fd5b81019080803573ffffffffffffffffffffffffffffffffffffffff169060200190929190803515159060200190929190505050612df0565b005b610da160048036036040811015610d8157600080fd5b810190808035906020019092919080359060200190929190505050612f93565b005b610ea660048036036080811015610db957600080fd5b81019080803573ffffffffffffffffffffffffffffffffffffffff169060200190929190803573ffffffffffffffffffffffffffffffffffffffff1690602001909291908035906020019092919080359060200190640100000000811115610e2057600080fd5b820183602082011115610e3257600080fd5b80359060200191846001830284011164010000000083111715610e5457600080fd5b91908080601f016020809104026020016040519081016040528093929190818152602001838380828437600081840152601f19601f820116905080830192505050505050509192919290505050613a1a565b005b610ed460048036036020811015610ebe57600080fd5b8101908080359060200190929190505050613a8c565b60405180848152602001838152602001828152602001935050505060405180910390f35b610f2e60048036036040811015610f0e57600080fd5b810190808035906020019092919080359060200190929190505050613ac3565b6040518082815260200191505060405180910390f35b610f7a60048036036040811015610f5a57600080fd5b810190808035906020019092919080359060200190929190505050613af1565b6040518082815260200191505060405180910390f35b610ff260048036036040811015610fa657600080fd5b81019080803573ffffffffffffffffffffffffffffffffffffffff169060200190929190803573ffffffffffffffffffffffffffffffffffffffff169060200190929190505050613b1f565b604051808215151515815260200191505060405180910390f35b61104e6004803603602081101561102257600080fd5b81019080803573ffffffffffffffffffffffffffffffffffffffff169060200190929190505050613bb3565b6040518082815260200191505060405180910390f35b6000806000837bffffffffffffffffffffffffffffffffffffffffffffffffffffffff19167bffffffffffffffffffffffffffffffffffffffffffffffffffffffff1916815260200190815260200160002060009054906101000a900460ff169050919050565b60006110d682613bcb565b61112b576040517f08c379a000000000000000000000000000000000000000000000000000000000815260040180806020018281038252602c8152602001806147bc602c913960400191505060405180910390fd5b6002600083815260200190815260200160002060009054906101000a900473ffffffffffffffffffffffffffffffffffffffff169050919050565b60606000600660008473ffffffffffffffffffffffffffffffffffffffff1673ffffffffffffffffffffffffffffffffffffffff168152602001908152602001600020549050600a600082815260200190815260200160002080548060200260200160405190810160405280929190818152602001828054801561120957602002820191906000526020600020905b8154815260200190600101908083116111f5575b5050505050915050919050565b60006112218261205c565b90508073ffffffffffffffffffffffffffffffffffffffff168373ffffffffffffffffffffffffffffffffffffffff1614156112a8576040517f08c379a000000000000000000000000000000000000000000000000000000000815260040180806020018281038252602181526020018061483b6021913960400191505060405180910390fd5b8073ffffffffffffffffffffffffffffffffffffffff163373ffffffffffffffffffffffffffffffffffffffff1614806112e857506112e78133613b1f565b5b61133d576040517f08c379a00000000000000000000000000000000000000000000000000000000081526004018080602001828103825260388152602001806147316038913960400191505060405180910390fd5b826002600084815260200190815260200160002060006101000a81548173ffffffffffffffffffffffffffffffffffffffff021916908373ffffffffffffffffffffffffffffffffffffffff160217905550818373ffffffffffffffffffffffffffffffffffffffff168273ffffffffffffffffffffffffffffffffffffffff167f8c5be1e5ebec7d5bd14f71427d1e84f3dd0314c0f7b2291e5b200ac8c7c3b92560405160405180910390a4505050565b600a602052816000526040600020818154811061140857fe5b90600052602060002001600091509150505481565b6009818154811061142a57fe5b906000526020600020906007020160000154600660003373ffffffffffffffffffffffffffffffffffffffff1673ffffffffffffffffffffffffffffffffffffffff16815260200190815260200160002054146114d2576040517f08c379a000000000000000000000000000000000000000000000000000000000815260040180806020018281038252602781526020018061485c6027913960400191505060405180910390fd5b600981815481106114df57fe5b906000526020600020906007020160030160009054906101000a900460ff1615611554576040517f08c379a00000000000000000000000000000000000000000000000000000000081526004018080602001828103825260218152602001806148b46021913960400191505060405180910390fd5b60006009828154811061156357fe5b90600052602060002090600702016004018190555060016009828154811061158757fe5b906000526020600020906007020160030160006101000a81548160ff02191690831515021790555050565b600981815481106115bf57fe5b9060005260206000209060070201600091509050806000015490806001018054600181600116156101000203166002900480601f0160208091040260200160405190810160405280929190818152602001828054600181600116156101000203166002900480156116715780601f1061164657610100808354040283529160200191611671565b820191906000526020600020905b81548152906001019060200180831161165457829003601f168201915b5050505050908060030160009054906101000a900460ff16908060030160019054906101000a900460ff16908060040154905085565b6116b13382613c3d565b611706576040517f08c379a00000000000000000000000000000000000000000000000000000000081526004018080602001828103825260318152602001806148836031913960400191505060405180910390fd5b611711838383613d31565b505050565b60006007828154811061172557fe5b90600052602060002090600402016002015490506009818154811061174657fe5b906000526020600020906007020160000154600660003373ffffffffffffffffffffffffffffffffffffffff1673ffffffffffffffffffffffffffffffffffffffff16815260200190815260200160002054146117ee576040517f08c379a000000000000000000000000000000000000000000000000000000000815260040180806020018281038252602781526020018061485c6027913960400191505060405180910390fd5b600981815481106117fb57fe5b906000526020600020906007020160030160009054906101000a900460ff1661188c576040517f08c379a000000000000000000000000000000000000000000000000000000000815260040180806020018281038252601b8152602001807f5075626c69636174696f6e206e6f7420616e2061756374696f6e2e000000000081525060200191505060405180910390fd5b6009818154811061189957fe5b906000526020600020906007020160030160019054906101000a900460ff1661192a576040517f08c379a00000000000000000000000000000000000000000000000000000000081526004018080602001828103825260178152602001807f41756374696f6e206973206e6f742072756e6e696e672e00000000000000000081525060200191505060405180910390fd5b60016007838154811061193957fe5b906000526020600020906004020160010160006101000a81548160ff0219169083600481111561196557fe5b02179055506000600b60405180606001604052806007868154811061198657fe5b906000526020600020906004020160030154815260200184815260200185815250908060018154018082558091505090600182039060005260206000209060030201600090919290919091506000820151816000015560208201518160010155604082015181600201555050905080600c600060078681548110611a0657fe5b906000526020600020906004020160030154815260200190815260200160002081905550600d6000838152602001908152602001600020819080600181540180825580915050906001820390600052602060002001600090919290919091505550611acd600560078581548110611a7957fe5b90600052602060002090600402016003015481548110611a9557fe5b906000526020600020906002020160000160009054906101000a900473ffffffffffffffffffffffffffffffffffffffff1682613f8c565b505050565b60058181548110611adf57fe5b90600052602060002090600202016000915090508060000160009054906101000a900473ffffffffffffffffffffffffffffffffffffffff1690806001018054600181600116156101000203166002900480601f016020809104026020016040519081016040528092919081815260200182805460018160011615610100020316600290048015611bb15780601f10611b8657610100808354040283529160200191611bb1565b820191906000526020600020905b815481529060010190602001808311611b9457829003601f168201915b5050505050905082565b606060098281548110611bca57fe5b9060005260206000209060070201600201805480602002602001604051908101604052809291908181526020018280548015611c2557602002820191906000526020600020905b815481526020019060010190808311611c11575b50505050509050919050565b611c4c83838360405180602001604052806000815250613a1a565b505050565b60078181548110611c5e57fe5b90600052602060002090600402016000915090508060000154908060010160009054906101000a900460ff16908060020154908060030154905084565b6000865111611cf5576040517f08c379a000000000000000000000000000000000000000000000000000000000815260040180806020018281038252602481526020018061466a6024913960400191505060405180910390fd5b6000600660003373ffffffffffffffffffffffffffffffffffffffff1673ffffffffffffffffffffffffffffffffffffffff168152602001908152602001600020541415611dab576040517f08c379a000000000000000000000000000000000000000000000000000000000815260040180806020018281038252601f8152602001807f557365722061646472657373206973206e6f7420726567697374657265642e0081525060200191505060405180910390fd5b8415611e0f5760008314611e0a576040517f08c379a000000000000000000000000000000000000000000000000000000000815260040180806020018281038252602a815260200180614811602a913960400191505060405180910390fd5b611e86565b60008311611e85576040517f08c379a00000000000000000000000000000000000000000000000000000000081526004018080602001828103825260198152602001807f53656c6c207072696365206e6f74207370656369666965642e0000000000000081525060200191505060405180910390fd5b5b6000600660003373ffffffffffffffffffffffffffffffffffffffff1673ffffffffffffffffffffffffffffffffffffffff1681526020019081526020016000205490506060611ed461452e565b6040518061010001604052808481526020018a815260200183815260200189151581526020018815158152602001878152602001868152602001858152509050600060098290806001815401808255809150509060018203906000526020600020906007020160009091929091909150600082015181600001556020820151816001019080519060200190611f6a929190614577565b506040820151816002019080519060200190611f879291906145f7565b5060608201518160030160006101000a81548160ff02191690831515021790555060808201518160030160016101000a81548160ff02191690831515021790555060a0820151816004015560c0820151816005019080519060200190611fee9291906145f7565b5060e082015181600601908051906020019061200b9291906145f7565b5050509050600a600085815260200190815260200160002060018203908060018154018082558091505090600182039060005260206000200160009091929091909150555050505050505050505050565b6000806001600084815260200190815260200160002060009054906101000a900473ffffffffffffffffffffffffffffffffffffffff169050600073ffffffffffffffffffffffffffffffffffffffff168173ffffffffffffffffffffffffffffffffffffffff16141561211b576040517f08c379a00000000000000000000000000000000000000000000000000000000081526004018080602001828103825260298152602001806147936029913960400191505060405180910390fd5b80915050919050565b600c6020528060005260406000206000915090505481565b6009828154811061214957fe5b906000526020600020906007020160000154600660003373ffffffffffffffffffffffffffffffffffffffff1673ffffffffffffffffffffffffffffffffffffffff16815260200190815260200160002054146121f1576040517f08c379a000000000000000000000000000000000000000000000000000000000815260040180806020018281038252602781526020018061485c6027913960400191505060405180910390fd5b600982815481106121fe57fe5b906000526020600020906007020160030160009054906101000a900460ff1661228f576040517f08c379a000000000000000000000000000000000000000000000000000000000815260040180806020018281038252601d8152602001807f5075626c69636174696f6e206973206e6f7420616e2061756374696f6e00000081525060200191505060405180910390fd5b806009838154811061229d57fe5b9060005260206000209060070201600401819055506000600983815481106122c157fe5b906000526020600020906007020160030160006101000a81548160ff0219169083151502179055505050565b6000600782815481106122fc57fe5b90600052602060002090600402016002015490506009818154811061231d57fe5b906000526020600020906007020160000154600660003373ffffffffffffffffffffffffffffffffffffffff1673ffffffffffffffffffffffffffffffffffffffff16815260200190815260200160002054146123c5576040517f08c379a000000000000000000000000000000000000000000000000000000000815260040180806020018281038252602781526020018061485c6027913960400191505060405180910390fd5b600981815481106123d257fe5b906000526020600020906007020160030160009054906101000a900460ff16612463576040517f08c379a000000000000000000000000000000000000000000000000000000000815260040180806020018281038252601b8152602001807f5075626c69636174696f6e206e6f7420616e2061756374696f6e2e000000000081525060200191505060405180910390fd5b6009818154811061247057fe5b906000526020600020906007020160030160019054906101000a900460ff16612501576040517f08c379a00000000000000000000000000000000000000000000000000000000081526004018080602001828103825260148152602001807f41756374696f6e206e6f742072756e6e696e672e00000000000000000000000081525060200191505060405180910390fd5b60026007838154811061251057fe5b906000526020600020906004020160010160006101000a81548160ff0219169083600481111561253c57fe5b02179055505050565b60008151116125bc576040517f08c379a00000000000000000000000000000000000000000000000000000000081526004018080602001828103825260208152602001807f50726f66696c65205552492073686f756c64206e6f7420626520656d7074792e81525060200191505060405180910390fd5b6000600660003373ffffffffffffffffffffffffffffffffffffffff1673ffffffffffffffffffffffffffffffffffffffff1681526020019081526020016000205414612671576040517f08c379a00000000000000000000000000000000000000000000000000000000081526004018080602001828103825260188152602001807f5573657220616c726561647920726567697374657265642e000000000000000081525060200191505060405180910390fd5b6000600560405180604001604052803373ffffffffffffffffffffffffffffffffffffffff168152602001848152509080600181540180825580915050906001820390600052602060002090600202016000909192909190915060008201518160000160006101000a81548173ffffffffffffffffffffffffffffffffffffffff021916908373ffffffffffffffffffffffffffffffffffffffff160217905550602082015181600101908051906020019061272e929190614577565b505050905060018103600660003373ffffffffffffffffffffffffffffffffffffffff1673ffffffffffffffffffffffffffffffffffffffff168152602001908152602001600020819055505050565b60008073ffffffffffffffffffffffffffffffffffffffff168273ffffffffffffffffffffffffffffffffffffffff161415612805576040517f08c379a000000000000000000000000000000000000000000000000000000000815260040180806020018281038252602a815260200180614769602a913960400191505060405180910390fd5b61284c600360008473ffffffffffffffffffffffffffffffffffffffff1673ffffffffffffffffffffffffffffffffffffffff1681526020019081526020016000206141a4565b9050919050565b6009828154811061286057fe5b906000526020600020906007020160000154600660003373ffffffffffffffffffffffffffffffffffffffff1673ffffffffffffffffffffffffffffffffffffffff1681526020019081526020016000205414612908576040517f08c379a000000000000000000000000000000000000000000000000000000000815260040180806020018281038252602781526020018061485c6027913960400191505060405180910390fd5b6009828154811061291557fe5b906000526020600020906007020160030160009054906101000a900460ff16156129a7576040517f08c379a000000000000000000000000000000000000000000000000000000000815260040180806020018281038252601a8152602001807f5075626c69636174696f6e206973206f6e2061756374696f6e2e00000000000081525060200191505060405180910390fd5b80600983815481106129b557fe5b9060005260206000209060070201600401819055505050565b6000600782815481106129dd57fe5b9060005260206000209060040201600201549050600981815481106129fe57fe5b906000526020600020906007020160000154600660003373ffffffffffffffffffffffffffffffffffffffff1673ffffffffffffffffffffffffffffffffffffffff1681526020019081526020016000205414612aa6576040517f08c379a000000000000000000000000000000000000000000000000000000000815260040180806020018281038252602781526020018061485c6027913960400191505060405180910390fd5b60098181548110612ab357fe5b906000526020600020906007020160030160009054906101000a900460ff16612b44576040517f08c379a000000000000000000000000000000000000000000000000000000000815260040180806020018281038252601b8152602001807f5075626c69636174696f6e206e6f7420616e2061756374696f6e2e000000000081525060200191505060405180910390fd5b60098181548110612b5157fe5b906000526020600020906007020160030160019054906101000a900460ff16612be2576040517f08c379a00000000000000000000000000000000000000000000000000000000081526004018080602001828103825260148152602001807f41756374696f6e206e6f742072756e6e696e672e00000000000000000000000081525060200191505060405180910390fd5b600460078381548110612bf157fe5b906000526020600020906004020160010160006101000a81548160ff02191690836004811115612c1d57fe5b02179055505050565b60098181548110612c3357fe5b906000526020600020906007020160000154600660003373ffffffffffffffffffffffffffffffffffffffff1673ffffffffffffffffffffffffffffffffffffffff1681526020019081526020016000205414612cdb576040517f08c379a000000000000000000000000000000000000000000000000000000000815260040180806020018281038252602781526020018061485c6027913960400191505060405180910390fd5b60098181548110612ce857fe5b906000526020600020906007020160030160019054906101000a900460ff161560098281548110612d1557fe5b906000526020600020906007020160030160016101000a81548160ff02191690831515021790555050565b60606000600660008473ffffffffffffffffffffffffffffffffffffffff1673ffffffffffffffffffffffffffffffffffffffff16815260200190815260200160002054905060086000828152602001908152602001600020805480602002602001604051908101604052809291908181526020018280548015612de357602002820191906000526020600020905b815481526020019060010190808311612dcf575b5050505050915050919050565b3373ffffffffffffffffffffffffffffffffffffffff168273ffffffffffffffffffffffffffffffffffffffff161415612e92576040517f08c379a00000000000000000000000000000000000000000000000000000000081526004018080602001828103825260198152602001807f4552433732313a20617070726f766520746f2063616c6c65720000000000000081525060200191505060405180910390fd5b80600460003373ffffffffffffffffffffffffffffffffffffffff1673ffffffffffffffffffffffffffffffffffffffff16815260200190815260200160002060008473ffffffffffffffffffffffffffffffffffffffff1673ffffffffffffffffffffffffffffffffffffffff16815260200190815260200160002060006101000a81548160ff0219169083151502179055508173ffffffffffffffffffffffffffffffffffffffff163373ffffffffffffffffffffffffffffffffffffffff167f17307eab39ab6107e8899845ad3d59bd9653f200f220920489ca2b5937696c3183604051808215151515815260200191505060405180910390a35050565b600060098281548110612fa257fe5b9060005260206000209060070201600001541415613028576040517f08c379a00000000000000000000000000000000000000000000000000000000081526004018080602001828103825260198152602001807f5075626c69636174696f6e206e6f7420656e6c69737465642e0000000000000081525060200191505060405180910390fd5b6000600660003373ffffffffffffffffffffffffffffffffffffffff1673ffffffffffffffffffffffffffffffffffffffff1681526020019081526020016000205414156130c1576040517f08c379a00000000000000000000000000000000000000000000000000000000081526004018080602001828103825260218152602001806146c06021913960400191505060405180910390fd5b600981815481106130ce57fe5b906000526020600020906007020160030160009054906101000a900460ff161561334257600981815481106130ff57fe5b906000526020600020906007020160030160019054906101000a900460ff16613190576040517f08c379a00000000000000000000000000000000000000000000000000000000081526004018080602001828103825260178152602001807f41756374696f6e206973206e6f742072756e6e696e672e00000000000000000081525060200191505060405180910390fd5b600060076040518060800160405280858152602001600060048111156131b257fe5b8152602001848152602001600660003373ffffffffffffffffffffffffffffffffffffffff1673ffffffffffffffffffffffffffffffffffffffff16815260200190815260200160002054815250908060018154018082558091505090600182039060005260206000209060040201600090919290919091506000820151816000015560208201518160010160006101000a81548160ff0219169083600481111561325957fe5b02179055506040820151816002015560608201518160030155505090506009828154811061328357fe5b906000526020600020906007020160020160018203908060018154018082558091505090600182039060005260206000200160009091929091909150555060086000600660003373ffffffffffffffffffffffffffffffffffffffff1673ffffffffffffffffffffffffffffffffffffffff168152602001908152602001600020548152602001908152602001600020600182039080600181540180825580915050906001820390600052602060002001600090919290919091505550505b6009818154811061334f57fe5b906000526020600020906007020160030160009054906101000a900460ff16613a16576009818154811061337f57fe5b9060005260206000209060070201600401548214613405576040517f08c379a00000000000000000000000000000000000000000000000000000000081526004018080602001828103825260158152602001807f496e636f72726563742066756e64732073656e742e000000000000000000000081525060200191505060405180910390fd5b60006001600760405180608001604052808681526020016003600481111561342957fe5b8152602001858152602001600660003373ffffffffffffffffffffffffffffffffffffffff1673ffffffffffffffffffffffffffffffffffffffff16815260200190815260200160002054815250908060018154018082558091505090600182039060005260206000209060040201600090919290919091506000820151816000015560208201518160010160006101000a81548160ff021916908360048111156134d057fe5b021790555060408201518160020155606082015181600301555050039050600982815481106134fb57fe5b906000526020600020906007020160020181908060018154018082558091505090600182039060005260206000200160009091929091909150555060086000600660003373ffffffffffffffffffffffffffffffffffffffff1673ffffffffffffffffffffffffffffffffffffffff16815260200190815260200160002054815260200190815260200160002081908060018154018082558091505090600182039060005260206000200160009091929091909150555082600e60009054906101000a900473ffffffffffffffffffffffffffffffffffffffff1673ffffffffffffffffffffffffffffffffffffffff1663dd62ed3e33306040518363ffffffff1660e01b8152600401808373ffffffffffffffffffffffffffffffffffffffff1673ffffffffffffffffffffffffffffffffffffffff1681526020018273ffffffffffffffffffffffffffffffffffffffff1673ffffffffffffffffffffffffffffffffffffffff1681526020019250505060206040518083038186803b15801561368657600080fd5b505afa15801561369a573d6000803e3d6000fd5b505050506040513d60208110156136b057600080fd5b81019080805190602001909291905050501015613735576040517f08c379a000000000000000000000000000000000000000000000000000000000815260040180806020018281038252601b8152602001807f496e73756666696369656e742066756e6420616c6c6f77616e6365000000000081525060200191505060405180910390fd5b600060056009848154811061374657fe5b9060005260206000209060070201600001548154811061376257fe5b906000526020600020906002020160000160009054906101000a900473ffffffffffffffffffffffffffffffffffffffff169050600e60009054906101000a900473ffffffffffffffffffffffffffffffffffffffff1673ffffffffffffffffffffffffffffffffffffffff166323b872dd3383876040518463ffffffff1660e01b8152600401808473ffffffffffffffffffffffffffffffffffffffff1673ffffffffffffffffffffffffffffffffffffffff1681526020018373ffffffffffffffffffffffffffffffffffffffff1673ffffffffffffffffffffffffffffffffffffffff1681526020018281526020019350505050602060405180830381600087803b15801561387357600080fd5b505af1158015613887573d6000803e3d6000fd5b505050506040513d602081101561389d57600080fd5b8101908080519060200190929190505050506000600b6040518060600160405280600786815481106138cb57fe5b906000526020600020906004020160030154815260200186815260200185815250908060018154018082558091505090600182039060005260206000209060030201600090919290919091506000820151816000015560208201518160010155604082015181600201555050905080600c60006007868154811061394b57fe5b906000526020600020906004020160030154815260200190815260200160002081905550600d6000858152602001908152602001600020819080600181540180825580915050906001820390600052602060002001600090919290919091505550613a126005600785815481106139be57fe5b906000526020600020906004020160030154815481106139da57fe5b906000526020600020906002020160000160009054906101000a900473ffffffffffffffffffffffffffffffffffffffff1682613f8c565b5050505b5050565b613a258484846116a7565b613a31848484846141b2565b613a86576040517f08c379a000000000000000000000000000000000000000000000000000000000815260040180806020018281038252603281526020018061468e6032913960400191505060405180910390fd5b50505050565b600b8181548110613a9957fe5b90600052602060002090600302016000915090508060000154908060010154908060020154905083565b600d6020528160005260406000208181548110613adc57fe5b90600052602060002001600091509150505481565b60086020528160005260406000208181548110613b0a57fe5b90600052602060002001600091509150505481565b6000600460008473ffffffffffffffffffffffffffffffffffffffff1673ffffffffffffffffffffffffffffffffffffffff16815260200190815260200160002060008373ffffffffffffffffffffffffffffffffffffffff1673ffffffffffffffffffffffffffffffffffffffff16815260200190815260200160002060009054906101000a900460ff16905092915050565b60066020528060005260406000206000915090505481565b6000806001600084815260200190815260200160002060009054906101000a900473ffffffffffffffffffffffffffffffffffffffff169050600073ffffffffffffffffffffffffffffffffffffffff168173ffffffffffffffffffffffffffffffffffffffff161415915050919050565b6000613c4882613bcb565b613c9d576040517f08c379a000000000000000000000000000000000000000000000000000000000815260040180806020018281038252602c815260200180614705602c913960400191505060405180910390fd5b6000613ca88361205c565b90508073ffffffffffffffffffffffffffffffffffffffff168473ffffffffffffffffffffffffffffffffffffffff161480613d1757508373ffffffffffffffffffffffffffffffffffffffff16613cff846110cb565b73ffffffffffffffffffffffffffffffffffffffff16145b80613d285750613d278185613b1f565b5b91505092915050565b8273ffffffffffffffffffffffffffffffffffffffff16613d518261205c565b73ffffffffffffffffffffffffffffffffffffffff1614613dbd576040517f08c379a00000000000000000000000000000000000000000000000000000000081526004018080602001828103825260298152602001806147e86029913960400191505060405180910390fd5b600073ffffffffffffffffffffffffffffffffffffffff168273ffffffffffffffffffffffffffffffffffffffff161415613e43576040517f08c379a00000000000000000000000000000000000000000000000000000000081526004018080602001828103825260248152602001806146e16024913960400191505060405180910390fd5b613e4c8161439b565b613e93600360008573ffffffffffffffffffffffffffffffffffffffff1673ffffffffffffffffffffffffffffffffffffffff168152602001908152602001600020614459565b613eda600360008473ffffffffffffffffffffffffffffffffffffffff1673ffffffffffffffffffffffffffffffffffffffff16815260200190815260200160002061447c565b816001600083815260200190815260200160002060006101000a81548173ffffffffffffffffffffffffffffffffffffffff021916908373ffffffffffffffffffffffffffffffffffffffff160217905550808273ffffffffffffffffffffffffffffffffffffffff168473ffffffffffffffffffffffffffffffffffffffff167fddf252ad1be2c89b69c2b068fc378daa952ba7f163c4a11628f55a4df523b3ef60405160405180910390a4505050565b600073ffffffffffffffffffffffffffffffffffffffff168273ffffffffffffffffffffffffffffffffffffffff16141561402f576040517f08c379a00000000000000000000000000000000000000000000000000000000081526004018080602001828103825260208152602001807f4552433732313a206d696e7420746f20746865207a65726f206164647265737381525060200191505060405180910390fd5b61403881613bcb565b156140ab576040517f08c379a000000000000000000000000000000000000000000000000000000000815260040180806020018281038252601c8152602001807f4552433732313a20746f6b656e20616c7265616479206d696e7465640000000081525060200191505060405180910390fd5b816001600083815260200190815260200160002060006101000a81548173ffffffffffffffffffffffffffffffffffffffff021916908373ffffffffffffffffffffffffffffffffffffffff160217905550614144600360008473ffffffffffffffffffffffffffffffffffffffff1673ffffffffffffffffffffffffffffffffffffffff16815260200190815260200160002061447c565b808273ffffffffffffffffffffffffffffffffffffffff16600073ffffffffffffffffffffffffffffffffffffffff167fddf252ad1be2c89b69c2b068fc378daa952ba7f163c4a11628f55a4df523b3ef60405160405180910390a45050565b600081600001549050919050565b60006141d38473ffffffffffffffffffffffffffffffffffffffff16614492565b6141e05760019050614393565b60008473ffffffffffffffffffffffffffffffffffffffff1663150b7a02338887876040518563ffffffff1660e01b8152600401808573ffffffffffffffffffffffffffffffffffffffff1673ffffffffffffffffffffffffffffffffffffffff1681526020018473ffffffffffffffffffffffffffffffffffffffff1673ffffffffffffffffffffffffffffffffffffffff16815260200183815260200180602001828103825283818151815260200191508051906020019080838360005b838110156142bb5780820151818401526020810190506142a0565b50505050905090810190601f1680156142e85780820380516001836020036101000a031916815260200191505b5095505050505050602060405180830381600087803b15801561430a57600080fd5b505af115801561431e573d6000803e3d6000fd5b505050506040513d602081101561433457600080fd5b8101908080519060200190929190505050905063150b7a0260e01b7bffffffffffffffffffffffffffffffffffffffffffffffffffffffff1916817bffffffffffffffffffffffffffffffffffffffffffffffffffffffff1916149150505b949350505050565b600073ffffffffffffffffffffffffffffffffffffffff166002600083815260200190815260200160002060009054906101000a900473ffffffffffffffffffffffffffffffffffffffff1673ffffffffffffffffffffffffffffffffffffffff16146144565760006002600083815260200190815260200160002060006101000a81548173ffffffffffffffffffffffffffffffffffffffff021916908373ffffffffffffffffffffffffffffffffffffffff1602179055505b50565b614471600182600001546144a590919063ffffffff16565b816000018190555050565b6001816000016000828254019250508190555050565b600080823b905060008111915050919050565b60008282111561451d576040517f08c379a000000000000000000000000000000000000000000000000000000000815260040180806020018281038252601e8152602001807f536166654d6174683a207375627472616374696f6e206f766572666c6f77000081525060200191505060405180910390fd5b600082840390508091505092915050565b6040518061010001604052806000815260200160608152602001606081526020016000151581526020016000151581526020016000815260200160608152602001606081525090565b828054600181600116156101000203166002900490600052602060002090601f016020900481019282601f106145b857805160ff19168380011785556145e6565b828001600101855582156145e6579182015b828111156145e55782518255916020019190600101906145ca565b5b5090506145f39190614644565b5090565b828054828255906000526020600020908101928215614633579160200282015b82811115614632578251825591602001919060010190614617565b5b5090506146409190614644565b5090565b61466691905b8082111561466257600081600090555060010161464a565b5090565b9056fe5075626c69636174696f6e205552492073686f756c64206e6f7420626520656d7074792e4552433732313a207472616e7366657220746f206e6f6e20455243373231526563656976657220696d706c656d656e7465724269646465722061646472657373206973206e6f7420726567697374657265642e4552433732313a207472616e7366657220746f20746865207a65726f20616464726573734552433732313a206f70657261746f7220717565727920666f72206e6f6e6578697374656e7420746f6b656e4552433732313a20617070726f76652063616c6c6572206973206e6f74206f776e6572206e6f7220617070726f76656420666f7220616c6c4552433732313a2062616c616e636520717565727920666f7220746865207a65726f20616464726573734552433732313a206f776e657220717565727920666f72206e6f6e6578697374656e7420746f6b656e4552433732313a20617070726f76656420717565727920666f72206e6f6e6578697374656e7420746f6b656e4552433732313a207472616e73666572206f6620746f6b656e2074686174206973206e6f74206f776e53686f756c64206e6f7420737065636966792073656c6c20707269636520666f722061756374696f6e2e4552433732313a20617070726f76616c20746f2063757272656e74206f776e657255736572206e6f742074686520617574686f72206f662074686973207075626c69636174696f6e4552433732313a207472616e736665722063616c6c6572206973206e6f74206f776e6572206e6f7220617070726f7665645075626c69636174696f6e20697320616c7265616479206f6e2061756374696f6ea165627a7a72305820b256b46442377ae619ea57302ddf6a0b01c6a596cffcf3160e8e7ea35cac420a0029",
  "source": "pragma solidity^0.5.0;\r\nimport \"openzeppelin-solidity/contracts/ownership/Ownable.sol\";\r\nimport \"openzeppelin-solidity/contracts/token/ERC20/ERC20.sol\";\r\nimport \"openzeppelin-solidity/contracts/token/ERC721/ERC721.sol\";\r\n\r\ncontract UnicoinRegistry is ERC721 {\r\n    // Creates a struct for users of the plaform.\r\n    struct User {\r\n        address owned_address;\r\n        string profile_uri;\r\n    }\r\n    User[] public users;\r\n\r\n    // The mapping below maps all users' addresses to their userID\r\n    mapping (address => uint256) public userAddresses ;\r\n\r\n    enum bidStatus {Pending, Accepted, Rejected, Sale, Cancelled}\r\n\r\n    // Creates a struct for all bids.\r\n    struct Bid {\r\n        uint256 offer;\r\n        bidStatus status;\r\n        uint256 publication_Id;\r\n        uint256 owner_Id; //owner of the bid\r\n    }\r\n    Bid[] public bids;\r\n\r\n    // The mapping below maps all bidders' IDs to their userID\r\n    mapping(uint256 => uint256[]) public bidOwners;\r\n\r\n    struct Publication {\r\n        uint256 author_Id;\r\n        string publication_uri;\r\n        // The array below will contain all bids received for that work.\r\n        uint256[] publication_bids;\r\n        // If the researcher has chosen the auction pricing structure, the below is TRUE.\r\n        bool isAuction;\r\n        // If the auction is still running, the below is TRUE, because the researcher can choose to stop the auction at any point.\r\n        bool isRunning;\r\n        // If both of the booleans above are FALSE, the price below is the flat sale price of the work.\r\n        uint256 sell_price;\r\n        uint256[] contributors;\r\n        uint256[] contributors_weightings;\r\n    }\r\n    Publication[] public publications;\r\n    \r\n    // The mapping below will map the addresses of all the successful bidders' addresses to the ID of their owned publications\r\n    mapping(uint256 => uint256[]) public publicationOwners;\r\n    \r\n    struct LicenceDesign {\r\n        uint256 buyer_Id;\r\n        uint256 Publication_Id;\r\n        uint256 bid_Id;\r\n    }\r\n\r\n    LicenceDesign[] public licences;\r\n    mapping(uint256 => uint256) public licenceOwners;\r\n    mapping(uint256 => uint256[]) public publicationLicences;\r\n\r\n    ERC20 daiContract;\r\n    // The constructer below reserves user 0 for all unregistered users.\r\n    constructor(address _daiContractAddress) public ERC721(){\r\n        users.push(User(address(0),\"\"));\r\n\r\n        daiContract = ERC20(_daiContractAddress);\r\n    }\r\n\r\n    // This function registers a user on the platform.\r\n    function registerUser(string memory _profile_uri) public {\r\n        require(bytes(_profile_uri).length > 0, \"Profile URI should not be empty.\");\r\n        // If the user's address is in position 0 of the userAddresses array, they are unregistered.\r\n        require(userAddresses[msg.sender]==0,\"User already registered.\");\r\n        uint256 id = users.push(User(msg.sender,_profile_uri));\r\n        userAddresses[msg.sender] = id - 1;\r\n    }\r\n\r\n    // This function creates a publication on the system, with blank arrays for publication bids and owners,\r\n    // since no one has bidded for or bought a licence yet.\r\n    function createPublication(string memory _publication_uri, bool _isAuction, bool _isRunning, uint256 _sell_price, uint256[] memory _contributors, uint256[] memory _contributors_weightings) public {\r\n        require(bytes(_publication_uri).length > 0, \"Publication URI should not be empty.\");\r\n        require(userAddresses[msg.sender] != 0, \"User address is not registered.\");\r\n        // The researcher only specifies the flat rate if they have chosen not to auction the work.\r\n        if(_isAuction) {\r\n            require(_sell_price == 0, \"Should not specify sell price for auction.\");\r\n        }\r\n        else {\r\n            require(_sell_price > 0, \"Sell price not specified.\");\r\n        }\r\n        uint256 _author_Id = userAddresses[msg.sender];\r\n        uint256[] memory _publication_bids;\r\n        Publication memory _publication = Publication(_author_Id, _publication_uri, _publication_bids, _isAuction, _isRunning, _sell_price, _contributors, _contributors_weightings);\r\n        uint256 _id = publications.push(_publication);\r\n        publicationOwners[_author_Id].push(_id - 1);\r\n    }\r\n\r\n    // This function creates a new bid for a particular publication.\r\n    function makeBid(uint256 _offer, uint256 _publication_Id) public {\r\n        require(publications[_publication_Id].author_Id != 0, \"Publication not enlisted.\");\r\n        require(userAddresses[msg.sender] != 0, \"Bidder address is not registered.\");\r\n        // The bidder should only be able to submit a bid if the publication's pricing structure is an auction and the auction is running\r\n        if(publications[_publication_Id].isAuction) {\r\n            require(publications[_publication_Id].isRunning, \"Auction is not running.\");\r\n            // By default the bid will have a status of Pending until it is accepted or rejected by the author\r\n            uint256 _id = bids.push(Bid(_offer, bidStatus.Pending, _publication_Id, userAddresses[msg.sender]));\r\n            publications[_publication_Id].publication_bids.push(_id - 1);\r\n            bidOwners[userAddresses[msg.sender]].push(_id - 1);\r\n        }\r\n        // If the author has specified a flat rate, the buyer doesn't submit a bid but just sends the funds.\r\n        if(!publications[_publication_Id].isAuction) {\r\n            // The funds sent should match the sale price specified by the author.\r\n            require(_offer == publications[_publication_Id].sell_price, \"Incorrect funds sent.\");\r\n            // This 'bid' has a status of sale because the author does not need to evaluate and accept/reject these bids.\r\n            uint256 _id = bids.push(Bid(_offer, bidStatus.Sale, _publication_Id, userAddresses[msg.sender])) - 1;\r\n            publications[_publication_Id].publication_bids.push(_id);\r\n            bidOwners[userAddresses[msg.sender]].push(_id);\r\n\r\n            // Transfer Dai from buyer to seller\r\n            require(daiContract.allowance(msg.sender, address(this)) >= _offer, \"Insufficient fund allowance\");\r\n            address publisherAddress = users[publications[_publication_Id].author_Id].owned_address;\r\n            daiContract.transferFrom(msg.sender, publisherAddress, _offer);\r\n\r\n            //parameters of licence design: buyer_id, publication id, bid_id\r\n            uint256 _licence_Id = licences.push(LicenceDesign(bids[_id].owner_Id, _publication_Id, _id));\r\n            licenceOwners[bids[_id].owner_Id] = _licence_Id;\r\n            publicationLicences[_publication_Id].push(_licence_Id);\r\n            _mint(users[bids[_id].owner_Id].owned_address, _licence_Id);\r\n        }\r\n    }\r\n        \r\n    // This function allows the auctioneer to accept the bids\r\n    function acceptBid(uint256 _id) public {\r\n        uint256 _publication_Id = bids[_id].publication_Id;\r\n        require(userAddresses[msg.sender] == publications[_publication_Id].author_Id, \"User not the author of this publication\");\r\n        require(publications[_publication_Id].isAuction, \"Publication not an auction.\");\r\n        require(publications[_publication_Id].isRunning, \"Auction is not running.\");\r\n        bids[_id].status = bidStatus.Accepted;\r\n        \r\n        //buyer_id, publication id, bid_id\r\n        uint256 _licence_Id = licences.push(LicenceDesign(bids[_id].owner_Id, _publication_Id, _id));\r\n        licenceOwners[bids[_id].owner_Id] = _licence_Id;\r\n        publicationLicences[_publication_Id].push(_licence_Id);\r\n        _mint(users[bids[_id].owner_Id].owned_address, _licence_Id);\r\n    }\r\n\r\n    // This function allows the auctioneer to reject the bids\r\n    function rejectBid(uint256 _id) public {\r\n        uint256 _publication_Id = bids[_id].publication_Id;\r\n        require(userAddresses[msg.sender] == publications[_publication_Id].author_Id, \"User not the author of this publication\");\r\n        require(publications[_publication_Id].isAuction, \"Publication not an auction.\");\r\n        require(publications[_publication_Id].isRunning, \"Auction not running.\");\r\n        bids[_id].status = bidStatus.Rejected;\r\n    }\r\n\r\n    // This function allows the auctioneer to cancel the bids\r\n    function cancelBid(uint256 _id) public {\r\n        uint256 _publication_Id = bids[_id].publication_Id;\r\n        require(userAddresses[msg.sender] == publications[_publication_Id].author_Id, \"User not the author of this publication\");\r\n        require(publications[_publication_Id].isAuction, \"Publication not an auction.\");\r\n        require(publications[_publication_Id].isRunning, \"Auction not running.\");\r\n        bids[_id].status = bidStatus.Cancelled;\r\n    }\r\n    \r\n    function changeToSale(uint256 _publication_Id, uint256 _sell_price) public {\r\n        require(userAddresses[msg.sender] == publications[_publication_Id].author_Id, \"User not the author of this publication\");\r\n        require(publications[_publication_Id].isAuction, \"Publication is not an auction\");\r\n        publications[_publication_Id].sell_price = _sell_price;\r\n        publications[_publication_Id].isAuction = false;\r\n    }\r\n   \r\n    function changeToAuction(uint256 _publication_Id) public {\r\n        require(userAddresses[msg.sender] == publications[_publication_Id].author_Id, \"User not the author of this publication\");\r\n        require(!publications[_publication_Id].isAuction, \"Publication is already on auction\");\r\n        publications[_publication_Id].sell_price = 0;\r\n        publications[_publication_Id].isAuction = true;\r\n    }\r\n\r\n    function changeSellPrice(uint256 _publication_Id, uint256 _sell_price) public {\r\n        require(userAddresses[msg.sender] == publications[_publication_Id].author_Id, \"User not the author of this publication\");\r\n        require(!publications[_publication_Id].isAuction, \"Publication is on auction.\");\r\n        publications[_publication_Id].sell_price = _sell_price;\r\n    }\r\n\r\n    function changeRunningStatus(uint256 _publication_Id) public {\r\n        require(userAddresses[msg.sender] == publications[_publication_Id].author_Id, \"User not the author of this publication\");\r\n        publications[_publication_Id].isRunning = !publications[_publication_Id].isRunning;\r\n    }\r\n\r\n    function getPublications(address _address) public view returns(uint256[] memory) {\r\n        uint256 _author_Id = userAddresses[_address];\r\n        return publicationOwners[_author_Id];\r\n    }\r\n\r\n    function getBids(address _address) public view returns(uint256[] memory) {\r\n        uint256 _userAddress = userAddresses[_address];\r\n        return bidOwners[_userAddress];\r\n    }\r\n\r\n    // function getPublications(uint256 _user_Id) public view returns(uint256[] memory) {\r\n    //     return publicationOwners[_user_Id];\r\n    // }\r\n\r\n    // function getBids(uint256 _user_Id) public view returns(uint256[] memory) {\r\n    //     return bidOwners[_user_Id];\r\n    // }\r\n\r\n    function getPublicationBids(uint256 _publication_Id) public view returns(uint256[] memory) {\r\n        return publications[_publication_Id].publication_bids;\r\n    }\r\n    \r\n}\r\n",
  "sourcePath": "D:/unicoindapp/contracts/UnicoinRegistry.sol",
  "compiler": {
    "name": "solc",
    "version": "0.5.8+commit.23d335f2.Emscripten.clang"
  },
  "schemaVersion": "3.0.11",
  "updatedAt": "2019-07-18T07:25:06.951Z",
  "devdoc": {
    "methods": {
      "approve(address,uint256)": {
        "details": "Approves another address to transfer the given token ID The zero address indicates there is no approved address. There can only be one approved address per token at a given time. Can only be called by the token owner or an approved operator.",
        "params": {
          "to": "address to be approved for the given token ID",
          "tokenId": "uint256 ID of the token to be approved"
        }
      },
      "balanceOf(address)": {
        "details": "Gets the balance of the specified address.",
        "params": {
          "owner": "address to query the balance of"
        },
        "return": "uint256 representing the amount owned by the passed address"
      },
      "getApproved(uint256)": {
        "details": "Gets the approved address for a token ID, or zero if no address set Reverts if the token ID does not exist.",
        "params": {
          "tokenId": "uint256 ID of the token to query the approval of"
        },
        "return": "address currently approved for the given token ID"
      },
      "isApprovedForAll(address,address)": {
        "details": "Tells whether an operator is approved by a given owner.",
        "params": {
          "operator": "operator address which you want to query the approval of",
          "owner": "owner address which you want to query the approval of"
        },
        "return": "bool whether the given operator is approved by the given owner"
      },
      "ownerOf(uint256)": {
        "details": "Gets the owner of the specified token ID.",
        "params": {
          "tokenId": "uint256 ID of the token to query the owner of"
        },
        "return": "address currently marked as the owner of the given token ID"
      },
      "safeTransferFrom(address,address,uint256)": {
        "details": "Safely transfers the ownership of a given token ID to another address If the target address is a contract, it must implement `onERC721Received`, which is called upon a safe transfer, and return the magic value `bytes4(keccak256(\"onERC721Received(address,address,uint256,bytes)\"))`; otherwise, the transfer is reverted. Requires the msg.sender to be the owner, approved, or operator",
        "params": {
          "from": "current owner of the token",
          "to": "address to receive the ownership of the given token ID",
          "tokenId": "uint256 ID of the token to be transferred"
        }
      },
      "safeTransferFrom(address,address,uint256,bytes)": {
        "details": "Safely transfers the ownership of a given token ID to another address If the target address is a contract, it must implement `onERC721Received`, which is called upon a safe transfer, and return the magic value `bytes4(keccak256(\"onERC721Received(address,address,uint256,bytes)\"))`; otherwise, the transfer is reverted. Requires the msg.sender to be the owner, approved, or operator",
        "params": {
          "_data": "bytes data to send along with a safe transfer check",
          "from": "current owner of the token",
          "to": "address to receive the ownership of the given token ID",
          "tokenId": "uint256 ID of the token to be transferred"
        }
      },
      "setApprovalForAll(address,bool)": {
        "details": "Sets or unsets the approval of a given operator An operator is allowed to transfer all tokens of the sender on their behalf.",
        "params": {
          "approved": "representing the status of the approval to be set",
          "to": "operator address to set the approval"
        }
      },
      "supportsInterface(bytes4)": {
        "details": "See `IERC165.supportsInterface`.     * Time complexity O(1), guaranteed to always use less than 30 000 gas."
      },
      "transferFrom(address,address,uint256)": {
        "details": "Transfers the ownership of a given token ID to another address. Usage of this method is discouraged, use `safeTransferFrom` whenever possible. Requires the msg.sender to be the owner, approved, or operator.",
        "params": {
          "from": "current owner of the token",
          "to": "address to receive the ownership of the given token ID",
          "tokenId": "uint256 ID of the token to be transferred"
        }
      }
    }
  },
  "userdoc": {
    "methods": {}
  }
}