{
  "contractName": "UnicoinRegistry",
  "abi": [
    {
      "constant": true,
      "inputs": [
        {
          "name": "interfaceId",
          "type": "bytes4"
        }
      ],
      "name": "supportsInterface",
      "outputs": [
        {
          "name": "",
          "type": "bool"
        }
      ],
      "payable": false,
      "stateMutability": "view",
      "type": "function"
    },
    {
      "constant": true,
      "inputs": [],
      "name": "name",
      "outputs": [
        {
          "name": "",
          "type": "string"
        }
      ],
      "payable": false,
      "stateMutability": "view",
      "type": "function"
    },
    {
      "constant": true,
      "inputs": [
        {
          "name": "tokenId",
          "type": "uint256"
        }
      ],
      "name": "getApproved",
      "outputs": [
        {
          "name": "",
          "type": "address"
        }
      ],
      "payable": false,
      "stateMutability": "view",
      "type": "function"
    },
    {
      "constant": false,
      "inputs": [
        {
          "name": "to",
          "type": "address"
        },
        {
          "name": "tokenId",
          "type": "uint256"
        }
      ],
      "name": "approve",
      "outputs": [],
      "payable": false,
      "stateMutability": "nonpayable",
      "type": "function"
    },
    {
      "constant": true,
      "inputs": [
        {
          "name": "",
          "type": "uint256"
        },
        {
          "name": "",
          "type": "uint256"
        }
      ],
      "name": "publicationOwners",
      "outputs": [
        {
          "name": "",
          "type": "uint256"
        }
      ],
      "payable": false,
      "stateMutability": "view",
      "type": "function"
    },
    {
      "constant": true,
      "inputs": [
        {
          "name": "",
          "type": "uint256"
        }
      ],
      "name": "publications",
      "outputs": [
        {
          "name": "author_Id",
          "type": "uint256"
        },
        {
          "name": "publication_uri",
          "type": "string"
        },
        {
          "name": "isAuction",
          "type": "bool"
        },
        {
          "name": "isRunning",
          "type": "bool"
        },
        {
          "name": "sell_price",
          "type": "uint256"
        }
      ],
      "payable": false,
      "stateMutability": "view",
      "type": "function"
    },
    {
      "constant": false,
      "inputs": [
        {
          "name": "from",
          "type": "address"
        },
        {
          "name": "to",
          "type": "address"
        },
        {
          "name": "tokenId",
          "type": "uint256"
        }
      ],
      "name": "transferFrom",
      "outputs": [],
      "payable": false,
      "stateMutability": "nonpayable",
      "type": "function"
    },
    {
      "constant": true,
      "inputs": [
        {
          "name": "",
          "type": "uint256"
        }
      ],
      "name": "users",
      "outputs": [
        {
          "name": "owned_address",
          "type": "address"
        },
        {
          "name": "profile_uri",
          "type": "string"
        }
      ],
      "payable": false,
      "stateMutability": "view",
      "type": "function"
    },
    {
      "constant": false,
      "inputs": [
        {
          "name": "from",
          "type": "address"
        },
        {
          "name": "to",
          "type": "address"
        },
        {
          "name": "tokenId",
          "type": "uint256"
        }
      ],
      "name": "safeTransferFrom",
      "outputs": [],
      "payable": false,
      "stateMutability": "nonpayable",
      "type": "function"
    },
    {
      "constant": true,
      "inputs": [
        {
          "name": "",
          "type": "uint256"
        }
      ],
      "name": "bids",
      "outputs": [
        {
          "name": "offer",
          "type": "uint256"
        },
        {
          "name": "status",
          "type": "uint8"
        },
        {
          "name": "publication_Id",
          "type": "uint256"
        },
        {
          "name": "owner_Id",
          "type": "uint256"
        }
      ],
      "payable": false,
      "stateMutability": "view",
      "type": "function"
    },
    {
      "constant": true,
      "inputs": [
        {
          "name": "tokenId",
          "type": "uint256"
        }
      ],
      "name": "ownerOf",
      "outputs": [
        {
          "name": "",
          "type": "address"
        }
      ],
      "payable": false,
      "stateMutability": "view",
      "type": "function"
    },
    {
      "constant": true,
      "inputs": [
        {
          "name": "owner",
          "type": "address"
        }
      ],
      "name": "balanceOf",
      "outputs": [
        {
          "name": "",
          "type": "uint256"
        }
      ],
      "payable": false,
      "stateMutability": "view",
      "type": "function"
    },
    {
      "constant": true,
      "inputs": [],
      "name": "symbol",
      "outputs": [
        {
          "name": "",
          "type": "string"
        }
      ],
      "payable": false,
      "stateMutability": "view",
      "type": "function"
    },
    {
      "constant": false,
      "inputs": [
        {
          "name": "to",
          "type": "address"
        },
        {
          "name": "approved",
          "type": "bool"
        }
      ],
      "name": "setApprovalForAll",
      "outputs": [],
      "payable": false,
      "stateMutability": "nonpayable",
      "type": "function"
    },
    {
      "constant": false,
      "inputs": [
        {
          "name": "from",
          "type": "address"
        },
        {
          "name": "to",
          "type": "address"
        },
        {
          "name": "tokenId",
          "type": "uint256"
        },
        {
          "name": "_data",
          "type": "bytes"
        }
      ],
      "name": "safeTransferFrom",
      "outputs": [],
      "payable": false,
      "stateMutability": "nonpayable",
      "type": "function"
    },
    {
      "constant": true,
      "inputs": [
        {
          "name": "",
          "type": "uint256"
        }
      ],
      "name": "licences",
      "outputs": [
        {
          "name": "buyer_Id",
          "type": "uint256"
        },
        {
          "name": "Publication_Id",
          "type": "uint256"
        },
        {
          "name": "bid_Id",
          "type": "uint256"
        }
      ],
      "payable": false,
      "stateMutability": "view",
      "type": "function"
    },
    {
      "constant": true,
      "inputs": [
        {
          "name": "tokenId",
          "type": "uint256"
        }
      ],
      "name": "tokenURI",
      "outputs": [
        {
          "name": "",
          "type": "string"
        }
      ],
      "payable": false,
      "stateMutability": "view",
      "type": "function"
    },
    {
      "constant": true,
      "inputs": [
        {
          "name": "",
          "type": "uint256"
        },
        {
          "name": "",
          "type": "uint256"
        }
      ],
      "name": "publicationLicences",
      "outputs": [
        {
          "name": "",
          "type": "uint256"
        }
      ],
      "payable": false,
      "stateMutability": "view",
      "type": "function"
    },
    {
      "constant": true,
      "inputs": [
        {
          "name": "",
          "type": "uint256"
        },
        {
          "name": "",
          "type": "uint256"
        }
      ],
      "name": "bidOwners",
      "outputs": [
        {
          "name": "",
          "type": "uint256"
        }
      ],
      "payable": false,
      "stateMutability": "view",
      "type": "function"
    },
    {
      "constant": true,
      "inputs": [
        {
          "name": "owner",
          "type": "address"
        },
        {
          "name": "operator",
          "type": "address"
        }
      ],
      "name": "isApprovedForAll",
      "outputs": [
        {
          "name": "",
          "type": "bool"
        }
      ],
      "payable": false,
      "stateMutability": "view",
      "type": "function"
    },
    {
      "constant": true,
      "inputs": [
        {
          "name": "",
          "type": "uint256"
        },
        {
          "name": "",
          "type": "uint256"
        }
      ],
      "name": "licenceOwners",
      "outputs": [
        {
          "name": "",
          "type": "uint256"
        }
      ],
      "payable": false,
      "stateMutability": "view",
      "type": "function"
    },
    {
      "constant": true,
      "inputs": [
        {
          "name": "",
          "type": "address"
        }
      ],
      "name": "userAddresses",
      "outputs": [
        {
          "name": "",
          "type": "uint256"
        }
      ],
      "payable": false,
      "stateMutability": "view",
      "type": "function"
    },
    {
      "inputs": [
        {
          "name": "_daiContractAddress",
          "type": "address"
        }
      ],
      "payable": false,
      "stateMutability": "nonpayable",
      "type": "constructor"
    },
    {
      "anonymous": false,
      "inputs": [
        {
          "indexed": true,
          "name": "_from",
          "type": "address"
        },
        {
          "indexed": false,
          "name": "_publication_uri",
          "type": "string"
        },
        {
          "indexed": false,
          "name": "_isAuction",
          "type": "bool"
        },
        {
          "indexed": false,
          "name": "_sell_price",
          "type": "uint256"
        }
      ],
      "name": "NewPublication",
      "type": "event"
    },
    {
      "anonymous": false,
      "inputs": [
        {
          "indexed": true,
          "name": "_from",
          "type": "address"
        },
        {
          "indexed": true,
          "name": "_publication_Id",
          "type": "uint256"
        },
        {
          "indexed": false,
          "name": "_offer",
          "type": "uint256"
        }
      ],
      "name": "NewBid",
      "type": "event"
    },
    {
      "anonymous": false,
      "inputs": [
        {
          "indexed": true,
          "name": "_from",
          "type": "address"
        },
        {
          "indexed": false,
          "name": "_id",
          "type": "uint256"
        }
      ],
      "name": "AcceptedBid",
      "type": "event"
    },
    {
      "anonymous": false,
      "inputs": [
        {
          "indexed": true,
          "name": "_from",
          "type": "address"
        },
        {
          "indexed": false,
          "name": "_id",
          "type": "uint256"
        }
      ],
      "name": "RejectedBid",
      "type": "event"
    },
    {
      "anonymous": false,
      "inputs": [
        {
          "indexed": true,
          "name": "_from",
          "type": "address"
        },
        {
          "indexed": false,
          "name": "_id",
          "type": "uint256"
        }
      ],
      "name": "CancelledBid",
      "type": "event"
    },
    {
      "anonymous": false,
      "inputs": [
        {
          "indexed": true,
          "name": "_from",
          "type": "address"
        },
        {
          "indexed": true,
          "name": "_publication_Id",
          "type": "uint256"
        },
        {
          "indexed": false,
          "name": "_sell_price",
          "type": "uint256"
        }
      ],
      "name": "ChangeToSale",
      "type": "event"
    },
    {
      "anonymous": false,
      "inputs": [
        {
          "indexed": true,
          "name": "_from",
          "type": "address"
        },
        {
          "indexed": true,
          "name": "_publication_Id",
          "type": "uint256"
        }
      ],
      "name": "ChangeToAuction",
      "type": "event"
    },
    {
      "anonymous": false,
      "inputs": [
        {
          "indexed": true,
          "name": "_from",
          "type": "address"
        },
        {
          "indexed": true,
          "name": "_publication_Id",
          "type": "uint256"
        },
        {
          "indexed": false,
          "name": "_sell_price",
          "type": "uint256"
        }
      ],
      "name": "ChangeSellPrice",
      "type": "event"
    },
    {
      "anonymous": false,
      "inputs": [
        {
          "indexed": true,
          "name": "_from",
          "type": "address"
        },
        {
          "indexed": true,
          "name": "_publication_Id",
          "type": "uint256"
        },
        {
          "indexed": false,
          "name": "_isRunning",
          "type": "bool"
        }
      ],
      "name": "ChangeRunningStatus",
      "type": "event"
    },
    {
      "anonymous": false,
      "inputs": [
        {
          "indexed": true,
          "name": "from",
          "type": "address"
        },
        {
          "indexed": true,
          "name": "to",
          "type": "address"
        },
        {
          "indexed": true,
          "name": "tokenId",
          "type": "uint256"
        }
      ],
      "name": "Transfer",
      "type": "event"
    },
    {
      "anonymous": false,
      "inputs": [
        {
          "indexed": true,
          "name": "owner",
          "type": "address"
        },
        {
          "indexed": true,
          "name": "approved",
          "type": "address"
        },
        {
          "indexed": true,
          "name": "tokenId",
          "type": "uint256"
        }
      ],
      "name": "Approval",
      "type": "event"
    },
    {
      "anonymous": false,
      "inputs": [
        {
          "indexed": true,
          "name": "owner",
          "type": "address"
        },
        {
          "indexed": true,
          "name": "operator",
          "type": "address"
        },
        {
          "indexed": false,
          "name": "approved",
          "type": "bool"
        }
      ],
      "name": "ApprovalForAll",
      "type": "event"
    },
    {
      "constant": false,
      "inputs": [
        {
          "name": "_profile_uri",
          "type": "string"
        }
      ],
      "name": "registerUser",
      "outputs": [],
      "payable": false,
      "stateMutability": "nonpayable",
      "type": "function"
    },
    {
      "constant": false,
      "inputs": [
        {
          "name": "_publication_uri",
          "type": "string"
        },
        {
          "name": "_isAuction",
          "type": "bool"
        },
        {
          "name": "_isRunning",
          "type": "bool"
        },
        {
          "name": "_sell_price",
          "type": "uint256"
        },
        {
          "name": "_contributors",
          "type": "uint256[]"
        },
        {
          "name": "_contributors_weightings",
          "type": "uint256[]"
        }
      ],
      "name": "createPublication",
      "outputs": [],
      "payable": false,
      "stateMutability": "nonpayable",
      "type": "function"
    },
    {
      "constant": false,
      "inputs": [
        {
          "name": "_offer",
          "type": "uint256"
        },
        {
          "name": "_publication_Id",
          "type": "uint256"
        }
      ],
      "name": "makeBid",
      "outputs": [],
      "payable": false,
      "stateMutability": "nonpayable",
      "type": "function"
    },
    {
      "constant": false,
      "inputs": [
        {
          "name": "_id",
          "type": "uint256"
        }
      ],
      "name": "acceptBid",
      "outputs": [],
      "payable": false,
      "stateMutability": "nonpayable",
      "type": "function"
    },
    {
      "constant": false,
      "inputs": [
        {
          "name": "_id",
          "type": "uint256"
        }
      ],
      "name": "rejectBid",
      "outputs": [],
      "payable": false,
      "stateMutability": "nonpayable",
      "type": "function"
    },
    {
      "constant": false,
      "inputs": [
        {
          "name": "_id",
          "type": "uint256"
        }
      ],
      "name": "cancelBid",
      "outputs": [],
      "payable": false,
      "stateMutability": "nonpayable",
      "type": "function"
    },
    {
      "constant": false,
      "inputs": [
        {
          "name": "_publication_Id",
          "type": "uint256"
        },
        {
          "name": "_sell_price",
          "type": "uint256"
        }
      ],
      "name": "changeToSale",
      "outputs": [],
      "payable": false,
      "stateMutability": "nonpayable",
      "type": "function"
    },
    {
      "constant": false,
      "inputs": [
        {
          "name": "_publication_Id",
          "type": "uint256"
        }
      ],
      "name": "changeToAuction",
      "outputs": [],
      "payable": false,
      "stateMutability": "nonpayable",
      "type": "function"
    },
    {
      "constant": false,
      "inputs": [
        {
          "name": "_publication_Id",
          "type": "uint256"
        },
        {
          "name": "_sell_price",
          "type": "uint256"
        }
      ],
      "name": "changeSellPrice",
      "outputs": [],
      "payable": false,
      "stateMutability": "nonpayable",
      "type": "function"
    },
    {
      "constant": false,
      "inputs": [
        {
          "name": "_publication_Id",
          "type": "uint256"
        }
      ],
      "name": "changeRunningStatus",
      "outputs": [],
      "payable": false,
      "stateMutability": "nonpayable",
      "type": "function"
    },
    {
      "constant": true,
      "inputs": [
        {
          "name": "_address",
          "type": "address"
        }
      ],
      "name": "getPublications",
      "outputs": [
        {
          "name": "",
          "type": "uint256[]"
        }
      ],
      "payable": false,
      "stateMutability": "view",
      "type": "function"
    },
    {
      "constant": true,
      "inputs": [
        {
          "name": "_address",
          "type": "address"
        }
      ],
      "name": "getBids",
      "outputs": [
        {
          "name": "",
          "type": "uint256[]"
        }
      ],
      "payable": false,
      "stateMutability": "view",
      "type": "function"
    },
    {
      "constant": true,
      "inputs": [
        {
          "name": "_publication_Id",
          "type": "uint256"
        }
      ],
      "name": "getPublicationBids",
      "outputs": [
        {
          "name": "",
          "type": "uint256[]"
        }
      ],
      "payable": false,
      "stateMutability": "view",
      "type": "function"
    },
    {
      "constant": true,
      "inputs": [],
      "name": "getPublicationLength",
      "outputs": [
        {
          "name": "count",
          "type": "uint256"
        }
      ],
      "payable": false,
      "stateMutability": "view",
      "type": "function"
    },
    {
      "constant": true,
      "inputs": [
        {
          "name": "_publication_Id",
          "type": "uint256"
        }
      ],
      "name": "getPublication",
      "outputs": [
        {
          "name": "",
          "type": "uint256"
        },
        {
          "name": "",
          "type": "string"
        },
        {
          "name": "",
          "type": "uint256[]"
        },
        {
          "name": "",
          "type": "bool"
        },
        {
          "name": "",
          "type": "bool"
        },
        {
          "name": "",
          "type": "uint256"
        },
        {
          "name": "",
          "type": "uint256[]"
        },
        {
          "name": "",
          "type": "uint256[]"
        }
      ],
      "payable": false,
      "stateMutability": "view",
      "type": "function"
    },
    {
      "constant": true,
      "inputs": [
        {
          "name": "_address",
          "type": "address"
        }
      ],
      "name": "getLicence",
      "outputs": [
        {
          "name": "",
          "type": "uint256[]"
        }
      ],
      "payable": false,
      "stateMutability": "view",
      "type": "function"
    },
    {
      "constant": false,
      "inputs": [
        {
          "name": "_publication_Id",
          "type": "uint256"
        },
        {
          "name": "_value",
          "type": "uint256"
        }
      ],
      "name": "donate",
      "outputs": [],
      "payable": false,
      "stateMutability": "nonpayable",
      "type": "function"
    }
  ],
  "bytecode": "0x60806040523480156200001157600080fd5b506040516020806200603a833981018060405260208110156200003357600080fd5b81019080805190602001909291905050506040518060400160405280600f81526020017f556e69436f696e204c6963656e636500000000000000000000000000000000008152506040518060400160405280600481526020017f554e494300000000000000000000000000000000000000000000000000000000815250620000c86301ffc9a760e01b620002b160201b60201c565b620000e06380ac58cd60e01b620002b160201b60201c565b8160059080519060200190620000f8929190620003ba565b50806006908051906020019062000111929190620003ba565b506200012a635b5e139f60e01b620002b160201b60201c565b505060086040518060400160405280600073ffffffffffffffffffffffffffffffffffffffff168152602001604051806020016040528060008152508152509080600181540180825580915050906001820390600052602060002090600202016000909192909190915060008201518160000160006101000a81548173ffffffffffffffffffffffffffffffffffffffff021916908373ffffffffffffffffffffffffffffffffffffffff1602179055506020820151816001019080519060200190620001f992919062000441565b50505050600e6040518060600160405280600081526020016000815260200160008152509080600181540180825580915050906001820390600052602060002090600302016000909192909190915060008201518160000155602082015181600101556040820151816002015550505080601160006101000a81548173ffffffffffffffffffffffffffffffffffffffff021916908373ffffffffffffffffffffffffffffffffffffffff16021790555050620004f0565b63ffffffff60e01b817bffffffffffffffffffffffffffffffffffffffffffffffffffffffff191614156200034e576040517f08c379a000000000000000000000000000000000000000000000000000000000815260040180806020018281038252601c8152602001807f4552433136353a20696e76616c696420696e746572666163652069640000000081525060200191505060405180910390fd5b6001600080837bffffffffffffffffffffffffffffffffffffffffffffffffffffffff19167bffffffffffffffffffffffffffffffffffffffffffffffffffffffff1916815260200190815260200160002060006101000a81548160ff02191690831515021790555050565b828054600181600116156101000203166002900490600052602060002090601f016020900481019282601f10620003fd57805160ff19168380011785556200042e565b828001600101855582156200042e579182015b828111156200042d57825182559160200191906001019062000410565b5b5090506200043d9190620004c8565b5090565b828054600181600116156101000203166002900490600052602060002090601f016020900481019282601f106200048457805160ff1916838001178555620004b5565b82800160010185558215620004b5579182015b82811115620004b457825182559160200191906001019062000497565b5b509050620004c49190620004c8565b5090565b620004ed91905b80821115620004e9576000816000905550600101620004cf565b5090565b90565b615b3a80620005006000396000f3fe608060405234801561001057600080fd5b506004361061023d5760003560e01c8063704f1b941161013b578063a564e83c116100b8578063d628d5401161007c578063d628d54014611342578063dc05d9521461138e578063e985e9c5146113da578063f8ede44a14611456578063fc86dea7146114a25761023d565b8063a564e83c14610f6b578063adfcdc111461110e578063b88d4fde14611146578063bb44aee31461124b578063c87b56dd1461129b5761023d565b80639703ef35116100ff5780639703ef3514610d8d5780639ab7a95414610dbb5780639dccae8214610de9578063a0dbb34e14610e82578063a22cb46514610f1b5761023d565b8063704f1b9414610ba157806370a0823114610c5c5780637ece03bb14610cb457806390420aee14610cd257806395d89b4114610d0a5761023d565b806323b872dd116101c95780634423c5f11161018d5780634423c5f1146108635780635fd814a0146108c85780636352211e14610acd578063699b5fa114610b3b5780636e3341b314610b735761023d565b806323b872dd146105fc5780632b1fd58a1461066a578063365b98b2146106985780633e7646041461077257806342842e0e146107f55761023d565b8063095ea7b311610210578063095ea7b3146104315780630cdd53f61461047f578063142af1ca146104b7578063166c6c80146105035780631fd5bbab146105315761023d565b806301ffc9a71461024257806306fdde03146102a7578063081812fc1461032a5780630820478014610398575b600080fd5b61028d6004803603602081101561025857600080fd5b8101908080357bffffffffffffffffffffffffffffffffffffffffffffffffffffffff191690602001909291905050506114fa565b604051808215151515815260200191505060405180910390f35b6102af611561565b6040518080602001828103825283818151815260200191508051906020019080838360005b838110156102ef5780820151818401526020810190506102d4565b50505050905090810190601f16801561031c5780820380516001836020036101000a031916815260200191505b509250505060405180910390f35b6103566004803603602081101561034057600080fd5b8101908080359060200190929190505050611603565b604051808273ffffffffffffffffffffffffffffffffffffffff1673ffffffffffffffffffffffffffffffffffffffff16815260200191505060405180910390f35b6103da600480360360208110156103ae57600080fd5b81019080803573ffffffffffffffffffffffffffffffffffffffff16906020019092919050505061169e565b6040518080602001828103825283818151815260200191508051906020019060200280838360005b8381101561041d578082015181840152602081019050610402565b505050509050019250505060405180910390f35b61047d6004803603604081101561044757600080fd5b81019080803573ffffffffffffffffffffffffffffffffffffffff1690602001909291908035906020019092919050505061174e565b005b6104b56004803603604081101561049557600080fd5b810190808035906020019092919080359060200190929190505050611927565b005b6104ed600480360360408110156104cd57600080fd5b810190808035906020019092919080359060200190929190505050611cdf565b6040518082815260200191505060405180910390f35b61052f6004803603602081101561051957600080fd5b8101908080359060200190929190505050611d0d565b005b61055d6004803603602081101561054757600080fd5b8101908080359060200190929190505050611ee6565b60405180868152602001806020018515151515815260200184151515158152602001838152602001828103825286818151815260200191508051906020019080838360005b838110156105bd5780820151818401526020810190506105a2565b50505050905090810190601f1680156105ea5780820380516001836020036101000a031916815260200191505b50965050505050505060405180910390f35b6106686004803603606081101561061257600080fd5b81019080803573ffffffffffffffffffffffffffffffffffffffff169060200190929190803573ffffffffffffffffffffffffffffffffffffffff16906020019092919080359060200190929190505050611fdb565b005b6106966004803603602081101561068057600080fd5b810190808035906020019092919050505061204a565b005b6106c4600480360360208110156106ae57600080fd5b8101908080359060200190929190505050612479565b604051808373ffffffffffffffffffffffffffffffffffffffff1673ffffffffffffffffffffffffffffffffffffffff16815260200180602001828103825283818151815260200191508051906020019080838360005b8381101561073657808201518184015260208101905061071b565b50505050905090810190601f1680156107635780820380516001836020036101000a031916815260200191505b50935050505060405180910390f35b61079e6004803603602081101561078857600080fd5b8101908080359060200190929190505050612562565b6040518080602001828103825283818151815260200191508051906020019060200280838360005b838110156107e15780820151818401526020810190506107c6565b505050509050019250505060405180910390f35b6108616004803603606081101561080b57600080fd5b81019080803573ffffffffffffffffffffffffffffffffffffffff169060200190929190803573ffffffffffffffffffffffffffffffffffffffff169060200190929190803590602001909291905050506125d8565b005b61088f6004803603602081101561087957600080fd5b81019080803590602001909291905050506125f8565b604051808581526020018460048111156108a557fe5b60ff16815260200183815260200182815260200194505050505060405180910390f35b610acb600480360360c08110156108de57600080fd5b81019080803590602001906401000000008111156108fb57600080fd5b82018360208201111561090d57600080fd5b8035906020019184600183028401116401000000008311171561092f57600080fd5b91908080601f016020809104026020016040519081016040528093929190818152602001838380828437600081840152601f19601f82011690508083019250505050505050919291929080351515906020019092919080351515906020019092919080359060200190929190803590602001906401000000008111156109b457600080fd5b8201836020820111156109c657600080fd5b803590602001918460208302840111640100000000831117156109e857600080fd5b919080806020026020016040519081016040528093929190818152602001838360200280828437600081840152601f19601f82011690508083019250505050505050919291929080359060200190640100000000811115610a4857600080fd5b820183602082011115610a5a57600080fd5b80359060200191846020830284011164010000000083111715610a7c57600080fd5b919080806020026020016040519081016040528093929190818152602001838360200280828437600081840152601f19601f820116905080830192505050505050509192919290505050612642565b005b610af960048036036020811015610ae357600080fd5b8101908080359060200190929190505050612aca565b604051808273ffffffffffffffffffffffffffffffffffffffff1673ffffffffffffffffffffffffffffffffffffffff16815260200191505060405180910390f35b610b7160048036036040811015610b5157600080fd5b810190808035906020019092919080359060200190929190505050612b92565b005b610b9f60048036036020811015610b8957600080fd5b8101908080359060200190929190505050612d92565b005b610c5a60048036036020811015610bb757600080fd5b8101908080359060200190640100000000811115610bd457600080fd5b820183602082011115610be657600080fd5b80359060200191846001830284011164010000000083111715610c0857600080fd5b91908080601f016020809104026020016040519081016040528093929190818152602001838380828437600081840152601f19601f820116905080830192505050505050509192919290505050613038565b005b610c9e60048036036020811015610c7257600080fd5b81019080803573ffffffffffffffffffffffffffffffffffffffff169060200190929190505050613271565b6040518082815260200191505060405180910390f35b610cbc613346565b6040518082815260200191505060405180910390f35b610d0860048036036040811015610ce857600080fd5b810190808035906020019092919080359060200190929190505050613353565b005b610d1261351d565b6040518080602001828103825283818151815260200191508051906020019080838360005b83811015610d52578082015181840152602081019050610d37565b50505050905090810190601f168015610d7f5780820380516001836020036101000a031916815260200191505b509250505060405180910390f35b610db960048036036020811015610da357600080fd5b81019080803590602001909291905050506135bf565b005b610de760048036036020811015610dd157600080fd5b81019080803590602001909291905050506138cc565b005b610e2b60048036036020811015610dff57600080fd5b81019080803573ffffffffffffffffffffffffffffffffffffffff169060200190929190505050613a64565b6040518080602001828103825283818151815260200191508051906020019060200280838360005b83811015610e6e578082015181840152602081019050610e53565b505050509050019250505060405180910390f35b610ec460048036036020811015610e9857600080fd5b81019080803573ffffffffffffffffffffffffffffffffffffffff169060200190929190505050613b14565b6040518080602001828103825283818151815260200191508051906020019060200280838360005b83811015610f07578082015181840152602081019050610eec565b505050509050019250505060405180910390f35b610f6960048036036040811015610f3157600080fd5b81019080803573ffffffffffffffffffffffffffffffffffffffff169060200190929190803515159060200190929190505050613bc4565b005b610f9760048036036020811015610f8157600080fd5b8101908080359060200190929190505050613d67565b6040518089815260200180602001806020018815151515815260200187151515158152602001868152602001806020018060200185810385528c818151815260200191508051906020019080838360005b83811015611003578082015181840152602081019050610fe8565b50505050905090810190601f1680156110305780820380516001836020036101000a031916815260200191505b5085810384528b818151815260200191508051906020019060200280838360005b8381101561106c578082015181840152602081019050611051565b50505050905001858103835287818151815260200191508051906020019060200280838360005b838110156110ae578082015181840152602081019050611093565b50505050905001858103825286818151815260200191508051906020019060200280838360005b838110156110f05780820151818401526020810190506110d5565b505050509050019c5050505050505050505050505060405180910390f35b6111446004803603604081101561112457600080fd5b810190808035906020019092919080359060200190929190505050613fe9565b005b6112496004803603608081101561115c57600080fd5b81019080803573ffffffffffffffffffffffffffffffffffffffff169060200190929190803573ffffffffffffffffffffffffffffffffffffffff16906020019092919080359060200190929190803590602001906401000000008111156111c357600080fd5b8201836020820111156111d557600080fd5b803590602001918460018302840111640100000000831117156111f757600080fd5b91908080601f016020809104026020016040519081016040528093929190818152602001838380828437600081840152601f19601f820116905080830192505050505050509192919290505050614ae4565b005b6112776004803603602081101561126157600080fd5b8101908080359060200190929190505050614b56565b60405180848152602001838152602001828152602001935050505060405180910390f35b6112c7600480360360208110156112b157600080fd5b8101908080359060200190929190505050614b8d565b6040518080602001828103825283818151815260200191508051906020019080838360005b838110156113075780820151818401526020810190506112ec565b50505050905090810190601f1680156113345780820380516001836020036101000a031916815260200191505b509250505060405180910390f35b6113786004803603604081101561135857600080fd5b810190808035906020019092919080359060200190929190505050614ca0565b6040518082815260200191505060405180910390f35b6113c4600480360360408110156113a457600080fd5b810190808035906020019092919080359060200190929190505050614cce565b6040518082815260200191505060405180910390f35b61143c600480360360408110156113f057600080fd5b81019080803573ffffffffffffffffffffffffffffffffffffffff169060200190929190803573ffffffffffffffffffffffffffffffffffffffff169060200190929190505050614cfc565b604051808215151515815260200191505060405180910390f35b61148c6004803603604081101561146c57600080fd5b810190808035906020019092919080359060200190929190505050614d90565b6040518082815260200191505060405180910390f35b6114e4600480360360208110156114b857600080fd5b81019080803573ffffffffffffffffffffffffffffffffffffffff169060200190929190505050614dbe565b6040518082815260200191505060405180910390f35b6000806000837bffffffffffffffffffffffffffffffffffffffffffffffffffffffff19167bffffffffffffffffffffffffffffffffffffffffffffffffffffffff1916815260200190815260200160002060009054906101000a900460ff169050919050565b606060058054600181600116156101000203166002900480601f0160208091040260200160405190810160405280929190818152602001828054600181600116156101000203166002900480156115f95780601f106115ce576101008083540402835291602001916115f9565b820191906000526020600020905b8154815290600101906020018083116115dc57829003601f168201915b5050505050905090565b600061160e82614dd6565b611663576040517f08c379a000000000000000000000000000000000000000000000000000000000815260040180806020018281038252602c8152602001806159c7602c913960400191505060405180910390fd5b6002600083815260200190815260200160002060009054906101000a900473ffffffffffffffffffffffffffffffffffffffff169050919050565b60606000600960008473ffffffffffffffffffffffffffffffffffffffff1673ffffffffffffffffffffffffffffffffffffffff168152602001908152602001600020549050600d600082815260200190815260200160002080548060200260200160405190810160405280929190818152602001828054801561174157602002820191906000526020600020905b81548152602001906001019080831161172d575b5050505050915050919050565b600061175982612aca565b90508073ffffffffffffffffffffffffffffffffffffffff168373ffffffffffffffffffffffffffffffffffffffff1614156117e0576040517f08c379a0000000000000000000000000000000000000000000000000000000008152600401808060200182810382526021815260200180615a756021913960400191505060405180910390fd5b8073ffffffffffffffffffffffffffffffffffffffff163373ffffffffffffffffffffffffffffffffffffffff161480611820575061181f8133614cfc565b5b611875576040517f08c379a000000000000000000000000000000000000000000000000000000000815260040180806020018281038252603881526020018061593c6038913960400191505060405180910390fd5b826002600084815260200190815260200160002060006101000a81548173ffffffffffffffffffffffffffffffffffffffff021916908373ffffffffffffffffffffffffffffffffffffffff160217905550818373ffffffffffffffffffffffffffffffffffffffff168273ffffffffffffffffffffffffffffffffffffffff167f8c5be1e5ebec7d5bd14f71427d1e84f3dd0314c0f7b2291e5b200ac8c7c3b92560405160405180910390a4505050565b6000600960003373ffffffffffffffffffffffffffffffffffffffff1673ffffffffffffffffffffffffffffffffffffffff1681526020019081526020016000205414156119dd576040517f08c379a000000000000000000000000000000000000000000000000000000000815260040180806020018281038252601f8152602001807f557365722061646472657373206973206e6f7420726567697374657265642e0081525060200191505060405180910390fd5b80601160009054906101000a900473ffffffffffffffffffffffffffffffffffffffff1673ffffffffffffffffffffffffffffffffffffffff1663dd62ed3e33306040518363ffffffff1660e01b8152600401808373ffffffffffffffffffffffffffffffffffffffff1673ffffffffffffffffffffffffffffffffffffffff1681526020018273ffffffffffffffffffffffffffffffffffffffff1673ffffffffffffffffffffffffffffffffffffffff1681526020019250505060206040518083038186803b158015611ab157600080fd5b505afa158015611ac5573d6000803e3d6000fd5b505050506040513d6020811015611adb57600080fd5b81019080805190602001909291905050501015611b60576040517f08c379a000000000000000000000000000000000000000000000000000000000815260040180806020018281038252601b8152602001807f496e73756666696369656e742066756e6420616c6c6f77616e6365000000000081525060200191505060405180910390fd5b60006008600c8481548110611b7157fe5b90600052602060002090600702016000015481548110611b8d57fe5b906000526020600020906002020160000160009054906101000a900473ffffffffffffffffffffffffffffffffffffffff169050601160009054906101000a900473ffffffffffffffffffffffffffffffffffffffff1673ffffffffffffffffffffffffffffffffffffffff166323b872dd3383856040518463ffffffff1660e01b8152600401808473ffffffffffffffffffffffffffffffffffffffff1673ffffffffffffffffffffffffffffffffffffffff1681526020018373ffffffffffffffffffffffffffffffffffffffff1673ffffffffffffffffffffffffffffffffffffffff1681526020018281526020019350505050602060405180830381600087803b158015611c9e57600080fd5b505af1158015611cb2573d6000803e3d6000fd5b505050506040513d6020811015611cc857600080fd5b810190808051906020019092919050505050505050565b600d6020528160005260406000208181548110611cf857fe5b90600052602060002001600091509150505481565b600c8181548110611d1a57fe5b906000526020600020906007020160000154600960003373ffffffffffffffffffffffffffffffffffffffff1673ffffffffffffffffffffffffffffffffffffffff1681526020019081526020016000205414611dc2576040517f08c379a0000000000000000000000000000000000000000000000000000000008152600401808060200182810382526027815260200180615a966027913960400191505060405180910390fd5b600c8181548110611dcf57fe5b906000526020600020906007020160030160009054906101000a900460ff1615611e44576040517f08c379a0000000000000000000000000000000000000000000000000000000008152600401808060200182810382526021815260200180615aee6021913960400191505060405180910390fd5b6000600c8281548110611e5357fe5b9060005260206000209060070201600401819055506001600c8281548110611e7757fe5b906000526020600020906007020160030160006101000a81548160ff021916908315150217905550803373ffffffffffffffffffffffffffffffffffffffff167fed3628c645cd5f837f2e20e2e7d612b35ed6266f622397f8cf6e70fdf8b1a93d60405160405180910390a350565b600c8181548110611ef357fe5b9060005260206000209060070201600091509050806000015490806001018054600181600116156101000203166002900480601f016020809104026020016040519081016040528092919081815260200182805460018160011615610100020316600290048015611fa55780601f10611f7a57610100808354040283529160200191611fa5565b820191906000526020600020905b815481529060010190602001808311611f8857829003601f168201915b5050505050908060030160009054906101000a900460ff16908060030160019054906101000a900460ff16908060040154905085565b611fe53382614e48565b61203a576040517f08c379a0000000000000000000000000000000000000000000000000000000008152600401808060200182810382526031815260200180615abd6031913960400191505060405180910390fd5b612045838383614f3c565b505050565b6000600a828154811061205957fe5b9060005260206000209060040201600201549050600c818154811061207a57fe5b906000526020600020906007020160000154600960003373ffffffffffffffffffffffffffffffffffffffff1673ffffffffffffffffffffffffffffffffffffffff1681526020019081526020016000205414612122576040517f08c379a0000000000000000000000000000000000000000000000000000000008152600401808060200182810382526027815260200180615a966027913960400191505060405180910390fd5b600c818154811061212f57fe5b906000526020600020906007020160030160009054906101000a900460ff166121c0576040517f08c379a000000000000000000000000000000000000000000000000000000000815260040180806020018281038252601b8152602001807f5075626c69636174696f6e206e6f7420616e2061756374696f6e2e000000000081525060200191505060405180910390fd5b600c81815481106121cd57fe5b906000526020600020906007020160030160019054906101000a900460ff1661225e576040517f08c379a00000000000000000000000000000000000000000000000000000000081526004018080602001828103825260178152602001807f41756374696f6e206973206e6f742072756e6e696e672e00000000000000000081525060200191505060405180910390fd5b6001600a838154811061226d57fe5b906000526020600020906004020160010160006101000a81548160ff0219169083600481111561229957fe5b02179055506000600e6040518060600160405280600a86815481106122ba57fe5b9060005260206000209060040201600301548152602001848152602001858152509080600181540180825580915050906001820390600052602060002090600302016000909192909190915060008201518160000155602082015181600101556040820151816002015550509050600f6000600a858154811061233957fe5b9060005260206000209060040201600301548152602001908152602001600020819080600181540180825580915050906001820390600052602060002001600090919290919091505550601060008381526020019081526020016000208190806001815401808255809150509060018203906000526020600020016000909192909190915055506124266008600a85815481106123d257fe5b906000526020600020906004020160030154815481106123ee57fe5b906000526020600020906002020160000160009054906101000a900473ffffffffffffffffffffffffffffffffffffffff1682615197565b3373ffffffffffffffffffffffffffffffffffffffff167fdefdc4699ae6600934634bec71e3e4081368537fb24e45ea245b17b8c448c391846040518082815260200191505060405180910390a2505050565b6008818154811061248657fe5b90600052602060002090600202016000915090508060000160009054906101000a900473ffffffffffffffffffffffffffffffffffffffff1690806001018054600181600116156101000203166002900480601f0160208091040260200160405190810160405280929190818152602001828054600181600116156101000203166002900480156125585780601f1061252d57610100808354040283529160200191612558565b820191906000526020600020905b81548152906001019060200180831161253b57829003601f168201915b5050505050905082565b6060600c828154811061257157fe5b90600052602060002090600702016002018054806020026020016040519081016040528092919081815260200182805480156125cc57602002820191906000526020600020905b8154815260200190600101908083116125b8575b50505050509050919050565b6125f383838360405180602001604052806000815250614ae4565b505050565b600a818154811061260557fe5b90600052602060002090600402016000915090508060000154908060010160009054906101000a900460ff16908060020154908060030154905084565b600086511161269c576040517f08c379a00000000000000000000000000000000000000000000000000000000081526004018080602001828103825260248152602001806158756024913960400191505060405180910390fd5b6000600960003373ffffffffffffffffffffffffffffffffffffffff1673ffffffffffffffffffffffffffffffffffffffff168152602001908152602001600020541415612752576040517f08c379a000000000000000000000000000000000000000000000000000000000815260040180806020018281038252601f8152602001807f557365722061646472657373206973206e6f7420726567697374657265642e0081525060200191505060405180910390fd5b84156127b657600083146127b1576040517f08c379a000000000000000000000000000000000000000000000000000000000815260040180806020018281038252602a815260200180615a4b602a913960400191505060405180910390fd5b61282d565b6000831161282c576040517f08c379a00000000000000000000000000000000000000000000000000000000081526004018080602001828103825260198152602001807f53656c6c207072696365206e6f74207370656369666965642e0000000000000081525060200191505060405180910390fd5b5b6000600960003373ffffffffffffffffffffffffffffffffffffffff1673ffffffffffffffffffffffffffffffffffffffff168152602001908152602001600020549050606061287b615739565b6040518061010001604052808481526020018a8152602001838152602001891515815260200188151581526020018781526020018681526020018581525090506000600c8290806001815401808255809150509060018203906000526020600020906007020160009091929091909150600082015181600001556020820151816001019080519060200190612911929190615782565b50604082015181600201908051906020019061292e929190615802565b5060608201518160030160006101000a81548160ff02191690831515021790555060808201518160030160016101000a81548160ff02191690831515021790555060a0820151816004015560c0820151816005019080519060200190612995929190615802565b5060e08201518160060190805190602001906129b2929190615802565b5050509050600d60008581526020019081526020016000206001820390806001815401808255809150509060018203906000526020600020016000909192909190915055503373ffffffffffffffffffffffffffffffffffffffff167fc5c8be27db4aa3feaacd664a304c17843e7eb46882bf882c614339864d3fa9348b8b8a604051808060200184151515158152602001838152602001828103825285818151815260200191508051906020019080838360005b83811015612a82578082015181840152602081019050612a67565b50505050905090810190601f168015612aaf5780820380516001836020036101000a031916815260200191505b5094505050505060405180910390a250505050505050505050565b6000806001600084815260200190815260200160002060009054906101000a900473ffffffffffffffffffffffffffffffffffffffff169050600073ffffffffffffffffffffffffffffffffffffffff168173ffffffffffffffffffffffffffffffffffffffff161415612b89576040517f08c379a000000000000000000000000000000000000000000000000000000000815260040180806020018281038252602981526020018061599e6029913960400191505060405180910390fd5b80915050919050565b600c8281548110612b9f57fe5b906000526020600020906007020160000154600960003373ffffffffffffffffffffffffffffffffffffffff1673ffffffffffffffffffffffffffffffffffffffff1681526020019081526020016000205414612c47576040517f08c379a0000000000000000000000000000000000000000000000000000000008152600401808060200182810382526027815260200180615a966027913960400191505060405180910390fd5b600c8281548110612c5457fe5b906000526020600020906007020160030160009054906101000a900460ff16612ce5576040517f08c379a000000000000000000000000000000000000000000000000000000000815260040180806020018281038252601d8152602001807f5075626c69636174696f6e206973206e6f7420616e2061756374696f6e00000081525060200191505060405180910390fd5b80600c8381548110612cf357fe5b9060005260206000209060070201600401819055506000600c8381548110612d1757fe5b906000526020600020906007020160030160006101000a81548160ff021916908315150217905550813373ffffffffffffffffffffffffffffffffffffffff167feb01c69f283d553c999e4a1f4fec7c1b89accdb3e03ab88c13060bd7ba52956d836040518082815260200191505060405180910390a35050565b6000600a8281548110612da157fe5b9060005260206000209060040201600201549050600c8181548110612dc257fe5b906000526020600020906007020160000154600960003373ffffffffffffffffffffffffffffffffffffffff1673ffffffffffffffffffffffffffffffffffffffff1681526020019081526020016000205414612e6a576040517f08c379a0000000000000000000000000000000000000000000000000000000008152600401808060200182810382526027815260200180615a966027913960400191505060405180910390fd5b600c8181548110612e7757fe5b906000526020600020906007020160030160009054906101000a900460ff16612f08576040517f08c379a000000000000000000000000000000000000000000000000000000000815260040180806020018281038252601b8152602001807f5075626c69636174696f6e206e6f7420616e2061756374696f6e2e000000000081525060200191505060405180910390fd5b600c8181548110612f1557fe5b906000526020600020906007020160030160019054906101000a900460ff16612fa6576040517f08c379a00000000000000000000000000000000000000000000000000000000081526004018080602001828103825260148152602001807f41756374696f6e206e6f742072756e6e696e672e00000000000000000000000081525060200191505060405180910390fd5b6002600a8381548110612fb557fe5b906000526020600020906004020160010160006101000a81548160ff02191690836004811115612fe157fe5b02179055503373ffffffffffffffffffffffffffffffffffffffff167fa97dd0c2abeef1f0a272ee5692396209ab3491ef31f466732c8d24f162e8f491836040518082815260200191505060405180910390a25050565b60008151116130af576040517f08c379a00000000000000000000000000000000000000000000000000000000081526004018080602001828103825260208152602001807f50726f66696c65205552492073686f756c64206e6f7420626520656d7074792e81525060200191505060405180910390fd5b6000600960003373ffffffffffffffffffffffffffffffffffffffff1673ffffffffffffffffffffffffffffffffffffffff1681526020019081526020016000205414613164576040517f08c379a00000000000000000000000000000000000000000000000000000000081526004018080602001828103825260188152602001807f5573657220616c726561647920726567697374657265642e000000000000000081525060200191505060405180910390fd5b6000600860405180604001604052803373ffffffffffffffffffffffffffffffffffffffff168152602001848152509080600181540180825580915050906001820390600052602060002090600202016000909192909190915060008201518160000160006101000a81548173ffffffffffffffffffffffffffffffffffffffff021916908373ffffffffffffffffffffffffffffffffffffffff1602179055506020820151816001019080519060200190613221929190615782565b505050905060018103600960003373ffffffffffffffffffffffffffffffffffffffff1673ffffffffffffffffffffffffffffffffffffffff168152602001908152602001600020819055505050565b60008073ffffffffffffffffffffffffffffffffffffffff168273ffffffffffffffffffffffffffffffffffffffff1614156132f8576040517f08c379a000000000000000000000000000000000000000000000000000000000815260040180806020018281038252602a815260200180615974602a913960400191505060405180910390fd5b61333f600360008473ffffffffffffffffffffffffffffffffffffffff1673ffffffffffffffffffffffffffffffffffffffff1681526020019081526020016000206153af565b9050919050565b6000600c80549050905090565b600c828154811061336057fe5b906000526020600020906007020160000154600960003373ffffffffffffffffffffffffffffffffffffffff1673ffffffffffffffffffffffffffffffffffffffff1681526020019081526020016000205414613408576040517f08c379a0000000000000000000000000000000000000000000000000000000008152600401808060200182810382526027815260200180615a966027913960400191505060405180910390fd5b600c828154811061341557fe5b906000526020600020906007020160030160009054906101000a900460ff16156134a7576040517f08c379a000000000000000000000000000000000000000000000000000000000815260040180806020018281038252601a8152602001807f5075626c69636174696f6e206973206f6e2061756374696f6e2e00000000000081525060200191505060405180910390fd5b80600c83815481106134b557fe5b906000526020600020906007020160040181905550813373ffffffffffffffffffffffffffffffffffffffff167f9bb7e7778469d9687fcfa57546d6e1eebc04b3fa55fabe83c2d4d0baae3a32b4836040518082815260200191505060405180910390a35050565b606060068054600181600116156101000203166002900480601f0160208091040260200160405190810160405280929190818152602001828054600181600116156101000203166002900480156135b55780601f1061358a576101008083540402835291602001916135b5565b820191906000526020600020905b81548152906001019060200180831161359857829003601f168201915b5050505050905090565b6000600a82815481106135ce57fe5b9060005260206000209060040201600201549050600c81815481106135ef57fe5b906000526020600020906007020160000154600960003373ffffffffffffffffffffffffffffffffffffffff1673ffffffffffffffffffffffffffffffffffffffff1681526020019081526020016000205414806136a95750600a828154811061365557fe5b906000526020600020906004020160030154600960003373ffffffffffffffffffffffffffffffffffffffff1673ffffffffffffffffffffffffffffffffffffffff16815260200190815260200160002054145b6136fe576040517f08c379a0000000000000000000000000000000000000000000000000000000008152600401808060200182810382526027815260200180615a966027913960400191505060405180910390fd5b600c818154811061370b57fe5b906000526020600020906007020160030160009054906101000a900460ff1661379c576040517f08c379a000000000000000000000000000000000000000000000000000000000815260040180806020018281038252601b8152602001807f5075626c69636174696f6e206e6f7420616e2061756374696f6e2e000000000081525060200191505060405180910390fd5b600c81815481106137a957fe5b906000526020600020906007020160030160019054906101000a900460ff1661383a576040517f08c379a00000000000000000000000000000000000000000000000000000000081526004018080602001828103825260148152602001807f41756374696f6e206e6f742072756e6e696e672e00000000000000000000000081525060200191505060405180910390fd5b6004600a838154811061384957fe5b906000526020600020906004020160010160006101000a81548160ff0219169083600481111561387557fe5b02179055503373ffffffffffffffffffffffffffffffffffffffff167f501720be89f6a98b45d2037d3d01fbbb1b327b894b2137f8a52c608e7c4e8156836040518082815260200191505060405180910390a25050565b600c81815481106138d957fe5b906000526020600020906007020160000154600960003373ffffffffffffffffffffffffffffffffffffffff1673ffffffffffffffffffffffffffffffffffffffff1681526020019081526020016000205414613981576040517f08c379a0000000000000000000000000000000000000000000000000000000008152600401808060200182810382526027815260200180615a966027913960400191505060405180910390fd5b600c818154811061398e57fe5b906000526020600020906007020160030160019054906101000a900460ff1615600c82815481106139bb57fe5b906000526020600020906007020160030160016101000a81548160ff021916908315150217905550803373ffffffffffffffffffffffffffffffffffffffff167fe0bd549884d6be9a8162c0a6068c65f6ece0c544934a3e3d9a81bfcd39aadc88600c8481548110613a2957fe5b906000526020600020906007020160030160019054906101000a900460ff16604051808215151515815260200191505060405180910390a350565b60606000600960008473ffffffffffffffffffffffffffffffffffffffff1673ffffffffffffffffffffffffffffffffffffffff168152602001908152602001600020549050600b6000828152602001908152602001600020805480602002602001604051908101604052809291908181526020018280548015613b0757602002820191906000526020600020905b815481526020019060010190808311613af3575b5050505050915050919050565b60606000600960008473ffffffffffffffffffffffffffffffffffffffff1673ffffffffffffffffffffffffffffffffffffffff168152602001908152602001600020549050600f6000828152602001908152602001600020805480602002602001604051908101604052809291908181526020018280548015613bb757602002820191906000526020600020905b815481526020019060010190808311613ba3575b5050505050915050919050565b3373ffffffffffffffffffffffffffffffffffffffff168273ffffffffffffffffffffffffffffffffffffffff161415613c66576040517f08c379a00000000000000000000000000000000000000000000000000000000081526004018080602001828103825260198152602001807f4552433732313a20617070726f766520746f2063616c6c65720000000000000081525060200191505060405180910390fd5b80600460003373ffffffffffffffffffffffffffffffffffffffff1673ffffffffffffffffffffffffffffffffffffffff16815260200190815260200160002060008473ffffffffffffffffffffffffffffffffffffffff1673ffffffffffffffffffffffffffffffffffffffff16815260200190815260200160002060006101000a81548160ff0219169083151502179055508173ffffffffffffffffffffffffffffffffffffffff163373ffffffffffffffffffffffffffffffffffffffff167f17307eab39ab6107e8899845ad3d59bd9653f200f220920489ca2b5937696c3183604051808215151515815260200191505060405180910390a35050565b60006060806000806000606080613d7c615739565b600c8a81548110613d8957fe5b90600052602060002090600702016040518061010001604052908160008201548152602001600182018054600181600116156101000203166002900480601f016020809104026020016040519081016040528092919081815260200182805460018160011615610100020316600290048015613e465780601f10613e1b57610100808354040283529160200191613e46565b820191906000526020600020905b815481529060010190602001808311613e2957829003601f168201915b5050505050815260200160028201805480602002602001604051908101604052809291908181526020018280548015613e9e57602002820191906000526020600020905b815481526020019060010190808311613e8a575b505050505081526020016003820160009054906101000a900460ff161515151581526020016003820160019054906101000a900460ff161515151581526020016004820154815260200160058201805480602002602001604051908101604052809291908181526020018280548015613f3657602002820191906000526020600020905b815481526020019060010190808311613f22575b5050505050815260200160068201805480602002602001604051908101604052809291908181526020018280548015613f8e57602002820191906000526020600020905b815481526020019060010190808311613f7a575b5050505050815250509050806000015181602001518260400151836060015184608001518560a001518660c001518760e001518696508595508191508090509850985098509850985098509850985050919395975091939597565b6000600c8281548110613ff857fe5b906000526020600020906007020160000154141561407e576040517f08c379a00000000000000000000000000000000000000000000000000000000081526004018080602001828103825260198152602001807f5075626c69636174696f6e206e6f7420656e6c69737465642e0000000000000081525060200191505060405180910390fd5b6000600960003373ffffffffffffffffffffffffffffffffffffffff1673ffffffffffffffffffffffffffffffffffffffff168152602001908152602001600020541415614117576040517f08c379a00000000000000000000000000000000000000000000000000000000081526004018080602001828103825260218152602001806158cb6021913960400191505060405180910390fd5b600c818154811061412457fe5b906000526020600020906007020160030160009054906101000a900460ff161561439857600c818154811061415557fe5b906000526020600020906007020160030160019054906101000a900460ff166141e6576040517f08c379a00000000000000000000000000000000000000000000000000000000081526004018080602001828103825260178152602001807f41756374696f6e206973206e6f742072756e6e696e672e00000000000000000081525060200191505060405180910390fd5b6000600a60405180608001604052808581526020016000600481111561420857fe5b8152602001848152602001600960003373ffffffffffffffffffffffffffffffffffffffff1673ffffffffffffffffffffffffffffffffffffffff16815260200190815260200160002054815250908060018154018082558091505090600182039060005260206000209060040201600090919290919091506000820151816000015560208201518160010160006101000a81548160ff021916908360048111156142af57fe5b0217905550604082015181600201556060820151816003015550509050600c82815481106142d957fe5b9060005260206000209060070201600201600182039080600181540180825580915050906001820390600052602060002001600090919290919091505550600b6000600960003373ffffffffffffffffffffffffffffffffffffffff1673ffffffffffffffffffffffffffffffffffffffff168152602001908152602001600020548152602001908152602001600020600182039080600181540180825580915050906001820390600052602060002001600090919290919091505550505b600c81815481106143a557fe5b906000526020600020906007020160030160009054906101000a900460ff16614ae057600c81815481106143d557fe5b906000526020600020906007020160040154821461445b576040517f08c379a00000000000000000000000000000000000000000000000000000000081526004018080602001828103825260158152602001807f496e636f72726563742066756e64732073656e742e000000000000000000000081525060200191505060405180910390fd5b60006001600a60405180608001604052808681526020016003600481111561447f57fe5b8152602001858152602001600960003373ffffffffffffffffffffffffffffffffffffffff1673ffffffffffffffffffffffffffffffffffffffff16815260200190815260200160002054815250908060018154018082558091505090600182039060005260206000209060040201600090919290919091506000820151816000015560208201518160010160006101000a81548160ff0219169083600481111561452657fe5b021790555060408201518160020155606082015181600301555050039050600c828154811061455157fe5b9060005260206000209060070201600201819080600181540180825580915050906001820390600052602060002001600090919290919091505550600b6000600960003373ffffffffffffffffffffffffffffffffffffffff1673ffffffffffffffffffffffffffffffffffffffff16815260200190815260200160002054815260200190815260200160002081908060018154018082558091505090600182039060005260206000200160009091929091909150555082601160009054906101000a900473ffffffffffffffffffffffffffffffffffffffff1673ffffffffffffffffffffffffffffffffffffffff1663dd62ed3e33306040518363ffffffff1660e01b8152600401808373ffffffffffffffffffffffffffffffffffffffff1673ffffffffffffffffffffffffffffffffffffffff1681526020018273ffffffffffffffffffffffffffffffffffffffff1673ffffffffffffffffffffffffffffffffffffffff1681526020019250505060206040518083038186803b1580156146dc57600080fd5b505afa1580156146f0573d6000803e3d6000fd5b505050506040513d602081101561470657600080fd5b8101908080519060200190929190505050101561478b576040517f08c379a000000000000000000000000000000000000000000000000000000000815260040180806020018281038252601b8152602001807f496e73756666696369656e742066756e6420616c6c6f77616e6365000000000081525060200191505060405180910390fd5b60006008600c848154811061479c57fe5b906000526020600020906007020160000154815481106147b857fe5b906000526020600020906002020160000160009054906101000a900473ffffffffffffffffffffffffffffffffffffffff169050601160009054906101000a900473ffffffffffffffffffffffffffffffffffffffff1673ffffffffffffffffffffffffffffffffffffffff166323b872dd3383876040518463ffffffff1660e01b8152600401808473ffffffffffffffffffffffffffffffffffffffff1673ffffffffffffffffffffffffffffffffffffffff1681526020018373ffffffffffffffffffffffffffffffffffffffff1673ffffffffffffffffffffffffffffffffffffffff1681526020018281526020019350505050602060405180830381600087803b1580156148c957600080fd5b505af11580156148dd573d6000803e3d6000fd5b505050506040513d60208110156148f357600080fd5b8101908080519060200190929190505050506000600e6040518060600160405280600a868154811061492157fe5b9060005260206000209060040201600301548152602001868152602001858152509080600181540180825580915050906001820390600052602060002090600302016000909192909190915060008201518160000155602082015181600101556040820151816002015550509050600f6000600a85815481106149a057fe5b906000526020600020906004020160030154815260200190815260200160002081908060018154018082558091505090600182039060005260206000200160009091929091909150555060106000858152602001908152602001600020819080600181540180825580915050906001820390600052602060002001600090919290919091505550614a8d6008600a8581548110614a3957fe5b90600052602060002090600402016003015481548110614a5557fe5b906000526020600020906002020160000160009054906101000a900473ffffffffffffffffffffffffffffffffffffffff1682615197565b833373ffffffffffffffffffffffffffffffffffffffff167f87f5b2fe112bf269d30fb8ca9dc0bde0afd0cc39258e13fafd75fe794795bf0e876040518082815260200191505060405180910390a35050505b5050565b614aef848484611fdb565b614afb848484846153bd565b614b50576040517f08c379a00000000000000000000000000000000000000000000000000000000081526004018080602001828103825260328152602001806158996032913960400191505060405180910390fd5b50505050565b600e8181548110614b6357fe5b90600052602060002090600302016000915090508060000154908060010154908060020154905083565b6060614b9882614dd6565b614bed576040517f08c379a000000000000000000000000000000000000000000000000000000000815260040180806020018281038252602f815260200180615a1c602f913960400191505060405180910390fd5b600760008381526020019081526020016000208054600181600116156101000203166002900480601f016020809104026020016040519081016040528092919081815260200182805460018160011615610100020316600290048015614c945780601f10614c6957610100808354040283529160200191614c94565b820191906000526020600020905b815481529060010190602001808311614c7757829003601f168201915b50505050509050919050565b60106020528160005260406000208181548110614cb957fe5b90600052602060002001600091509150505481565b600b6020528160005260406000208181548110614ce757fe5b90600052602060002001600091509150505481565b6000600460008473ffffffffffffffffffffffffffffffffffffffff1673ffffffffffffffffffffffffffffffffffffffff16815260200190815260200160002060008373ffffffffffffffffffffffffffffffffffffffff1673ffffffffffffffffffffffffffffffffffffffff16815260200190815260200160002060009054906101000a900460ff16905092915050565b600f6020528160005260406000208181548110614da957fe5b90600052602060002001600091509150505481565b60096020528060005260406000206000915090505481565b6000806001600084815260200190815260200160002060009054906101000a900473ffffffffffffffffffffffffffffffffffffffff169050600073ffffffffffffffffffffffffffffffffffffffff168173ffffffffffffffffffffffffffffffffffffffff161415915050919050565b6000614e5382614dd6565b614ea8576040517f08c379a000000000000000000000000000000000000000000000000000000000815260040180806020018281038252602c815260200180615910602c913960400191505060405180910390fd5b6000614eb383612aca565b90508073ffffffffffffffffffffffffffffffffffffffff168473ffffffffffffffffffffffffffffffffffffffff161480614f2257508373ffffffffffffffffffffffffffffffffffffffff16614f0a84611603565b73ffffffffffffffffffffffffffffffffffffffff16145b80614f335750614f328185614cfc565b5b91505092915050565b8273ffffffffffffffffffffffffffffffffffffffff16614f5c82612aca565b73ffffffffffffffffffffffffffffffffffffffff1614614fc8576040517f08c379a00000000000000000000000000000000000000000000000000000000081526004018080602001828103825260298152602001806159f36029913960400191505060405180910390fd5b600073ffffffffffffffffffffffffffffffffffffffff168273ffffffffffffffffffffffffffffffffffffffff16141561504e576040517f08c379a00000000000000000000000000000000000000000000000000000000081526004018080602001828103825260248152602001806158ec6024913960400191505060405180910390fd5b615057816155a6565b61509e600360008573ffffffffffffffffffffffffffffffffffffffff1673ffffffffffffffffffffffffffffffffffffffff168152602001908152602001600020615664565b6150e5600360008473ffffffffffffffffffffffffffffffffffffffff1673ffffffffffffffffffffffffffffffffffffffff168152602001908152602001600020615687565b816001600083815260200190815260200160002060006101000a81548173ffffffffffffffffffffffffffffffffffffffff021916908373ffffffffffffffffffffffffffffffffffffffff160217905550808273ffffffffffffffffffffffffffffffffffffffff168473ffffffffffffffffffffffffffffffffffffffff167fddf252ad1be2c89b69c2b068fc378daa952ba7f163c4a11628f55a4df523b3ef60405160405180910390a4505050565b600073ffffffffffffffffffffffffffffffffffffffff168273ffffffffffffffffffffffffffffffffffffffff16141561523a576040517f08c379a00000000000000000000000000000000000000000000000000000000081526004018080602001828103825260208152602001807f4552433732313a206d696e7420746f20746865207a65726f206164647265737381525060200191505060405180910390fd5b61524381614dd6565b156152b6576040517f08c379a000000000000000000000000000000000000000000000000000000000815260040180806020018281038252601c8152602001807f4552433732313a20746f6b656e20616c7265616479206d696e7465640000000081525060200191505060405180910390fd5b816001600083815260200190815260200160002060006101000a81548173ffffffffffffffffffffffffffffffffffffffff021916908373ffffffffffffffffffffffffffffffffffffffff16021790555061534f600360008473ffffffffffffffffffffffffffffffffffffffff1673ffffffffffffffffffffffffffffffffffffffff168152602001908152602001600020615687565b808273ffffffffffffffffffffffffffffffffffffffff16600073ffffffffffffffffffffffffffffffffffffffff167fddf252ad1be2c89b69c2b068fc378daa952ba7f163c4a11628f55a4df523b3ef60405160405180910390a45050565b600081600001549050919050565b60006153de8473ffffffffffffffffffffffffffffffffffffffff1661569d565b6153eb576001905061559e565b60008473ffffffffffffffffffffffffffffffffffffffff1663150b7a02338887876040518563ffffffff1660e01b8152600401808573ffffffffffffffffffffffffffffffffffffffff1673ffffffffffffffffffffffffffffffffffffffff1681526020018473ffffffffffffffffffffffffffffffffffffffff1673ffffffffffffffffffffffffffffffffffffffff16815260200183815260200180602001828103825283818151815260200191508051906020019080838360005b838110156154c65780820151818401526020810190506154ab565b50505050905090810190601f1680156154f35780820380516001836020036101000a031916815260200191505b5095505050505050602060405180830381600087803b15801561551557600080fd5b505af1158015615529573d6000803e3d6000fd5b505050506040513d602081101561553f57600080fd5b8101908080519060200190929190505050905063150b7a0260e01b7bffffffffffffffffffffffffffffffffffffffffffffffffffffffff1916817bffffffffffffffffffffffffffffffffffffffffffffffffffffffff1916149150505b949350505050565b600073ffffffffffffffffffffffffffffffffffffffff166002600083815260200190815260200160002060009054906101000a900473ffffffffffffffffffffffffffffffffffffffff1673ffffffffffffffffffffffffffffffffffffffff16146156615760006002600083815260200190815260200160002060006101000a81548173ffffffffffffffffffffffffffffffffffffffff021916908373ffffffffffffffffffffffffffffffffffffffff1602179055505b50565b61567c600182600001546156b090919063ffffffff16565b816000018190555050565b6001816000016000828254019250508190555050565b600080823b905060008111915050919050565b600082821115615728576040517f08c379a000000000000000000000000000000000000000000000000000000000815260040180806020018281038252601e8152602001807f536166654d6174683a207375627472616374696f6e206f766572666c6f77000081525060200191505060405180910390fd5b600082840390508091505092915050565b6040518061010001604052806000815260200160608152602001606081526020016000151581526020016000151581526020016000815260200160608152602001606081525090565b828054600181600116156101000203166002900490600052602060002090601f016020900481019282601f106157c357805160ff19168380011785556157f1565b828001600101855582156157f1579182015b828111156157f05782518255916020019190600101906157d5565b5b5090506157fe919061584f565b5090565b82805482825590600052602060002090810192821561583e579160200282015b8281111561583d578251825591602001919060010190615822565b5b50905061584b919061584f565b5090565b61587191905b8082111561586d576000816000905550600101615855565b5090565b9056fe5075626c69636174696f6e205552492073686f756c64206e6f7420626520656d7074792e4552433732313a207472616e7366657220746f206e6f6e20455243373231526563656976657220696d706c656d656e7465724269646465722061646472657373206973206e6f7420726567697374657265642e4552433732313a207472616e7366657220746f20746865207a65726f20616464726573734552433732313a206f70657261746f7220717565727920666f72206e6f6e6578697374656e7420746f6b656e4552433732313a20617070726f76652063616c6c6572206973206e6f74206f776e6572206e6f7220617070726f76656420666f7220616c6c4552433732313a2062616c616e636520717565727920666f7220746865207a65726f20616464726573734552433732313a206f776e657220717565727920666f72206e6f6e6578697374656e7420746f6b656e4552433732313a20617070726f76656420717565727920666f72206e6f6e6578697374656e7420746f6b656e4552433732313a207472616e73666572206f6620746f6b656e2074686174206973206e6f74206f776e4552433732314d657461646174613a2055524920717565727920666f72206e6f6e6578697374656e7420746f6b656e53686f756c64206e6f7420737065636966792073656c6c20707269636520666f722061756374696f6e2e4552433732313a20617070726f76616c20746f2063757272656e74206f776e657255736572206e6f742074686520617574686f72206f662074686973207075626c69636174696f6e4552433732313a207472616e736665722063616c6c6572206973206e6f74206f776e6572206e6f7220617070726f7665645075626c69636174696f6e20697320616c7265616479206f6e2061756374696f6ea165627a7a72305820fc3f54e303b24e1f976c698443e2a48d3e5b73c4e0d3e6f817a0043deb1a18170029",
  "source": "pragma solidity^0.5.0;\n\n/// @title UniCoin smart contract\n/// @author Chris Maree, Helda Mandlate, Luke Meiklejohn \n\n/// @dev import contracts from openzeppelin related to ownable and ERC20, ERC721 tokens\nimport \"openzeppelin-solidity/contracts/ownership/Ownable.sol\";\nimport \"openzeppelin-solidity/contracts/token/ERC20/ERC20.sol\";\nimport \"openzeppelin-solidity/contracts/token/ERC721/ERC721Metadata.sol\";\n\n/// @notice contract begins here\ncontract UnicoinRegistry is ERC721Metadata {\n    /// @notice Creates a struct for users of the plaform, needs their Ethereum address and profile URL\n    struct User {\n        address owned_address;\n        string profile_uri;\n    }\n    /// @notice Creates an array of users that a registered\n    User[] public users;\n\n    /// @notice The mapping below maps all users' addresses to their userID\n    mapping (address => uint256) public userAddresses ;\n\n    /// @notice Creates user defined type\n    enum bidStatus {Pending, Accepted, Rejected, Sale, Cancelled}\n\n    /// @notice Creates a struct for all bids, takes in the offer (amount of the bid), one of the enum parameters, publication Id and owner Id\n    struct Bid {\n        uint256 offer;\n        bidStatus status;\n        uint256 publication_Id;\n        uint256 owner_Id; /// @dev owner of the bid\n    }\n    /// @notice Creates an array of bids that have been placed\n    Bid[] public bids;\n\n    /// @notice The mapping below maps all bidders' IDs to their userID\n    mapping(uint256 => uint256[]) public bidOwners;\n\n    /// @notice Creates a struct for all publications\n    /// @param author_Id The array below will contain all bids received for that work\n    /// @param publication_uri If the researcher has chosen the auction pricing structure, the below is TRUE.\n    /// @param publication_bids If the auction is still running, the below is TRUE, because the researcher can choose to stop the auction at any point.\n    /// @param isAuction If both of the booleans above are FALSE, the price below is the flat sale price of the work.\n    /// @param isRunning The value of the publication\n    /// @param sell_price The co-authors/ contributors of the publication\n    /// @param contributors_weightings The contributor's respective weighting contributions\n    struct Publication {\n        uint256 author_Id;\n        string publication_uri;\n        uint256[] publication_bids;\n        bool isAuction;\n        bool isRunning;\n        uint256 sell_price;\n        uint256[] contributors;\n        uint256[] contributors_weightings;\n    }\n    /// @notice Creates an array of publications for every published document\n    Publication[] public publications;\n    \n    /// @notice The mapping below will map the addresses of all the successful bidders' addresses to the ID of their owned publications\n    mapping(uint256 => uint256[]) public publicationOwners;\n    \n    /// @notice Creates a struct for licencing\n    /// @param buyer_Id of each publication's buyer\n    /// @param publication_Id of the publication being bought\n    /// @param bid_Id The bid's Id for the publication    \n    struct LicenceDesign {\n        uint256 buyer_Id;\n        uint256 Publication_Id;\n        uint256 bid_Id;\n    }\n    /// @notice Creates an array of purchased licences\n    LicenceDesign[] public licences;\n    /// @notice Mapping of licence Id to get the licence owners\n    mapping(uint256 => uint256[]) public licenceOwners;\n    /// @notice Mapping of licence Id to get the publication Id\n    mapping(uint256 => uint256[]) public publicationLicences;\n\n    event NewPublication(\n        address indexed _from,\n        string _publication_uri,\n        bool _isAuction,\n        uint256 _sell_price\n    );\n\n    event NewBid(\n        address indexed _from,\n        uint256 indexed _publication_Id,\n        uint256 _offer\n    );\n\n    event AcceptedBid(\n        address indexed _from,\n        uint256 _id\n    );\n\n    event RejectedBid(\n        address indexed _from,\n        uint256 _id\n    ); \n\n    event CancelledBid(\n        address indexed _from,\n        uint256 _id\n    );\n\n    event ChangeToSale(\n        address indexed _from,\n        uint256 indexed _publication_Id,\n        uint256 _sell_price\n    );   \n\n    event ChangeToAuction(\n        address indexed _from,\n        uint256 indexed _publication_Id\n    ); \n\n    event ChangeSellPrice(\n        address indexed _from,\n        uint256 indexed _publication_Id,\n        uint256 _sell_price\n    );\n\n    event ChangeRunningStatus(\n        address indexed _from,\n        uint256 indexed _publication_Id,\n        bool _isRunning \n    );\n\n    /// @dev ERC20 is now daiContract\n    ERC20 daiContract;\n    /// @dev The constructor below reserves user 0 for all unregistered users\n    /// @param _daiContractAddress DAI contract address\n    constructor(address _daiContractAddress) public ERC721Metadata(\"UniCoin Licence\", \"UNIC\"){\n        users.push(User(address(0), \"\"));\n        licences.push(LicenceDesign(0, 0, 0));\n\n        daiContract = ERC20(_daiContractAddress);\n    }\n\n    /// @notice This function registers a user on the platform by taking in their profile URL\n    /// @param _profile_uri user profile url\n    /// @dev If the user's address is in position 0 of the userAddresses array, they are unregistered\n    /// @dev Create an instance of the user and add the Id to their address\n    function registerUser(string memory _profile_uri) public {\n        require(bytes(_profile_uri).length > 0, \"Profile URI should not be empty.\");\n        require(userAddresses[msg.sender]==0,\"User already registered.\");\n        uint256 id = users.push(User(msg.sender,_profile_uri));\n        userAddresses[msg.sender] = id - 1;\n    }\n\n    /// @notice This function creates a publication on the system, with blank arrays for publication bids and owners,\n    /// @notice since no one has bidded for or bought a licence yet\n    /// @dev The researcher only specifies the flat rate if they have chosen not to auction the work\n    /// @dev Add instance to the respective arrays\n\n    function createPublication(\n        string memory _publication_uri,\n        bool _isAuction,\n        bool _isRunning,\n        uint256 _sell_price,\n        uint256[] memory _contributors,\n        uint256[] memory _contributors_weightings) public {\n        require(bytes(_publication_uri).length > 0, \"Publication URI should not be empty.\");\n        require(userAddresses[msg.sender] != 0, \"User address is not registered.\");\n        if(_isAuction) {\n            require(_sell_price == 0, \"Should not specify sell price for auction.\");\n        }\n        else {\n            require(_sell_price > 0, \"Sell price not specified.\");\n        }\n        uint256 _author_Id = userAddresses[msg.sender];\n        uint256[] memory _publication_bids;\n        Publication memory _publication = Publication(\n            _author_Id,\n            _publication_uri,\n            _publication_bids,\n            _isAuction,\n            _isRunning,\n            _sell_price,\n            _contributors,\n            _contributors_weightings);\n        uint256 _id = publications.push(_publication);\n        publicationOwners[_author_Id].push(_id - 1);\n\n        emit NewPublication(msg.sender,_publication_uri, _isAuction, _sell_price);\n    }\n\n    /// @notice This function creates a new bid for a particular publication\n    /// @param _offer for the research\n    /// @param _publication_Id is the index for the publication Id\n    /// @dev The bidder should only be able to submit a bid if the publication's pricing structure is an auction and the auction is running\n    /// @dev By default the bid will have a status of Pending until it is accepted or rejected by the author\n    /// @dev If the author has specified a flat rate, the buyer doesn't submit a bid but just sends the funds.\n    /// @dev The funds sent should match the sale price specified by the author.\n    /// @dev This 'bid' has a status of sale because the author does not need to evaluate and accept/reject these bids.\n    /// @dev Transfer Dai from buyer to seller\n    /// @dev parameters of licence design: buyer_id, publication id, bid_id\n    function makeBid(uint256 _offer, uint256 _publication_Id) public {\n        require(publications[_publication_Id].author_Id != 0, \"Publication not enlisted.\");\n        require(userAddresses[msg.sender] != 0, \"Bidder address is not registered.\");\n        if(publications[_publication_Id].isAuction) {\n            require(publications[_publication_Id].isRunning, \"Auction is not running.\");\n            uint256 _id = bids.push(Bid(_offer, bidStatus.Pending, _publication_Id, userAddresses[msg.sender]));\n            publications[_publication_Id].publication_bids.push(_id - 1);\n            bidOwners[userAddresses[msg.sender]].push(_id - 1);\n        }\n        if(!publications[_publication_Id].isAuction) {\n            require(_offer == publications[_publication_Id].sell_price, \"Incorrect funds sent.\");\n            uint256 _id = bids.push(Bid(_offer, bidStatus.Sale, _publication_Id, userAddresses[msg.sender])) - 1;\n            publications[_publication_Id].publication_bids.push(_id);\n            bidOwners[userAddresses[msg.sender]].push(_id);\n\n            require(daiContract.allowance(msg.sender, address(this)) >= _offer, \"Insufficient fund allowance\");\n            address publisherAddress = users[publications[_publication_Id].author_Id].owned_address;\n            daiContract.transferFrom(msg.sender, publisherAddress, _offer);\n\n            uint256 _licence_Id = licences.push(LicenceDesign(bids[_id].owner_Id, _publication_Id, _id));\n            licenceOwners[bids[_id].owner_Id].push(_licence_Id);\n            publicationLicences[_publication_Id].push(_licence_Id);\n            _mint(users[bids[_id].owner_Id].owned_address, _licence_Id);\n\n            emit NewBid(msg.sender, _publication_Id, _offer);\n        }\n    }\n\n    /// @notice This function allows the auctioneer to accept the bids\n    /// @dev parameters of licence design: buyer_id, publication id, bid_id\n    /// @notice This function allows the auctioneer to reject the bids\n    /// @param _id is the bid Id\n    function acceptBid(uint256 _id) public {\n        uint256 _publication_Id = bids[_id].publication_Id;\n        require(userAddresses[msg.sender] == publications[_publication_Id].author_Id, \"User not the author of this publication\");\n        require(publications[_publication_Id].isAuction, \"Publication not an auction.\");\n        require(publications[_publication_Id].isRunning, \"Auction is not running.\");\n        bids[_id].status = bidStatus.Accepted;\n        \n        uint256 _licence_Id = licences.push(LicenceDesign(bids[_id].owner_Id, _publication_Id, _id));\n        licenceOwners[bids[_id].owner_Id].push(_licence_Id);\n        publicationLicences[_publication_Id].push(_licence_Id);\n        _mint(users[bids[_id].owner_Id].owned_address, _licence_Id);\n\n        emit AcceptedBid(msg.sender,_id);\n    }\n\n    /// @notice This function allows the auctioneer to reject the bids\n    /// @param _id is the bid Id\n    function rejectBid(uint256 _id) public {\n        uint256 _publication_Id = bids[_id].publication_Id;\n        require(userAddresses[msg.sender] == publications[_publication_Id].author_Id, \"User not the author of this publication\");\n        require(publications[_publication_Id].isAuction, \"Publication not an auction.\");\n        require(publications[_publication_Id].isRunning, \"Auction not running.\");\n        bids[_id].status = bidStatus.Rejected;\n\n        emit RejectedBid(msg.sender,_id);\n    }\n\n    /// @notice This function allows the auctioneer to cancel the bids\n    /// @param _id is the bid Id\n    function cancelBid(uint256 _id) public {\n        uint256 _publication_Id = bids[_id].publication_Id;\n        require(userAddresses[msg.sender] == publications[_publication_Id].author_Id\n        || userAddresses[msg.sender] == bids[_id].owner_Id, \"User not the author of this publication\");\n        require(publications[_publication_Id].isAuction, \"Publication not an auction.\");\n        require(publications[_publication_Id].isRunning, \"Auction not running.\");\n        bids[_id].status = bidStatus.Cancelled;\n\n        emit CancelledBid(msg.sender,_id);\n    }\n\n    /// @notice This function allows the auctioneer to change from an auction to a sale\n    /// @param _publication_Id publication id number\n    /// @param _sell_price for the research\n    function changeToSale(uint256 _publication_Id, uint256 _sell_price) public {\n        require(userAddresses[msg.sender] == publications[_publication_Id].author_Id, \"User not the author of this publication\");\n        require(publications[_publication_Id].isAuction, \"Publication is not an auction\");\n        publications[_publication_Id].sell_price = _sell_price;\n        publications[_publication_Id].isAuction = false;\n\n        emit ChangeToSale(msg.sender, _publication_Id, _sell_price);\n    }\n\n    /// @notice This function allows the auctioneer to change from a sale to an auction\n    /// @param _publication_Id publication id number\n    function changeToAuction(uint256 _publication_Id) public {\n        require(userAddresses[msg.sender] == publications[_publication_Id].author_Id, \"User not the author of this publication\");\n        require(!publications[_publication_Id].isAuction, \"Publication is already on auction\");\n        publications[_publication_Id].sell_price = 0;\n        publications[_publication_Id].isAuction = true;\n\n        emit ChangeToAuction(msg.sender, _publication_Id);        \n    }\n    \n    /// @notice This function allows the auctioneer to change the sell price\n    /// @param _publication_Id publication id number\n    /// @param _sell_price for the research\n    function changeSellPrice(uint256 _publication_Id, uint256 _sell_price) public {\n        require(userAddresses[msg.sender] == publications[_publication_Id].author_Id, \"User not the author of this publication\");\n        require(!publications[_publication_Id].isAuction, \"Publication is on auction.\");\n        publications[_publication_Id].sell_price = _sell_price;\n\n        emit ChangeSellPrice(msg.sender, _publication_Id, _sell_price);        \n\n    }\n\n    /// @notice This function allows the auctioneer to change the running status\n    /// @param _publication_Id publication id number\n    function changeRunningStatus(uint256 _publication_Id) public {\n        require(userAddresses[msg.sender] == publications[_publication_Id].author_Id, \"User not the author of this publication\");\n        publications[_publication_Id].isRunning = !publications[_publication_Id].isRunning;\n\n        emit ChangeRunningStatus(msg.sender, _publication_Id, publications[_publication_Id].isRunning);        \n\n    }\n\n    /// @return This function allows anyone to get the list of publications based on the address of the publisher\n    /// @param _address eth address for the user\n    function getPublications(address _address) public view returns(uint256[] memory) {\n        uint256 _author_Id = userAddresses[_address];\n        return publicationOwners[_author_Id];\n    }\n\n    /// @return This function allows anyone to get the list of bids based on address of the user\n    function getBids(address _address) public view returns(uint256[] memory) {\n        uint256 _userAddress = userAddresses[_address];\n        return bidOwners[_userAddress];\n    }\n\n    // From the user ID, get a list of all publications owned by the user ()\n    // function getPublications(uint256 _user_Id) public view returns(uint256[] memory) {\n    //     return publicationOwners[_user_Id];\n    // }\n\n    // function getBids(uint256 _user_Id) public view returns(uint256[] memory) {\n    //     return bidOwners[_user_Id];\n    // }\n\n    /// @return This function allows anyone to get list of bids per publication\n    /// @param _publication_Id publication id number\n    function getPublicationBids(uint256 _publication_Id) public view returns(uint256[] memory) {\n        return publications[_publication_Id].publication_bids;\n    }\n\n    /// @return This function allows the return of the total number of publications\n    function getPublicationLength() public view returns(uint count) {\n        return publications.length;\n    }\n\n    /// @return Returns information about a spesific publication ID\n    /// @param _publication_Id publication id number\n    function getPublication(uint256 _publication_Id) public view returns(\n        uint256,\n        string memory,\n        uint256[] memory,\n        bool,\n        bool,\n        uint256,\n        uint256[] memory,\n        uint256[] memory){\n        Publication memory _publication = publications[_publication_Id];\n        return (\n        _publication.author_Id,\n        _publication.publication_uri,\n        _publication.publication_bids,\n        _publication.isAuction,\n        _publication.isRunning,\n        _publication.sell_price,\n        _publication.contributors,\n        _publication.contributors_weightings);\n    }\n\n    /// @return get the licences per owner\n    /// @param _address of the account holder\n    function getLicence(address _address) public view returns(uint256[] memory) {\n        uint256 _userNumber = userAddresses[_address];\n        return licenceOwners[_userNumber];\n    }\n\n    /// @notice Donates funds to a research\n    /// @param _publication_Id The id of the publication\n    /// @param _value the amount that is being donated\n    function donate(uint256 _publication_Id, uint256 _value) public {\n        require(userAddresses[msg.sender] != 0, \"User address is not registered.\");\n        require(daiContract.allowance(msg.sender, address(this)) >= _value, \"Insufficient fund allowance\");\n        address publisherAddress = users[publications[_publication_Id].author_Id].owned_address;\n        daiContract.transferFrom(msg.sender, publisherAddress, _value);\n    }\n}",
  "sourcePath": "/Users/admin/unicoindapp/contracts/UnicoinRegistry.sol",
  "compiler": {
    "name": "solc",
    "version": "0.5.8+commit.23d335f2.Emscripten.clang"
  },
  "schemaVersion": "3.0.11",
  "updatedAt": "2019-07-24T18:31:32.377Z",
  "devdoc": {
    "methods": {
      "acceptBid(uint256)": {
        "details": "parameters of licence design: buyer_id, publication id, bid_id",
        "params": {
          "_id": "is the bid Id"
        }
      },
      "approve(address,uint256)": {
        "details": "Approves another address to transfer the given token ID The zero address indicates there is no approved address. There can only be one approved address per token at a given time. Can only be called by the token owner or an approved operator.",
        "params": {
          "to": "address to be approved for the given token ID",
          "tokenId": "uint256 ID of the token to be approved"
        }
      },
      "balanceOf(address)": {
        "details": "Gets the balance of the specified address.",
        "params": {
          "owner": "address to query the balance of"
        },
        "return": "uint256 representing the amount owned by the passed address"
      },
      "cancelBid(uint256)": {
        "params": {
          "_id": "is the bid Id"
        }
      },
      "changeRunningStatus(uint256)": {
        "params": {
          "_publication_Id": "publication id number"
        }
      },
      "changeSellPrice(uint256,uint256)": {
        "params": {
          "_publication_Id": "publication id number",
          "_sell_price": "for the research"
        }
      },
      "changeToAuction(uint256)": {
        "params": {
          "_publication_Id": "publication id number"
        }
      },
      "changeToSale(uint256,uint256)": {
        "params": {
          "_publication_Id": "publication id number",
          "_sell_price": "for the research"
        }
      },
      "constructor": {
        "details": "The constructor below reserves user 0 for all unregistered users",
        "params": {
          "_daiContractAddress": "DAI contract address"
        }
      },
      "createPublication(string,bool,bool,uint256,uint256[],uint256[])": {
        "details": "The researcher only specifies the flat rate if they have chosen not to auction the workAdd instance to the respective arrays"
      },
      "donate(uint256,uint256)": {
        "params": {
          "_publication_Id": "The id of the publication",
          "_value": "the amount that is being donated"
        }
      },
      "getApproved(uint256)": {
        "details": "Gets the approved address for a token ID, or zero if no address set Reverts if the token ID does not exist.",
        "params": {
          "tokenId": "uint256 ID of the token to query the approval of"
        },
        "return": "address currently approved for the given token ID"
      },
      "getBids(address)": {
        "return": "This function allows anyone to get the list of bids based on address of the user"
      },
      "getLicence(address)": {
        "params": {
          "_address": "of the account holder"
        },
        "return": "get the licences per owner"
      },
      "getPublication(uint256)": {
        "params": {
          "_publication_Id": "publication id number"
        },
        "return": "Returns information about a spesific publication ID"
      },
      "getPublicationBids(uint256)": {
        "params": {
          "_publication_Id": "publication id number"
        },
        "return": "This function allows anyone to get list of bids per publication"
      },
      "getPublicationLength()": {
        "return": "This function allows the return of the total number of publications"
      },
      "getPublications(address)": {
        "params": {
          "_address": "eth address for the user"
        },
        "return": "This function allows anyone to get the list of publications based on the address of the publisher"
      },
      "isApprovedForAll(address,address)": {
        "details": "Tells whether an operator is approved by a given owner.",
        "params": {
          "operator": "operator address which you want to query the approval of",
          "owner": "owner address which you want to query the approval of"
        },
        "return": "bool whether the given operator is approved by the given owner"
      },
      "makeBid(uint256,uint256)": {
        "details": "The bidder should only be able to submit a bid if the publication's pricing structure is an auction and the auction is runningBy default the bid will have a status of Pending until it is accepted or rejected by the authorIf the author has specified a flat rate, the buyer doesn't submit a bid but just sends the funds.The funds sent should match the sale price specified by the author.This 'bid' has a status of sale because the author does not need to evaluate and accept/reject these bids.Transfer Dai from buyer to sellerparameters of licence design: buyer_id, publication id, bid_id",
        "params": {
          "_offer": "for the research",
          "_publication_Id": "is the index for the publication Id"
        }
      },
      "name()": {
        "details": "Gets the token name.",
        "return": "string representing the token name"
      },
      "ownerOf(uint256)": {
        "details": "Gets the owner of the specified token ID.",
        "params": {
          "tokenId": "uint256 ID of the token to query the owner of"
        },
        "return": "address currently marked as the owner of the given token ID"
      },
      "registerUser(string)": {
        "details": "If the user's address is in position 0 of the userAddresses array, they are unregisteredCreate an instance of the user and add the Id to their address",
        "params": {
          "_profile_uri": "user profile url"
        }
      },
      "rejectBid(uint256)": {
        "params": {
          "_id": "is the bid Id"
        }
      },
      "safeTransferFrom(address,address,uint256)": {
        "details": "Safely transfers the ownership of a given token ID to another address If the target address is a contract, it must implement `onERC721Received`, which is called upon a safe transfer, and return the magic value `bytes4(keccak256(\"onERC721Received(address,address,uint256,bytes)\"))`; otherwise, the transfer is reverted. Requires the msg.sender to be the owner, approved, or operator",
        "params": {
          "from": "current owner of the token",
          "to": "address to receive the ownership of the given token ID",
          "tokenId": "uint256 ID of the token to be transferred"
        }
      },
      "safeTransferFrom(address,address,uint256,bytes)": {
        "details": "Safely transfers the ownership of a given token ID to another address If the target address is a contract, it must implement `onERC721Received`, which is called upon a safe transfer, and return the magic value `bytes4(keccak256(\"onERC721Received(address,address,uint256,bytes)\"))`; otherwise, the transfer is reverted. Requires the msg.sender to be the owner, approved, or operator",
        "params": {
          "_data": "bytes data to send along with a safe transfer check",
          "from": "current owner of the token",
          "to": "address to receive the ownership of the given token ID",
          "tokenId": "uint256 ID of the token to be transferred"
        }
      },
      "setApprovalForAll(address,bool)": {
        "details": "Sets or unsets the approval of a given operator An operator is allowed to transfer all tokens of the sender on their behalf.",
        "params": {
          "approved": "representing the status of the approval to be set",
          "to": "operator address to set the approval"
        }
      },
      "supportsInterface(bytes4)": {
        "details": "See `IERC165.supportsInterface`.     * Time complexity O(1), guaranteed to always use less than 30 000 gas."
      },
      "symbol()": {
        "details": "Gets the token symbol.",
        "return": "string representing the token symbol"
      },
      "tokenURI(uint256)": {
        "details": "Returns an URI for a given token ID. Throws if the token ID does not exist. May return an empty string.",
        "params": {
          "tokenId": "uint256 ID of the token to query"
        }
      },
      "transferFrom(address,address,uint256)": {
        "details": "Transfers the ownership of a given token ID to another address. Usage of this method is discouraged, use `safeTransferFrom` whenever possible. Requires the msg.sender to be the owner, approved, or operator.",
        "params": {
          "from": "current owner of the token",
          "to": "address to receive the ownership of the given token ID",
          "tokenId": "uint256 ID of the token to be transferred"
        }
      }
    }
  },
  "userdoc": {
    "methods": {
      "acceptBid(uint256)": {
        "notice": "This function allows the auctioneer to accept the bidsThis function allows the auctioneer to reject the bids"
      },
      "cancelBid(uint256)": {
        "notice": "This function allows the auctioneer to cancel the bids"
      },
      "changeRunningStatus(uint256)": {
        "notice": "This function allows the auctioneer to change the running status"
      },
      "changeSellPrice(uint256,uint256)": {
        "notice": "This function allows the auctioneer to change the sell price"
      },
      "changeToAuction(uint256)": {
        "notice": "This function allows the auctioneer to change from a sale to an auction"
      },
      "changeToSale(uint256,uint256)": {
        "notice": "This function allows the auctioneer to change from an auction to a sale"
      },
      "createPublication(string,bool,bool,uint256,uint256[],uint256[])": {
        "notice": "This function creates a publication on the system, with blank arrays for publication bids and owners,since no one has bidded for or bought a licence yet"
      },
      "donate(uint256,uint256)": {
        "notice": "Donates funds to a research"
      },
      "makeBid(uint256,uint256)": {
        "notice": "This function creates a new bid for a particular publication"
      },
      "registerUser(string)": {
        "notice": "This function registers a user on the platform by taking in their profile URL"
      },
      "rejectBid(uint256)": {
        "notice": "This function allows the auctioneer to reject the bids"
      }
    },
    "notice": "contract begins here"
  }
}