{
  "contractName": "UnicoinRegistry",
  "abi": [
    {
      "constant": true,
      "inputs": [
        {
          "name": "interfaceId",
          "type": "bytes4"
        }
      ],
      "name": "supportsInterface",
      "outputs": [
        {
          "name": "",
          "type": "bool"
        }
      ],
      "payable": false,
      "stateMutability": "view",
      "type": "function"
    },
    {
      "constant": true,
      "inputs": [],
      "name": "name",
      "outputs": [
        {
          "name": "",
          "type": "string"
        }
      ],
      "payable": false,
      "stateMutability": "view",
      "type": "function"
    },
    {
      "constant": true,
      "inputs": [
        {
          "name": "tokenId",
          "type": "uint256"
        }
      ],
      "name": "getApproved",
      "outputs": [
        {
          "name": "",
          "type": "address"
        }
      ],
      "payable": false,
      "stateMutability": "view",
      "type": "function"
    },
    {
      "constant": false,
      "inputs": [
        {
          "name": "to",
          "type": "address"
        },
        {
          "name": "tokenId",
          "type": "uint256"
        }
      ],
      "name": "approve",
      "outputs": [],
      "payable": false,
      "stateMutability": "nonpayable",
      "type": "function"
    },
    {
      "constant": true,
      "inputs": [
        {
          "name": "",
          "type": "uint256"
        },
        {
          "name": "",
          "type": "uint256"
        }
      ],
      "name": "publicationOwners",
      "outputs": [
        {
          "name": "",
          "type": "uint256"
        }
      ],
      "payable": false,
      "stateMutability": "view",
      "type": "function"
    },
    {
      "constant": true,
      "inputs": [
        {
          "name": "",
          "type": "uint256"
        }
      ],
      "name": "publications",
      "outputs": [
        {
          "name": "author_Id",
          "type": "uint256"
        },
        {
          "name": "publication_uri",
          "type": "string"
        },
        {
          "name": "isAuction",
          "type": "bool"
        },
        {
          "name": "isRunning",
          "type": "bool"
        },
        {
          "name": "sell_price",
          "type": "uint256"
        }
      ],
      "payable": false,
      "stateMutability": "view",
      "type": "function"
    },
    {
      "constant": false,
      "inputs": [
        {
          "name": "from",
          "type": "address"
        },
        {
          "name": "to",
          "type": "address"
        },
        {
          "name": "tokenId",
          "type": "uint256"
        }
      ],
      "name": "transferFrom",
      "outputs": [],
      "payable": false,
      "stateMutability": "nonpayable",
      "type": "function"
    },
    {
      "constant": true,
      "inputs": [
        {
          "name": "",
          "type": "uint256"
        }
      ],
      "name": "users",
      "outputs": [
        {
          "name": "owned_address",
          "type": "address"
        },
        {
          "name": "profile_uri",
          "type": "string"
        }
      ],
      "payable": false,
      "stateMutability": "view",
      "type": "function"
    },
    {
      "constant": false,
      "inputs": [
        {
          "name": "from",
          "type": "address"
        },
        {
          "name": "to",
          "type": "address"
        },
        {
          "name": "tokenId",
          "type": "uint256"
        }
      ],
      "name": "safeTransferFrom",
      "outputs": [],
      "payable": false,
      "stateMutability": "nonpayable",
      "type": "function"
    },
    {
      "constant": true,
      "inputs": [
        {
          "name": "",
          "type": "uint256"
        }
      ],
      "name": "bids",
      "outputs": [
        {
          "name": "offer",
          "type": "uint256"
        },
        {
          "name": "status",
          "type": "uint8"
        },
        {
          "name": "publication_Id",
          "type": "uint256"
        },
        {
          "name": "owner_Id",
          "type": "uint256"
        }
      ],
      "payable": false,
      "stateMutability": "view",
      "type": "function"
    },
    {
      "constant": true,
      "inputs": [
        {
          "name": "tokenId",
          "type": "uint256"
        }
      ],
      "name": "ownerOf",
      "outputs": [
        {
          "name": "",
          "type": "address"
        }
      ],
      "payable": false,
      "stateMutability": "view",
      "type": "function"
    },
    {
      "constant": true,
      "inputs": [
        {
          "name": "",
          "type": "uint256"
        }
      ],
      "name": "licenceOwners",
      "outputs": [
        {
          "name": "",
          "type": "uint256"
        }
      ],
      "payable": false,
      "stateMutability": "view",
      "type": "function"
    },
    {
      "constant": true,
      "inputs": [
        {
          "name": "owner",
          "type": "address"
        }
      ],
      "name": "balanceOf",
      "outputs": [
        {
          "name": "",
          "type": "uint256"
        }
      ],
      "payable": false,
      "stateMutability": "view",
      "type": "function"
    },
    {
      "constant": true,
      "inputs": [],
      "name": "symbol",
      "outputs": [
        {
          "name": "",
          "type": "string"
        }
      ],
      "payable": false,
      "stateMutability": "view",
      "type": "function"
    },
    {
      "constant": false,
      "inputs": [
        {
          "name": "to",
          "type": "address"
        },
        {
          "name": "approved",
          "type": "bool"
        }
      ],
      "name": "setApprovalForAll",
      "outputs": [],
      "payable": false,
      "stateMutability": "nonpayable",
      "type": "function"
    },
    {
      "constant": false,
      "inputs": [
        {
          "name": "from",
          "type": "address"
        },
        {
          "name": "to",
          "type": "address"
        },
        {
          "name": "tokenId",
          "type": "uint256"
        },
        {
          "name": "_data",
          "type": "bytes"
        }
      ],
      "name": "safeTransferFrom",
      "outputs": [],
      "payable": false,
      "stateMutability": "nonpayable",
      "type": "function"
    },
    {
      "constant": true,
      "inputs": [
        {
          "name": "",
          "type": "uint256"
        }
      ],
      "name": "licences",
      "outputs": [
        {
          "name": "buyer_Id",
          "type": "uint256"
        },
        {
          "name": "Publication_Id",
          "type": "uint256"
        },
        {
          "name": "bid_Id",
          "type": "uint256"
        }
      ],
      "payable": false,
      "stateMutability": "view",
      "type": "function"
    },
    {
      "constant": true,
      "inputs": [
        {
          "name": "tokenId",
          "type": "uint256"
        }
      ],
      "name": "tokenURI",
      "outputs": [
        {
          "name": "",
          "type": "string"
        }
      ],
      "payable": false,
      "stateMutability": "view",
      "type": "function"
    },
    {
      "constant": true,
      "inputs": [
        {
          "name": "",
          "type": "uint256"
        },
        {
          "name": "",
          "type": "uint256"
        }
      ],
      "name": "publicationLicences",
      "outputs": [
        {
          "name": "",
          "type": "uint256"
        }
      ],
      "payable": false,
      "stateMutability": "view",
      "type": "function"
    },
    {
      "constant": true,
      "inputs": [
        {
          "name": "",
          "type": "uint256"
        },
        {
          "name": "",
          "type": "uint256"
        }
      ],
      "name": "bidOwners",
      "outputs": [
        {
          "name": "",
          "type": "uint256"
        }
      ],
      "payable": false,
      "stateMutability": "view",
      "type": "function"
    },
    {
      "constant": true,
      "inputs": [
        {
          "name": "owner",
          "type": "address"
        },
        {
          "name": "operator",
          "type": "address"
        }
      ],
      "name": "isApprovedForAll",
      "outputs": [
        {
          "name": "",
          "type": "bool"
        }
      ],
      "payable": false,
      "stateMutability": "view",
      "type": "function"
    },
    {
      "constant": true,
      "inputs": [
        {
          "name": "",
          "type": "address"
        }
      ],
      "name": "userAddresses",
      "outputs": [
        {
          "name": "",
          "type": "uint256"
        }
      ],
      "payable": false,
      "stateMutability": "view",
      "type": "function"
    },
    {
      "inputs": [
        {
          "name": "_daiContractAddress",
          "type": "address"
        }
      ],
      "payable": false,
      "stateMutability": "nonpayable",
      "type": "constructor"
    },
    {
      "anonymous": false,
      "inputs": [
        {
          "indexed": true,
          "name": "from",
          "type": "address"
        },
        {
          "indexed": true,
          "name": "to",
          "type": "address"
        },
        {
          "indexed": true,
          "name": "tokenId",
          "type": "uint256"
        }
      ],
      "name": "Transfer",
      "type": "event"
    },
    {
      "anonymous": false,
      "inputs": [
        {
          "indexed": true,
          "name": "owner",
          "type": "address"
        },
        {
          "indexed": true,
          "name": "approved",
          "type": "address"
        },
        {
          "indexed": true,
          "name": "tokenId",
          "type": "uint256"
        }
      ],
      "name": "Approval",
      "type": "event"
    },
    {
      "anonymous": false,
      "inputs": [
        {
          "indexed": true,
          "name": "owner",
          "type": "address"
        },
        {
          "indexed": true,
          "name": "operator",
          "type": "address"
        },
        {
          "indexed": false,
          "name": "approved",
          "type": "bool"
        }
      ],
      "name": "ApprovalForAll",
      "type": "event"
    },
    {
      "constant": false,
      "inputs": [
        {
          "name": "_profile_uri",
          "type": "string"
        }
      ],
      "name": "registerUser",
      "outputs": [],
      "payable": false,
      "stateMutability": "nonpayable",
      "type": "function"
    },
    {
      "constant": false,
      "inputs": [
        {
          "name": "_publication_uri",
          "type": "string"
        },
        {
          "name": "_isAuction",
          "type": "bool"
        },
        {
          "name": "_isRunning",
          "type": "bool"
        },
        {
          "name": "_sell_price",
          "type": "uint256"
        },
        {
          "name": "_contributors",
          "type": "uint256[]"
        },
        {
          "name": "_contributors_weightings",
          "type": "uint256[]"
        }
      ],
      "name": "createPublication",
      "outputs": [],
      "payable": false,
      "stateMutability": "nonpayable",
      "type": "function"
    },
    {
      "constant": false,
      "inputs": [
        {
          "name": "_offer",
          "type": "uint256"
        },
        {
          "name": "_publication_Id",
          "type": "uint256"
        }
      ],
      "name": "makeBid",
      "outputs": [],
      "payable": false,
      "stateMutability": "nonpayable",
      "type": "function"
    },
    {
      "constant": false,
      "inputs": [
        {
          "name": "_id",
          "type": "uint256"
        }
      ],
      "name": "acceptBid",
      "outputs": [],
      "payable": false,
      "stateMutability": "nonpayable",
      "type": "function"
    },
    {
      "constant": false,
      "inputs": [
        {
          "name": "_id",
          "type": "uint256"
        }
      ],
      "name": "rejectBid",
      "outputs": [],
      "payable": false,
      "stateMutability": "nonpayable",
      "type": "function"
    },
    {
      "constant": false,
      "inputs": [
        {
          "name": "_id",
          "type": "uint256"
        }
      ],
      "name": "cancelBid",
      "outputs": [],
      "payable": false,
      "stateMutability": "nonpayable",
      "type": "function"
    },
    {
      "constant": false,
      "inputs": [
        {
          "name": "_publication_Id",
          "type": "uint256"
        },
        {
          "name": "_sell_price",
          "type": "uint256"
        }
      ],
      "name": "changeToSale",
      "outputs": [],
      "payable": false,
      "stateMutability": "nonpayable",
      "type": "function"
    },
    {
      "constant": false,
      "inputs": [
        {
          "name": "_publication_Id",
          "type": "uint256"
        }
      ],
      "name": "changeToAuction",
      "outputs": [],
      "payable": false,
      "stateMutability": "nonpayable",
      "type": "function"
    },
    {
      "constant": false,
      "inputs": [
        {
          "name": "_publication_Id",
          "type": "uint256"
        },
        {
          "name": "_sell_price",
          "type": "uint256"
        }
      ],
      "name": "changeSellPrice",
      "outputs": [],
      "payable": false,
      "stateMutability": "nonpayable",
      "type": "function"
    },
    {
      "constant": false,
      "inputs": [
        {
          "name": "_publication_Id",
          "type": "uint256"
        }
      ],
      "name": "changeRunningStatus",
      "outputs": [],
      "payable": false,
      "stateMutability": "nonpayable",
      "type": "function"
    },
    {
      "constant": true,
      "inputs": [
        {
          "name": "_address",
          "type": "address"
        }
      ],
      "name": "getPublications",
      "outputs": [
        {
          "name": "",
          "type": "uint256[]"
        }
      ],
      "payable": false,
      "stateMutability": "view",
      "type": "function"
    },
    {
      "constant": true,
      "inputs": [
        {
          "name": "_address",
          "type": "address"
        }
      ],
      "name": "getBids",
      "outputs": [
        {
          "name": "",
          "type": "uint256[]"
        }
      ],
      "payable": false,
      "stateMutability": "view",
      "type": "function"
    },
    {
      "constant": true,
      "inputs": [
        {
          "name": "_publication_Id",
          "type": "uint256"
        }
      ],
      "name": "getPublicationBids",
      "outputs": [
        {
          "name": "",
          "type": "uint256[]"
        }
      ],
      "payable": false,
      "stateMutability": "view",
      "type": "function"
    },
    {
      "constant": true,
      "inputs": [],
      "name": "getPublicationLength",
      "outputs": [
        {
          "name": "count",
          "type": "uint256"
        }
      ],
      "payable": false,
      "stateMutability": "view",
      "type": "function"
    },
    {
      "constant": true,
      "inputs": [
        {
          "name": "_publication_Id",
          "type": "uint256"
        }
      ],
      "name": "getPublication",
      "outputs": [
        {
          "name": "",
          "type": "uint256"
        },
        {
          "name": "",
          "type": "string"
        },
        {
          "name": "",
          "type": "uint256[]"
        },
        {
          "name": "",
          "type": "bool"
        },
        {
          "name": "",
          "type": "bool"
        },
        {
          "name": "",
          "type": "uint256"
        },
        {
          "name": "",
          "type": "uint256[]"
        },
        {
          "name": "",
          "type": "uint256[]"
        }
      ],
      "payable": false,
      "stateMutability": "view",
      "type": "function"
    }
  ],
  "bytecode": "0x60806040523480156200001157600080fd5b50604051602080620053bc833981018060405260208110156200003357600080fd5b81019080805190602001909291905050506040518060400160405280600f81526020017f556e69436f696e204c6963656e636500000000000000000000000000000000008152506040518060400160405280600481526020017f554e494300000000000000000000000000000000000000000000000000000000815250620000c86301ffc9a760e01b620002b160201b60201c565b620000e06380ac58cd60e01b620002b160201b60201c565b8160059080519060200190620000f8929190620003ba565b50806006908051906020019062000111929190620003ba565b506200012a635b5e139f60e01b620002b160201b60201c565b505060086040518060400160405280600073ffffffffffffffffffffffffffffffffffffffff168152602001604051806020016040528060008152508152509080600181540180825580915050906001820390600052602060002090600202016000909192909190915060008201518160000160006101000a81548173ffffffffffffffffffffffffffffffffffffffff021916908373ffffffffffffffffffffffffffffffffffffffff1602179055506020820151816001019080519060200190620001f992919062000441565b50505050600e6040518060600160405280600081526020016000815260200160008152509080600181540180825580915050906001820390600052602060002090600302016000909192909190915060008201518160000155602082015181600101556040820151816002015550505080601160006101000a81548173ffffffffffffffffffffffffffffffffffffffff021916908373ffffffffffffffffffffffffffffffffffffffff16021790555050620004f0565b63ffffffff60e01b817bffffffffffffffffffffffffffffffffffffffffffffffffffffffff191614156200034e576040517f08c379a000000000000000000000000000000000000000000000000000000000815260040180806020018281038252601c8152602001807f4552433136353a20696e76616c696420696e746572666163652069640000000081525060200191505060405180910390fd5b6001600080837bffffffffffffffffffffffffffffffffffffffffffffffffffffffff19167bffffffffffffffffffffffffffffffffffffffffffffffffffffffff1916815260200190815260200160002060006101000a81548160ff02191690831515021790555050565b828054600181600116156101000203166002900490600052602060002090601f016020900481019282601f10620003fd57805160ff19168380011785556200042e565b828001600101855582156200042e579182015b828111156200042d57825182559160200191906001019062000410565b5b5090506200043d9190620004c8565b5090565b828054600181600116156101000203166002900490600052602060002090601f016020900481019282601f106200048457805160ff1916838001178555620004b5565b82800160010185558215620004b5579182015b82811115620004b457825182559160200191906001019062000497565b5b509050620004c49190620004c8565b5090565b620004ed91905b80821115620004e9576000816000905550600101620004cf565b5090565b90565b614ebc80620005006000396000f3fe608060405234801561001057600080fd5b50600436106102275760003560e01c80636e3341b311610130578063a22cb465116100b8578063c87b56dd1161007c578063c87b56dd146111f6578063d628d5401461129d578063dc05d952146112e9578063e985e9c514611335578063fc86dea7146113b157610227565b8063a22cb46514610e76578063a564e83c14610ec6578063adfcdc1114611069578063b88d4fde146110a1578063bb44aee3146111a657610227565b806390420aee116100ff57806390420aee14610cc657806395d89b4114610cfe5780639703ef3514610d815780639ab7a95414610daf5780639dccae8214610ddd57610227565b80636e3341b314610b67578063704f1b9414610b9557806370a0823114610c505780637ece03bb14610ca857610227565b80632b1fd58a116101b35780634423c5f1116101825780634423c5f1146108155780635fd814a01461087a5780636352211e14610a7f5780636557e4a814610aed578063699b5fa114610b2f57610227565b80632b1fd58a1461061c578063365b98b21461064a5780633e7646041461072457806342842e0e146107a757610227565b8063095ea7b3116101fa578063095ea7b31461041b578063142af1ca14610469578063166c6c80146104b55780631fd5bbab146104e357806323b872dd146105ae57610227565b806301ffc9a71461022c57806306fdde0314610291578063081812fc146103145780630820478014610382575b600080fd5b6102776004803603602081101561024257600080fd5b8101908080357bffffffffffffffffffffffffffffffffffffffffffffffffffffffff19169060200190929190505050611409565b604051808215151515815260200191505060405180910390f35b610299611470565b6040518080602001828103825283818151815260200191508051906020019080838360005b838110156102d95780820151818401526020810190506102be565b50505050905090810190601f1680156103065780820380516001836020036101000a031916815260200191505b509250505060405180910390f35b6103406004803603602081101561032a57600080fd5b8101908080359060200190929190505050611512565b604051808273ffffffffffffffffffffffffffffffffffffffff1673ffffffffffffffffffffffffffffffffffffffff16815260200191505060405180910390f35b6103c46004803603602081101561039857600080fd5b81019080803573ffffffffffffffffffffffffffffffffffffffff1690602001909291905050506115ad565b6040518080602001828103825283818151815260200191508051906020019060200280838360005b838110156104075780820151818401526020810190506103ec565b505050509050019250505060405180910390f35b6104676004803603604081101561043157600080fd5b81019080803573ffffffffffffffffffffffffffffffffffffffff1690602001909291908035906020019092919050505061165d565b005b61049f6004803603604081101561047f57600080fd5b810190808035906020019092919080359060200190929190505050611836565b6040518082815260200191505060405180910390f35b6104e1600480360360208110156104cb57600080fd5b8101908080359060200190929190505050611864565b005b61050f600480360360208110156104f957600080fd5b81019080803590602001909291905050506119f9565b60405180868152602001806020018515151515815260200184151515158152602001838152602001828103825286818151815260200191508051906020019080838360005b8381101561056f578082015181840152602081019050610554565b50505050905090810190601f16801561059c5780820380516001836020036101000a031916815260200191505b50965050505050505060405180910390f35b61061a600480360360608110156105c457600080fd5b81019080803573ffffffffffffffffffffffffffffffffffffffff169060200190929190803573ffffffffffffffffffffffffffffffffffffffff16906020019092919080359060200190929190505050611aee565b005b6106486004803603602081101561063257600080fd5b8101908080359060200190929190505050611b5d565b005b6106766004803603602081101561066057600080fd5b8101908080359060200190929190505050611f19565b604051808373ffffffffffffffffffffffffffffffffffffffff1673ffffffffffffffffffffffffffffffffffffffff16815260200180602001828103825283818151815260200191508051906020019080838360005b838110156106e85780820151818401526020810190506106cd565b50505050905090810190601f1680156107155780820380516001836020036101000a031916815260200191505b50935050505060405180910390f35b6107506004803603602081101561073a57600080fd5b8101908080359060200190929190505050612002565b6040518080602001828103825283818151815260200191508051906020019060200280838360005b83811015610793578082015181840152602081019050610778565b505050509050019250505060405180910390f35b610813600480360360608110156107bd57600080fd5b81019080803573ffffffffffffffffffffffffffffffffffffffff169060200190929190803573ffffffffffffffffffffffffffffffffffffffff16906020019092919080359060200190929190505050612078565b005b6108416004803603602081101561082b57600080fd5b8101908080359060200190929190505050612098565b6040518085815260200184600481111561085757fe5b60ff16815260200183815260200182815260200194505050505060405180910390f35b610a7d600480360360c081101561089057600080fd5b81019080803590602001906401000000008111156108ad57600080fd5b8201836020820111156108bf57600080fd5b803590602001918460018302840111640100000000831117156108e157600080fd5b91908080601f016020809104026020016040519081016040528093929190818152602001838380828437600081840152601f19601f820116905080830192505050505050509192919290803515159060200190929190803515159060200190929190803590602001909291908035906020019064010000000081111561096657600080fd5b82018360208201111561097857600080fd5b8035906020019184602083028401116401000000008311171561099a57600080fd5b919080806020026020016040519081016040528093929190818152602001838360200280828437600081840152601f19601f820116905080830192505050505050509192919290803590602001906401000000008111156109fa57600080fd5b820183602082011115610a0c57600080fd5b80359060200191846020830284011164010000000083111715610a2e57600080fd5b919080806020026020016040519081016040528093929190818152602001838360200280828437600081840152601f19601f8201169050808301925050505050505091929192905050506120e2565b005b610aab60048036036020811015610a9557600080fd5b81019080803590602001909291905050506124a3565b604051808273ffffffffffffffffffffffffffffffffffffffff1673ffffffffffffffffffffffffffffffffffffffff16815260200191505060405180910390f35b610b1960048036036020811015610b0357600080fd5b810190808035906020019092919050505061256b565b6040518082815260200191505060405180910390f35b610b6560048036036040811015610b4557600080fd5b810190808035906020019092919080359060200190929190505050612583565b005b610b9360048036036020811015610b7d57600080fd5b8101908080359060200190929190505050612734565b005b610c4e60048036036020811015610bab57600080fd5b8101908080359060200190640100000000811115610bc857600080fd5b820183602082011115610bda57600080fd5b80359060200191846001830284011164010000000083111715610bfc57600080fd5b91908080601f016020809104026020016040519081016040528093929190818152602001838380828437600081840152601f19601f82011690508083019250505050505050919291929050505061298c565b005b610c9260048036036020811015610c6657600080fd5b81019080803573ffffffffffffffffffffffffffffffffffffffff169060200190929190505050612bc5565b6040518082815260200191505060405180910390f35b610cb0612c9a565b6040518082815260200191505060405180910390f35b610cfc60048036036040811015610cdc57600080fd5b810190808035906020019092919080359060200190929190505050612ca7565b005b610d06612e22565b6040518080602001828103825283818151815260200191508051906020019080838360005b83811015610d46578082015181840152602081019050610d2b565b50505050905090810190601f168015610d735780820380516001836020036101000a031916815260200191505b509250505060405180910390f35b610dad60048036036020811015610d9757600080fd5b8101908080359060200190929190505050612ec4565b005b610ddb60048036036020811015610dc557600080fd5b810190808035906020019092919050505061311c565b005b610e1f60048036036020811015610df357600080fd5b81019080803573ffffffffffffffffffffffffffffffffffffffff169060200190929190505050613236565b6040518080602001828103825283818151815260200191508051906020019060200280838360005b83811015610e62578082015181840152602081019050610e47565b505050509050019250505060405180910390f35b610ec460048036036040811015610e8c57600080fd5b81019080803573ffffffffffffffffffffffffffffffffffffffff1690602001909291908035151590602001909291905050506132e6565b005b610ef260048036036020811015610edc57600080fd5b8101908080359060200190929190505050613489565b6040518089815260200180602001806020018815151515815260200187151515158152602001868152602001806020018060200185810385528c818151815260200191508051906020019080838360005b83811015610f5e578082015181840152602081019050610f43565b50505050905090810190601f168015610f8b5780820380516001836020036101000a031916815260200191505b5085810384528b818151815260200191508051906020019060200280838360005b83811015610fc7578082015181840152602081019050610fac565b50505050905001858103835287818151815260200191508051906020019060200280838360005b83811015611009578082015181840152602081019050610fee565b50505050905001858103825286818151815260200191508051906020019060200280838360005b8381101561104b578082015181840152602081019050611030565b505050509050019c5050505050505050505050505060405180910390f35b61109f6004803603604081101561107f57600080fd5b81019080803590602001909291908035906020019092919050505061370b565b005b6111a4600480360360808110156110b757600080fd5b81019080803573ffffffffffffffffffffffffffffffffffffffff169060200190929190803573ffffffffffffffffffffffffffffffffffffffff169060200190929190803590602001909291908035906020019064010000000081111561111e57600080fd5b82018360208201111561113057600080fd5b8035906020019184600183028401116401000000008311171561115257600080fd5b91908080601f016020809104026020016040519081016040528093929190818152602001838380828437600081840152601f19601f820116905080830192505050505050509192919290505050613e94565b005b6111d2600480360360208110156111bc57600080fd5b8101908080359060200190929190505050613f06565b60405180848152602001838152602001828152602001935050505060405180910390f35b6112226004803603602081101561120c57600080fd5b8101908080359060200190929190505050613f3d565b6040518080602001828103825283818151815260200191508051906020019080838360005b83811015611262578082015181840152602081019050611247565b50505050905090810190601f16801561128f5780820380516001836020036101000a031916815260200191505b509250505060405180910390f35b6112d3600480360360408110156112b357600080fd5b810190808035906020019092919080359060200190929190505050614050565b6040518082815260200191505060405180910390f35b61131f600480360360408110156112ff57600080fd5b81019080803590602001909291908035906020019092919050505061407e565b6040518082815260200191505060405180910390f35b6113976004803603604081101561134b57600080fd5b81019080803573ffffffffffffffffffffffffffffffffffffffff169060200190929190803573ffffffffffffffffffffffffffffffffffffffff1690602001909291905050506140ac565b604051808215151515815260200191505060405180910390f35b6113f3600480360360208110156113c757600080fd5b81019080803573ffffffffffffffffffffffffffffffffffffffff169060200190929190505050614140565b6040518082815260200191505060405180910390f35b6000806000837bffffffffffffffffffffffffffffffffffffffffffffffffffffffff19167bffffffffffffffffffffffffffffffffffffffffffffffffffffffff1916815260200190815260200160002060009054906101000a900460ff169050919050565b606060058054600181600116156101000203166002900480601f0160208091040260200160405190810160405280929190818152602001828054600181600116156101000203166002900480156115085780601f106114dd57610100808354040283529160200191611508565b820191906000526020600020905b8154815290600101906020018083116114eb57829003601f168201915b5050505050905090565b600061151d82614158565b611572576040517f08c379a000000000000000000000000000000000000000000000000000000000815260040180806020018281038252602c815260200180614d49602c913960400191505060405180910390fd5b6002600083815260200190815260200160002060009054906101000a900473ffffffffffffffffffffffffffffffffffffffff169050919050565b60606000600960008473ffffffffffffffffffffffffffffffffffffffff1673ffffffffffffffffffffffffffffffffffffffff168152602001908152602001600020549050600d600082815260200190815260200160002080548060200260200160405190810160405280929190818152602001828054801561165057602002820191906000526020600020905b81548152602001906001019080831161163c575b5050505050915050919050565b6000611668826124a3565b90508073ffffffffffffffffffffffffffffffffffffffff168373ffffffffffffffffffffffffffffffffffffffff1614156116ef576040517f08c379a0000000000000000000000000000000000000000000000000000000008152600401808060200182810382526021815260200180614df76021913960400191505060405180910390fd5b8073ffffffffffffffffffffffffffffffffffffffff163373ffffffffffffffffffffffffffffffffffffffff16148061172f575061172e81336140ac565b5b611784576040517f08c379a0000000000000000000000000000000000000000000000000000000008152600401808060200182810382526038815260200180614cbe6038913960400191505060405180910390fd5b826002600084815260200190815260200160002060006101000a81548173ffffffffffffffffffffffffffffffffffffffff021916908373ffffffffffffffffffffffffffffffffffffffff160217905550818373ffffffffffffffffffffffffffffffffffffffff168273ffffffffffffffffffffffffffffffffffffffff167f8c5be1e5ebec7d5bd14f71427d1e84f3dd0314c0f7b2291e5b200ac8c7c3b92560405160405180910390a4505050565b600d602052816000526040600020818154811061184f57fe5b90600052602060002001600091509150505481565b600c818154811061187157fe5b906000526020600020906007020160000154600960003373ffffffffffffffffffffffffffffffffffffffff1673ffffffffffffffffffffffffffffffffffffffff1681526020019081526020016000205414611919576040517f08c379a0000000000000000000000000000000000000000000000000000000008152600401808060200182810382526027815260200180614e186027913960400191505060405180910390fd5b600c818154811061192657fe5b906000526020600020906007020160030160009054906101000a900460ff161561199b576040517f08c379a0000000000000000000000000000000000000000000000000000000008152600401808060200182810382526021815260200180614e706021913960400191505060405180910390fd5b6000600c82815481106119aa57fe5b9060005260206000209060070201600401819055506001600c82815481106119ce57fe5b906000526020600020906007020160030160006101000a81548160ff02191690831515021790555050565b600c8181548110611a0657fe5b9060005260206000209060070201600091509050806000015490806001018054600181600116156101000203166002900480601f016020809104026020016040519081016040528092919081815260200182805460018160011615610100020316600290048015611ab85780601f10611a8d57610100808354040283529160200191611ab8565b820191906000526020600020905b815481529060010190602001808311611a9b57829003601f168201915b5050505050908060030160009054906101000a900460ff16908060030160019054906101000a900460ff16908060040154905085565b611af833826141ca565b611b4d576040517f08c379a0000000000000000000000000000000000000000000000000000000008152600401808060200182810382526031815260200180614e3f6031913960400191505060405180910390fd5b611b588383836142be565b505050565b6000600a8281548110611b6c57fe5b9060005260206000209060040201600201549050600c8181548110611b8d57fe5b906000526020600020906007020160000154600960003373ffffffffffffffffffffffffffffffffffffffff1673ffffffffffffffffffffffffffffffffffffffff1681526020019081526020016000205414611c35576040517f08c379a0000000000000000000000000000000000000000000000000000000008152600401808060200182810382526027815260200180614e186027913960400191505060405180910390fd5b600c8181548110611c4257fe5b906000526020600020906007020160030160009054906101000a900460ff16611cd3576040517f08c379a000000000000000000000000000000000000000000000000000000000815260040180806020018281038252601b8152602001807f5075626c69636174696f6e206e6f7420616e2061756374696f6e2e000000000081525060200191505060405180910390fd5b600c8181548110611ce057fe5b906000526020600020906007020160030160019054906101000a900460ff16611d71576040517f08c379a00000000000000000000000000000000000000000000000000000000081526004018080602001828103825260178152602001807f41756374696f6e206973206e6f742072756e6e696e672e00000000000000000081525060200191505060405180910390fd5b6001600a8381548110611d8057fe5b906000526020600020906004020160010160006101000a81548160ff02191690836004811115611dac57fe5b02179055506000600e6040518060600160405280600a8681548110611dcd57fe5b906000526020600020906004020160030154815260200184815260200185815250908060018154018082558091505090600182039060005260206000209060030201600090919290919091506000820151816000015560208201518160010155604082015181600201555050905080600f6000600a8681548110611e4d57fe5b90600052602060002090600402016003015481526020019081526020016000208190555060106000838152602001908152602001600020819080600181540180825580915050906001820390600052602060002001600090919290919091505550611f146008600a8581548110611ec057fe5b90600052602060002090600402016003015481548110611edc57fe5b906000526020600020906002020160000160009054906101000a900473ffffffffffffffffffffffffffffffffffffffff1682614519565b505050565b60088181548110611f2657fe5b90600052602060002090600202016000915090508060000160009054906101000a900473ffffffffffffffffffffffffffffffffffffffff1690806001018054600181600116156101000203166002900480601f016020809104026020016040519081016040528092919081815260200182805460018160011615610100020316600290048015611ff85780601f10611fcd57610100808354040283529160200191611ff8565b820191906000526020600020905b815481529060010190602001808311611fdb57829003601f168201915b5050505050905082565b6060600c828154811061201157fe5b906000526020600020906007020160020180548060200260200160405190810160405280929190818152602001828054801561206c57602002820191906000526020600020905b815481526020019060010190808311612058575b50505050509050919050565b61209383838360405180602001604052806000815250613e94565b505050565b600a81815481106120a557fe5b90600052602060002090600402016000915090508060000154908060010160009054906101000a900460ff16908060020154908060030154905084565b600086511161213c576040517f08c379a0000000000000000000000000000000000000000000000000000000008152600401808060200182810382526024815260200180614bf76024913960400191505060405180910390fd5b6000600960003373ffffffffffffffffffffffffffffffffffffffff1673ffffffffffffffffffffffffffffffffffffffff1681526020019081526020016000205414156121f2576040517f08c379a000000000000000000000000000000000000000000000000000000000815260040180806020018281038252601f8152602001807f557365722061646472657373206973206e6f7420726567697374657265642e0081525060200191505060405180910390fd5b84156122565760008314612251576040517f08c379a000000000000000000000000000000000000000000000000000000000815260040180806020018281038252602a815260200180614dcd602a913960400191505060405180910390fd5b6122cd565b600083116122cc576040517f08c379a00000000000000000000000000000000000000000000000000000000081526004018080602001828103825260198152602001807f53656c6c207072696365206e6f74207370656369666965642e0000000000000081525060200191505060405180910390fd5b5b6000600960003373ffffffffffffffffffffffffffffffffffffffff1673ffffffffffffffffffffffffffffffffffffffff168152602001908152602001600020549050606061231b614abb565b6040518061010001604052808481526020018a8152602001838152602001891515815260200188151581526020018781526020018681526020018581525090506000600c82908060018154018082558091505090600182039060005260206000209060070201600090919290919091506000820151816000015560208201518160010190805190602001906123b1929190614b04565b5060408201518160020190805190602001906123ce929190614b84565b5060608201518160030160006101000a81548160ff02191690831515021790555060808201518160030160016101000a81548160ff02191690831515021790555060a0820151816004015560c0820151816005019080519060200190612435929190614b84565b5060e0820151816006019080519060200190612452929190614b84565b5050509050600d600085815260200190815260200160002060018203908060018154018082558091505090600182039060005260206000200160009091929091909150555050505050505050505050565b6000806001600084815260200190815260200160002060009054906101000a900473ffffffffffffffffffffffffffffffffffffffff169050600073ffffffffffffffffffffffffffffffffffffffff168173ffffffffffffffffffffffffffffffffffffffff161415612562576040517f08c379a0000000000000000000000000000000000000000000000000000000008152600401808060200182810382526029815260200180614d206029913960400191505060405180910390fd5b80915050919050565b600f6020528060005260406000206000915090505481565b600c828154811061259057fe5b906000526020600020906007020160000154600960003373ffffffffffffffffffffffffffffffffffffffff1673ffffffffffffffffffffffffffffffffffffffff1681526020019081526020016000205414612638576040517f08c379a0000000000000000000000000000000000000000000000000000000008152600401808060200182810382526027815260200180614e186027913960400191505060405180910390fd5b600c828154811061264557fe5b906000526020600020906007020160030160009054906101000a900460ff166126d6576040517f08c379a000000000000000000000000000000000000000000000000000000000815260040180806020018281038252601d8152602001807f5075626c69636174696f6e206973206e6f7420616e2061756374696f6e00000081525060200191505060405180910390fd5b80600c83815481106126e457fe5b9060005260206000209060070201600401819055506000600c838154811061270857fe5b906000526020600020906007020160030160006101000a81548160ff0219169083151502179055505050565b6000600a828154811061274357fe5b9060005260206000209060040201600201549050600c818154811061276457fe5b906000526020600020906007020160000154600960003373ffffffffffffffffffffffffffffffffffffffff1673ffffffffffffffffffffffffffffffffffffffff168152602001908152602001600020541461280c576040517f08c379a0000000000000000000000000000000000000000000000000000000008152600401808060200182810382526027815260200180614e186027913960400191505060405180910390fd5b600c818154811061281957fe5b906000526020600020906007020160030160009054906101000a900460ff166128aa576040517f08c379a000000000000000000000000000000000000000000000000000000000815260040180806020018281038252601b8152602001807f5075626c69636174696f6e206e6f7420616e2061756374696f6e2e000000000081525060200191505060405180910390fd5b600c81815481106128b757fe5b906000526020600020906007020160030160019054906101000a900460ff16612948576040517f08c379a00000000000000000000000000000000000000000000000000000000081526004018080602001828103825260148152602001807f41756374696f6e206e6f742072756e6e696e672e00000000000000000000000081525060200191505060405180910390fd5b6002600a838154811061295757fe5b906000526020600020906004020160010160006101000a81548160ff0219169083600481111561298357fe5b02179055505050565b6000815111612a03576040517f08c379a00000000000000000000000000000000000000000000000000000000081526004018080602001828103825260208152602001807f50726f66696c65205552492073686f756c64206e6f7420626520656d7074792e81525060200191505060405180910390fd5b6000600960003373ffffffffffffffffffffffffffffffffffffffff1673ffffffffffffffffffffffffffffffffffffffff1681526020019081526020016000205414612ab8576040517f08c379a00000000000000000000000000000000000000000000000000000000081526004018080602001828103825260188152602001807f5573657220616c726561647920726567697374657265642e000000000000000081525060200191505060405180910390fd5b6000600860405180604001604052803373ffffffffffffffffffffffffffffffffffffffff168152602001848152509080600181540180825580915050906001820390600052602060002090600202016000909192909190915060008201518160000160006101000a81548173ffffffffffffffffffffffffffffffffffffffff021916908373ffffffffffffffffffffffffffffffffffffffff1602179055506020820151816001019080519060200190612b75929190614b04565b505050905060018103600960003373ffffffffffffffffffffffffffffffffffffffff1673ffffffffffffffffffffffffffffffffffffffff168152602001908152602001600020819055505050565b60008073ffffffffffffffffffffffffffffffffffffffff168273ffffffffffffffffffffffffffffffffffffffff161415612c4c576040517f08c379a000000000000000000000000000000000000000000000000000000000815260040180806020018281038252602a815260200180614cf6602a913960400191505060405180910390fd5b612c93600360008473ffffffffffffffffffffffffffffffffffffffff1673ffffffffffffffffffffffffffffffffffffffff168152602001908152602001600020614731565b9050919050565b6000600c80549050905090565b600c8281548110612cb457fe5b906000526020600020906007020160000154600960003373ffffffffffffffffffffffffffffffffffffffff1673ffffffffffffffffffffffffffffffffffffffff1681526020019081526020016000205414612d5c576040517f08c379a0000000000000000000000000000000000000000000000000000000008152600401808060200182810382526027815260200180614e186027913960400191505060405180910390fd5b600c8281548110612d6957fe5b906000526020600020906007020160030160009054906101000a900460ff1615612dfb576040517f08c379a000000000000000000000000000000000000000000000000000000000815260040180806020018281038252601a8152602001807f5075626c69636174696f6e206973206f6e2061756374696f6e2e00000000000081525060200191505060405180910390fd5b80600c8381548110612e0957fe5b9060005260206000209060070201600401819055505050565b606060068054600181600116156101000203166002900480601f016020809104026020016040519081016040528092919081815260200182805460018160011615610100020316600290048015612eba5780601f10612e8f57610100808354040283529160200191612eba565b820191906000526020600020905b815481529060010190602001808311612e9d57829003601f168201915b5050505050905090565b6000600a8281548110612ed357fe5b9060005260206000209060040201600201549050600c8181548110612ef457fe5b906000526020600020906007020160000154600960003373ffffffffffffffffffffffffffffffffffffffff1673ffffffffffffffffffffffffffffffffffffffff1681526020019081526020016000205414612f9c576040517f08c379a0000000000000000000000000000000000000000000000000000000008152600401808060200182810382526027815260200180614e186027913960400191505060405180910390fd5b600c8181548110612fa957fe5b906000526020600020906007020160030160009054906101000a900460ff1661303a576040517f08c379a000000000000000000000000000000000000000000000000000000000815260040180806020018281038252601b8152602001807f5075626c69636174696f6e206e6f7420616e2061756374696f6e2e000000000081525060200191505060405180910390fd5b600c818154811061304757fe5b906000526020600020906007020160030160019054906101000a900460ff166130d8576040517f08c379a00000000000000000000000000000000000000000000000000000000081526004018080602001828103825260148152602001807f41756374696f6e206e6f742072756e6e696e672e00000000000000000000000081525060200191505060405180910390fd5b6004600a83815481106130e757fe5b906000526020600020906004020160010160006101000a81548160ff0219169083600481111561311357fe5b02179055505050565b600c818154811061312957fe5b906000526020600020906007020160000154600960003373ffffffffffffffffffffffffffffffffffffffff1673ffffffffffffffffffffffffffffffffffffffff16815260200190815260200160002054146131d1576040517f08c379a0000000000000000000000000000000000000000000000000000000008152600401808060200182810382526027815260200180614e186027913960400191505060405180910390fd5b600c81815481106131de57fe5b906000526020600020906007020160030160019054906101000a900460ff1615600c828154811061320b57fe5b906000526020600020906007020160030160016101000a81548160ff02191690831515021790555050565b60606000600960008473ffffffffffffffffffffffffffffffffffffffff1673ffffffffffffffffffffffffffffffffffffffff168152602001908152602001600020549050600b60008281526020019081526020016000208054806020026020016040519081016040528092919081815260200182805480156132d957602002820191906000526020600020905b8154815260200190600101908083116132c5575b5050505050915050919050565b3373ffffffffffffffffffffffffffffffffffffffff168273ffffffffffffffffffffffffffffffffffffffff161415613388576040517f08c379a00000000000000000000000000000000000000000000000000000000081526004018080602001828103825260198152602001807f4552433732313a20617070726f766520746f2063616c6c65720000000000000081525060200191505060405180910390fd5b80600460003373ffffffffffffffffffffffffffffffffffffffff1673ffffffffffffffffffffffffffffffffffffffff16815260200190815260200160002060008473ffffffffffffffffffffffffffffffffffffffff1673ffffffffffffffffffffffffffffffffffffffff16815260200190815260200160002060006101000a81548160ff0219169083151502179055508173ffffffffffffffffffffffffffffffffffffffff163373ffffffffffffffffffffffffffffffffffffffff167f17307eab39ab6107e8899845ad3d59bd9653f200f220920489ca2b5937696c3183604051808215151515815260200191505060405180910390a35050565b6000606080600080600060608061349e614abb565b600c8a815481106134ab57fe5b90600052602060002090600702016040518061010001604052908160008201548152602001600182018054600181600116156101000203166002900480601f0160208091040260200160405190810160405280929190818152602001828054600181600116156101000203166002900480156135685780601f1061353d57610100808354040283529160200191613568565b820191906000526020600020905b81548152906001019060200180831161354b57829003601f168201915b50505050508152602001600282018054806020026020016040519081016040528092919081815260200182805480156135c057602002820191906000526020600020905b8154815260200190600101908083116135ac575b505050505081526020016003820160009054906101000a900460ff161515151581526020016003820160019054906101000a900460ff16151515158152602001600482015481526020016005820180548060200260200160405190810160405280929190818152602001828054801561365857602002820191906000526020600020905b815481526020019060010190808311613644575b50505050508152602001600682018054806020026020016040519081016040528092919081815260200182805480156136b057602002820191906000526020600020905b81548152602001906001019080831161369c575b5050505050815250509050806000015181602001518260400151836060015184608001518560a001518660c001518760e001518696508595508191508090509850985098509850985098509850985050919395975091939597565b6000600c828154811061371a57fe5b90600052602060002090600702016000015414156137a0576040517f08c379a00000000000000000000000000000000000000000000000000000000081526004018080602001828103825260198152602001807f5075626c69636174696f6e206e6f7420656e6c69737465642e0000000000000081525060200191505060405180910390fd5b6000600960003373ffffffffffffffffffffffffffffffffffffffff1673ffffffffffffffffffffffffffffffffffffffff168152602001908152602001600020541415613839576040517f08c379a0000000000000000000000000000000000000000000000000000000008152600401808060200182810382526021815260200180614c4d6021913960400191505060405180910390fd5b600c818154811061384657fe5b906000526020600020906007020160030160009054906101000a900460ff1615613aba57600c818154811061387757fe5b906000526020600020906007020160030160019054906101000a900460ff16613908576040517f08c379a00000000000000000000000000000000000000000000000000000000081526004018080602001828103825260178152602001807f41756374696f6e206973206e6f742072756e6e696e672e00000000000000000081525060200191505060405180910390fd5b6000600a60405180608001604052808581526020016000600481111561392a57fe5b8152602001848152602001600960003373ffffffffffffffffffffffffffffffffffffffff1673ffffffffffffffffffffffffffffffffffffffff16815260200190815260200160002054815250908060018154018082558091505090600182039060005260206000209060040201600090919290919091506000820151816000015560208201518160010160006101000a81548160ff021916908360048111156139d157fe5b0217905550604082015181600201556060820151816003015550509050600c82815481106139fb57fe5b9060005260206000209060070201600201600182039080600181540180825580915050906001820390600052602060002001600090919290919091505550600b6000600960003373ffffffffffffffffffffffffffffffffffffffff1673ffffffffffffffffffffffffffffffffffffffff168152602001908152602001600020548152602001908152602001600020600182039080600181540180825580915050906001820390600052602060002001600090919290919091505550505b600c8181548110613ac757fe5b906000526020600020906007020160030160009054906101000a900460ff16613e9057600c8181548110613af757fe5b9060005260206000209060070201600401548214613b7d576040517f08c379a00000000000000000000000000000000000000000000000000000000081526004018080602001828103825260158152602001807f496e636f72726563742066756e64732073656e742e000000000000000000000081525060200191505060405180910390fd5b60006001600a604051806080016040528086815260200160036004811115613ba157fe5b8152602001858152602001600960003373ffffffffffffffffffffffffffffffffffffffff1673ffffffffffffffffffffffffffffffffffffffff16815260200190815260200160002054815250908060018154018082558091505090600182039060005260206000209060040201600090919290919091506000820151816000015560208201518160010160006101000a81548160ff02191690836004811115613c4857fe5b021790555060408201518160020155606082015181600301555050039050600c8281548110613c7357fe5b9060005260206000209060070201600201819080600181540180825580915050906001820390600052602060002001600090919290919091505550600b6000600960003373ffffffffffffffffffffffffffffffffffffffff1673ffffffffffffffffffffffffffffffffffffffff1681526020019081526020016000205481526020019081526020016000208190806001815401808255809150509060018203906000526020600020016000909192909190915055506000600e6040518060600160405280600a8581548110613d4657fe5b906000526020600020906004020160030154815260200185815260200184815250908060018154018082558091505090600182039060005260206000209060030201600090919290919091506000820151816000015560208201518160010155604082015181600201555050905080600f6000600a8581548110613dc657fe5b90600052602060002090600402016003015481526020019081526020016000208190555060106000848152602001908152602001600020819080600181540180825580915050906001820390600052602060002001600090919290919091505550613e8d6008600a8481548110613e3957fe5b90600052602060002090600402016003015481548110613e5557fe5b906000526020600020906002020160000160009054906101000a900473ffffffffffffffffffffffffffffffffffffffff1682614519565b50505b5050565b613e9f848484611aee565b613eab8484848461473f565b613f00576040517f08c379a0000000000000000000000000000000000000000000000000000000008152600401808060200182810382526032815260200180614c1b6032913960400191505060405180910390fd5b50505050565b600e8181548110613f1357fe5b90600052602060002090600302016000915090508060000154908060010154908060020154905083565b6060613f4882614158565b613f9d576040517f08c379a000000000000000000000000000000000000000000000000000000000815260040180806020018281038252602f815260200180614d9e602f913960400191505060405180910390fd5b600760008381526020019081526020016000208054600181600116156101000203166002900480601f0160208091040260200160405190810160405280929190818152602001828054600181600116156101000203166002900480156140445780601f1061401957610100808354040283529160200191614044565b820191906000526020600020905b81548152906001019060200180831161402757829003601f168201915b50505050509050919050565b6010602052816000526040600020818154811061406957fe5b90600052602060002001600091509150505481565b600b602052816000526040600020818154811061409757fe5b90600052602060002001600091509150505481565b6000600460008473ffffffffffffffffffffffffffffffffffffffff1673ffffffffffffffffffffffffffffffffffffffff16815260200190815260200160002060008373ffffffffffffffffffffffffffffffffffffffff1673ffffffffffffffffffffffffffffffffffffffff16815260200190815260200160002060009054906101000a900460ff16905092915050565b60096020528060005260406000206000915090505481565b6000806001600084815260200190815260200160002060009054906101000a900473ffffffffffffffffffffffffffffffffffffffff169050600073ffffffffffffffffffffffffffffffffffffffff168173ffffffffffffffffffffffffffffffffffffffff161415915050919050565b60006141d582614158565b61422a576040517f08c379a000000000000000000000000000000000000000000000000000000000815260040180806020018281038252602c815260200180614c92602c913960400191505060405180910390fd5b6000614235836124a3565b90508073ffffffffffffffffffffffffffffffffffffffff168473ffffffffffffffffffffffffffffffffffffffff1614806142a457508373ffffffffffffffffffffffffffffffffffffffff1661428c84611512565b73ffffffffffffffffffffffffffffffffffffffff16145b806142b557506142b481856140ac565b5b91505092915050565b8273ffffffffffffffffffffffffffffffffffffffff166142de826124a3565b73ffffffffffffffffffffffffffffffffffffffff161461434a576040517f08c379a0000000000000000000000000000000000000000000000000000000008152600401808060200182810382526029815260200180614d756029913960400191505060405180910390fd5b600073ffffffffffffffffffffffffffffffffffffffff168273ffffffffffffffffffffffffffffffffffffffff1614156143d0576040517f08c379a0000000000000000000000000000000000000000000000000000000008152600401808060200182810382526024815260200180614c6e6024913960400191505060405180910390fd5b6143d981614928565b614420600360008573ffffffffffffffffffffffffffffffffffffffff1673ffffffffffffffffffffffffffffffffffffffff1681526020019081526020016000206149e6565b614467600360008473ffffffffffffffffffffffffffffffffffffffff1673ffffffffffffffffffffffffffffffffffffffff168152602001908152602001600020614a09565b816001600083815260200190815260200160002060006101000a81548173ffffffffffffffffffffffffffffffffffffffff021916908373ffffffffffffffffffffffffffffffffffffffff160217905550808273ffffffffffffffffffffffffffffffffffffffff168473ffffffffffffffffffffffffffffffffffffffff167fddf252ad1be2c89b69c2b068fc378daa952ba7f163c4a11628f55a4df523b3ef60405160405180910390a4505050565b600073ffffffffffffffffffffffffffffffffffffffff168273ffffffffffffffffffffffffffffffffffffffff1614156145bc576040517f08c379a00000000000000000000000000000000000000000000000000000000081526004018080602001828103825260208152602001807f4552433732313a206d696e7420746f20746865207a65726f206164647265737381525060200191505060405180910390fd5b6145c581614158565b15614638576040517f08c379a000000000000000000000000000000000000000000000000000000000815260040180806020018281038252601c8152602001807f4552433732313a20746f6b656e20616c7265616479206d696e7465640000000081525060200191505060405180910390fd5b816001600083815260200190815260200160002060006101000a81548173ffffffffffffffffffffffffffffffffffffffff021916908373ffffffffffffffffffffffffffffffffffffffff1602179055506146d1600360008473ffffffffffffffffffffffffffffffffffffffff1673ffffffffffffffffffffffffffffffffffffffff168152602001908152602001600020614a09565b808273ffffffffffffffffffffffffffffffffffffffff16600073ffffffffffffffffffffffffffffffffffffffff167fddf252ad1be2c89b69c2b068fc378daa952ba7f163c4a11628f55a4df523b3ef60405160405180910390a45050565b600081600001549050919050565b60006147608473ffffffffffffffffffffffffffffffffffffffff16614a1f565b61476d5760019050614920565b60008473ffffffffffffffffffffffffffffffffffffffff1663150b7a02338887876040518563ffffffff1660e01b8152600401808573ffffffffffffffffffffffffffffffffffffffff1673ffffffffffffffffffffffffffffffffffffffff1681526020018473ffffffffffffffffffffffffffffffffffffffff1673ffffffffffffffffffffffffffffffffffffffff16815260200183815260200180602001828103825283818151815260200191508051906020019080838360005b8381101561484857808201518184015260208101905061482d565b50505050905090810190601f1680156148755780820380516001836020036101000a031916815260200191505b5095505050505050602060405180830381600087803b15801561489757600080fd5b505af11580156148ab573d6000803e3d6000fd5b505050506040513d60208110156148c157600080fd5b8101908080519060200190929190505050905063150b7a0260e01b7bffffffffffffffffffffffffffffffffffffffffffffffffffffffff1916817bffffffffffffffffffffffffffffffffffffffffffffffffffffffff1916149150505b949350505050565b600073ffffffffffffffffffffffffffffffffffffffff166002600083815260200190815260200160002060009054906101000a900473ffffffffffffffffffffffffffffffffffffffff1673ffffffffffffffffffffffffffffffffffffffff16146149e35760006002600083815260200190815260200160002060006101000a81548173ffffffffffffffffffffffffffffffffffffffff021916908373ffffffffffffffffffffffffffffffffffffffff1602179055505b50565b6149fe60018260000154614a3290919063ffffffff16565b816000018190555050565b6001816000016000828254019250508190555050565b600080823b905060008111915050919050565b600082821115614aaa576040517f08c379a000000000000000000000000000000000000000000000000000000000815260040180806020018281038252601e8152602001807f536166654d6174683a207375627472616374696f6e206f766572666c6f77000081525060200191505060405180910390fd5b600082840390508091505092915050565b6040518061010001604052806000815260200160608152602001606081526020016000151581526020016000151581526020016000815260200160608152602001606081525090565b828054600181600116156101000203166002900490600052602060002090601f016020900481019282601f10614b4557805160ff1916838001178555614b73565b82800160010185558215614b73579182015b82811115614b72578251825591602001919060010190614b57565b5b509050614b809190614bd1565b5090565b828054828255906000526020600020908101928215614bc0579160200282015b82811115614bbf578251825591602001919060010190614ba4565b5b509050614bcd9190614bd1565b5090565b614bf391905b80821115614bef576000816000905550600101614bd7565b5090565b9056fe5075626c69636174696f6e205552492073686f756c64206e6f7420626520656d7074792e4552433732313a207472616e7366657220746f206e6f6e20455243373231526563656976657220696d706c656d656e7465724269646465722061646472657373206973206e6f7420726567697374657265642e4552433732313a207472616e7366657220746f20746865207a65726f20616464726573734552433732313a206f70657261746f7220717565727920666f72206e6f6e6578697374656e7420746f6b656e4552433732313a20617070726f76652063616c6c6572206973206e6f74206f776e6572206e6f7220617070726f76656420666f7220616c6c4552433732313a2062616c616e636520717565727920666f7220746865207a65726f20616464726573734552433732313a206f776e657220717565727920666f72206e6f6e6578697374656e7420746f6b656e4552433732313a20617070726f76656420717565727920666f72206e6f6e6578697374656e7420746f6b656e4552433732313a207472616e73666572206f6620746f6b656e2074686174206973206e6f74206f776e4552433732314d657461646174613a2055524920717565727920666f72206e6f6e6578697374656e7420746f6b656e53686f756c64206e6f7420737065636966792073656c6c20707269636520666f722061756374696f6e2e4552433732313a20617070726f76616c20746f2063757272656e74206f776e657255736572206e6f742074686520617574686f72206f662074686973207075626c69636174696f6e4552433732313a207472616e736665722063616c6c6572206973206e6f74206f776e6572206e6f7220617070726f7665645075626c69636174696f6e20697320616c7265616479206f6e2061756374696f6ea165627a7a7230582069e6c815d6053a8102646f18057b7a080509db3e276c0105fc1200ee783275100029",
  "source": "pragma solidity^0.5.0;\n\n/// @title UniCoin smart contract\n/// @author Chris Maree, Helda Mandlate, Luke Meiklejohn \n\n/// @dev import contracts from openzeppelin related to ownable and ERC20, ERC721 tokens\nimport \"openzeppelin-solidity/contracts/ownership/Ownable.sol\";\nimport \"openzeppelin-solidity/contracts/token/ERC20/ERC20.sol\";\nimport \"openzeppelin-solidity/contracts/token/ERC721/ERC721Metadata.sol\";\n\n/// @notice contract begins here\ncontract UnicoinRegistry is ERC721Metadata {\n    /// @notice Creates a struct for users of the plaform, needs their Ethereum address and profile URL\n    struct User {\n        address owned_address;\n        string profile_uri;\n    }\n    /// @notice Creates an array of users that a registered\n    User[] public users;\n\n    /// @notice The mapping below maps all users' addresses to their userID\n    mapping (address => uint256) public userAddresses ;\n\n    /// @notice Creates user defined type\n    enum bidStatus {Pending, Accepted, Rejected, Sale, Cancelled}\n\n    /// @notice Creates a struct for all bids, takes in the offer (amount of the bid), one of the enum parameters, publication Id and owner Id\n    struct Bid {\n        uint256 offer;\n        bidStatus status;\n        uint256 publication_Id;\n        uint256 owner_Id; /// @dev owner of the bid\n    }\n    /// @notice Creates an array of bids that have been placed\n    Bid[] public bids;\n\n    /// @notice The mapping below maps all bidders' IDs to their userID\n    mapping(uint256 => uint256[]) public bidOwners;\n\n    /// @notice Creates a struct for all publications\n    /// @param author_Id The array below will contain all bids received for that work\n    /// @param publication_uri If the researcher has chosen the auction pricing structure, the below is TRUE.\n    /// @param publication_bids If the auction is still running, the below is TRUE, because the researcher can choose to stop the auction at any point.\n    /// @param isAuction If both of the booleans above are FALSE, the price below is the flat sale price of the work.\n    /// @param isRunning The value of the publication\n    /// @param sell_price The co-authors/ contributors of the publication\n    /// @param contributors_weightings The contributor's respective weighting contributions\n    struct Publication {\n        uint256 author_Id;\n        string publication_uri;\n        uint256[] publication_bids;\n        bool isAuction;\n        bool isRunning;\n        uint256 sell_price;\n        uint256[] contributors;\n        uint256[] contributors_weightings;\n    }\n    /// @notice Creates an array of publications for every published document\n    Publication[] public publications;\n    \n    /// @notice The mapping below will map the addresses of all the successful bidders' addresses to the ID of their owned publications\n    mapping(uint256 => uint256[]) public publicationOwners;\n    \n    /// @notice Creates a struct for licencing\n    /// @param buyer_Id of each publication's buyer\n    /// @param publication_Id of the publication being bought\n    /// @param bid_Id The bid's Id for the publication    \n    struct LicenceDesign {\n        uint256 buyer_Id;\n        uint256 Publication_Id;\n        uint256 bid_Id;\n    }\n    /// @notice Creates an array of purchased licences\n    LicenceDesign[] public licences;\n    /// @notice Mapping of licence Id to get the licence owners\n    mapping(uint256 => uint256) public licenceOwners;\n    /// @notice Mapping of licence Id to get the publication Id\n    mapping(uint256 => uint256[]) public publicationLicences;\n\n    /// @dev ERC20 is now daiContract\n    ERC20 daiContract;\n    /// @dev The constructor below reserves user 0 for all unregistered users\n    /// @param _daiContractAddress DAI contract address\n    constructor(address _daiContractAddress) public ERC721Metadata(\"UniCoin Licence\", \"UNIC\"){\n        users.push(User(address(0), \"\"));\n        licences.push(LicenceDesign(0, 0, 0));\n\n        daiContract = ERC20(_daiContractAddress);\n    }\n\n    /// @notice This function registers a user on the platform by taking in their profile URL\n    /// @param _profile_uri user profile url\n    /// @dev If the user's address is in position 0 of the userAddresses array, they are unregistered\n    /// @dev Create an instance of the user and add the Id to their address\n    function registerUser(string memory _profile_uri) public {\n        require(bytes(_profile_uri).length > 0, \"Profile URI should not be empty.\");\n        require(userAddresses[msg.sender]==0,\"User already registered.\");\n        uint256 id = users.push(User(msg.sender,_profile_uri));\n        userAddresses[msg.sender] = id - 1;\n    }\n\n    /// @notice This function creates a publication on the system, with blank arrays for publication bids and owners,\n    /// @notice since no one has bidded for or bought a licence yet\n    /// @dev The researcher only specifies the flat rate if they have chosen not to auction the work\n    /// @dev Add instance to the respective arrays\n    function createPublication(\n        string memory _publication_uri,\n        bool _isAuction,\n        bool _isRunning,\n        uint256 _sell_price,\n        uint256[] memory _contributors,\n        uint256[] memory _contributors_weightings) public {\n        require(bytes(_publication_uri).length > 0, \"Publication URI should not be empty.\");\n        require(userAddresses[msg.sender] != 0, \"User address is not registered.\");\n        if(_isAuction) {\n            require(_sell_price == 0, \"Should not specify sell price for auction.\");\n        }\n        else {\n            require(_sell_price > 0, \"Sell price not specified.\");\n        }\n        uint256 _author_Id = userAddresses[msg.sender];\n        uint256[] memory _publication_bids;\n        Publication memory _publication = Publication(\n            _author_Id,\n            _publication_uri,\n            _publication_bids,\n            _isAuction,\n            _isRunning,\n            _sell_price,\n            _contributors,\n            _contributors_weightings);\n        uint256 _id = publications.push(_publication);\n        publicationOwners[_author_Id].push(_id - 1);\n    }\n\n    /// @notice This function creates a new bid for a particular publication\n    /// @param _offer for the research\n    /// @param _publication_Id is the index for the publication Id\n    /// @dev The bidder should only be able to submit a bid if the publication's pricing structure is an auction and the auction is running\n    /// @dev By default the bid will have a status of Pending until it is accepted or rejected by the author\n    /// @dev If the author has specified a flat rate, the buyer doesn't submit a bid but just sends the funds.\n    /// @dev The funds sent should match the sale price specified by the author.\n    /// @dev This 'bid' has a status of sale because the author does not need to evaluate and accept/reject these bids.\n    /// @dev Transfer Dai from buyer to seller\n    /// @dev parameters of licence design: buyer_id, publication id, bid_id\n    function makeBid(uint256 _offer, uint256 _publication_Id) public {\n        require(publications[_publication_Id].author_Id != 0, \"Publication not enlisted.\");\n        require(userAddresses[msg.sender] != 0, \"Bidder address is not registered.\");\n        if(publications[_publication_Id].isAuction) {\n            require(publications[_publication_Id].isRunning, \"Auction is not running.\");\n            uint256 _id = bids.push(Bid(_offer, bidStatus.Pending, _publication_Id, userAddresses[msg.sender]));\n            publications[_publication_Id].publication_bids.push(_id - 1);\n            bidOwners[userAddresses[msg.sender]].push(_id - 1);\n        }\n        if(!publications[_publication_Id].isAuction) {\n            require(_offer == publications[_publication_Id].sell_price, \"Incorrect funds sent.\");\n            uint256 _id = bids.push(Bid(_offer, bidStatus.Sale, _publication_Id, userAddresses[msg.sender])) - 1;\n            publications[_publication_Id].publication_bids.push(_id);\n            bidOwners[userAddresses[msg.sender]].push(_id);\n\n            // require(daiContract.allowance(msg.sender, address(this)) >= _offer, \"Insufficient fund allowance\");\n            // address publisherAddress = users[publications[_publication_Id].author_Id].owned_address;\n            // daiContract.transferFrom(msg.sender, publisherAddress, _offer);\n\n            uint256 _licence_Id = licences.push(LicenceDesign(bids[_id].owner_Id, _publication_Id, _id));\n            licenceOwners[bids[_id].owner_Id] = _licence_Id;\n            publicationLicences[_publication_Id].push(_licence_Id);\n            _mint(users[bids[_id].owner_Id].owned_address, _licence_Id);\n        }\n    }\n        \n    /// @notice This function allows the auctioneer to accept the bids\n    /// @dev parameters of licence design: buyer_id, publication id, bid_id\n    /// @notice This function allows the auctioneer to reject the bids\n    /// @param _id is the bid Id\n    function acceptBid(uint256 _id) public {\n        uint256 _publication_Id = bids[_id].publication_Id;\n        require(userAddresses[msg.sender] == publications[_publication_Id].author_Id, \"User not the author of this publication\");\n        require(publications[_publication_Id].isAuction, \"Publication not an auction.\");\n        require(publications[_publication_Id].isRunning, \"Auction is not running.\");\n        bids[_id].status = bidStatus.Accepted;\n        \n        uint256 _licence_Id = licences.push(LicenceDesign(bids[_id].owner_Id, _publication_Id, _id));\n        licenceOwners[bids[_id].owner_Id] = _licence_Id;\n        publicationLicences[_publication_Id].push(_licence_Id);\n        _mint(users[bids[_id].owner_Id].owned_address, _licence_Id);\n    }\n\n    /// @notice This function allows the auctioneer to reject the bids\n    /// @param _id is the bid Id\n    function rejectBid(uint256 _id) public {\n        uint256 _publication_Id = bids[_id].publication_Id;\n        require(userAddresses[msg.sender] == publications[_publication_Id].author_Id, \"User not the author of this publication\");\n        require(publications[_publication_Id].isAuction, \"Publication not an auction.\");\n        require(publications[_publication_Id].isRunning, \"Auction not running.\");\n        bids[_id].status = bidStatus.Rejected;\n    }\n\n    /// @notice This function allows the auctioneer to cancel the bids\n    /// @param _id is the bid Id\n    function cancelBid(uint256 _id) public {\n        uint256 _publication_Id = bids[_id].publication_Id;\n        require(userAddresses[msg.sender] == publications[_publication_Id].author_Id, \"User not the author of this publication\");\n        require(publications[_publication_Id].isAuction, \"Publication not an auction.\");\n        require(publications[_publication_Id].isRunning, \"Auction not running.\");\n        bids[_id].status = bidStatus.Cancelled;\n    }\n    \n    /// @notice This function allows the auctioneer to change from an auction to a sale\n    /// @param _publication_Id publication id number\n    /// @param _sell_price for the research\n    function changeToSale(uint256 _publication_Id, uint256 _sell_price) public {\n        require(userAddresses[msg.sender] == publications[_publication_Id].author_Id, \"User not the author of this publication\");\n        require(publications[_publication_Id].isAuction, \"Publication is not an auction\");\n        publications[_publication_Id].sell_price = _sell_price;\n        publications[_publication_Id].isAuction = false;\n    }\n\n    /// @notice This function allows the auctioneer to change from a sale to an auction\n    /// @param _publication_Id publication id number\n    function changeToAuction(uint256 _publication_Id) public {\n        require(userAddresses[msg.sender] == publications[_publication_Id].author_Id, \"User not the author of this publication\");\n        require(!publications[_publication_Id].isAuction, \"Publication is already on auction\");\n        publications[_publication_Id].sell_price = 0;\n        publications[_publication_Id].isAuction = true;\n    }\n\n    /// @notice This function allows the auctioneer to change the sell price\n    /// @param _publication_Id publication id number\n    /// @param _sell_price for the research\n    function changeSellPrice(uint256 _publication_Id, uint256 _sell_price) public {\n        require(userAddresses[msg.sender] == publications[_publication_Id].author_Id, \"User not the author of this publication\");\n        require(!publications[_publication_Id].isAuction, \"Publication is on auction.\");\n        publications[_publication_Id].sell_price = _sell_price;\n    }\n    /// @notice This function allows the auctioneer to change the running status\n    /// @param _publication_Id publication id number\n    function changeRunningStatus(uint256 _publication_Id) public {\n        require(userAddresses[msg.sender] == publications[_publication_Id].author_Id, \"User not the author of this publication\");\n        publications[_publication_Id].isRunning = !publications[_publication_Id].isRunning;\n    }\n\n    /// @return This function allows anyone to get the list of publications based on the address of the publisher\n    /// @param _address eth address for the user\n    function getPublications(address _address) public view returns(uint256[] memory) {\n        uint256 _author_Id = userAddresses[_address];\n        return publicationOwners[_author_Id];\n    }\n\n    /// @return This function allows anyone to get the list of bids based on address of the user\n    function getBids(address _address) public view returns(uint256[] memory) {\n        uint256 _userAddress = userAddresses[_address];\n        return bidOwners[_userAddress];\n    }\n\n    // From the user ID, get a list of all publications owned by the user ()\n    // function getPublications(uint256 _user_Id) public view returns(uint256[] memory) {\n    //     return publicationOwners[_user_Id];\n    // }\n\n    // function getBids(uint256 _user_Id) public view returns(uint256[] memory) {\n    //     return bidOwners[_user_Id];\n    // }\n\n    /// @return This function allows anyone to get list of bids per publication\n    /// @param _publication_Id publication id number\n    function getPublicationBids(uint256 _publication_Id) public view returns(uint256[] memory) {\n        return publications[_publication_Id].publication_bids;\n    }\n\n\n    /// @return This function allows the return of the total number of publications\n    function getPublicationLength() public view returns(uint count) {\n        return publications.length;\n    }\n\n    /// @return Returns information about a spesific publication ID\n    /// @param _publication_Id publication id number\n    function getPublication(uint256 _publication_Id) public view returns(\n        uint256,\n        string memory,\n        uint256[] memory,\n        bool,\n        bool,\n        uint256,\n        uint256[] memory,\n        uint256[] memory){\n        Publication memory _publication = publications[_publication_Id];\n        return (\n        _publication.author_Id,\n        _publication.publication_uri,\n        _publication.publication_bids,\n        _publication.isAuction,\n        _publication.isRunning,\n        _publication.sell_price,\n        _publication.contributors,\n        _publication.contributors_weightings);\n    }\n}",
  "sourcePath": "/Users/chris/Projects/unicoindapp/contracts/UnicoinRegistry.sol",
  "compiler": {
    "name": "solc",
    "version": "0.5.8+commit.23d335f2.Emscripten.clang"
  },
  "schemaVersion": "3.0.11",
  "updatedAt": "2019-07-22T19:13:01.669Z",
  "devdoc": {
    "methods": {
      "acceptBid(uint256)": {
        "details": "parameters of licence design: buyer_id, publication id, bid_id",
        "params": {
          "_id": "is the bid Id"
        }
      },
      "approve(address,uint256)": {
        "details": "Approves another address to transfer the given token ID The zero address indicates there is no approved address. There can only be one approved address per token at a given time. Can only be called by the token owner or an approved operator.",
        "params": {
          "to": "address to be approved for the given token ID",
          "tokenId": "uint256 ID of the token to be approved"
        }
      },
      "balanceOf(address)": {
        "details": "Gets the balance of the specified address.",
        "params": {
          "owner": "address to query the balance of"
        },
        "return": "uint256 representing the amount owned by the passed address"
      },
      "cancelBid(uint256)": {
        "params": {
          "_id": "is the bid Id"
        }
      },
      "changeRunningStatus(uint256)": {
        "params": {
          "_publication_Id": "publication id number"
        }
      },
      "changeSellPrice(uint256,uint256)": {
        "params": {
          "_publication_Id": "publication id number",
          "_sell_price": "for the research"
        }
      },
      "changeToAuction(uint256)": {
        "params": {
          "_publication_Id": "publication id number"
        }
      },
      "changeToSale(uint256,uint256)": {
        "params": {
          "_publication_Id": "publication id number",
          "_sell_price": "for the research"
        }
      },
      "constructor": {
        "details": "The constructor below reserves user 0 for all unregistered users",
        "params": {
          "_daiContractAddress": "DAI contract address"
        }
      },
      "createPublication(string,bool,bool,uint256,uint256[],uint256[])": {
        "details": "The researcher only specifies the flat rate if they have chosen not to auction the workAdd instance to the respective arrays"
      },
      "getApproved(uint256)": {
        "details": "Gets the approved address for a token ID, or zero if no address set Reverts if the token ID does not exist.",
        "params": {
          "tokenId": "uint256 ID of the token to query the approval of"
        },
        "return": "address currently approved for the given token ID"
      },
      "getBids(address)": {
        "return": "This function allows anyone to get the list of bids based on address of the user"
      },
      "getPublication(uint256)": {
        "params": {
          "_publication_Id": "publication id number"
        },
        "return": "Returns information about a spesific publication ID"
      },
      "getPublicationBids(uint256)": {
        "params": {
          "_publication_Id": "publication id number"
        },
        "return": "This function allows anyone to get list of bids per publication"
      },
      "getPublicationLength()": {
        "return": "This function allows the return of the total number of publications"
      },
      "getPublications(address)": {
        "params": {
          "_address": "eth address for the user"
        },
        "return": "This function allows anyone to get the list of publications based on the address of the publisher"
      },
      "isApprovedForAll(address,address)": {
        "details": "Tells whether an operator is approved by a given owner.",
        "params": {
          "operator": "operator address which you want to query the approval of",
          "owner": "owner address which you want to query the approval of"
        },
        "return": "bool whether the given operator is approved by the given owner"
      },
      "makeBid(uint256,uint256)": {
        "details": "The bidder should only be able to submit a bid if the publication's pricing structure is an auction and the auction is runningBy default the bid will have a status of Pending until it is accepted or rejected by the authorIf the author has specified a flat rate, the buyer doesn't submit a bid but just sends the funds.The funds sent should match the sale price specified by the author.This 'bid' has a status of sale because the author does not need to evaluate and accept/reject these bids.Transfer Dai from buyer to sellerparameters of licence design: buyer_id, publication id, bid_id",
        "params": {
          "_offer": "for the research",
          "_publication_Id": "is the index for the publication Id"
        }
      },
      "name()": {
        "details": "Gets the token name.",
        "return": "string representing the token name"
      },
      "ownerOf(uint256)": {
        "details": "Gets the owner of the specified token ID.",
        "params": {
          "tokenId": "uint256 ID of the token to query the owner of"
        },
        "return": "address currently marked as the owner of the given token ID"
      },
      "registerUser(string)": {
        "details": "If the user's address is in position 0 of the userAddresses array, they are unregisteredCreate an instance of the user and add the Id to their address",
        "params": {
          "_profile_uri": "user profile url"
        }
      },
      "rejectBid(uint256)": {
        "params": {
          "_id": "is the bid Id"
        }
      },
      "safeTransferFrom(address,address,uint256)": {
        "details": "Safely transfers the ownership of a given token ID to another address If the target address is a contract, it must implement `onERC721Received`, which is called upon a safe transfer, and return the magic value `bytes4(keccak256(\"onERC721Received(address,address,uint256,bytes)\"))`; otherwise, the transfer is reverted. Requires the msg.sender to be the owner, approved, or operator",
        "params": {
          "from": "current owner of the token",
          "to": "address to receive the ownership of the given token ID",
          "tokenId": "uint256 ID of the token to be transferred"
        }
      },
      "safeTransferFrom(address,address,uint256,bytes)": {
        "details": "Safely transfers the ownership of a given token ID to another address If the target address is a contract, it must implement `onERC721Received`, which is called upon a safe transfer, and return the magic value `bytes4(keccak256(\"onERC721Received(address,address,uint256,bytes)\"))`; otherwise, the transfer is reverted. Requires the msg.sender to be the owner, approved, or operator",
        "params": {
          "_data": "bytes data to send along with a safe transfer check",
          "from": "current owner of the token",
          "to": "address to receive the ownership of the given token ID",
          "tokenId": "uint256 ID of the token to be transferred"
        }
      },
      "setApprovalForAll(address,bool)": {
        "details": "Sets or unsets the approval of a given operator An operator is allowed to transfer all tokens of the sender on their behalf.",
        "params": {
          "approved": "representing the status of the approval to be set",
          "to": "operator address to set the approval"
        }
      },
      "supportsInterface(bytes4)": {
        "details": "See `IERC165.supportsInterface`.     * Time complexity O(1), guaranteed to always use less than 30 000 gas."
      },
      "symbol()": {
        "details": "Gets the token symbol.",
        "return": "string representing the token symbol"
      },
      "tokenURI(uint256)": {
        "details": "Returns an URI for a given token ID. Throws if the token ID does not exist. May return an empty string.",
        "params": {
          "tokenId": "uint256 ID of the token to query"
        }
      },
      "transferFrom(address,address,uint256)": {
        "details": "Transfers the ownership of a given token ID to another address. Usage of this method is discouraged, use `safeTransferFrom` whenever possible. Requires the msg.sender to be the owner, approved, or operator.",
        "params": {
          "from": "current owner of the token",
          "to": "address to receive the ownership of the given token ID",
          "tokenId": "uint256 ID of the token to be transferred"
        }
      }
    }
  },
  "userdoc": {
    "methods": {
      "acceptBid(uint256)": {
        "notice": "This function allows the auctioneer to accept the bidsThis function allows the auctioneer to reject the bids"
      },
      "cancelBid(uint256)": {
        "notice": "This function allows the auctioneer to cancel the bids"
      },
      "changeRunningStatus(uint256)": {
        "notice": "This function allows the auctioneer to change the running status"
      },
      "changeSellPrice(uint256,uint256)": {
        "notice": "This function allows the auctioneer to change the sell price"
      },
      "changeToAuction(uint256)": {
        "notice": "This function allows the auctioneer to change from a sale to an auction"
      },
      "changeToSale(uint256,uint256)": {
        "notice": "This function allows the auctioneer to change from an auction to a sale"
      },
      "createPublication(string,bool,bool,uint256,uint256[],uint256[])": {
        "notice": "This function creates a publication on the system, with blank arrays for publication bids and owners,since no one has bidded for or bought a licence yet"
      },
      "makeBid(uint256,uint256)": {
        "notice": "This function creates a new bid for a particular publication"
      },
      "registerUser(string)": {
        "notice": "This function registers a user on the platform by taking in their profile URL"
      },
      "rejectBid(uint256)": {
        "notice": "This function allows the auctioneer to reject the bids"
      }
    },
    "notice": "contract begins here"
  }
}