{
  "contractName": "UnicoinRegistry",
  "abi": [
    {
      "constant": true,
      "inputs": [
        {
          "name": "interfaceId",
          "type": "bytes4"
        }
      ],
      "name": "supportsInterface",
      "outputs": [
        {
          "name": "",
          "type": "bool"
        }
      ],
      "payable": false,
      "stateMutability": "view",
      "type": "function"
    },
    {
      "constant": true,
      "inputs": [
        {
          "name": "tokenId",
          "type": "uint256"
        }
      ],
      "name": "getApproved",
      "outputs": [
        {
          "name": "",
          "type": "address"
        }
      ],
      "payable": false,
      "stateMutability": "view",
      "type": "function"
    },
    {
      "constant": false,
      "inputs": [
        {
          "name": "to",
          "type": "address"
        },
        {
          "name": "tokenId",
          "type": "uint256"
        }
      ],
      "name": "approve",
      "outputs": [],
      "payable": false,
      "stateMutability": "nonpayable",
      "type": "function"
    },
    {
      "constant": true,
      "inputs": [
        {
          "name": "",
          "type": "uint256"
        },
        {
          "name": "",
          "type": "uint256"
        }
      ],
      "name": "publicationOwners",
      "outputs": [
        {
          "name": "",
          "type": "uint256"
        }
      ],
      "payable": false,
      "stateMutability": "view",
      "type": "function"
    },
    {
      "constant": true,
      "inputs": [
        {
          "name": "",
          "type": "uint256"
        }
      ],
      "name": "publications",
      "outputs": [
        {
          "name": "author_Id",
          "type": "uint256"
        },
        {
          "name": "publication_uri",
          "type": "string"
        },
        {
          "name": "isAuction",
          "type": "bool"
        },
        {
          "name": "isRunning",
          "type": "bool"
        },
        {
          "name": "sell_price",
          "type": "uint256"
        }
      ],
      "payable": false,
      "stateMutability": "view",
      "type": "function"
    },
    {
      "constant": false,
      "inputs": [
        {
          "name": "from",
          "type": "address"
        },
        {
          "name": "to",
          "type": "address"
        },
        {
          "name": "tokenId",
          "type": "uint256"
        }
      ],
      "name": "transferFrom",
      "outputs": [],
      "payable": false,
      "stateMutability": "nonpayable",
      "type": "function"
    },
    {
      "constant": true,
      "inputs": [
        {
          "name": "",
          "type": "uint256"
        }
      ],
      "name": "users",
      "outputs": [
        {
          "name": "owned_address",
          "type": "address"
        },
        {
          "name": "profile_uri",
          "type": "string"
        }
      ],
      "payable": false,
      "stateMutability": "view",
      "type": "function"
    },
    {
      "constant": false,
      "inputs": [
        {
          "name": "from",
          "type": "address"
        },
        {
          "name": "to",
          "type": "address"
        },
        {
          "name": "tokenId",
          "type": "uint256"
        }
      ],
      "name": "safeTransferFrom",
      "outputs": [],
      "payable": false,
      "stateMutability": "nonpayable",
      "type": "function"
    },
    {
      "constant": true,
      "inputs": [
        {
          "name": "",
          "type": "uint256"
        }
      ],
      "name": "bids",
      "outputs": [
        {
          "name": "offer",
          "type": "uint256"
        },
        {
          "name": "status",
          "type": "uint8"
        },
        {
          "name": "publication_Id",
          "type": "uint256"
        },
        {
          "name": "owner_Id",
          "type": "uint256"
        }
      ],
      "payable": false,
      "stateMutability": "view",
      "type": "function"
    },
    {
      "constant": true,
      "inputs": [
        {
          "name": "tokenId",
          "type": "uint256"
        }
      ],
      "name": "ownerOf",
      "outputs": [
        {
          "name": "",
          "type": "address"
        }
      ],
      "payable": false,
      "stateMutability": "view",
      "type": "function"
    },
    {
      "constant": true,
      "inputs": [
        {
          "name": "",
          "type": "uint256"
        }
      ],
      "name": "licenceOwners",
      "outputs": [
        {
          "name": "",
          "type": "uint256"
        }
      ],
      "payable": false,
      "stateMutability": "view",
      "type": "function"
    },
    {
      "constant": true,
      "inputs": [
        {
          "name": "owner",
          "type": "address"
        }
      ],
      "name": "balanceOf",
      "outputs": [
        {
          "name": "",
          "type": "uint256"
        }
      ],
      "payable": false,
      "stateMutability": "view",
      "type": "function"
    },
    {
      "constant": false,
      "inputs": [
        {
          "name": "to",
          "type": "address"
        },
        {
          "name": "approved",
          "type": "bool"
        }
      ],
      "name": "setApprovalForAll",
      "outputs": [],
      "payable": false,
      "stateMutability": "nonpayable",
      "type": "function"
    },
    {
      "constant": false,
      "inputs": [
        {
          "name": "from",
          "type": "address"
        },
        {
          "name": "to",
          "type": "address"
        },
        {
          "name": "tokenId",
          "type": "uint256"
        },
        {
          "name": "_data",
          "type": "bytes"
        }
      ],
      "name": "safeTransferFrom",
      "outputs": [],
      "payable": false,
      "stateMutability": "nonpayable",
      "type": "function"
    },
    {
      "constant": true,
      "inputs": [
        {
          "name": "",
          "type": "uint256"
        }
      ],
      "name": "licences",
      "outputs": [
        {
          "name": "buyer_Id",
          "type": "uint256"
        },
        {
          "name": "Publication_Id",
          "type": "uint256"
        },
        {
          "name": "bid_Id",
          "type": "uint256"
        }
      ],
      "payable": false,
      "stateMutability": "view",
      "type": "function"
    },
    {
      "constant": true,
      "inputs": [
        {
          "name": "",
          "type": "uint256"
        },
        {
          "name": "",
          "type": "uint256"
        }
      ],
      "name": "publicationLicences",
      "outputs": [
        {
          "name": "",
          "type": "uint256"
        }
      ],
      "payable": false,
      "stateMutability": "view",
      "type": "function"
    },
    {
      "constant": true,
      "inputs": [
        {
          "name": "",
          "type": "uint256"
        },
        {
          "name": "",
          "type": "uint256"
        }
      ],
      "name": "bidOwners",
      "outputs": [
        {
          "name": "",
          "type": "uint256"
        }
      ],
      "payable": false,
      "stateMutability": "view",
      "type": "function"
    },
    {
      "constant": true,
      "inputs": [
        {
          "name": "owner",
          "type": "address"
        },
        {
          "name": "operator",
          "type": "address"
        }
      ],
      "name": "isApprovedForAll",
      "outputs": [
        {
          "name": "",
          "type": "bool"
        }
      ],
      "payable": false,
      "stateMutability": "view",
      "type": "function"
    },
    {
      "constant": true,
      "inputs": [
        {
          "name": "",
          "type": "address"
        }
      ],
      "name": "userAddresses",
      "outputs": [
        {
          "name": "",
          "type": "uint256"
        }
      ],
      "payable": false,
      "stateMutability": "view",
      "type": "function"
    },
    {
      "inputs": [
        {
          "name": "_daiContractAddress",
          "type": "address"
        }
      ],
      "payable": false,
      "stateMutability": "nonpayable",
      "type": "constructor"
    },
    {
      "anonymous": false,
      "inputs": [
        {
          "indexed": true,
          "name": "from",
          "type": "address"
        },
        {
          "indexed": true,
          "name": "to",
          "type": "address"
        },
        {
          "indexed": true,
          "name": "tokenId",
          "type": "uint256"
        }
      ],
      "name": "Transfer",
      "type": "event"
    },
    {
      "anonymous": false,
      "inputs": [
        {
          "indexed": true,
          "name": "owner",
          "type": "address"
        },
        {
          "indexed": true,
          "name": "approved",
          "type": "address"
        },
        {
          "indexed": true,
          "name": "tokenId",
          "type": "uint256"
        }
      ],
      "name": "Approval",
      "type": "event"
    },
    {
      "anonymous": false,
      "inputs": [
        {
          "indexed": true,
          "name": "owner",
          "type": "address"
        },
        {
          "indexed": true,
          "name": "operator",
          "type": "address"
        },
        {
          "indexed": false,
          "name": "approved",
          "type": "bool"
        }
      ],
      "name": "ApprovalForAll",
      "type": "event"
    },
    {
      "constant": false,
      "inputs": [
        {
          "name": "_profile_uri",
          "type": "string"
        }
      ],
      "name": "registerUser",
      "outputs": [],
      "payable": false,
      "stateMutability": "nonpayable",
      "type": "function"
    },
    {
      "constant": false,
      "inputs": [
        {
          "name": "_publication_uri",
          "type": "string"
        },
        {
          "name": "_isAuction",
          "type": "bool"
        },
        {
          "name": "_isRunning",
          "type": "bool"
        },
        {
          "name": "_sell_price",
          "type": "uint256"
        },
        {
          "name": "_contributors",
          "type": "uint256[]"
        },
        {
          "name": "_contributors_weightings",
          "type": "uint256[]"
        }
      ],
      "name": "createPublication",
      "outputs": [],
      "payable": false,
      "stateMutability": "nonpayable",
      "type": "function"
    },
    {
      "constant": false,
      "inputs": [
        {
          "name": "_offer",
          "type": "uint256"
        },
        {
          "name": "_publication_Id",
          "type": "uint256"
        }
      ],
      "name": "makeBid",
      "outputs": [],
      "payable": false,
      "stateMutability": "nonpayable",
      "type": "function"
    },
    {
      "constant": false,
      "inputs": [
        {
          "name": "_id",
          "type": "uint256"
        }
      ],
      "name": "acceptBid",
      "outputs": [],
      "payable": false,
      "stateMutability": "nonpayable",
      "type": "function"
    },
    {
      "constant": false,
      "inputs": [
        {
          "name": "_id",
          "type": "uint256"
        }
      ],
      "name": "rejectBid",
      "outputs": [],
      "payable": false,
      "stateMutability": "nonpayable",
      "type": "function"
    },
    {
      "constant": false,
      "inputs": [
        {
          "name": "_id",
          "type": "uint256"
        }
      ],
      "name": "cancelBid",
      "outputs": [],
      "payable": false,
      "stateMutability": "nonpayable",
      "type": "function"
    },
    {
      "constant": false,
      "inputs": [
        {
          "name": "_publication_Id",
          "type": "uint256"
        },
        {
          "name": "_sell_price",
          "type": "uint256"
        }
      ],
      "name": "changeToSale",
      "outputs": [],
      "payable": false,
      "stateMutability": "nonpayable",
      "type": "function"
    },
    {
      "constant": false,
      "inputs": [
        {
          "name": "_publication_Id",
          "type": "uint256"
        }
      ],
      "name": "changeToAuction",
      "outputs": [],
      "payable": false,
      "stateMutability": "nonpayable",
      "type": "function"
    },
    {
      "constant": false,
      "inputs": [
        {
          "name": "_publication_Id",
          "type": "uint256"
        },
        {
          "name": "_sell_price",
          "type": "uint256"
        }
      ],
      "name": "changeSellPrice",
      "outputs": [],
      "payable": false,
      "stateMutability": "nonpayable",
      "type": "function"
    },
    {
      "constant": false,
      "inputs": [
        {
          "name": "_publication_Id",
          "type": "uint256"
        }
      ],
      "name": "changeRunningStatus",
      "outputs": [],
      "payable": false,
      "stateMutability": "nonpayable",
      "type": "function"
    },
    {
      "constant": true,
      "inputs": [
        {
          "name": "_address",
          "type": "address"
        }
      ],
      "name": "getPublications",
      "outputs": [
        {
          "name": "",
          "type": "uint256[]"
        }
      ],
      "payable": false,
      "stateMutability": "view",
      "type": "function"
    },
    {
      "constant": true,
      "inputs": [
        {
          "name": "_user_Id",
          "type": "uint256"
        }
      ],
      "name": "getPublications",
      "outputs": [
        {
          "name": "",
          "type": "uint256[]"
        }
      ],
      "payable": false,
      "stateMutability": "view",
      "type": "function"
    },
    {
      "constant": true,
      "inputs": [
        {
          "name": "_user_Id",
          "type": "uint256"
        }
      ],
      "name": "getBids",
      "outputs": [
        {
          "name": "",
          "type": "uint256[]"
        }
      ],
      "payable": false,
      "stateMutability": "view",
      "type": "function"
    },
    {
      "constant": true,
      "inputs": [
        {
          "name": "_address",
          "type": "address"
        }
      ],
      "name": "getBids",
      "outputs": [
        {
          "name": "",
          "type": "uint256[]"
        }
      ],
      "payable": false,
      "stateMutability": "view",
      "type": "function"
    },
    {
      "constant": true,
      "inputs": [
        {
          "name": "_publication_Id",
          "type": "uint256"
        }
      ],
      "name": "getPublicationBids",
      "outputs": [
        {
          "name": "",
          "type": "uint256[]"
        }
      ],
      "payable": false,
      "stateMutability": "view",
      "type": "function"
    }
  ],
  "bytecode": "0x60806040523480156200001157600080fd5b5060405160208062004b49833981018060405260208110156200003357600080fd5b81019080805190602001909291905050506200005c6301ffc9a760e01b6200018d60201b60201c565b620000746380ac58cd60e01b6200018d60201b60201c565b60056040518060400160405280600073ffffffffffffffffffffffffffffffffffffffff168152602001604051806020016040528060008152508152509080600181540180825580915050906001820390600052602060002090600202016000909192909190915060008201518160000160006101000a81548173ffffffffffffffffffffffffffffffffffffffff021916908373ffffffffffffffffffffffffffffffffffffffff16021790555060208201518160010190805190602001906200014192919062000296565b5050505080600e60006101000a81548173ffffffffffffffffffffffffffffffffffffffff021916908373ffffffffffffffffffffffffffffffffffffffff1602179055505062000345565b63ffffffff60e01b817bffffffffffffffffffffffffffffffffffffffffffffffffffffffff191614156200022a576040517f08c379a000000000000000000000000000000000000000000000000000000000815260040180806020018281038252601c8152602001807f4552433136353a20696e76616c696420696e746572666163652069640000000081525060200191505060405180910390fd5b6001600080837bffffffffffffffffffffffffffffffffffffffffffffffffffffffff19167bffffffffffffffffffffffffffffffffffffffffffffffffffffffff1916815260200190815260200160002060006101000a81548160ff02191690831515021790555050565b828054600181600116156101000203166002900490600052602060002090601f016020900481019282601f10620002d957805160ff19168380011785556200030a565b828001600101855582156200030a579182015b8281111562000309578251825591602001919060010190620002ec565b5b5090506200031991906200031d565b5090565b6200034291905b808211156200033e57600081600090555060010162000324565b5090565b90565b6147f480620003556000396000f3fe608060405234801561001057600080fd5b50600436106102065760003560e01c8063699b5fa11161011a5780639dccae82116100ad578063bb44aee31161007c578063bb44aee314610fc4578063d628d54014611014578063dc05d95214611060578063e985e9c5146110ac578063fc86dea71461112857610206565b80639dccae8214610d9e578063a22cb46514610e37578063adfcdc1114610e87578063b88d4fde14610ebf57610206565b80637b79c4ec116100e95780637b79c4ec14610c8757806390420aee14610d0a5780639703ef3514610d425780639ab7a95414610d7057610206565b8063699b5fa114610b0e5780636e3341b314610b46578063704f1b9414610b7457806370a0823114610c2f57610206565b806323b872dd1161019d57806342842e0e1161016c57806342842e0e146107865780634423c5f1146107f45780635fd814a0146108595780636352211e14610a5e5780636557e4a814610acc57610206565b806323b872dd1461058d5780632b1fd58a146105fb578063365b98b2146106295780633e7646041461070357610206565b8063131d9a27116101d9578063131d9a27146103c5578063142af1ca14610448578063166c6c80146104945780631fd5bbab146104c257610206565b806301ffc9a71461020b578063081812fc1461027057806308204780146102de578063095ea7b314610377575b600080fd5b6102566004803603602081101561022157600080fd5b8101908080357bffffffffffffffffffffffffffffffffffffffffffffffffffffffff19169060200190929190505050611180565b604051808215151515815260200191505060405180910390f35b61029c6004803603602081101561028657600080fd5b81019080803590602001909291905050506111e7565b604051808273ffffffffffffffffffffffffffffffffffffffff1673ffffffffffffffffffffffffffffffffffffffff16815260200191505060405180910390f35b610320600480360360208110156102f457600080fd5b81019080803573ffffffffffffffffffffffffffffffffffffffff169060200190929190505050611282565b6040518080602001828103825283818151815260200191508051906020019060200280838360005b83811015610363578082015181840152602081019050610348565b505050509050019250505060405180910390f35b6103c36004803603604081101561038d57600080fd5b81019080803573ffffffffffffffffffffffffffffffffffffffff16906020019092919080359060200190929190505050611332565b005b6103f1600480360360208110156103db57600080fd5b810190808035906020019092919050505061150b565b6040518080602001828103825283818151815260200191508051906020019060200280838360005b83811015610434578082015181840152602081019050610419565b505050509050019250505060405180910390f35b61047e6004803603604081101561045e57600080fd5b810190808035906020019092919080359060200190929190505050611576565b6040518082815260200191505060405180910390f35b6104c0600480360360208110156104aa57600080fd5b81019080803590602001909291905050506115a4565b005b6104ee600480360360208110156104d857600080fd5b8101908080359060200190929190505050611739565b60405180868152602001806020018515151515815260200184151515158152602001838152602001828103825286818151815260200191508051906020019080838360005b8381101561054e578082015181840152602081019050610533565b50505050905090810190601f16801561057b5780820380516001836020036101000a031916815260200191505b50965050505050505060405180910390f35b6105f9600480360360608110156105a357600080fd5b81019080803573ffffffffffffffffffffffffffffffffffffffff169060200190929190803573ffffffffffffffffffffffffffffffffffffffff1690602001909291908035906020019092919050505061182e565b005b6106276004803603602081101561061157600080fd5b810190808035906020019092919050505061189d565b005b6106556004803603602081101561063f57600080fd5b8101908080359060200190929190505050611c59565b604051808373ffffffffffffffffffffffffffffffffffffffff1673ffffffffffffffffffffffffffffffffffffffff16815260200180602001828103825283818151815260200191508051906020019080838360005b838110156106c75780820151818401526020810190506106ac565b50505050905090810190601f1680156106f45780820380516001836020036101000a031916815260200191505b50935050505060405180910390f35b61072f6004803603602081101561071957600080fd5b8101908080359060200190929190505050611d42565b6040518080602001828103825283818151815260200191508051906020019060200280838360005b83811015610772578082015181840152602081019050610757565b505050509050019250505060405180910390f35b6107f26004803603606081101561079c57600080fd5b81019080803573ffffffffffffffffffffffffffffffffffffffff169060200190929190803573ffffffffffffffffffffffffffffffffffffffff16906020019092919080359060200190929190505050611db8565b005b6108206004803603602081101561080a57600080fd5b8101908080359060200190929190505050611dd8565b6040518085815260200184600481111561083657fe5b60ff16815260200183815260200182815260200194505050505060405180910390f35b610a5c600480360360c081101561086f57600080fd5b810190808035906020019064010000000081111561088c57600080fd5b82018360208201111561089e57600080fd5b803590602001918460018302840111640100000000831117156108c057600080fd5b91908080601f016020809104026020016040519081016040528093929190818152602001838380828437600081840152601f19601f820116905080830192505050505050509192919290803515159060200190929190803515159060200190929190803590602001909291908035906020019064010000000081111561094557600080fd5b82018360208201111561095757600080fd5b8035906020019184602083028401116401000000008311171561097957600080fd5b919080806020026020016040519081016040528093929190818152602001838360200280828437600081840152601f19601f820116905080830192505050505050509192919290803590602001906401000000008111156109d957600080fd5b8201836020820111156109eb57600080fd5b80359060200191846020830284011164010000000083111715610a0d57600080fd5b919080806020026020016040519081016040528093929190818152602001838360200280828437600081840152601f19601f820116905080830192505050505050509192919290505050611e22565b005b610a8a60048036036020811015610a7457600080fd5b81019080803590602001909291905050506121e3565b604051808273ffffffffffffffffffffffffffffffffffffffff1673ffffffffffffffffffffffffffffffffffffffff16815260200191505060405180910390f35b610af860048036036020811015610ae257600080fd5b81019080803590602001909291905050506122ab565b6040518082815260200191505060405180910390f35b610b4460048036036040811015610b2457600080fd5b8101908080359060200190929190803590602001909291905050506122c3565b005b610b7260048036036020811015610b5c57600080fd5b8101908080359060200190929190505050612474565b005b610c2d60048036036020811015610b8a57600080fd5b8101908080359060200190640100000000811115610ba757600080fd5b820183602082011115610bb957600080fd5b80359060200191846001830284011164010000000083111715610bdb57600080fd5b91908080601f016020809104026020016040519081016040528093929190818152602001838380828437600081840152601f19601f8201169050808301925050505050505091929192905050506126cc565b005b610c7160048036036020811015610c4557600080fd5b81019080803573ffffffffffffffffffffffffffffffffffffffff169060200190929190505050612905565b6040518082815260200191505060405180910390f35b610cb360048036036020811015610c9d57600080fd5b81019080803590602001909291905050506129da565b6040518080602001828103825283818151815260200191508051906020019060200280838360005b83811015610cf6578082015181840152602081019050610cdb565b505050509050019250505060405180910390f35b610d4060048036036040811015610d2057600080fd5b810190808035906020019092919080359060200190929190505050612a45565b005b610d6e60048036036020811015610d5857600080fd5b8101908080359060200190929190505050612bc0565b005b610d9c60048036036020811015610d8657600080fd5b8101908080359060200190929190505050612e18565b005b610de060048036036020811015610db457600080fd5b81019080803573ffffffffffffffffffffffffffffffffffffffff169060200190929190505050612f32565b6040518080602001828103825283818151815260200191508051906020019060200280838360005b83811015610e23578082015181840152602081019050610e08565b505050509050019250505060405180910390f35b610e8560048036036040811015610e4d57600080fd5b81019080803573ffffffffffffffffffffffffffffffffffffffff169060200190929190803515159060200190929190505050612fe2565b005b610ebd60048036036040811015610e9d57600080fd5b810190808035906020019092919080359060200190929190505050613185565b005b610fc260048036036080811015610ed557600080fd5b81019080803573ffffffffffffffffffffffffffffffffffffffff169060200190929190803573ffffffffffffffffffffffffffffffffffffffff1690602001909291908035906020019092919080359060200190640100000000811115610f3c57600080fd5b820183602082011115610f4e57600080fd5b80359060200191846001830284011164010000000083111715610f7057600080fd5b91908080601f016020809104026020016040519081016040528093929190818152602001838380828437600081840152601f19601f82011690508083019250505050505050919291929050505061390e565b005b610ff060048036036020811015610fda57600080fd5b8101908080359060200190929190505050613980565b60405180848152602001838152602001828152602001935050505060405180910390f35b61104a6004803603604081101561102a57600080fd5b8101908080359060200190929190803590602001909291905050506139b7565b6040518082815260200191505060405180910390f35b6110966004803603604081101561107657600080fd5b8101908080359060200190929190803590602001909291905050506139e5565b6040518082815260200191505060405180910390f35b61110e600480360360408110156110c257600080fd5b81019080803573ffffffffffffffffffffffffffffffffffffffff169060200190929190803573ffffffffffffffffffffffffffffffffffffffff169060200190929190505050613a13565b604051808215151515815260200191505060405180910390f35b61116a6004803603602081101561113e57600080fd5b81019080803573ffffffffffffffffffffffffffffffffffffffff169060200190929190505050613aa7565b6040518082815260200191505060405180910390f35b6000806000837bffffffffffffffffffffffffffffffffffffffffffffffffffffffff19167bffffffffffffffffffffffffffffffffffffffffffffffffffffffff1916815260200190815260200160002060009054906101000a900460ff169050919050565b60006111f282613abf565b611247576040517f08c379a000000000000000000000000000000000000000000000000000000000815260040180806020018281038252602c8152602001806146b0602c913960400191505060405180910390fd5b6002600083815260200190815260200160002060009054906101000a900473ffffffffffffffffffffffffffffffffffffffff169050919050565b60606000600660008473ffffffffffffffffffffffffffffffffffffffff1673ffffffffffffffffffffffffffffffffffffffff168152602001908152602001600020549050600a600082815260200190815260200160002080548060200260200160405190810160405280929190818152602001828054801561132557602002820191906000526020600020905b815481526020019060010190808311611311575b5050505050915050919050565b600061133d826121e3565b90508073ffffffffffffffffffffffffffffffffffffffff168373ffffffffffffffffffffffffffffffffffffffff1614156113c4576040517f08c379a000000000000000000000000000000000000000000000000000000000815260040180806020018281038252602181526020018061472f6021913960400191505060405180910390fd5b8073ffffffffffffffffffffffffffffffffffffffff163373ffffffffffffffffffffffffffffffffffffffff16148061140457506114038133613a13565b5b611459576040517f08c379a00000000000000000000000000000000000000000000000000000000081526004018080602001828103825260388152602001806146256038913960400191505060405180910390fd5b826002600084815260200190815260200160002060006101000a81548173ffffffffffffffffffffffffffffffffffffffff021916908373ffffffffffffffffffffffffffffffffffffffff160217905550818373ffffffffffffffffffffffffffffffffffffffff168273ffffffffffffffffffffffffffffffffffffffff167f8c5be1e5ebec7d5bd14f71427d1e84f3dd0314c0f7b2291e5b200ac8c7c3b92560405160405180910390a4505050565b60606008600083815260200190815260200160002080548060200260200160405190810160405280929190818152602001828054801561156a57602002820191906000526020600020905b815481526020019060010190808311611556575b50505050509050919050565b600a602052816000526040600020818154811061158f57fe5b90600052602060002001600091509150505481565b600981815481106115b157fe5b906000526020600020906007020160000154600660003373ffffffffffffffffffffffffffffffffffffffff1673ffffffffffffffffffffffffffffffffffffffff1681526020019081526020016000205414611659576040517f08c379a00000000000000000000000000000000000000000000000000000000081526004018080602001828103825260278152602001806147506027913960400191505060405180910390fd5b6009818154811061166657fe5b906000526020600020906007020160030160009054906101000a900460ff16156116db576040517f08c379a00000000000000000000000000000000000000000000000000000000081526004018080602001828103825260218152602001806147a86021913960400191505060405180910390fd5b6000600982815481106116ea57fe5b90600052602060002090600702016004018190555060016009828154811061170e57fe5b906000526020600020906007020160030160006101000a81548160ff02191690831515021790555050565b6009818154811061174657fe5b9060005260206000209060070201600091509050806000015490806001018054600181600116156101000203166002900480601f0160208091040260200160405190810160405280929190818152602001828054600181600116156101000203166002900480156117f85780601f106117cd576101008083540402835291602001916117f8565b820191906000526020600020905b8154815290600101906020018083116117db57829003601f168201915b5050505050908060030160009054906101000a900460ff16908060030160019054906101000a900460ff16908060040154905085565b6118383382613b31565b61188d576040517f08c379a00000000000000000000000000000000000000000000000000000000081526004018080602001828103825260318152602001806147776031913960400191505060405180910390fd5b611898838383613c25565b505050565b6000600782815481106118ac57fe5b9060005260206000209060040201600201549050600981815481106118cd57fe5b906000526020600020906007020160000154600660003373ffffffffffffffffffffffffffffffffffffffff1673ffffffffffffffffffffffffffffffffffffffff1681526020019081526020016000205414611975576040517f08c379a00000000000000000000000000000000000000000000000000000000081526004018080602001828103825260278152602001806147506027913960400191505060405180910390fd5b6009818154811061198257fe5b906000526020600020906007020160030160009054906101000a900460ff16611a13576040517f08c379a000000000000000000000000000000000000000000000000000000000815260040180806020018281038252601b8152602001807f5075626c69636174696f6e206e6f7420616e2061756374696f6e2e000000000081525060200191505060405180910390fd5b60098181548110611a2057fe5b906000526020600020906007020160030160019054906101000a900460ff16611ab1576040517f08c379a00000000000000000000000000000000000000000000000000000000081526004018080602001828103825260178152602001807f41756374696f6e206973206e6f742072756e6e696e672e00000000000000000081525060200191505060405180910390fd5b600160078381548110611ac057fe5b906000526020600020906004020160010160006101000a81548160ff02191690836004811115611aec57fe5b02179055506000600b604051806060016040528060078681548110611b0d57fe5b906000526020600020906004020160030154815260200184815260200185815250908060018154018082558091505090600182039060005260206000209060030201600090919290919091506000820151816000015560208201518160010155604082015181600201555050905080600c600060078681548110611b8d57fe5b906000526020600020906004020160030154815260200190815260200160002081905550600d6000838152602001908152602001600020819080600181540180825580915050906001820390600052602060002001600090919290919091505550611c54600560078581548110611c0057fe5b90600052602060002090600402016003015481548110611c1c57fe5b906000526020600020906002020160000160009054906101000a900473ffffffffffffffffffffffffffffffffffffffff1682613e80565b505050565b60058181548110611c6657fe5b90600052602060002090600202016000915090508060000160009054906101000a900473ffffffffffffffffffffffffffffffffffffffff1690806001018054600181600116156101000203166002900480601f016020809104026020016040519081016040528092919081815260200182805460018160011615610100020316600290048015611d385780601f10611d0d57610100808354040283529160200191611d38565b820191906000526020600020905b815481529060010190602001808311611d1b57829003601f168201915b5050505050905082565b606060098281548110611d5157fe5b9060005260206000209060070201600201805480602002602001604051908101604052809291908181526020018280548015611dac57602002820191906000526020600020905b815481526020019060010190808311611d98575b50505050509050919050565b611dd38383836040518060200160405280600081525061390e565b505050565b60078181548110611de557fe5b90600052602060002090600402016000915090508060000154908060010160009054906101000a900460ff16908060020154908060030154905084565b6000865111611e7c576040517f08c379a000000000000000000000000000000000000000000000000000000000815260040180806020018281038252602481526020018061455e6024913960400191505060405180910390fd5b6000600660003373ffffffffffffffffffffffffffffffffffffffff1673ffffffffffffffffffffffffffffffffffffffff168152602001908152602001600020541415611f32576040517f08c379a000000000000000000000000000000000000000000000000000000000815260040180806020018281038252601f8152602001807f557365722061646472657373206973206e6f7420726567697374657265642e0081525060200191505060405180910390fd5b8415611f965760008314611f91576040517f08c379a000000000000000000000000000000000000000000000000000000000815260040180806020018281038252602a815260200180614705602a913960400191505060405180910390fd5b61200d565b6000831161200c576040517f08c379a00000000000000000000000000000000000000000000000000000000081526004018080602001828103825260198152602001807f53656c6c207072696365206e6f74207370656369666965642e0000000000000081525060200191505060405180910390fd5b5b6000600660003373ffffffffffffffffffffffffffffffffffffffff1673ffffffffffffffffffffffffffffffffffffffff168152602001908152602001600020549050606061205b614422565b6040518061010001604052808481526020018a8152602001838152602001891515815260200188151581526020018781526020018681526020018581525090506000600982908060018154018082558091505090600182039060005260206000209060070201600090919290919091506000820151816000015560208201518160010190805190602001906120f192919061446b565b50604082015181600201908051906020019061210e9291906144eb565b5060608201518160030160006101000a81548160ff02191690831515021790555060808201518160030160016101000a81548160ff02191690831515021790555060a0820151816004015560c08201518160050190805190602001906121759291906144eb565b5060e08201518160060190805190602001906121929291906144eb565b5050509050600a600085815260200190815260200160002060018203908060018154018082558091505090600182039060005260206000200160009091929091909150555050505050505050505050565b6000806001600084815260200190815260200160002060009054906101000a900473ffffffffffffffffffffffffffffffffffffffff169050600073ffffffffffffffffffffffffffffffffffffffff168173ffffffffffffffffffffffffffffffffffffffff1614156122a2576040517f08c379a00000000000000000000000000000000000000000000000000000000081526004018080602001828103825260298152602001806146876029913960400191505060405180910390fd5b80915050919050565b600c6020528060005260406000206000915090505481565b600982815481106122d057fe5b906000526020600020906007020160000154600660003373ffffffffffffffffffffffffffffffffffffffff1673ffffffffffffffffffffffffffffffffffffffff1681526020019081526020016000205414612378576040517f08c379a00000000000000000000000000000000000000000000000000000000081526004018080602001828103825260278152602001806147506027913960400191505060405180910390fd5b6009828154811061238557fe5b906000526020600020906007020160030160009054906101000a900460ff16612416576040517f08c379a000000000000000000000000000000000000000000000000000000000815260040180806020018281038252601d8152602001807f5075626c69636174696f6e206973206e6f7420616e2061756374696f6e00000081525060200191505060405180910390fd5b806009838154811061242457fe5b90600052602060002090600702016004018190555060006009838154811061244857fe5b906000526020600020906007020160030160006101000a81548160ff0219169083151502179055505050565b60006007828154811061248357fe5b9060005260206000209060040201600201549050600981815481106124a457fe5b906000526020600020906007020160000154600660003373ffffffffffffffffffffffffffffffffffffffff1673ffffffffffffffffffffffffffffffffffffffff168152602001908152602001600020541461254c576040517f08c379a00000000000000000000000000000000000000000000000000000000081526004018080602001828103825260278152602001806147506027913960400191505060405180910390fd5b6009818154811061255957fe5b906000526020600020906007020160030160009054906101000a900460ff166125ea576040517f08c379a000000000000000000000000000000000000000000000000000000000815260040180806020018281038252601b8152602001807f5075626c69636174696f6e206e6f7420616e2061756374696f6e2e000000000081525060200191505060405180910390fd5b600981815481106125f757fe5b906000526020600020906007020160030160019054906101000a900460ff16612688576040517f08c379a00000000000000000000000000000000000000000000000000000000081526004018080602001828103825260148152602001807f41756374696f6e206e6f742072756e6e696e672e00000000000000000000000081525060200191505060405180910390fd5b60026007838154811061269757fe5b906000526020600020906004020160010160006101000a81548160ff021916908360048111156126c357fe5b02179055505050565b6000815111612743576040517f08c379a00000000000000000000000000000000000000000000000000000000081526004018080602001828103825260208152602001807f50726f66696c65205552492073686f756c64206e6f7420626520656d7074792e81525060200191505060405180910390fd5b6000600660003373ffffffffffffffffffffffffffffffffffffffff1673ffffffffffffffffffffffffffffffffffffffff16815260200190815260200160002054146127f8576040517f08c379a00000000000000000000000000000000000000000000000000000000081526004018080602001828103825260188152602001807f5573657220616c726561647920726567697374657265642e000000000000000081525060200191505060405180910390fd5b6000600560405180604001604052803373ffffffffffffffffffffffffffffffffffffffff168152602001848152509080600181540180825580915050906001820390600052602060002090600202016000909192909190915060008201518160000160006101000a81548173ffffffffffffffffffffffffffffffffffffffff021916908373ffffffffffffffffffffffffffffffffffffffff16021790555060208201518160010190805190602001906128b592919061446b565b505050905060018103600660003373ffffffffffffffffffffffffffffffffffffffff1673ffffffffffffffffffffffffffffffffffffffff168152602001908152602001600020819055505050565b60008073ffffffffffffffffffffffffffffffffffffffff168273ffffffffffffffffffffffffffffffffffffffff16141561298c576040517f08c379a000000000000000000000000000000000000000000000000000000000815260040180806020018281038252602a81526020018061465d602a913960400191505060405180910390fd5b6129d3600360008473ffffffffffffffffffffffffffffffffffffffff1673ffffffffffffffffffffffffffffffffffffffff168152602001908152602001600020614098565b9050919050565b6060600a6000838152602001908152602001600020805480602002602001604051908101604052809291908181526020018280548015612a3957602002820191906000526020600020905b815481526020019060010190808311612a25575b50505050509050919050565b60098281548110612a5257fe5b906000526020600020906007020160000154600660003373ffffffffffffffffffffffffffffffffffffffff1673ffffffffffffffffffffffffffffffffffffffff1681526020019081526020016000205414612afa576040517f08c379a00000000000000000000000000000000000000000000000000000000081526004018080602001828103825260278152602001806147506027913960400191505060405180910390fd5b60098281548110612b0757fe5b906000526020600020906007020160030160009054906101000a900460ff1615612b99576040517f08c379a000000000000000000000000000000000000000000000000000000000815260040180806020018281038252601a8152602001807f5075626c69636174696f6e206973206f6e2061756374696f6e2e00000000000081525060200191505060405180910390fd5b8060098381548110612ba757fe5b9060005260206000209060070201600401819055505050565b600060078281548110612bcf57fe5b906000526020600020906004020160020154905060098181548110612bf057fe5b906000526020600020906007020160000154600660003373ffffffffffffffffffffffffffffffffffffffff1673ffffffffffffffffffffffffffffffffffffffff1681526020019081526020016000205414612c98576040517f08c379a00000000000000000000000000000000000000000000000000000000081526004018080602001828103825260278152602001806147506027913960400191505060405180910390fd5b60098181548110612ca557fe5b906000526020600020906007020160030160009054906101000a900460ff16612d36576040517f08c379a000000000000000000000000000000000000000000000000000000000815260040180806020018281038252601b8152602001807f5075626c69636174696f6e206e6f7420616e2061756374696f6e2e000000000081525060200191505060405180910390fd5b60098181548110612d4357fe5b906000526020600020906007020160030160019054906101000a900460ff16612dd4576040517f08c379a00000000000000000000000000000000000000000000000000000000081526004018080602001828103825260148152602001807f41756374696f6e206e6f742072756e6e696e672e00000000000000000000000081525060200191505060405180910390fd5b600460078381548110612de357fe5b906000526020600020906004020160010160006101000a81548160ff02191690836004811115612e0f57fe5b02179055505050565b60098181548110612e2557fe5b906000526020600020906007020160000154600660003373ffffffffffffffffffffffffffffffffffffffff1673ffffffffffffffffffffffffffffffffffffffff1681526020019081526020016000205414612ecd576040517f08c379a00000000000000000000000000000000000000000000000000000000081526004018080602001828103825260278152602001806147506027913960400191505060405180910390fd5b60098181548110612eda57fe5b906000526020600020906007020160030160019054906101000a900460ff161560098281548110612f0757fe5b906000526020600020906007020160030160016101000a81548160ff02191690831515021790555050565b60606000600660008473ffffffffffffffffffffffffffffffffffffffff1673ffffffffffffffffffffffffffffffffffffffff16815260200190815260200160002054905060086000828152602001908152602001600020805480602002602001604051908101604052809291908181526020018280548015612fd557602002820191906000526020600020905b815481526020019060010190808311612fc1575b5050505050915050919050565b3373ffffffffffffffffffffffffffffffffffffffff168273ffffffffffffffffffffffffffffffffffffffff161415613084576040517f08c379a00000000000000000000000000000000000000000000000000000000081526004018080602001828103825260198152602001807f4552433732313a20617070726f766520746f2063616c6c65720000000000000081525060200191505060405180910390fd5b80600460003373ffffffffffffffffffffffffffffffffffffffff1673ffffffffffffffffffffffffffffffffffffffff16815260200190815260200160002060008473ffffffffffffffffffffffffffffffffffffffff1673ffffffffffffffffffffffffffffffffffffffff16815260200190815260200160002060006101000a81548160ff0219169083151502179055508173ffffffffffffffffffffffffffffffffffffffff163373ffffffffffffffffffffffffffffffffffffffff167f17307eab39ab6107e8899845ad3d59bd9653f200f220920489ca2b5937696c3183604051808215151515815260200191505060405180910390a35050565b60006009828154811061319457fe5b906000526020600020906007020160000154141561321a576040517f08c379a00000000000000000000000000000000000000000000000000000000081526004018080602001828103825260198152602001807f5075626c69636174696f6e206e6f7420656e6c69737465642e0000000000000081525060200191505060405180910390fd5b6000600660003373ffffffffffffffffffffffffffffffffffffffff1673ffffffffffffffffffffffffffffffffffffffff1681526020019081526020016000205414156132b3576040517f08c379a00000000000000000000000000000000000000000000000000000000081526004018080602001828103825260218152602001806145b46021913960400191505060405180910390fd5b600981815481106132c057fe5b906000526020600020906007020160030160009054906101000a900460ff161561353457600981815481106132f157fe5b906000526020600020906007020160030160019054906101000a900460ff16613382576040517f08c379a00000000000000000000000000000000000000000000000000000000081526004018080602001828103825260178152602001807f41756374696f6e206973206e6f742072756e6e696e672e00000000000000000081525060200191505060405180910390fd5b600060076040518060800160405280858152602001600060048111156133a457fe5b8152602001848152602001600660003373ffffffffffffffffffffffffffffffffffffffff1673ffffffffffffffffffffffffffffffffffffffff16815260200190815260200160002054815250908060018154018082558091505090600182039060005260206000209060040201600090919290919091506000820151816000015560208201518160010160006101000a81548160ff0219169083600481111561344b57fe5b02179055506040820151816002015560608201518160030155505090506009828154811061347557fe5b906000526020600020906007020160020160018203908060018154018082558091505090600182039060005260206000200160009091929091909150555060086000600660003373ffffffffffffffffffffffffffffffffffffffff1673ffffffffffffffffffffffffffffffffffffffff168152602001908152602001600020548152602001908152602001600020600182039080600181540180825580915050906001820390600052602060002001600090919290919091505550505b6009818154811061354157fe5b906000526020600020906007020160030160009054906101000a900460ff1661390a576009818154811061357157fe5b90600052602060002090600702016004015482146135f7576040517f08c379a00000000000000000000000000000000000000000000000000000000081526004018080602001828103825260158152602001807f496e636f72726563742066756e64732073656e742e000000000000000000000081525060200191505060405180910390fd5b60006001600760405180608001604052808681526020016003600481111561361b57fe5b8152602001858152602001600660003373ffffffffffffffffffffffffffffffffffffffff1673ffffffffffffffffffffffffffffffffffffffff16815260200190815260200160002054815250908060018154018082558091505090600182039060005260206000209060040201600090919290919091506000820151816000015560208201518160010160006101000a81548160ff021916908360048111156136c257fe5b021790555060408201518160020155606082015181600301555050039050600982815481106136ed57fe5b906000526020600020906007020160020181908060018154018082558091505090600182039060005260206000200160009091929091909150555060086000600660003373ffffffffffffffffffffffffffffffffffffffff1673ffffffffffffffffffffffffffffffffffffffff1681526020019081526020016000205481526020019081526020016000208190806001815401808255809150509060018203906000526020600020016000909192909190915055506000600b6040518060600160405280600785815481106137c057fe5b906000526020600020906004020160030154815260200185815260200184815250908060018154018082558091505090600182039060005260206000209060030201600090919290919091506000820151816000015560208201518160010155604082015181600201555050905080600c60006007858154811061384057fe5b906000526020600020906004020160030154815260200190815260200160002081905550600d60008481526020019081526020016000208190806001815401808255809150509060018203906000526020600020016000909192909190915055506139076005600784815481106138b357fe5b906000526020600020906004020160030154815481106138cf57fe5b906000526020600020906002020160000160009054906101000a900473ffffffffffffffffffffffffffffffffffffffff1682613e80565b50505b5050565b61391984848461182e565b613925848484846140a6565b61397a576040517f08c379a00000000000000000000000000000000000000000000000000000000081526004018080602001828103825260328152602001806145826032913960400191505060405180910390fd5b50505050565b600b818154811061398d57fe5b90600052602060002090600302016000915090508060000154908060010154908060020154905083565b600d60205281600052604060002081815481106139d057fe5b90600052602060002001600091509150505481565b600860205281600052604060002081815481106139fe57fe5b90600052602060002001600091509150505481565b6000600460008473ffffffffffffffffffffffffffffffffffffffff1673ffffffffffffffffffffffffffffffffffffffff16815260200190815260200160002060008373ffffffffffffffffffffffffffffffffffffffff1673ffffffffffffffffffffffffffffffffffffffff16815260200190815260200160002060009054906101000a900460ff16905092915050565b60066020528060005260406000206000915090505481565b6000806001600084815260200190815260200160002060009054906101000a900473ffffffffffffffffffffffffffffffffffffffff169050600073ffffffffffffffffffffffffffffffffffffffff168173ffffffffffffffffffffffffffffffffffffffff161415915050919050565b6000613b3c82613abf565b613b91576040517f08c379a000000000000000000000000000000000000000000000000000000000815260040180806020018281038252602c8152602001806145f9602c913960400191505060405180910390fd5b6000613b9c836121e3565b90508073ffffffffffffffffffffffffffffffffffffffff168473ffffffffffffffffffffffffffffffffffffffff161480613c0b57508373ffffffffffffffffffffffffffffffffffffffff16613bf3846111e7565b73ffffffffffffffffffffffffffffffffffffffff16145b80613c1c5750613c1b8185613a13565b5b91505092915050565b8273ffffffffffffffffffffffffffffffffffffffff16613c45826121e3565b73ffffffffffffffffffffffffffffffffffffffff1614613cb1576040517f08c379a00000000000000000000000000000000000000000000000000000000081526004018080602001828103825260298152602001806146dc6029913960400191505060405180910390fd5b600073ffffffffffffffffffffffffffffffffffffffff168273ffffffffffffffffffffffffffffffffffffffff161415613d37576040517f08c379a00000000000000000000000000000000000000000000000000000000081526004018080602001828103825260248152602001806145d56024913960400191505060405180910390fd5b613d408161428f565b613d87600360008573ffffffffffffffffffffffffffffffffffffffff1673ffffffffffffffffffffffffffffffffffffffff16815260200190815260200160002061434d565b613dce600360008473ffffffffffffffffffffffffffffffffffffffff1673ffffffffffffffffffffffffffffffffffffffff168152602001908152602001600020614370565b816001600083815260200190815260200160002060006101000a81548173ffffffffffffffffffffffffffffffffffffffff021916908373ffffffffffffffffffffffffffffffffffffffff160217905550808273ffffffffffffffffffffffffffffffffffffffff168473ffffffffffffffffffffffffffffffffffffffff167fddf252ad1be2c89b69c2b068fc378daa952ba7f163c4a11628f55a4df523b3ef60405160405180910390a4505050565b600073ffffffffffffffffffffffffffffffffffffffff168273ffffffffffffffffffffffffffffffffffffffff161415613f23576040517f08c379a00000000000000000000000000000000000000000000000000000000081526004018080602001828103825260208152602001807f4552433732313a206d696e7420746f20746865207a65726f206164647265737381525060200191505060405180910390fd5b613f2c81613abf565b15613f9f576040517f08c379a000000000000000000000000000000000000000000000000000000000815260040180806020018281038252601c8152602001807f4552433732313a20746f6b656e20616c7265616479206d696e7465640000000081525060200191505060405180910390fd5b816001600083815260200190815260200160002060006101000a81548173ffffffffffffffffffffffffffffffffffffffff021916908373ffffffffffffffffffffffffffffffffffffffff160217905550614038600360008473ffffffffffffffffffffffffffffffffffffffff1673ffffffffffffffffffffffffffffffffffffffff168152602001908152602001600020614370565b808273ffffffffffffffffffffffffffffffffffffffff16600073ffffffffffffffffffffffffffffffffffffffff167fddf252ad1be2c89b69c2b068fc378daa952ba7f163c4a11628f55a4df523b3ef60405160405180910390a45050565b600081600001549050919050565b60006140c78473ffffffffffffffffffffffffffffffffffffffff16614386565b6140d45760019050614287565b60008473ffffffffffffffffffffffffffffffffffffffff1663150b7a02338887876040518563ffffffff1660e01b8152600401808573ffffffffffffffffffffffffffffffffffffffff1673ffffffffffffffffffffffffffffffffffffffff1681526020018473ffffffffffffffffffffffffffffffffffffffff1673ffffffffffffffffffffffffffffffffffffffff16815260200183815260200180602001828103825283818151815260200191508051906020019080838360005b838110156141af578082015181840152602081019050614194565b50505050905090810190601f1680156141dc5780820380516001836020036101000a031916815260200191505b5095505050505050602060405180830381600087803b1580156141fe57600080fd5b505af1158015614212573d6000803e3d6000fd5b505050506040513d602081101561422857600080fd5b8101908080519060200190929190505050905063150b7a0260e01b7bffffffffffffffffffffffffffffffffffffffffffffffffffffffff1916817bffffffffffffffffffffffffffffffffffffffffffffffffffffffff1916149150505b949350505050565b600073ffffffffffffffffffffffffffffffffffffffff166002600083815260200190815260200160002060009054906101000a900473ffffffffffffffffffffffffffffffffffffffff1673ffffffffffffffffffffffffffffffffffffffff161461434a5760006002600083815260200190815260200160002060006101000a81548173ffffffffffffffffffffffffffffffffffffffff021916908373ffffffffffffffffffffffffffffffffffffffff1602179055505b50565b6143656001826000015461439990919063ffffffff16565b816000018190555050565b6001816000016000828254019250508190555050565b600080823b905060008111915050919050565b600082821115614411576040517f08c379a000000000000000000000000000000000000000000000000000000000815260040180806020018281038252601e8152602001807f536166654d6174683a207375627472616374696f6e206f766572666c6f77000081525060200191505060405180910390fd5b600082840390508091505092915050565b6040518061010001604052806000815260200160608152602001606081526020016000151581526020016000151581526020016000815260200160608152602001606081525090565b828054600181600116156101000203166002900490600052602060002090601f016020900481019282601f106144ac57805160ff19168380011785556144da565b828001600101855582156144da579182015b828111156144d95782518255916020019190600101906144be565b5b5090506144e79190614538565b5090565b828054828255906000526020600020908101928215614527579160200282015b8281111561452657825182559160200191906001019061450b565b5b5090506145349190614538565b5090565b61455a91905b8082111561455657600081600090555060010161453e565b5090565b9056fe5075626c69636174696f6e205552492073686f756c64206e6f7420626520656d7074792e4552433732313a207472616e7366657220746f206e6f6e20455243373231526563656976657220696d706c656d656e7465724269646465722061646472657373206973206e6f7420726567697374657265642e4552433732313a207472616e7366657220746f20746865207a65726f20616464726573734552433732313a206f70657261746f7220717565727920666f72206e6f6e6578697374656e7420746f6b656e4552433732313a20617070726f76652063616c6c6572206973206e6f74206f776e6572206e6f7220617070726f76656420666f7220616c6c4552433732313a2062616c616e636520717565727920666f7220746865207a65726f20616464726573734552433732313a206f776e657220717565727920666f72206e6f6e6578697374656e7420746f6b656e4552433732313a20617070726f76656420717565727920666f72206e6f6e6578697374656e7420746f6b656e4552433732313a207472616e73666572206f6620746f6b656e2074686174206973206e6f74206f776e53686f756c64206e6f7420737065636966792073656c6c20707269636520666f722061756374696f6e2e4552433732313a20617070726f76616c20746f2063757272656e74206f776e657255736572206e6f742074686520617574686f72206f662074686973207075626c69636174696f6e4552433732313a207472616e736665722063616c6c6572206973206e6f74206f776e6572206e6f7220617070726f7665645075626c69636174696f6e20697320616c7265616479206f6e2061756374696f6ea165627a7a72305820e037fa40030806f72ead20b6f99a544bcb2734ddca0e68e677440d3eb7dc577b0029",
  "source": "pragma solidity^0.5.0;\nimport \"openzeppelin-solidity/contracts/ownership/Ownable.sol\";\nimport \"openzeppelin-solidity/contracts/token/ERC20/ERC20.sol\";\nimport \"openzeppelin-solidity/contracts/token/ERC721/ERC721.sol\";\n\ncontract UnicoinRegistry is ERC721 {\n    // Creates a struct for users of the plaform.\n    struct User {\n        address owned_address;\n        string profile_uri;\n    }\n    User[] public users;\n\n    // The mapping below maps all users' addresses to their userID\n    mapping (address => uint256) public userAddresses ;\n\n    enum bidStatus {Pending, Accepted, Rejected, Sale, Cancelled}\n\n    // Creates a struct for all bids.\n    struct Bid {\n        uint256 offer;\n        bidStatus status;\n        uint256 publication_Id;\n        uint256 owner_Id; //owner of the bid\n    }\n    Bid[] public bids;\n\n    // The mapping below maps all bidders' IDs to their userID\n    mapping(uint256 => uint256[]) public bidOwners;\n\n    struct Publication {\n        uint256 author_Id;\n        string publication_uri;\n        // The array below will contain all bids received for that work.\n        uint256[] publication_bids;\n        // If the researcher has chosen the auction pricing structure, the below is TRUE.\n        bool isAuction;\n        // If the auction is still running, the below is TRUE, because the researcher can choose to stop the auction at any point.\n        bool isRunning;\n        // If both of the booleans above are FALSE, the price below is the flat sale price of the work.\n        uint256 sell_price;\n        uint256[] contributors;\n        uint256[] contributors_weightings;\n    }\n    Publication[] public publications;\n    \n    // The mapping below will map the addresses of all the successful bidders' addresses to the ID of their owned publications\n    mapping(uint256 => uint256[]) public publicationOwners;\n    \n    struct LicenceDesign {\n        uint256 buyer_Id;\n        uint256 Publication_Id;\n        uint256 bid_Id;\n    }\n\n    LicenceDesign[] public licences;\n    mapping(uint256 => uint256) public licenceOwners;\n    mapping(uint256 => uint256[]) public publicationLicences;\n\n    ERC20 daiContract;\n    // The constructer below reserves user 0 for all unregistered users.\n    constructor(address _daiContractAddress) public ERC721(){\n        users.push(User(address(0),\"\"));\n\n        daiContract = ERC20(_daiContractAddress);\n    }\n\n    // This function registers a user on the platform.\n    function registerUser(string memory _profile_uri) public {\n        require(bytes(_profile_uri).length > 0, \"Profile URI should not be empty.\");\n        // If the user's address is in position 0 of the userAddresses array, they are unregistered.\n        require(userAddresses[msg.sender]==0,\"User already registered.\");\n        uint256 id = users.push(User(msg.sender,_profile_uri));\n        userAddresses[msg.sender] = id - 1;\n    }\n\n    // This function creates a publication on the system, with blank arrays for publication bids and owners,\n    // since no one has bidded for or bought a licence yet.\n    function createPublication(string memory _publication_uri, bool _isAuction, bool _isRunning, uint256 _sell_price, uint256[] memory _contributors, uint256[] memory _contributors_weightings) public {\n        require(bytes(_publication_uri).length > 0, \"Publication URI should not be empty.\");\n        require(userAddresses[msg.sender] != 0, \"User address is not registered.\");\n        // The researcher only specifies the flat rate if they have chosen not to auction the work.\n        if(_isAuction) {\n            require(_sell_price == 0, \"Should not specify sell price for auction.\");\n        }\n        else {\n            require(_sell_price > 0, \"Sell price not specified.\");\n        }\n        uint256 _author_Id = userAddresses[msg.sender];\n        uint256[] memory _publication_bids;\n        Publication memory _publication = Publication(_author_Id, _publication_uri, _publication_bids, _isAuction, _isRunning, _sell_price, _contributors, _contributors_weightings);\n        uint256 _id = publications.push(_publication);\n        publicationOwners[_author_Id].push(_id - 1);\n    }\n\n    // This function creates a new bid for a particular publication.\n    function makeBid(uint256 _offer, uint256 _publication_Id) public {\n        require(publications[_publication_Id].author_Id != 0, \"Publication not enlisted.\");\n        require(userAddresses[msg.sender] != 0, \"Bidder address is not registered.\");\n        // The bidder should only be able to submit a bid if the publication's pricing structure is an auction and the auction is running\n        if(publications[_publication_Id].isAuction) {\n            require(publications[_publication_Id].isRunning, \"Auction is not running.\");\n            // By default the bid will have a status of Pending until it is accepted or rejected by the author\n            uint256 _id = bids.push(Bid(_offer, bidStatus.Pending, _publication_Id, userAddresses[msg.sender]));\n            publications[_publication_Id].publication_bids.push(_id - 1);\n            bidOwners[userAddresses[msg.sender]].push(_id - 1);\n        }\n        // If the author has specified a flat rate, the buyer doesn't submit a bid but just sends the funds.\n        if(!publications[_publication_Id].isAuction) {\n            // The funds sent should match the sale price specified by the author.\n            require(_offer == publications[_publication_Id].sell_price, \"Incorrect funds sent.\");\n            // This 'bid' has a status of sale because the author does not need to evaluate and accept/reject these bids.\n            uint256 _id = bids.push(Bid(_offer, bidStatus.Sale, _publication_Id, userAddresses[msg.sender])) - 1;\n            publications[_publication_Id].publication_bids.push(_id);\n            bidOwners[userAddresses[msg.sender]].push(_id);\n\n            //parameters of licence design: buyer_id, publication id, bid_id\n            uint256 _licence_Id = licences.push(LicenceDesign(bids[_id].owner_Id, _publication_Id, _id));\n            licenceOwners[bids[_id].owner_Id] = _licence_Id;\n            publicationLicences[_publication_Id].push(_licence_Id);\n            _mint(users[bids[_id].owner_Id].owned_address, _licence_Id);\n        }\n    }\n        \n    // This function allows the auctioneer to accept the bids\n    function acceptBid(uint256 _id) public {\n        uint256 _publication_Id = bids[_id].publication_Id;\n        require(userAddresses[msg.sender] == publications[_publication_Id].author_Id, \"User not the author of this publication\");\n        require(publications[_publication_Id].isAuction, \"Publication not an auction.\");\n        require(publications[_publication_Id].isRunning, \"Auction is not running.\");\n        bids[_id].status = bidStatus.Accepted;\n        \n        //buyer_id, publication id, bid_id\n        uint256 _licence_Id = licences.push(LicenceDesign(bids[_id].owner_Id, _publication_Id, _id));\n        licenceOwners[bids[_id].owner_Id] = _licence_Id;\n        publicationLicences[_publication_Id].push(_licence_Id);\n        _mint(users[bids[_id].owner_Id].owned_address, _licence_Id);\n    }\n\n    // This function allows the auctioneer to reject the bids\n    function rejectBid(uint256 _id) public {\n        uint256 _publication_Id = bids[_id].publication_Id;\n        require(userAddresses[msg.sender] == publications[_publication_Id].author_Id, \"User not the author of this publication\");\n        require(publications[_publication_Id].isAuction, \"Publication not an auction.\");\n        require(publications[_publication_Id].isRunning, \"Auction not running.\");\n        bids[_id].status = bidStatus.Rejected;\n    }\n\n    // This function allows the auctioneer to cancel the bids\n    function cancelBid(uint256 _id) public {\n        uint256 _publication_Id = bids[_id].publication_Id;\n        require(userAddresses[msg.sender] == publications[_publication_Id].author_Id, \"User not the author of this publication\");\n        require(publications[_publication_Id].isAuction, \"Publication not an auction.\");\n        require(publications[_publication_Id].isRunning, \"Auction not running.\");\n        bids[_id].status = bidStatus.Cancelled;\n    }\n    \n    function changeToSale(uint256 _publication_Id, uint256 _sell_price) public {\n        require(userAddresses[msg.sender] == publications[_publication_Id].author_Id, \"User not the author of this publication\");\n        require(publications[_publication_Id].isAuction, \"Publication is not an auction\");\n        publications[_publication_Id].sell_price = _sell_price;\n        publications[_publication_Id].isAuction = false;\n    }\n   \n    function changeToAuction(uint256 _publication_Id) public {\n        require(userAddresses[msg.sender] == publications[_publication_Id].author_Id, \"User not the author of this publication\");\n        require(!publications[_publication_Id].isAuction, \"Publication is already on auction\");\n        publications[_publication_Id].sell_price = 0;\n        publications[_publication_Id].isAuction = true;\n    }\n\n    function changeSellPrice(uint256 _publication_Id, uint256 _sell_price) public {\n        require(userAddresses[msg.sender] == publications[_publication_Id].author_Id, \"User not the author of this publication\");\n        require(!publications[_publication_Id].isAuction, \"Publication is on auction.\");\n        publications[_publication_Id].sell_price = _sell_price;\n    }\n\n    function changeRunningStatus(uint256 _publication_Id) public {\n        require(userAddresses[msg.sender] == publications[_publication_Id].author_Id, \"User not the author of this publication\");\n        publications[_publication_Id].isRunning = !publications[_publication_Id].isRunning;\n    }\n\n    function getPublications(address _address) public view returns(uint256[] memory) {\n        uint256 _author_Id = userAddresses[_address];\n        return publicationOwners[_author_Id];\n    }\n\n    function getBids(address _address) public view returns(uint256[] memory) {\n        uint256 _userAddress = userAddresses[_address];\n        return bidOwners[_userAddress];\n    }\n\n    function getPublications(uint256 _user_Id) public view returns(uint256[] memory) {\n        return publicationOwners[_user_Id];\n    }\n\n    function getBids(uint256 _user_Id) public view returns(uint256[] memory) {\n        return bidOwners[_user_Id];\n    }\n\n    function getPublicationBids(uint256 _publication_Id) public view returns(uint256[] memory) {\n        return publications[_publication_Id].publication_bids;\n    }\n}\n",
  "sourcePath": "/Users/admin/unicoindapp/contracts/UnicoinRegistry.sol",
  "compiler": {
    "name": "solc",
    "version": "0.5.8+commit.23d335f2.Emscripten.clang"
  },
  "schemaVersion": "3.0.11",
  "updatedAt": "2019-07-17T16:09:38.853Z",
  "devdoc": {
    "methods": {
      "approve(address,uint256)": {
        "details": "Approves another address to transfer the given token ID The zero address indicates there is no approved address. There can only be one approved address per token at a given time. Can only be called by the token owner or an approved operator.",
        "params": {
          "to": "address to be approved for the given token ID",
          "tokenId": "uint256 ID of the token to be approved"
        }
      },
      "balanceOf(address)": {
        "details": "Gets the balance of the specified address.",
        "params": {
          "owner": "address to query the balance of"
        },
        "return": "uint256 representing the amount owned by the passed address"
      },
      "getApproved(uint256)": {
        "details": "Gets the approved address for a token ID, or zero if no address set Reverts if the token ID does not exist.",
        "params": {
          "tokenId": "uint256 ID of the token to query the approval of"
        },
        "return": "address currently approved for the given token ID"
      },
      "isApprovedForAll(address,address)": {
        "details": "Tells whether an operator is approved by a given owner.",
        "params": {
          "operator": "operator address which you want to query the approval of",
          "owner": "owner address which you want to query the approval of"
        },
        "return": "bool whether the given operator is approved by the given owner"
      },
      "ownerOf(uint256)": {
        "details": "Gets the owner of the specified token ID.",
        "params": {
          "tokenId": "uint256 ID of the token to query the owner of"
        },
        "return": "address currently marked as the owner of the given token ID"
      },
      "safeTransferFrom(address,address,uint256)": {
        "details": "Safely transfers the ownership of a given token ID to another address If the target address is a contract, it must implement `onERC721Received`, which is called upon a safe transfer, and return the magic value `bytes4(keccak256(\"onERC721Received(address,address,uint256,bytes)\"))`; otherwise, the transfer is reverted. Requires the msg.sender to be the owner, approved, or operator",
        "params": {
          "from": "current owner of the token",
          "to": "address to receive the ownership of the given token ID",
          "tokenId": "uint256 ID of the token to be transferred"
        }
      },
      "safeTransferFrom(address,address,uint256,bytes)": {
        "details": "Safely transfers the ownership of a given token ID to another address If the target address is a contract, it must implement `onERC721Received`, which is called upon a safe transfer, and return the magic value `bytes4(keccak256(\"onERC721Received(address,address,uint256,bytes)\"))`; otherwise, the transfer is reverted. Requires the msg.sender to be the owner, approved, or operator",
        "params": {
          "_data": "bytes data to send along with a safe transfer check",
          "from": "current owner of the token",
          "to": "address to receive the ownership of the given token ID",
          "tokenId": "uint256 ID of the token to be transferred"
        }
      },
      "setApprovalForAll(address,bool)": {
        "details": "Sets or unsets the approval of a given operator An operator is allowed to transfer all tokens of the sender on their behalf.",
        "params": {
          "approved": "representing the status of the approval to be set",
          "to": "operator address to set the approval"
        }
      },
      "supportsInterface(bytes4)": {
        "details": "See `IERC165.supportsInterface`.     * Time complexity O(1), guaranteed to always use less than 30 000 gas."
      },
      "transferFrom(address,address,uint256)": {
        "details": "Transfers the ownership of a given token ID to another address. Usage of this method is discouraged, use `safeTransferFrom` whenever possible. Requires the msg.sender to be the owner, approved, or operator.",
        "params": {
          "from": "current owner of the token",
          "to": "address to receive the ownership of the given token ID",
          "tokenId": "uint256 ID of the token to be transferred"
        }
      }
    }
  },
  "userdoc": {
    "methods": {}
  }
}