{
  "contractName": "UnicoinRegistry",
  "abi": [
    {
      "constant": true,
      "inputs": [
        {
          "name": "interfaceId",
          "type": "bytes4"
        }
      ],
      "name": "supportsInterface",
      "outputs": [
        {
          "name": "",
          "type": "bool"
        }
      ],
      "payable": false,
      "stateMutability": "view",
      "type": "function"
    },
    {
      "constant": true,
      "inputs": [],
      "name": "name",
      "outputs": [
        {
          "name": "",
          "type": "string"
        }
      ],
      "payable": false,
      "stateMutability": "view",
      "type": "function"
    },
    {
      "constant": true,
      "inputs": [
        {
          "name": "tokenId",
          "type": "uint256"
        }
      ],
      "name": "getApproved",
      "outputs": [
        {
          "name": "",
          "type": "address"
        }
      ],
      "payable": false,
      "stateMutability": "view",
      "type": "function"
    },
    {
      "constant": false,
      "inputs": [
        {
          "name": "to",
          "type": "address"
        },
        {
          "name": "tokenId",
          "type": "uint256"
        }
      ],
      "name": "approve",
      "outputs": [],
      "payable": false,
      "stateMutability": "nonpayable",
      "type": "function"
    },
    {
      "constant": true,
      "inputs": [
        {
          "name": "",
          "type": "uint256"
        },
        {
          "name": "",
          "type": "uint256"
        }
      ],
      "name": "publicationOwners",
      "outputs": [
        {
          "name": "",
          "type": "uint256"
        }
      ],
      "payable": false,
      "stateMutability": "view",
      "type": "function"
    },
    {
      "constant": true,
      "inputs": [
        {
          "name": "",
          "type": "uint256"
        }
      ],
      "name": "publications",
      "outputs": [
        {
          "name": "author_Id",
          "type": "uint256"
        },
        {
          "name": "publication_uri",
          "type": "string"
        },
        {
          "name": "isAuction",
          "type": "bool"
        },
        {
          "name": "isRunning",
          "type": "bool"
        },
        {
          "name": "sell_price",
          "type": "uint256"
        }
      ],
      "payable": false,
      "stateMutability": "view",
      "type": "function"
    },
    {
      "constant": false,
      "inputs": [
        {
          "name": "from",
          "type": "address"
        },
        {
          "name": "to",
          "type": "address"
        },
        {
          "name": "tokenId",
          "type": "uint256"
        }
      ],
      "name": "transferFrom",
      "outputs": [],
      "payable": false,
      "stateMutability": "nonpayable",
      "type": "function"
    },
    {
      "constant": true,
      "inputs": [
        {
          "name": "",
          "type": "uint256"
        }
      ],
      "name": "users",
      "outputs": [
        {
          "name": "owned_address",
          "type": "address"
        },
        {
          "name": "profile_uri",
          "type": "string"
        }
      ],
      "payable": false,
      "stateMutability": "view",
      "type": "function"
    },
    {
      "constant": false,
      "inputs": [
        {
          "name": "from",
          "type": "address"
        },
        {
          "name": "to",
          "type": "address"
        },
        {
          "name": "tokenId",
          "type": "uint256"
        }
      ],
      "name": "safeTransferFrom",
      "outputs": [],
      "payable": false,
      "stateMutability": "nonpayable",
      "type": "function"
    },
    {
      "constant": true,
      "inputs": [
        {
          "name": "",
          "type": "uint256"
        }
      ],
      "name": "bids",
      "outputs": [
        {
          "name": "offer",
          "type": "uint256"
        },
        {
          "name": "status",
          "type": "uint8"
        },
        {
          "name": "publication_Id",
          "type": "uint256"
        },
        {
          "name": "owner_Id",
          "type": "uint256"
        }
      ],
      "payable": false,
      "stateMutability": "view",
      "type": "function"
    },
    {
      "constant": true,
      "inputs": [
        {
          "name": "tokenId",
          "type": "uint256"
        }
      ],
      "name": "ownerOf",
      "outputs": [
        {
          "name": "",
          "type": "address"
        }
      ],
      "payable": false,
      "stateMutability": "view",
      "type": "function"
    },
    {
      "constant": true,
      "inputs": [
        {
          "name": "owner",
          "type": "address"
        }
      ],
      "name": "balanceOf",
      "outputs": [
        {
          "name": "",
          "type": "uint256"
        }
      ],
      "payable": false,
      "stateMutability": "view",
      "type": "function"
    },
    {
      "constant": true,
      "inputs": [],
      "name": "symbol",
      "outputs": [
        {
          "name": "",
          "type": "string"
        }
      ],
      "payable": false,
      "stateMutability": "view",
      "type": "function"
    },
    {
      "constant": false,
      "inputs": [
        {
          "name": "to",
          "type": "address"
        },
        {
          "name": "approved",
          "type": "bool"
        }
      ],
      "name": "setApprovalForAll",
      "outputs": [],
      "payable": false,
      "stateMutability": "nonpayable",
      "type": "function"
    },
    {
      "constant": false,
      "inputs": [
        {
          "name": "from",
          "type": "address"
        },
        {
          "name": "to",
          "type": "address"
        },
        {
          "name": "tokenId",
          "type": "uint256"
        },
        {
          "name": "_data",
          "type": "bytes"
        }
      ],
      "name": "safeTransferFrom",
      "outputs": [],
      "payable": false,
      "stateMutability": "nonpayable",
      "type": "function"
    },
    {
      "constant": true,
      "inputs": [
        {
          "name": "",
          "type": "uint256"
        }
      ],
      "name": "licences",
      "outputs": [
        {
          "name": "buyer_Id",
          "type": "uint256"
        },
        {
          "name": "publication_Id",
          "type": "uint256"
        },
        {
          "name": "bid_Id",
          "type": "uint256"
        }
      ],
      "payable": false,
      "stateMutability": "view",
      "type": "function"
    },
    {
      "constant": true,
      "inputs": [
        {
          "name": "tokenId",
          "type": "uint256"
        }
      ],
      "name": "tokenURI",
      "outputs": [
        {
          "name": "",
          "type": "string"
        }
      ],
      "payable": false,
      "stateMutability": "view",
      "type": "function"
    },
    {
      "constant": true,
      "inputs": [
        {
          "name": "",
          "type": "uint256"
        },
        {
          "name": "",
          "type": "uint256"
        }
      ],
      "name": "publicationLicences",
      "outputs": [
        {
          "name": "",
          "type": "uint256"
        }
      ],
      "payable": false,
      "stateMutability": "view",
      "type": "function"
    },
    {
      "constant": true,
      "inputs": [
        {
          "name": "",
          "type": "uint256"
        },
        {
          "name": "",
          "type": "uint256"
        }
      ],
      "name": "bidOwners",
      "outputs": [
        {
          "name": "",
          "type": "uint256"
        }
      ],
      "payable": false,
      "stateMutability": "view",
      "type": "function"
    },
    {
      "constant": true,
      "inputs": [
        {
          "name": "owner",
          "type": "address"
        },
        {
          "name": "operator",
          "type": "address"
        }
      ],
      "name": "isApprovedForAll",
      "outputs": [
        {
          "name": "",
          "type": "bool"
        }
      ],
      "payable": false,
      "stateMutability": "view",
      "type": "function"
    },
    {
      "constant": true,
      "inputs": [
        {
          "name": "",
          "type": "uint256"
        },
        {
          "name": "",
          "type": "uint256"
        }
      ],
      "name": "licenceOwners",
      "outputs": [
        {
          "name": "",
          "type": "uint256"
        }
      ],
      "payable": false,
      "stateMutability": "view",
      "type": "function"
    },
    {
      "constant": true,
      "inputs": [
        {
          "name": "",
          "type": "address"
        }
      ],
      "name": "userAddresses",
      "outputs": [
        {
          "name": "",
          "type": "uint256"
        }
      ],
      "payable": false,
      "stateMutability": "view",
      "type": "function"
    },
    {
      "inputs": [
        {
          "name": "_daiContractAddress",
          "type": "address"
        }
      ],
      "payable": false,
      "stateMutability": "nonpayable",
      "type": "constructor"
    },
    {
      "anonymous": false,
      "inputs": [
        {
          "indexed": true,
          "name": "_from",
          "type": "address"
        },
        {
          "indexed": false,
          "name": "_publication_uri",
          "type": "string"
        },
        {
          "indexed": false,
          "name": "_isAuction",
          "type": "bool"
        },
        {
          "indexed": false,
          "name": "_sell_price",
          "type": "uint256"
        }
      ],
      "name": "NewPublication",
      "type": "event"
    },
    {
      "anonymous": false,
      "inputs": [
        {
          "indexed": true,
          "name": "_from",
          "type": "address"
        },
        {
          "indexed": true,
          "name": "_publication_Id",
          "type": "uint256"
        },
        {
          "indexed": false,
          "name": "_offer",
          "type": "uint256"
        }
      ],
      "name": "NewBid",
      "type": "event"
    },
    {
      "anonymous": false,
      "inputs": [
        {
          "indexed": true,
          "name": "_from",
          "type": "address"
        },
        {
          "indexed": false,
          "name": "_id",
          "type": "uint256"
        }
      ],
      "name": "AcceptedBid",
      "type": "event"
    },
    {
      "anonymous": false,
      "inputs": [
        {
          "indexed": true,
          "name": "_from",
          "type": "address"
        },
        {
          "indexed": false,
          "name": "_id",
          "type": "uint256"
        }
      ],
      "name": "RejectedBid",
      "type": "event"
    },
    {
      "anonymous": false,
      "inputs": [
        {
          "indexed": true,
          "name": "_from",
          "type": "address"
        },
        {
          "indexed": false,
          "name": "_id",
          "type": "uint256"
        }
      ],
      "name": "CancelledBid",
      "type": "event"
    },
    {
      "anonymous": false,
      "inputs": [
        {
          "indexed": true,
          "name": "_from",
          "type": "address"
        },
        {
          "indexed": true,
          "name": "_publication_Id",
          "type": "uint256"
        },
        {
          "indexed": false,
          "name": "_sell_price",
          "type": "uint256"
        }
      ],
      "name": "ChangeToSale",
      "type": "event"
    },
    {
      "anonymous": false,
      "inputs": [
        {
          "indexed": true,
          "name": "_from",
          "type": "address"
        },
        {
          "indexed": true,
          "name": "_publication_Id",
          "type": "uint256"
        }
      ],
      "name": "ChangeToAuction",
      "type": "event"
    },
    {
      "anonymous": false,
      "inputs": [
        {
          "indexed": true,
          "name": "_from",
          "type": "address"
        },
        {
          "indexed": true,
          "name": "_publication_Id",
          "type": "uint256"
        },
        {
          "indexed": false,
          "name": "_sell_price",
          "type": "uint256"
        }
      ],
      "name": "ChangeSellPrice",
      "type": "event"
    },
    {
      "anonymous": false,
      "inputs": [
        {
          "indexed": true,
          "name": "_from",
          "type": "address"
        },
        {
          "indexed": true,
          "name": "_publication_Id",
          "type": "uint256"
        },
        {
          "indexed": false,
          "name": "_isRunning",
          "type": "bool"
        }
      ],
      "name": "ChangeRunningStatus",
      "type": "event"
    },
    {
      "anonymous": false,
      "inputs": [
        {
          "indexed": true,
          "name": "from",
          "type": "address"
        },
        {
          "indexed": true,
          "name": "to",
          "type": "address"
        },
        {
          "indexed": true,
          "name": "tokenId",
          "type": "uint256"
        }
      ],
      "name": "Transfer",
      "type": "event"
    },
    {
      "anonymous": false,
      "inputs": [
        {
          "indexed": true,
          "name": "owner",
          "type": "address"
        },
        {
          "indexed": true,
          "name": "approved",
          "type": "address"
        },
        {
          "indexed": true,
          "name": "tokenId",
          "type": "uint256"
        }
      ],
      "name": "Approval",
      "type": "event"
    },
    {
      "anonymous": false,
      "inputs": [
        {
          "indexed": true,
          "name": "owner",
          "type": "address"
        },
        {
          "indexed": true,
          "name": "operator",
          "type": "address"
        },
        {
          "indexed": false,
          "name": "approved",
          "type": "bool"
        }
      ],
      "name": "ApprovalForAll",
      "type": "event"
    },
    {
      "constant": false,
      "inputs": [
        {
          "name": "_profile_uri",
          "type": "string"
        }
      ],
      "name": "registerUser",
      "outputs": [],
      "payable": false,
      "stateMutability": "nonpayable",
      "type": "function"
    },
    {
      "constant": false,
      "inputs": [
        {
          "name": "_publication_uri",
          "type": "string"
        },
        {
          "name": "_isAuction",
          "type": "bool"
        },
        {
          "name": "_isRunning",
          "type": "bool"
        },
        {
          "name": "_sell_price",
          "type": "uint256"
        },
        {
          "name": "_contributors",
          "type": "uint256[]"
        },
        {
          "name": "_contributors_weightings",
          "type": "uint256[]"
        }
      ],
      "name": "createPublication",
      "outputs": [],
      "payable": false,
      "stateMutability": "nonpayable",
      "type": "function"
    },
    {
      "constant": false,
      "inputs": [
        {
          "name": "_offer",
          "type": "uint256"
        },
        {
          "name": "_publication_Id",
          "type": "uint256"
        }
      ],
      "name": "makeBid",
      "outputs": [],
      "payable": false,
      "stateMutability": "nonpayable",
      "type": "function"
    },
    {
      "constant": false,
      "inputs": [
        {
          "name": "_id",
          "type": "uint256"
        }
      ],
      "name": "acceptBid",
      "outputs": [],
      "payable": false,
      "stateMutability": "nonpayable",
      "type": "function"
    },
    {
      "constant": false,
      "inputs": [
        {
          "name": "_id",
          "type": "uint256"
        }
      ],
      "name": "rejectBid",
      "outputs": [],
      "payable": false,
      "stateMutability": "nonpayable",
      "type": "function"
    },
    {
      "constant": false,
      "inputs": [
        {
          "name": "_id",
          "type": "uint256"
        }
      ],
      "name": "cancelBid",
      "outputs": [],
      "payable": false,
      "stateMutability": "nonpayable",
      "type": "function"
    },
    {
      "constant": false,
      "inputs": [
        {
          "name": "_publication_Id",
          "type": "uint256"
        },
        {
          "name": "_sell_price",
          "type": "uint256"
        }
      ],
      "name": "changeToSale",
      "outputs": [],
      "payable": false,
      "stateMutability": "nonpayable",
      "type": "function"
    },
    {
      "constant": false,
      "inputs": [
        {
          "name": "_publication_Id",
          "type": "uint256"
        }
      ],
      "name": "changeToAuction",
      "outputs": [],
      "payable": false,
      "stateMutability": "nonpayable",
      "type": "function"
    },
    {
      "constant": false,
      "inputs": [
        {
          "name": "_publication_Id",
          "type": "uint256"
        },
        {
          "name": "_sell_price",
          "type": "uint256"
        }
      ],
      "name": "changeSellPrice",
      "outputs": [],
      "payable": false,
      "stateMutability": "nonpayable",
      "type": "function"
    },
    {
      "constant": false,
      "inputs": [
        {
          "name": "_publication_Id",
          "type": "uint256"
        }
      ],
      "name": "changeRunningStatus",
      "outputs": [],
      "payable": false,
      "stateMutability": "nonpayable",
      "type": "function"
    },
    {
      "constant": true,
      "inputs": [
        {
          "name": "_address",
          "type": "address"
        }
      ],
      "name": "getPublications",
      "outputs": [
        {
          "name": "",
          "type": "uint256[]"
        }
      ],
      "payable": false,
      "stateMutability": "view",
      "type": "function"
    },
    {
      "constant": true,
      "inputs": [
        {
          "name": "_address",
          "type": "address"
        }
      ],
      "name": "getBids",
      "outputs": [
        {
          "name": "",
          "type": "uint256[]"
        }
      ],
      "payable": false,
      "stateMutability": "view",
      "type": "function"
    },
    {
      "constant": true,
      "inputs": [
        {
          "name": "_publication_Id",
          "type": "uint256"
        }
      ],
      "name": "getPublicationBids",
      "outputs": [
        {
          "name": "",
          "type": "uint256[]"
        }
      ],
      "payable": false,
      "stateMutability": "view",
      "type": "function"
    },
    {
      "constant": true,
      "inputs": [],
      "name": "getPublicationLength",
      "outputs": [
        {
          "name": "count",
          "type": "uint256"
        }
      ],
      "payable": false,
      "stateMutability": "view",
      "type": "function"
    },
    {
      "constant": true,
      "inputs": [
        {
          "name": "_publication_Id",
          "type": "uint256"
        }
      ],
      "name": "getPublication",
      "outputs": [
        {
          "name": "",
          "type": "uint256"
        },
        {
          "name": "",
          "type": "string"
        },
        {
          "name": "",
          "type": "uint256[]"
        },
        {
          "name": "",
          "type": "bool"
        },
        {
          "name": "",
          "type": "bool"
        },
        {
          "name": "",
          "type": "uint256"
        },
        {
          "name": "",
          "type": "uint256[]"
        },
        {
          "name": "",
          "type": "uint256[]"
        }
      ],
      "payable": false,
      "stateMutability": "view",
      "type": "function"
    },
    {
      "constant": true,
      "inputs": [
        {
          "name": "_address",
          "type": "address"
        }
      ],
      "name": "getLicenceForAddress",
      "outputs": [
        {
          "name": "",
          "type": "uint256[]"
        }
      ],
      "payable": false,
      "stateMutability": "view",
      "type": "function"
    },
    {
      "constant": true,
      "inputs": [
        {
          "name": "_licenceId",
          "type": "uint256"
        }
      ],
      "name": "getLicence",
      "outputs": [
        {
          "name": "",
          "type": "uint256"
        },
        {
          "name": "",
          "type": "uint256"
        },
        {
          "name": "",
          "type": "uint256"
        }
      ],
      "payable": false,
      "stateMutability": "view",
      "type": "function"
    },
    {
      "constant": false,
      "inputs": [
        {
          "name": "_publication_Id",
          "type": "uint256"
        },
        {
          "name": "_value",
          "type": "uint256"
        }
      ],
      "name": "donate",
      "outputs": [],
      "payable": false,
      "stateMutability": "nonpayable",
      "type": "function"
    }
  ],
  "bytecode": "0x60806040523480156200001157600080fd5b50604051602080620061e6833981018060405260208110156200003357600080fd5b81019080805190602001909291905050506040518060400160405280600f81526020017f556e69436f696e204c6963656e636500000000000000000000000000000000008152506040518060400160405280600481526020017f554e494300000000000000000000000000000000000000000000000000000000815250620000c86301ffc9a760e01b620002b160201b60201c565b620000e06380ac58cd60e01b620002b160201b60201c565b8160059080519060200190620000f8929190620003ba565b50806006908051906020019062000111929190620003ba565b506200012a635b5e139f60e01b620002b160201b60201c565b505060086040518060400160405280600073ffffffffffffffffffffffffffffffffffffffff168152602001604051806020016040528060008152508152509080600181540180825580915050906001820390600052602060002090600202016000909192909190915060008201518160000160006101000a81548173ffffffffffffffffffffffffffffffffffffffff021916908373ffffffffffffffffffffffffffffffffffffffff1602179055506020820151816001019080519060200190620001f992919062000441565b50505050600e6040518060600160405280600081526020016000815260200160008152509080600181540180825580915050906001820390600052602060002090600302016000909192909190915060008201518160000155602082015181600101556040820151816002015550505080601160006101000a81548173ffffffffffffffffffffffffffffffffffffffff021916908373ffffffffffffffffffffffffffffffffffffffff16021790555050620004f0565b63ffffffff60e01b817bffffffffffffffffffffffffffffffffffffffffffffffffffffffff191614156200034e576040517f08c379a000000000000000000000000000000000000000000000000000000000815260040180806020018281038252601c8152602001807f4552433136353a20696e76616c696420696e746572666163652069640000000081525060200191505060405180910390fd5b6001600080837bffffffffffffffffffffffffffffffffffffffffffffffffffffffff19167bffffffffffffffffffffffffffffffffffffffffffffffffffffffff1916815260200190815260200160002060006101000a81548160ff02191690831515021790555050565b828054600181600116156101000203166002900490600052602060002090601f016020900481019282601f10620003fd57805160ff19168380011785556200042e565b828001600101855582156200042e579182015b828111156200042d57825182559160200191906001019062000410565b5b5090506200043d9190620004c8565b5090565b828054600181600116156101000203166002900490600052602060002090601f016020900481019282601f106200048457805160ff1916838001178555620004b5565b82800160010185558215620004b5579182015b82811115620004b457825182559160200191906001019062000497565b5b509050620004c49190620004c8565b5090565b620004ed91905b80821115620004e9576000816000905550600101620004cf565b5090565b90565b615ce680620005006000396000f3fe608060405234801561001057600080fd5b50600436106102485760003560e01c8063704f1b941161013b578063a8020ee7116100b8578063d628d5401161007c578063d628d5401461139d578063dc05d952146113e9578063e985e9c514611435578063f8ede44a146114b1578063fc86dea7146114fd57610248565b8063a8020ee7146110d0578063adfcdc1114611169578063b88d4fde146111a1578063bb44aee3146112a6578063c87b56dd146112f657610248565b80639703ef35116100ff5780639703ef3514610de85780639ab7a95414610e165780639dccae8214610e44578063a22cb46514610edd578063a564e83c14610f2d57610248565b8063704f1b9414610bfc57806370a0823114610cb75780637ece03bb14610d0f57806390420aee14610d2d57806395d89b4114610d6557610248565b80632b1fd58a116101c95780634423c5f11161018d5780634423c5f1146108be5780635fd814a0146109235780636352211e14610b28578063699b5fa114610b965780636e3341b314610bce57610248565b80632b1fd58a146106755780632cedebee146106a3578063365b98b2146106f35780633e764604146107cd57806342842e0e1461085057610248565b80630cdd53f6116102105780630cdd53f61461048a578063142af1ca146104c2578063166c6c801461050e5780631fd5bbab1461053c57806323b872dd1461060757610248565b806301ffc9a71461024d57806306fdde03146102b2578063081812fc1461033557806308204780146103a3578063095ea7b31461043c575b600080fd5b6102986004803603602081101561026357600080fd5b8101908080357bffffffffffffffffffffffffffffffffffffffffffffffffffffffff19169060200190929190505050611555565b604051808215151515815260200191505060405180910390f35b6102ba6115bc565b6040518080602001828103825283818151815260200191508051906020019080838360005b838110156102fa5780820151818401526020810190506102df565b50505050905090810190601f1680156103275780820380516001836020036101000a031916815260200191505b509250505060405180910390f35b6103616004803603602081101561034b57600080fd5b810190808035906020019092919050505061165e565b604051808273ffffffffffffffffffffffffffffffffffffffff1673ffffffffffffffffffffffffffffffffffffffff16815260200191505060405180910390f35b6103e5600480360360208110156103b957600080fd5b81019080803573ffffffffffffffffffffffffffffffffffffffff1690602001909291905050506116f9565b6040518080602001828103825283818151815260200191508051906020019060200280838360005b8381101561042857808201518184015260208101905061040d565b505050509050019250505060405180910390f35b6104886004803603604081101561045257600080fd5b81019080803573ffffffffffffffffffffffffffffffffffffffff169060200190929190803590602001909291905050506117a9565b005b6104c0600480360360408110156104a057600080fd5b810190808035906020019092919080359060200190929190505050611982565b005b6104f8600480360360408110156104d857600080fd5b810190808035906020019092919080359060200190929190505050611d3a565b6040518082815260200191505060405180910390f35b61053a6004803603602081101561052457600080fd5b8101908080359060200190929190505050611d68565b005b6105686004803603602081101561055257600080fd5b8101908080359060200190929190505050611f41565b60405180868152602001806020018515151515815260200184151515158152602001838152602001828103825286818151815260200191508051906020019080838360005b838110156105c85780820151818401526020810190506105ad565b50505050905090810190601f1680156105f55780820380516001836020036101000a031916815260200191505b50965050505050505060405180910390f35b6106736004803603606081101561061d57600080fd5b81019080803573ffffffffffffffffffffffffffffffffffffffff169060200190929190803573ffffffffffffffffffffffffffffffffffffffff16906020019092919080359060200190929190505050612036565b005b6106a16004803603602081101561068b57600080fd5b81019080803590602001909291905050506120a5565b005b6106cf600480360360208110156106b957600080fd5b81019080803590602001909291905050506124d4565b60405180848152602001838152602001828152602001935050505060405180910390f35b61071f6004803603602081101561070957600080fd5b8101908080359060200190929190505050612544565b604051808373ffffffffffffffffffffffffffffffffffffffff1673ffffffffffffffffffffffffffffffffffffffff16815260200180602001828103825283818151815260200191508051906020019080838360005b83811015610791578082015181840152602081019050610776565b50505050905090810190601f1680156107be5780820380516001836020036101000a031916815260200191505b50935050505060405180910390f35b6107f9600480360360208110156107e357600080fd5b810190808035906020019092919050505061262d565b6040518080602001828103825283818151815260200191508051906020019060200280838360005b8381101561083c578082015181840152602081019050610821565b505050509050019250505060405180910390f35b6108bc6004803603606081101561086657600080fd5b81019080803573ffffffffffffffffffffffffffffffffffffffff169060200190929190803573ffffffffffffffffffffffffffffffffffffffff169060200190929190803590602001909291905050506126a3565b005b6108ea600480360360208110156108d457600080fd5b81019080803590602001909291905050506126c3565b6040518085815260200184600481111561090057fe5b60ff16815260200183815260200182815260200194505050505060405180910390f35b610b26600480360360c081101561093957600080fd5b810190808035906020019064010000000081111561095657600080fd5b82018360208201111561096857600080fd5b8035906020019184600183028401116401000000008311171561098a57600080fd5b91908080601f016020809104026020016040519081016040528093929190818152602001838380828437600081840152601f19601f8201169050808301925050505050505091929192908035151590602001909291908035151590602001909291908035906020019092919080359060200190640100000000811115610a0f57600080fd5b820183602082011115610a2157600080fd5b80359060200191846020830284011164010000000083111715610a4357600080fd5b919080806020026020016040519081016040528093929190818152602001838360200280828437600081840152601f19601f82011690508083019250505050505050919291929080359060200190640100000000811115610aa357600080fd5b820183602082011115610ab557600080fd5b80359060200191846020830284011164010000000083111715610ad757600080fd5b919080806020026020016040519081016040528093929190818152602001838360200280828437600081840152601f19601f82011690508083019250505050505050919291929050505061270d565b005b610b5460048036036020811015610b3e57600080fd5b8101908080359060200190929190505050612b95565b604051808273ffffffffffffffffffffffffffffffffffffffff1673ffffffffffffffffffffffffffffffffffffffff16815260200191505060405180910390f35b610bcc60048036036040811015610bac57600080fd5b810190808035906020019092919080359060200190929190505050612c5d565b005b610bfa60048036036020811015610be457600080fd5b8101908080359060200190929190505050612e5d565b005b610cb560048036036020811015610c1257600080fd5b8101908080359060200190640100000000811115610c2f57600080fd5b820183602082011115610c4157600080fd5b80359060200191846001830284011164010000000083111715610c6357600080fd5b91908080601f016020809104026020016040519081016040528093929190818152602001838380828437600081840152601f19601f820116905080830192505050505050509192919290505050613103565b005b610cf960048036036020811015610ccd57600080fd5b81019080803573ffffffffffffffffffffffffffffffffffffffff16906020019092919050505061333c565b6040518082815260200191505060405180910390f35b610d17613411565b6040518082815260200191505060405180910390f35b610d6360048036036040811015610d4357600080fd5b81019080803590602001909291908035906020019092919050505061341e565b005b610d6d6135e8565b6040518080602001828103825283818151815260200191508051906020019080838360005b83811015610dad578082015181840152602081019050610d92565b50505050905090810190601f168015610dda5780820380516001836020036101000a031916815260200191505b509250505060405180910390f35b610e1460048036036020811015610dfe57600080fd5b810190808035906020019092919050505061368a565b005b610e4260048036036020811015610e2c57600080fd5b8101908080359060200190929190505050613997565b005b610e8660048036036020811015610e5a57600080fd5b81019080803573ffffffffffffffffffffffffffffffffffffffff169060200190929190505050613b2f565b6040518080602001828103825283818151815260200191508051906020019060200280838360005b83811015610ec9578082015181840152602081019050610eae565b505050509050019250505060405180910390f35b610f2b60048036036040811015610ef357600080fd5b81019080803573ffffffffffffffffffffffffffffffffffffffff169060200190929190803515159060200190929190505050613bdf565b005b610f5960048036036020811015610f4357600080fd5b8101908080359060200190929190505050613d82565b6040518089815260200180602001806020018815151515815260200187151515158152602001868152602001806020018060200185810385528c818151815260200191508051906020019080838360005b83811015610fc5578082015181840152602081019050610faa565b50505050905090810190601f168015610ff25780820380516001836020036101000a031916815260200191505b5085810384528b818151815260200191508051906020019060200280838360005b8381101561102e578082015181840152602081019050611013565b50505050905001858103835287818151815260200191508051906020019060200280838360005b83811015611070578082015181840152602081019050611055565b50505050905001858103825286818151815260200191508051906020019060200280838360005b838110156110b2578082015181840152602081019050611097565b505050509050019c5050505050505050505050505060405180910390f35b611112600480360360208110156110e657600080fd5b81019080803573ffffffffffffffffffffffffffffffffffffffff169060200190929190505050614004565b6040518080602001828103825283818151815260200191508051906020019060200280838360005b8381101561115557808201518184015260208101905061113a565b505050509050019250505060405180910390f35b61119f6004803603604081101561117f57600080fd5b8101908080359060200190929190803590602001909291905050506140b4565b005b6112a4600480360360808110156111b757600080fd5b81019080803573ffffffffffffffffffffffffffffffffffffffff169060200190929190803573ffffffffffffffffffffffffffffffffffffffff169060200190929190803590602001909291908035906020019064010000000081111561121e57600080fd5b82018360208201111561123057600080fd5b8035906020019184600183028401116401000000008311171561125257600080fd5b91908080601f016020809104026020016040519081016040528093929190818152602001838380828437600081840152601f19601f820116905080830192505050505050509192919290505050614c6f565b005b6112d2600480360360208110156112bc57600080fd5b8101908080359060200190929190505050614ce1565b60405180848152602001838152602001828152602001935050505060405180910390f35b6113226004803603602081101561130c57600080fd5b8101908080359060200190929190505050614d18565b6040518080602001828103825283818151815260200191508051906020019080838360005b83811015611362578082015181840152602081019050611347565b50505050905090810190601f16801561138f5780820380516001836020036101000a031916815260200191505b509250505060405180910390f35b6113d3600480360360408110156113b357600080fd5b810190808035906020019092919080359060200190929190505050614e2b565b6040518082815260200191505060405180910390f35b61141f600480360360408110156113ff57600080fd5b810190808035906020019092919080359060200190929190505050614e59565b6040518082815260200191505060405180910390f35b6114976004803603604081101561144b57600080fd5b81019080803573ffffffffffffffffffffffffffffffffffffffff169060200190929190803573ffffffffffffffffffffffffffffffffffffffff169060200190929190505050614e87565b604051808215151515815260200191505060405180910390f35b6114e7600480360360408110156114c757600080fd5b810190808035906020019092919080359060200190929190505050614f1b565b6040518082815260200191505060405180910390f35b61153f6004803603602081101561151357600080fd5b81019080803573ffffffffffffffffffffffffffffffffffffffff169060200190929190505050614f49565b6040518082815260200191505060405180910390f35b6000806000837bffffffffffffffffffffffffffffffffffffffffffffffffffffffff19167bffffffffffffffffffffffffffffffffffffffffffffffffffffffff1916815260200190815260200160002060009054906101000a900460ff169050919050565b606060058054600181600116156101000203166002900480601f0160208091040260200160405190810160405280929190818152602001828054600181600116156101000203166002900480156116545780601f1061162957610100808354040283529160200191611654565b820191906000526020600020905b81548152906001019060200180831161163757829003601f168201915b5050505050905090565b600061166982614f61565b6116be576040517f08c379a000000000000000000000000000000000000000000000000000000000815260040180806020018281038252602c815260200180615b73602c913960400191505060405180910390fd5b6002600083815260200190815260200160002060009054906101000a900473ffffffffffffffffffffffffffffffffffffffff169050919050565b60606000600960008473ffffffffffffffffffffffffffffffffffffffff1673ffffffffffffffffffffffffffffffffffffffff168152602001908152602001600020549050600d600082815260200190815260200160002080548060200260200160405190810160405280929190818152602001828054801561179c57602002820191906000526020600020905b815481526020019060010190808311611788575b5050505050915050919050565b60006117b482612b95565b90508073ffffffffffffffffffffffffffffffffffffffff168373ffffffffffffffffffffffffffffffffffffffff16141561183b576040517f08c379a0000000000000000000000000000000000000000000000000000000008152600401808060200182810382526021815260200180615c216021913960400191505060405180910390fd5b8073ffffffffffffffffffffffffffffffffffffffff163373ffffffffffffffffffffffffffffffffffffffff16148061187b575061187a8133614e87565b5b6118d0576040517f08c379a0000000000000000000000000000000000000000000000000000000008152600401808060200182810382526038815260200180615ae86038913960400191505060405180910390fd5b826002600084815260200190815260200160002060006101000a81548173ffffffffffffffffffffffffffffffffffffffff021916908373ffffffffffffffffffffffffffffffffffffffff160217905550818373ffffffffffffffffffffffffffffffffffffffff168273ffffffffffffffffffffffffffffffffffffffff167f8c5be1e5ebec7d5bd14f71427d1e84f3dd0314c0f7b2291e5b200ac8c7c3b92560405160405180910390a4505050565b6000600960003373ffffffffffffffffffffffffffffffffffffffff1673ffffffffffffffffffffffffffffffffffffffff168152602001908152602001600020541415611a38576040517f08c379a000000000000000000000000000000000000000000000000000000000815260040180806020018281038252601f8152602001807f557365722061646472657373206973206e6f7420726567697374657265642e0081525060200191505060405180910390fd5b80601160009054906101000a900473ffffffffffffffffffffffffffffffffffffffff1673ffffffffffffffffffffffffffffffffffffffff1663dd62ed3e33306040518363ffffffff1660e01b8152600401808373ffffffffffffffffffffffffffffffffffffffff1673ffffffffffffffffffffffffffffffffffffffff1681526020018273ffffffffffffffffffffffffffffffffffffffff1673ffffffffffffffffffffffffffffffffffffffff1681526020019250505060206040518083038186803b158015611b0c57600080fd5b505afa158015611b20573d6000803e3d6000fd5b505050506040513d6020811015611b3657600080fd5b81019080805190602001909291905050501015611bbb576040517f08c379a000000000000000000000000000000000000000000000000000000000815260040180806020018281038252601b8152602001807f496e73756666696369656e742066756e6420616c6c6f77616e6365000000000081525060200191505060405180910390fd5b60006008600c8481548110611bcc57fe5b90600052602060002090600702016000015481548110611be857fe5b906000526020600020906002020160000160009054906101000a900473ffffffffffffffffffffffffffffffffffffffff169050601160009054906101000a900473ffffffffffffffffffffffffffffffffffffffff1673ffffffffffffffffffffffffffffffffffffffff166323b872dd3383856040518463ffffffff1660e01b8152600401808473ffffffffffffffffffffffffffffffffffffffff1673ffffffffffffffffffffffffffffffffffffffff1681526020018373ffffffffffffffffffffffffffffffffffffffff1673ffffffffffffffffffffffffffffffffffffffff1681526020018281526020019350505050602060405180830381600087803b158015611cf957600080fd5b505af1158015611d0d573d6000803e3d6000fd5b505050506040513d6020811015611d2357600080fd5b810190808051906020019092919050505050505050565b600d6020528160005260406000208181548110611d5357fe5b90600052602060002001600091509150505481565b600c8181548110611d7557fe5b906000526020600020906007020160000154600960003373ffffffffffffffffffffffffffffffffffffffff1673ffffffffffffffffffffffffffffffffffffffff1681526020019081526020016000205414611e1d576040517f08c379a0000000000000000000000000000000000000000000000000000000008152600401808060200182810382526027815260200180615c426027913960400191505060405180910390fd5b600c8181548110611e2a57fe5b906000526020600020906007020160030160009054906101000a900460ff1615611e9f576040517f08c379a0000000000000000000000000000000000000000000000000000000008152600401808060200182810382526021815260200180615c9a6021913960400191505060405180910390fd5b6000600c8281548110611eae57fe5b9060005260206000209060070201600401819055506001600c8281548110611ed257fe5b906000526020600020906007020160030160006101000a81548160ff021916908315150217905550803373ffffffffffffffffffffffffffffffffffffffff167fed3628c645cd5f837f2e20e2e7d612b35ed6266f622397f8cf6e70fdf8b1a93d60405160405180910390a350565b600c8181548110611f4e57fe5b9060005260206000209060070201600091509050806000015490806001018054600181600116156101000203166002900480601f0160208091040260200160405190810160405280929190818152602001828054600181600116156101000203166002900480156120005780601f10611fd557610100808354040283529160200191612000565b820191906000526020600020905b815481529060010190602001808311611fe357829003601f168201915b5050505050908060030160009054906101000a900460ff16908060030160019054906101000a900460ff16908060040154905085565b6120403382614fd3565b612095576040517f08c379a0000000000000000000000000000000000000000000000000000000008152600401808060200182810382526031815260200180615c696031913960400191505060405180910390fd5b6120a08383836150c7565b505050565b6000600a82815481106120b457fe5b9060005260206000209060040201600201549050600c81815481106120d557fe5b906000526020600020906007020160000154600960003373ffffffffffffffffffffffffffffffffffffffff1673ffffffffffffffffffffffffffffffffffffffff168152602001908152602001600020541461217d576040517f08c379a0000000000000000000000000000000000000000000000000000000008152600401808060200182810382526027815260200180615c426027913960400191505060405180910390fd5b600c818154811061218a57fe5b906000526020600020906007020160030160009054906101000a900460ff1661221b576040517f08c379a000000000000000000000000000000000000000000000000000000000815260040180806020018281038252601b8152602001807f5075626c69636174696f6e206e6f7420616e2061756374696f6e2e000000000081525060200191505060405180910390fd5b600c818154811061222857fe5b906000526020600020906007020160030160019054906101000a900460ff166122b9576040517f08c379a00000000000000000000000000000000000000000000000000000000081526004018080602001828103825260178152602001807f41756374696f6e206973206e6f742072756e6e696e672e00000000000000000081525060200191505060405180910390fd5b6001600a83815481106122c857fe5b906000526020600020906004020160010160006101000a81548160ff021916908360048111156122f457fe5b02179055506000600e6040518060600160405280600a868154811061231557fe5b9060005260206000209060040201600301548152602001848152602001858152509080600181540180825580915050906001820390600052602060002090600302016000909192909190915060008201518160000155602082015181600101556040820151816002015550509050600f6000600a858154811061239457fe5b9060005260206000209060040201600301548152602001908152602001600020819080600181540180825580915050906001820390600052602060002001600090919290919091505550601060008381526020019081526020016000208190806001815401808255809150509060018203906000526020600020016000909192909190915055506124816008600a858154811061242d57fe5b9060005260206000209060040201600301548154811061244957fe5b906000526020600020906002020160000160009054906101000a900473ffffffffffffffffffffffffffffffffffffffff1682615322565b3373ffffffffffffffffffffffffffffffffffffffff167fdefdc4699ae6600934634bec71e3e4081368537fb24e45ea245b17b8c448c391846040518082815260200191505060405180910390a2505050565b60008060006124e16158c4565b600e85815481106124ee57fe5b906000526020600020906003020160405180606001604052908160008201548152602001600182015481526020016002820154815250509050806000015181602001518260400151935093509350509193909250565b6008818154811061255157fe5b90600052602060002090600202016000915090508060000160009054906101000a900473ffffffffffffffffffffffffffffffffffffffff1690806001018054600181600116156101000203166002900480601f0160208091040260200160405190810160405280929190818152602001828054600181600116156101000203166002900480156126235780601f106125f857610100808354040283529160200191612623565b820191906000526020600020905b81548152906001019060200180831161260657829003601f168201915b5050505050905082565b6060600c828154811061263c57fe5b906000526020600020906007020160020180548060200260200160405190810160405280929190818152602001828054801561269757602002820191906000526020600020905b815481526020019060010190808311612683575b50505050509050919050565b6126be83838360405180602001604052806000815250614c6f565b505050565b600a81815481106126d057fe5b90600052602060002090600402016000915090508060000154908060010160009054906101000a900460ff16908060020154908060030154905084565b6000865111612767576040517f08c379a0000000000000000000000000000000000000000000000000000000008152600401808060200182810382526024815260200180615a216024913960400191505060405180910390fd5b6000600960003373ffffffffffffffffffffffffffffffffffffffff1673ffffffffffffffffffffffffffffffffffffffff16815260200190815260200160002054141561281d576040517f08c379a000000000000000000000000000000000000000000000000000000000815260040180806020018281038252601f8152602001807f557365722061646472657373206973206e6f7420726567697374657265642e0081525060200191505060405180910390fd5b8415612881576000831461287c576040517f08c379a000000000000000000000000000000000000000000000000000000000815260040180806020018281038252602a815260200180615bf7602a913960400191505060405180910390fd5b6128f8565b600083116128f7576040517f08c379a00000000000000000000000000000000000000000000000000000000081526004018080602001828103825260198152602001807f53656c6c207072696365206e6f74207370656369666965642e0000000000000081525060200191505060405180910390fd5b5b6000600960003373ffffffffffffffffffffffffffffffffffffffff1673ffffffffffffffffffffffffffffffffffffffff16815260200190815260200160002054905060606129466158e5565b6040518061010001604052808481526020018a8152602001838152602001891515815260200188151581526020018781526020018681526020018581525090506000600c82908060018154018082558091505090600182039060005260206000209060070201600090919290919091506000820151816000015560208201518160010190805190602001906129dc92919061592e565b5060408201518160020190805190602001906129f99291906159ae565b5060608201518160030160006101000a81548160ff02191690831515021790555060808201518160030160016101000a81548160ff02191690831515021790555060a0820151816004015560c0820151816005019080519060200190612a609291906159ae565b5060e0820151816006019080519060200190612a7d9291906159ae565b5050509050600d60008581526020019081526020016000206001820390806001815401808255809150509060018203906000526020600020016000909192909190915055503373ffffffffffffffffffffffffffffffffffffffff167fc5c8be27db4aa3feaacd664a304c17843e7eb46882bf882c614339864d3fa9348b8b8a604051808060200184151515158152602001838152602001828103825285818151815260200191508051906020019080838360005b83811015612b4d578082015181840152602081019050612b32565b50505050905090810190601f168015612b7a5780820380516001836020036101000a031916815260200191505b5094505050505060405180910390a250505050505050505050565b6000806001600084815260200190815260200160002060009054906101000a900473ffffffffffffffffffffffffffffffffffffffff169050600073ffffffffffffffffffffffffffffffffffffffff168173ffffffffffffffffffffffffffffffffffffffff161415612c54576040517f08c379a0000000000000000000000000000000000000000000000000000000008152600401808060200182810382526029815260200180615b4a6029913960400191505060405180910390fd5b80915050919050565b600c8281548110612c6a57fe5b906000526020600020906007020160000154600960003373ffffffffffffffffffffffffffffffffffffffff1673ffffffffffffffffffffffffffffffffffffffff1681526020019081526020016000205414612d12576040517f08c379a0000000000000000000000000000000000000000000000000000000008152600401808060200182810382526027815260200180615c426027913960400191505060405180910390fd5b600c8281548110612d1f57fe5b906000526020600020906007020160030160009054906101000a900460ff16612db0576040517f08c379a000000000000000000000000000000000000000000000000000000000815260040180806020018281038252601d8152602001807f5075626c69636174696f6e206973206e6f7420616e2061756374696f6e00000081525060200191505060405180910390fd5b80600c8381548110612dbe57fe5b9060005260206000209060070201600401819055506000600c8381548110612de257fe5b906000526020600020906007020160030160006101000a81548160ff021916908315150217905550813373ffffffffffffffffffffffffffffffffffffffff167feb01c69f283d553c999e4a1f4fec7c1b89accdb3e03ab88c13060bd7ba52956d836040518082815260200191505060405180910390a35050565b6000600a8281548110612e6c57fe5b9060005260206000209060040201600201549050600c8181548110612e8d57fe5b906000526020600020906007020160000154600960003373ffffffffffffffffffffffffffffffffffffffff1673ffffffffffffffffffffffffffffffffffffffff1681526020019081526020016000205414612f35576040517f08c379a0000000000000000000000000000000000000000000000000000000008152600401808060200182810382526027815260200180615c426027913960400191505060405180910390fd5b600c8181548110612f4257fe5b906000526020600020906007020160030160009054906101000a900460ff16612fd3576040517f08c379a000000000000000000000000000000000000000000000000000000000815260040180806020018281038252601b8152602001807f5075626c69636174696f6e206e6f7420616e2061756374696f6e2e000000000081525060200191505060405180910390fd5b600c8181548110612fe057fe5b906000526020600020906007020160030160019054906101000a900460ff16613071576040517f08c379a00000000000000000000000000000000000000000000000000000000081526004018080602001828103825260148152602001807f41756374696f6e206e6f742072756e6e696e672e00000000000000000000000081525060200191505060405180910390fd5b6002600a838154811061308057fe5b906000526020600020906004020160010160006101000a81548160ff021916908360048111156130ac57fe5b02179055503373ffffffffffffffffffffffffffffffffffffffff167fa97dd0c2abeef1f0a272ee5692396209ab3491ef31f466732c8d24f162e8f491836040518082815260200191505060405180910390a25050565b600081511161317a576040517f08c379a00000000000000000000000000000000000000000000000000000000081526004018080602001828103825260208152602001807f50726f66696c65205552492073686f756c64206e6f7420626520656d7074792e81525060200191505060405180910390fd5b6000600960003373ffffffffffffffffffffffffffffffffffffffff1673ffffffffffffffffffffffffffffffffffffffff168152602001908152602001600020541461322f576040517f08c379a00000000000000000000000000000000000000000000000000000000081526004018080602001828103825260188152602001807f5573657220616c726561647920726567697374657265642e000000000000000081525060200191505060405180910390fd5b6000600860405180604001604052803373ffffffffffffffffffffffffffffffffffffffff168152602001848152509080600181540180825580915050906001820390600052602060002090600202016000909192909190915060008201518160000160006101000a81548173ffffffffffffffffffffffffffffffffffffffff021916908373ffffffffffffffffffffffffffffffffffffffff16021790555060208201518160010190805190602001906132ec92919061592e565b505050905060018103600960003373ffffffffffffffffffffffffffffffffffffffff1673ffffffffffffffffffffffffffffffffffffffff168152602001908152602001600020819055505050565b60008073ffffffffffffffffffffffffffffffffffffffff168273ffffffffffffffffffffffffffffffffffffffff1614156133c3576040517f08c379a000000000000000000000000000000000000000000000000000000000815260040180806020018281038252602a815260200180615b20602a913960400191505060405180910390fd5b61340a600360008473ffffffffffffffffffffffffffffffffffffffff1673ffffffffffffffffffffffffffffffffffffffff16815260200190815260200160002061553a565b9050919050565b6000600c80549050905090565b600c828154811061342b57fe5b906000526020600020906007020160000154600960003373ffffffffffffffffffffffffffffffffffffffff1673ffffffffffffffffffffffffffffffffffffffff16815260200190815260200160002054146134d3576040517f08c379a0000000000000000000000000000000000000000000000000000000008152600401808060200182810382526027815260200180615c426027913960400191505060405180910390fd5b600c82815481106134e057fe5b906000526020600020906007020160030160009054906101000a900460ff1615613572576040517f08c379a000000000000000000000000000000000000000000000000000000000815260040180806020018281038252601a8152602001807f5075626c69636174696f6e206973206f6e2061756374696f6e2e00000000000081525060200191505060405180910390fd5b80600c838154811061358057fe5b906000526020600020906007020160040181905550813373ffffffffffffffffffffffffffffffffffffffff167f9bb7e7778469d9687fcfa57546d6e1eebc04b3fa55fabe83c2d4d0baae3a32b4836040518082815260200191505060405180910390a35050565b606060068054600181600116156101000203166002900480601f0160208091040260200160405190810160405280929190818152602001828054600181600116156101000203166002900480156136805780601f1061365557610100808354040283529160200191613680565b820191906000526020600020905b81548152906001019060200180831161366357829003601f168201915b5050505050905090565b6000600a828154811061369957fe5b9060005260206000209060040201600201549050600c81815481106136ba57fe5b906000526020600020906007020160000154600960003373ffffffffffffffffffffffffffffffffffffffff1673ffffffffffffffffffffffffffffffffffffffff1681526020019081526020016000205414806137745750600a828154811061372057fe5b906000526020600020906004020160030154600960003373ffffffffffffffffffffffffffffffffffffffff1673ffffffffffffffffffffffffffffffffffffffff16815260200190815260200160002054145b6137c9576040517f08c379a0000000000000000000000000000000000000000000000000000000008152600401808060200182810382526027815260200180615c426027913960400191505060405180910390fd5b600c81815481106137d657fe5b906000526020600020906007020160030160009054906101000a900460ff16613867576040517f08c379a000000000000000000000000000000000000000000000000000000000815260040180806020018281038252601b8152602001807f5075626c69636174696f6e206e6f7420616e2061756374696f6e2e000000000081525060200191505060405180910390fd5b600c818154811061387457fe5b906000526020600020906007020160030160019054906101000a900460ff16613905576040517f08c379a00000000000000000000000000000000000000000000000000000000081526004018080602001828103825260148152602001807f41756374696f6e206e6f742072756e6e696e672e00000000000000000000000081525060200191505060405180910390fd5b6004600a838154811061391457fe5b906000526020600020906004020160010160006101000a81548160ff0219169083600481111561394057fe5b02179055503373ffffffffffffffffffffffffffffffffffffffff167f501720be89f6a98b45d2037d3d01fbbb1b327b894b2137f8a52c608e7c4e8156836040518082815260200191505060405180910390a25050565b600c81815481106139a457fe5b906000526020600020906007020160000154600960003373ffffffffffffffffffffffffffffffffffffffff1673ffffffffffffffffffffffffffffffffffffffff1681526020019081526020016000205414613a4c576040517f08c379a0000000000000000000000000000000000000000000000000000000008152600401808060200182810382526027815260200180615c426027913960400191505060405180910390fd5b600c8181548110613a5957fe5b906000526020600020906007020160030160019054906101000a900460ff1615600c8281548110613a8657fe5b906000526020600020906007020160030160016101000a81548160ff021916908315150217905550803373ffffffffffffffffffffffffffffffffffffffff167fe0bd549884d6be9a8162c0a6068c65f6ece0c544934a3e3d9a81bfcd39aadc88600c8481548110613af457fe5b906000526020600020906007020160030160019054906101000a900460ff16604051808215151515815260200191505060405180910390a350565b60606000600960008473ffffffffffffffffffffffffffffffffffffffff1673ffffffffffffffffffffffffffffffffffffffff168152602001908152602001600020549050600b6000828152602001908152602001600020805480602002602001604051908101604052809291908181526020018280548015613bd257602002820191906000526020600020905b815481526020019060010190808311613bbe575b5050505050915050919050565b3373ffffffffffffffffffffffffffffffffffffffff168273ffffffffffffffffffffffffffffffffffffffff161415613c81576040517f08c379a00000000000000000000000000000000000000000000000000000000081526004018080602001828103825260198152602001807f4552433732313a20617070726f766520746f2063616c6c65720000000000000081525060200191505060405180910390fd5b80600460003373ffffffffffffffffffffffffffffffffffffffff1673ffffffffffffffffffffffffffffffffffffffff16815260200190815260200160002060008473ffffffffffffffffffffffffffffffffffffffff1673ffffffffffffffffffffffffffffffffffffffff16815260200190815260200160002060006101000a81548160ff0219169083151502179055508173ffffffffffffffffffffffffffffffffffffffff163373ffffffffffffffffffffffffffffffffffffffff167f17307eab39ab6107e8899845ad3d59bd9653f200f220920489ca2b5937696c3183604051808215151515815260200191505060405180910390a35050565b60006060806000806000606080613d976158e5565b600c8a81548110613da457fe5b90600052602060002090600702016040518061010001604052908160008201548152602001600182018054600181600116156101000203166002900480601f016020809104026020016040519081016040528092919081815260200182805460018160011615610100020316600290048015613e615780601f10613e3657610100808354040283529160200191613e61565b820191906000526020600020905b815481529060010190602001808311613e4457829003601f168201915b5050505050815260200160028201805480602002602001604051908101604052809291908181526020018280548015613eb957602002820191906000526020600020905b815481526020019060010190808311613ea5575b505050505081526020016003820160009054906101000a900460ff161515151581526020016003820160019054906101000a900460ff161515151581526020016004820154815260200160058201805480602002602001604051908101604052809291908181526020018280548015613f5157602002820191906000526020600020905b815481526020019060010190808311613f3d575b5050505050815260200160068201805480602002602001604051908101604052809291908181526020018280548015613fa957602002820191906000526020600020905b815481526020019060010190808311613f95575b5050505050815250509050806000015181602001518260400151836060015184608001518560a001518660c001518760e001518696508595508191508090509850985098509850985098509850985050919395975091939597565b60606000600960008473ffffffffffffffffffffffffffffffffffffffff1673ffffffffffffffffffffffffffffffffffffffff168152602001908152602001600020549050600f60008281526020019081526020016000208054806020026020016040519081016040528092919081815260200182805480156140a757602002820191906000526020600020905b815481526020019060010190808311614093575b5050505050915050919050565b6000600c82815481106140c357fe5b9060005260206000209060070201600001541415614149576040517f08c379a00000000000000000000000000000000000000000000000000000000081526004018080602001828103825260198152602001807f5075626c69636174696f6e206e6f7420656e6c69737465642e0000000000000081525060200191505060405180910390fd5b6000600960003373ffffffffffffffffffffffffffffffffffffffff1673ffffffffffffffffffffffffffffffffffffffff1681526020019081526020016000205414156141e2576040517f08c379a0000000000000000000000000000000000000000000000000000000008152600401808060200182810382526021815260200180615a776021913960400191505060405180910390fd5b600c81815481106141ef57fe5b906000526020600020906007020160030160009054906101000a900460ff16156144b257600c818154811061422057fe5b906000526020600020906007020160030160019054906101000a900460ff166142b1576040517f08c379a00000000000000000000000000000000000000000000000000000000081526004018080602001828103825260178152602001807f41756374696f6e206973206e6f742072756e6e696e672e00000000000000000081525060200191505060405180910390fd5b6000600a6040518060800160405280858152602001600060048111156142d357fe5b8152602001848152602001600960003373ffffffffffffffffffffffffffffffffffffffff1673ffffffffffffffffffffffffffffffffffffffff16815260200190815260200160002054815250908060018154018082558091505090600182039060005260206000209060040201600090919290919091506000820151816000015560208201518160010160006101000a81548160ff0219169083600481111561437a57fe5b0217905550604082015181600201556060820151816003015550509050600c82815481106143a457fe5b9060005260206000209060070201600201600182039080600181540180825580915050906001820390600052602060002001600090919290919091505550600b6000600960003373ffffffffffffffffffffffffffffffffffffffff1673ffffffffffffffffffffffffffffffffffffffff168152602001908152602001600020548152602001908152602001600020600182039080600181540180825580915050906001820390600052602060002001600090919290919091505550813373ffffffffffffffffffffffffffffffffffffffff167f87f5b2fe112bf269d30fb8ca9dc0bde0afd0cc39258e13fafd75fe794795bf0e856040518082815260200191505060405180910390a3505b600c81815481106144bf57fe5b906000526020600020906007020160030160009054906101000a900460ff16614c6b57600c81815481106144ef57fe5b9060005260206000209060070201600401548214614575576040517f08c379a00000000000000000000000000000000000000000000000000000000081526004018080602001828103825260158152602001807f496e636f72726563742066756e64732073656e742e000000000000000000000081525060200191505060405180910390fd5b60006001600a60405180608001604052808681526020016003600481111561459957fe5b8152602001858152602001600960003373ffffffffffffffffffffffffffffffffffffffff1673ffffffffffffffffffffffffffffffffffffffff16815260200190815260200160002054815250908060018154018082558091505090600182039060005260206000209060040201600090919290919091506000820151816000015560208201518160010160006101000a81548160ff0219169083600481111561464057fe5b021790555060408201518160020155606082015181600301555050039050600c828154811061466b57fe5b9060005260206000209060070201600201819080600181540180825580915050906001820390600052602060002001600090919290919091505550600b6000600960003373ffffffffffffffffffffffffffffffffffffffff1673ffffffffffffffffffffffffffffffffffffffff16815260200190815260200160002054815260200190815260200160002081908060018154018082558091505090600182039060005260206000200160009091929091909150555082601160009054906101000a900473ffffffffffffffffffffffffffffffffffffffff1673ffffffffffffffffffffffffffffffffffffffff1663dd62ed3e33306040518363ffffffff1660e01b8152600401808373ffffffffffffffffffffffffffffffffffffffff1673ffffffffffffffffffffffffffffffffffffffff1681526020018273ffffffffffffffffffffffffffffffffffffffff1673ffffffffffffffffffffffffffffffffffffffff1681526020019250505060206040518083038186803b1580156147f657600080fd5b505afa15801561480a573d6000803e3d6000fd5b505050506040513d602081101561482057600080fd5b810190808051906020019092919050505010156148a5576040517f08c379a000000000000000000000000000000000000000000000000000000000815260040180806020018281038252601b8152602001807f496e73756666696369656e742066756e6420616c6c6f77616e6365000000000081525060200191505060405180910390fd5b60006008600c84815481106148b657fe5b906000526020600020906007020160000154815481106148d257fe5b906000526020600020906002020160000160009054906101000a900473ffffffffffffffffffffffffffffffffffffffff169050601160009054906101000a900473ffffffffffffffffffffffffffffffffffffffff1673ffffffffffffffffffffffffffffffffffffffff166323b872dd3383876040518463ffffffff1660e01b8152600401808473ffffffffffffffffffffffffffffffffffffffff1673ffffffffffffffffffffffffffffffffffffffff1681526020018373ffffffffffffffffffffffffffffffffffffffff1673ffffffffffffffffffffffffffffffffffffffff1681526020018281526020019350505050602060405180830381600087803b1580156149e357600080fd5b505af11580156149f7573d6000803e3d6000fd5b505050506040513d6020811015614a0d57600080fd5b8101908080519060200190929190505050614a90576040517f08c379a00000000000000000000000000000000000000000000000000000000081526004018080602001828103825260138152602001807f646169205472616e73666572206661696c65640000000000000000000000000081525060200191505060405180910390fd5b6000600e6040518060600160405280600a8681548110614aac57fe5b9060005260206000209060040201600301548152602001868152602001858152509080600181540180825580915050906001820390600052602060002090600302016000909192909190915060008201518160000155602082015181600101556040820151816002015550509050600f6000600a8581548110614b2b57fe5b906000526020600020906004020160030154815260200190815260200160002081908060018154018082558091505090600182039060005260206000200160009091929091909150555060106000858152602001908152602001600020819080600181540180825580915050906001820390600052602060002001600090919290919091505550614c186008600a8581548110614bc457fe5b90600052602060002090600402016003015481548110614be057fe5b906000526020600020906002020160000160009054906101000a900473ffffffffffffffffffffffffffffffffffffffff1682615322565b833373ffffffffffffffffffffffffffffffffffffffff167f87f5b2fe112bf269d30fb8ca9dc0bde0afd0cc39258e13fafd75fe794795bf0e876040518082815260200191505060405180910390a35050505b5050565b614c7a848484612036565b614c8684848484615548565b614cdb576040517f08c379a0000000000000000000000000000000000000000000000000000000008152600401808060200182810382526032815260200180615a456032913960400191505060405180910390fd5b50505050565b600e8181548110614cee57fe5b90600052602060002090600302016000915090508060000154908060010154908060020154905083565b6060614d2382614f61565b614d78576040517f08c379a000000000000000000000000000000000000000000000000000000000815260040180806020018281038252602f815260200180615bc8602f913960400191505060405180910390fd5b600760008381526020019081526020016000208054600181600116156101000203166002900480601f016020809104026020016040519081016040528092919081815260200182805460018160011615610100020316600290048015614e1f5780601f10614df457610100808354040283529160200191614e1f565b820191906000526020600020905b815481529060010190602001808311614e0257829003601f168201915b50505050509050919050565b60106020528160005260406000208181548110614e4457fe5b90600052602060002001600091509150505481565b600b6020528160005260406000208181548110614e7257fe5b90600052602060002001600091509150505481565b6000600460008473ffffffffffffffffffffffffffffffffffffffff1673ffffffffffffffffffffffffffffffffffffffff16815260200190815260200160002060008373ffffffffffffffffffffffffffffffffffffffff1673ffffffffffffffffffffffffffffffffffffffff16815260200190815260200160002060009054906101000a900460ff16905092915050565b600f6020528160005260406000208181548110614f3457fe5b90600052602060002001600091509150505481565b60096020528060005260406000206000915090505481565b6000806001600084815260200190815260200160002060009054906101000a900473ffffffffffffffffffffffffffffffffffffffff169050600073ffffffffffffffffffffffffffffffffffffffff168173ffffffffffffffffffffffffffffffffffffffff161415915050919050565b6000614fde82614f61565b615033576040517f08c379a000000000000000000000000000000000000000000000000000000000815260040180806020018281038252602c815260200180615abc602c913960400191505060405180910390fd5b600061503e83612b95565b90508073ffffffffffffffffffffffffffffffffffffffff168473ffffffffffffffffffffffffffffffffffffffff1614806150ad57508373ffffffffffffffffffffffffffffffffffffffff166150958461165e565b73ffffffffffffffffffffffffffffffffffffffff16145b806150be57506150bd8185614e87565b5b91505092915050565b8273ffffffffffffffffffffffffffffffffffffffff166150e782612b95565b73ffffffffffffffffffffffffffffffffffffffff1614615153576040517f08c379a0000000000000000000000000000000000000000000000000000000008152600401808060200182810382526029815260200180615b9f6029913960400191505060405180910390fd5b600073ffffffffffffffffffffffffffffffffffffffff168273ffffffffffffffffffffffffffffffffffffffff1614156151d9576040517f08c379a0000000000000000000000000000000000000000000000000000000008152600401808060200182810382526024815260200180615a986024913960400191505060405180910390fd5b6151e281615731565b615229600360008573ffffffffffffffffffffffffffffffffffffffff1673ffffffffffffffffffffffffffffffffffffffff1681526020019081526020016000206157ef565b615270600360008473ffffffffffffffffffffffffffffffffffffffff1673ffffffffffffffffffffffffffffffffffffffff168152602001908152602001600020615812565b816001600083815260200190815260200160002060006101000a81548173ffffffffffffffffffffffffffffffffffffffff021916908373ffffffffffffffffffffffffffffffffffffffff160217905550808273ffffffffffffffffffffffffffffffffffffffff168473ffffffffffffffffffffffffffffffffffffffff167fddf252ad1be2c89b69c2b068fc378daa952ba7f163c4a11628f55a4df523b3ef60405160405180910390a4505050565b600073ffffffffffffffffffffffffffffffffffffffff168273ffffffffffffffffffffffffffffffffffffffff1614156153c5576040517f08c379a00000000000000000000000000000000000000000000000000000000081526004018080602001828103825260208152602001807f4552433732313a206d696e7420746f20746865207a65726f206164647265737381525060200191505060405180910390fd5b6153ce81614f61565b15615441576040517f08c379a000000000000000000000000000000000000000000000000000000000815260040180806020018281038252601c8152602001807f4552433732313a20746f6b656e20616c7265616479206d696e7465640000000081525060200191505060405180910390fd5b816001600083815260200190815260200160002060006101000a81548173ffffffffffffffffffffffffffffffffffffffff021916908373ffffffffffffffffffffffffffffffffffffffff1602179055506154da600360008473ffffffffffffffffffffffffffffffffffffffff1673ffffffffffffffffffffffffffffffffffffffff168152602001908152602001600020615812565b808273ffffffffffffffffffffffffffffffffffffffff16600073ffffffffffffffffffffffffffffffffffffffff167fddf252ad1be2c89b69c2b068fc378daa952ba7f163c4a11628f55a4df523b3ef60405160405180910390a45050565b600081600001549050919050565b60006155698473ffffffffffffffffffffffffffffffffffffffff16615828565b6155765760019050615729565b60008473ffffffffffffffffffffffffffffffffffffffff1663150b7a02338887876040518563ffffffff1660e01b8152600401808573ffffffffffffffffffffffffffffffffffffffff1673ffffffffffffffffffffffffffffffffffffffff1681526020018473ffffffffffffffffffffffffffffffffffffffff1673ffffffffffffffffffffffffffffffffffffffff16815260200183815260200180602001828103825283818151815260200191508051906020019080838360005b83811015615651578082015181840152602081019050615636565b50505050905090810190601f16801561567e5780820380516001836020036101000a031916815260200191505b5095505050505050602060405180830381600087803b1580156156a057600080fd5b505af11580156156b4573d6000803e3d6000fd5b505050506040513d60208110156156ca57600080fd5b8101908080519060200190929190505050905063150b7a0260e01b7bffffffffffffffffffffffffffffffffffffffffffffffffffffffff1916817bffffffffffffffffffffffffffffffffffffffffffffffffffffffff1916149150505b949350505050565b600073ffffffffffffffffffffffffffffffffffffffff166002600083815260200190815260200160002060009054906101000a900473ffffffffffffffffffffffffffffffffffffffff1673ffffffffffffffffffffffffffffffffffffffff16146157ec5760006002600083815260200190815260200160002060006101000a81548173ffffffffffffffffffffffffffffffffffffffff021916908373ffffffffffffffffffffffffffffffffffffffff1602179055505b50565b6158076001826000015461583b90919063ffffffff16565b816000018190555050565b6001816000016000828254019250508190555050565b600080823b905060008111915050919050565b6000828211156158b3576040517f08c379a000000000000000000000000000000000000000000000000000000000815260040180806020018281038252601e8152602001807f536166654d6174683a207375627472616374696f6e206f766572666c6f77000081525060200191505060405180910390fd5b600082840390508091505092915050565b60405180606001604052806000815260200160008152602001600081525090565b6040518061010001604052806000815260200160608152602001606081526020016000151581526020016000151581526020016000815260200160608152602001606081525090565b828054600181600116156101000203166002900490600052602060002090601f016020900481019282601f1061596f57805160ff191683800117855561599d565b8280016001018555821561599d579182015b8281111561599c578251825591602001919060010190615981565b5b5090506159aa91906159fb565b5090565b8280548282559060005260206000209081019282156159ea579160200282015b828111156159e95782518255916020019190600101906159ce565b5b5090506159f791906159fb565b5090565b615a1d91905b80821115615a19576000816000905550600101615a01565b5090565b9056fe5075626c69636174696f6e205552492073686f756c64206e6f7420626520656d7074792e4552433732313a207472616e7366657220746f206e6f6e20455243373231526563656976657220696d706c656d656e7465724269646465722061646472657373206973206e6f7420726567697374657265642e4552433732313a207472616e7366657220746f20746865207a65726f20616464726573734552433732313a206f70657261746f7220717565727920666f72206e6f6e6578697374656e7420746f6b656e4552433732313a20617070726f76652063616c6c6572206973206e6f74206f776e6572206e6f7220617070726f76656420666f7220616c6c4552433732313a2062616c616e636520717565727920666f7220746865207a65726f20616464726573734552433732313a206f776e657220717565727920666f72206e6f6e6578697374656e7420746f6b656e4552433732313a20617070726f76656420717565727920666f72206e6f6e6578697374656e7420746f6b656e4552433732313a207472616e73666572206f6620746f6b656e2074686174206973206e6f74206f776e4552433732314d657461646174613a2055524920717565727920666f72206e6f6e6578697374656e7420746f6b656e53686f756c64206e6f7420737065636966792073656c6c20707269636520666f722061756374696f6e2e4552433732313a20617070726f76616c20746f2063757272656e74206f776e657255736572206e6f742074686520617574686f72206f662074686973207075626c69636174696f6e4552433732313a207472616e736665722063616c6c6572206973206e6f74206f776e6572206e6f7220617070726f7665645075626c69636174696f6e20697320616c7265616479206f6e2061756374696f6ea165627a7a72305820c8d916bd929cf03a066fa276a01c317c556d31c0cab935e35a11ba31822a03460029",
  "source": "pragma solidity^0.5.0;\r\n\r\n/// @title UniCoin smart contract\r\n/// @author Chris Maree, Helda Mandlate, Luke Meiklejohn \r\n\r\n/// @dev import contracts from openzeppelin related to ownable and ERC20, ERC721 tokens\r\nimport \"openzeppelin-solidity/contracts/ownership/Ownable.sol\";\r\nimport \"openzeppelin-solidity/contracts/token/ERC20/ERC20.sol\";\r\nimport \"openzeppelin-solidity/contracts/token/ERC721/ERC721Metadata.sol\";\r\n\r\n/// @notice contract begins here\r\ncontract UnicoinRegistry is ERC721Metadata {\r\n    /// @notice Creates a struct for users of the plaform, needs their Ethereum address and profile URL\r\n    struct User {\r\n        address owned_address;\r\n        string profile_uri;\r\n    }\r\n    /// @notice Creates an array of users that a registered\r\n    User[] public users;\r\n\r\n    /// @notice The mapping below maps all users' addresses to their userID\r\n    mapping (address => uint256) public userAddresses ;\r\n\r\n    /// @notice Creates user defined type\r\n    enum bidStatus {Pending, Accepted, Rejected, Sale, Cancelled}\r\n\r\n    /// @notice Creates a struct for all bids, takes in the offer (amount of the bid), one of the enum parameters, publication Id and owner Id\r\n    struct Bid {\r\n        uint256 offer;\r\n        bidStatus status;\r\n        uint256 publication_Id;\r\n        uint256 owner_Id; /// @dev owner of the bid\r\n    }\r\n    /// @notice Creates an array of bids that have been placed\r\n    Bid[] public bids;\r\n\r\n    /// @notice The mapping below maps all bidders' IDs to their userID\r\n    mapping(uint256 => uint256[]) public bidOwners;\r\n\r\n    /// @notice Creates a struct for all publications\r\n    /// @param author_Id The array below will contain all bids received for that work\r\n    /// @param publication_uri If the researcher has chosen the auction pricing structure, the below is TRUE.\r\n    /// @param publication_bids If the auction is still running, the below is TRUE, because the researcher can choose to stop the auction at any point.\r\n    /// @param isAuction If both of the booleans above are FALSE, the price below is the flat sale price of the work.\r\n    /// @param isRunning The value of the publication\r\n    /// @param sell_price The co-authors/ contributors of the publication\r\n    /// @param contributors_weightings The contributor's respective weighting contributions\r\n    struct Publication {\r\n        uint256 author_Id;\r\n        string publication_uri;\r\n        uint256[] publication_bids;\r\n        bool isAuction;\r\n        bool isRunning;\r\n        uint256 sell_price;\r\n        uint256[] contributors;\r\n        uint256[] contributors_weightings;\r\n    }\r\n    /// @notice Creates an array of publications for every published document\r\n    Publication[] public publications;\r\n    \r\n    /// @notice The mapping below will map the addresses of all the successful bidders' addresses to the ID of their owned publications\r\n    mapping(uint256 => uint256[]) public publicationOwners;\r\n    \r\n    /// @notice Creates a struct for licencing\r\n    /// @param buyer_Id of each publication's buyer\r\n    /// @param publication_Id of the publication being bought\r\n    /// @param bid_Id The bid's Id for the publication    \r\n    struct LicenceDesign {\r\n        uint256 buyer_Id;\r\n        uint256 publication_Id;\r\n        uint256 bid_Id;\r\n    }\r\n    /// @notice Creates an array of purchased licences\r\n    LicenceDesign[] public licences;\r\n    /// @notice Mapping of licence Id to get the licence owners\r\n    mapping(uint256 => uint256[]) public licenceOwners;\r\n    /// @notice Mapping of licence Id to get the publication Id\r\n    mapping(uint256 => uint256[]) public publicationLicences;\r\n\r\n    event NewPublication(\r\n        address indexed _from,\r\n        string _publication_uri,\r\n        bool _isAuction,\r\n        uint256 _sell_price\r\n    );\r\n\r\n    event NewBid(\r\n        address indexed _from,\r\n        uint256 indexed _publication_Id,\r\n        uint256 _offer\r\n    );\r\n\r\n    event AcceptedBid(\r\n        address indexed _from,\r\n        uint256 _id\r\n    );\r\n\r\n    event RejectedBid(\r\n        address indexed _from,\r\n        uint256 _id\r\n    ); \r\n\r\n    event CancelledBid(\r\n        address indexed _from,\r\n        uint256 _id\r\n    );\r\n\r\n    event ChangeToSale(\r\n        address indexed _from,\r\n        uint256 indexed _publication_Id,\r\n        uint256 _sell_price\r\n    );   \r\n\r\n    event ChangeToAuction(\r\n        address indexed _from,\r\n        uint256 indexed _publication_Id\r\n    ); \r\n\r\n    event ChangeSellPrice(\r\n        address indexed _from,\r\n        uint256 indexed _publication_Id,\r\n        uint256 _sell_price\r\n    );\r\n\r\n    event ChangeRunningStatus(\r\n        address indexed _from,\r\n        uint256 indexed _publication_Id,\r\n        bool _isRunning\r\n    );\r\n\r\n    /// @dev ERC20 is now daiContract\r\n    ERC20 daiContract;\r\n    /// @dev The constructor below reserves user 0 for all unregistered users\r\n    /// @param _daiContractAddress DAI contract address\r\n    constructor(address _daiContractAddress) public ERC721Metadata(\"UniCoin Licence\", \"UNIC\"){\r\n        users.push(User(address(0), \"\"));\r\n        licences.push(LicenceDesign(0, 0, 0));\r\n\r\n        daiContract = ERC20(_daiContractAddress);\r\n    }\r\n\r\n    /// @notice This function registers a user on the platform by taking in their profile URL\r\n    /// @param _profile_uri user profile url\r\n    /// @dev If the user's address is in position 0 of the userAddresses array, they are unregistered\r\n    /// @dev Create an instance of the user and add the Id to their address\r\n    function registerUser(string memory _profile_uri) public {\r\n        require(bytes(_profile_uri).length > 0, \"Profile URI should not be empty.\");\r\n        require(userAddresses[msg.sender]==0,\"User already registered.\");\r\n        uint256 id = users.push(User(msg.sender,_profile_uri));\r\n        userAddresses[msg.sender] = id - 1;\r\n    }\r\n\r\n    /// @notice This function creates a publication on the system, with blank arrays for publication bids and owners,\r\n    /// @notice since no one has bidded for or bought a licence yet\r\n    /// @dev The researcher only specifies the flat rate if they have chosen not to auction the work\r\n    /// @dev Add instance to the respective arrays\r\n\r\n    function createPublication(\r\n        string memory _publication_uri,\r\n        bool _isAuction,\r\n        bool _isRunning,\r\n        uint256 _sell_price,\r\n        uint256[] memory _contributors,\r\n        uint256[] memory _contributors_weightings) public {\r\n        require(bytes(_publication_uri).length > 0, \"Publication URI should not be empty.\");\r\n        require(userAddresses[msg.sender] != 0, \"User address is not registered.\");\r\n        if(_isAuction) {\r\n            require(_sell_price == 0, \"Should not specify sell price for auction.\");\r\n        }\r\n        else {\r\n            require(_sell_price > 0, \"Sell price not specified.\");\r\n        }\r\n        uint256 _author_Id = userAddresses[msg.sender];\r\n        uint256[] memory _publication_bids;\r\n        Publication memory _publication = Publication(\r\n            _author_Id,\r\n            _publication_uri,\r\n            _publication_bids,\r\n            _isAuction,\r\n            _isRunning,\r\n            _sell_price,\r\n            _contributors,\r\n            _contributors_weightings);\r\n        uint256 _id = publications.push(_publication);\r\n        publicationOwners[_author_Id].push(_id - 1);\r\n\r\n        emit NewPublication(msg.sender,_publication_uri, _isAuction, _sell_price);\r\n    }\r\n\r\n    /// @notice This function creates a new bid for a particular publication\r\n    /// @param _offer for the research\r\n    /// @param _publication_Id is the index for the publication Id\r\n    /// @dev The bidder should only be able to submit a bid if the publication's pricing structure is an auction and the auction is running\r\n    /// @dev By default the bid will have a status of Pending until it is accepted or rejected by the author\r\n    /// @dev If the author has specified a flat rate, the buyer doesn't submit a bid but just sends the funds.\r\n    /// @dev The funds sent should match the sale price specified by the author.\r\n    /// @dev This 'bid' has a status of sale because the author does not need to evaluate and accept/reject these bids.\r\n    /// @dev Transfer Dai from buyer to seller\r\n    /// @dev parameters of licence design: buyer_id, publication id, bid_id\r\n    function makeBid(uint256 _offer, uint256 _publication_Id) public {\r\n        require(publications[_publication_Id].author_Id != 0, \"Publication not enlisted.\");\r\n        require(userAddresses[msg.sender] != 0, \"Bidder address is not registered.\");\r\n        if(publications[_publication_Id].isAuction) {\r\n            require(publications[_publication_Id].isRunning, \"Auction is not running.\");\r\n            uint256 _id = bids.push(Bid(_offer, bidStatus.Pending, _publication_Id, userAddresses[msg.sender]));\r\n            publications[_publication_Id].publication_bids.push(_id - 1);\r\n            bidOwners[userAddresses[msg.sender]].push(_id - 1);\r\n\r\n            emit NewBid(msg.sender, _publication_Id, _offer);\r\n        }\r\n        if(!publications[_publication_Id].isAuction) {\r\n            require(_offer == publications[_publication_Id].sell_price, \"Incorrect funds sent.\");\r\n            uint256 _id = bids.push(Bid(_offer, bidStatus.Sale, _publication_Id, userAddresses[msg.sender])) - 1;\r\n            publications[_publication_Id].publication_bids.push(_id);\r\n            bidOwners[userAddresses[msg.sender]].push(_id);\r\n\r\n            require(daiContract.allowance(msg.sender, address(this)) >= _offer, \"Insufficient fund allowance\");\r\n            address publisherAddress = users[publications[_publication_Id].author_Id].owned_address;\r\n            require(daiContract.transferFrom(msg.sender, publisherAddress, _offer), \"dai Transfer failed\");\r\n\r\n            uint256 _licence_Id = licences.push(LicenceDesign(bids[_id].owner_Id, _publication_Id, _id));\r\n            licenceOwners[bids[_id].owner_Id].push(_licence_Id);\r\n            publicationLicences[_publication_Id].push(_licence_Id);\r\n            _mint(users[bids[_id].owner_Id].owned_address, _licence_Id);\r\n\r\n            emit NewBid(msg.sender, _publication_Id, _offer);\r\n        }\r\n    }\r\n\r\n    /// @notice This function allows the auctioneer to accept the bids\r\n    /// @dev parameters of licence design: buyer_id, publication id, bid_id\r\n    /// @notice This function allows the auctioneer to reject the bids\r\n    /// @param _id is the bid Id\r\n    function acceptBid(uint256 _id) public {\r\n        uint256 _publication_Id = bids[_id].publication_Id;\r\n        require(userAddresses[msg.sender] == publications[_publication_Id].author_Id, \"User not the author of this publication\");\r\n        require(publications[_publication_Id].isAuction, \"Publication not an auction.\");\r\n        require(publications[_publication_Id].isRunning, \"Auction is not running.\");\r\n        bids[_id].status = bidStatus.Accepted;\r\n        \r\n        uint256 _licence_Id = licences.push(LicenceDesign(bids[_id].owner_Id, _publication_Id, _id));\r\n        licenceOwners[bids[_id].owner_Id].push(_licence_Id);\r\n        publicationLicences[_publication_Id].push(_licence_Id);\r\n        _mint(users[bids[_id].owner_Id].owned_address, _licence_Id);\r\n\r\n        emit AcceptedBid(msg.sender,_id);\r\n    }\r\n\r\n    /// @notice This function allows the auctioneer to reject the bids\r\n    /// @param _id is the bid Id\r\n    function rejectBid(uint256 _id) public {\r\n        uint256 _publication_Id = bids[_id].publication_Id;\r\n        require(userAddresses[msg.sender] == publications[_publication_Id].author_Id, \"User not the author of this publication\");\r\n        require(publications[_publication_Id].isAuction, \"Publication not an auction.\");\r\n        require(publications[_publication_Id].isRunning, \"Auction not running.\");\r\n        bids[_id].status = bidStatus.Rejected;\r\n\r\n        emit RejectedBid(msg.sender,_id);\r\n    }\r\n\r\n    /// @notice This function allows the auctioneer to cancel the bids\r\n    /// @param _id is the bid Id\r\n    function cancelBid(uint256 _id) public {\r\n        uint256 _publication_Id = bids[_id].publication_Id;\r\n        require(userAddresses[msg.sender] == publications[_publication_Id].author_Id\r\n        || userAddresses[msg.sender] == bids[_id].owner_Id, \"User not the author of this publication\");\r\n        require(publications[_publication_Id].isAuction, \"Publication not an auction.\");\r\n        require(publications[_publication_Id].isRunning, \"Auction not running.\");\r\n        bids[_id].status = bidStatus.Cancelled;\r\n\r\n        emit CancelledBid(msg.sender,_id);\r\n    }\r\n\r\n    /// @notice This function allows the auctioneer to change from an auction to a sale\r\n    /// @param _publication_Id publication id number\r\n    /// @param _sell_price for the research\r\n    function changeToSale(uint256 _publication_Id, uint256 _sell_price) public {\r\n        require(userAddresses[msg.sender] == publications[_publication_Id].author_Id, \"User not the author of this publication\");\r\n        require(publications[_publication_Id].isAuction, \"Publication is not an auction\");\r\n        publications[_publication_Id].sell_price = _sell_price;\r\n        publications[_publication_Id].isAuction = false;\r\n\r\n        emit ChangeToSale(msg.sender, _publication_Id, _sell_price);\r\n    }\r\n\r\n    /// @notice This function allows the auctioneer to change from a sale to an auction\r\n    /// @param _publication_Id publication id number\r\n    function changeToAuction(uint256 _publication_Id) public {\r\n        require(userAddresses[msg.sender] == publications[_publication_Id].author_Id, \"User not the author of this publication\");\r\n        require(!publications[_publication_Id].isAuction, \"Publication is already on auction\");\r\n        publications[_publication_Id].sell_price = 0;\r\n        publications[_publication_Id].isAuction = true;\r\n\r\n        emit ChangeToAuction(msg.sender, _publication_Id);        \r\n    }\r\n    \r\n    /// @notice This function allows the auctioneer to change the sell price\r\n    /// @param _publication_Id publication id number\r\n    /// @param _sell_price for the research\r\n    function changeSellPrice(uint256 _publication_Id, uint256 _sell_price) public {\r\n        require(userAddresses[msg.sender] == publications[_publication_Id].author_Id, \"User not the author of this publication\");\r\n        require(!publications[_publication_Id].isAuction, \"Publication is on auction.\");\r\n        publications[_publication_Id].sell_price = _sell_price;\r\n\r\n        emit ChangeSellPrice(msg.sender, _publication_Id, _sell_price);        \r\n\r\n    }\r\n\r\n    /// @notice This function allows the auctioneer to change the running status\r\n    /// @param _publication_Id publication id number\r\n    function changeRunningStatus(uint256 _publication_Id) public {\r\n        require(userAddresses[msg.sender] == publications[_publication_Id].author_Id, \"User not the author of this publication\");\r\n        publications[_publication_Id].isRunning = !publications[_publication_Id].isRunning;\r\n\r\n        emit ChangeRunningStatus(msg.sender, _publication_Id, publications[_publication_Id].isRunning);        \r\n\r\n    }\r\n\r\n    /// @return This function allows anyone to get the list of publications based on the address of the publisher\r\n    /// @param _address eth address for the user\r\n    function getPublications(address _address) public view returns(uint256[] memory) {\r\n        uint256 _author_Id = userAddresses[_address];\r\n        return publicationOwners[_author_Id];\r\n    }\r\n\r\n    /// @return This function allows anyone to get the list of bids based on address of the user\r\n    function getBids(address _address) public view returns(uint256[] memory) {\r\n        uint256 _userAddress = userAddresses[_address];\r\n        return bidOwners[_userAddress];\r\n    }\r\n\r\n    // From the user ID, get a list of all publications owned by the user ()\r\n    // function getPublications(uint256 _user_Id) public view returns(uint256[] memory) {\r\n    //     return publicationOwners[_user_Id];\r\n    // }\r\n\r\n    // function getBids(uint256 _user_Id) public view returns(uint256[] memory) {\r\n    //     return bidOwners[_user_Id];\r\n    // }\r\n\r\n    /// @return This function allows anyone to get list of bids per publication\r\n    /// @param _publication_Id publication id number\r\n    function getPublicationBids(uint256 _publication_Id) public view returns(uint256[] memory) {\r\n        return publications[_publication_Id].publication_bids;\r\n    }\r\n\r\n    /// @return This function allows the return of the total number of publications\r\n    function getPublicationLength() public view returns(uint count) {\r\n        return publications.length;\r\n    }\r\n\r\n    /// @return Returns information about a spesific publication ID\r\n    /// @param _publication_Id publication id number\r\n    function getPublication(uint256 _publication_Id) public view returns(\r\n        uint256,\r\n        string memory,\r\n        uint256[] memory,\r\n        bool,\r\n        bool,\r\n        uint256,\r\n        uint256[] memory,\r\n        uint256[] memory){\r\n        Publication memory _publication = publications[_publication_Id];\r\n        return (\r\n        _publication.author_Id,\r\n        _publication.publication_uri,\r\n        _publication.publication_bids,\r\n        _publication.isAuction,\r\n        _publication.isRunning,\r\n        _publication.sell_price,\r\n        _publication.contributors,\r\n        _publication.contributors_weightings);\r\n    }\r\n\r\n    /// @return get the licences per owner\r\n    /// @param _address of the account holder\r\n    function getLicenceForAddress(address _address) public view returns(uint256[] memory) {\r\n        uint256 _userNumber = userAddresses[_address];\r\n        return licenceOwners[_userNumber];\r\n    }\r\n    \r\n    function getLicence(uint256 _licenceId) public view returns(uint256, uint256, uint256){\r\n        LicenceDesign memory _licence = licences[_licenceId];\r\n        return (\r\n        _licence.buyer_Id,\r\n        _licence.publication_Id,\r\n        _licence.bid_Id);\r\n    }\r\n\r\n    /// @notice Donates funds to a research\r\n    /// @param _publication_Id The id of the publication\r\n    /// @param _value the amount that is being donated\r\n    function donate(uint256 _publication_Id, uint256 _value) public {\r\n        require(userAddresses[msg.sender] != 0, \"User address is not registered.\");\r\n        require(daiContract.allowance(msg.sender, address(this)) >= _value, \"Insufficient fund allowance\");\r\n        address publisherAddress = users[publications[_publication_Id].author_Id].owned_address;\r\n        daiContract.transferFrom(msg.sender, publisherAddress, _value);\r\n    }\r\n}",
  "sourcePath": "D:/unicoindapp/contracts/UnicoinRegistry.sol",
  "compiler": {
    "name": "solc",
    "version": "0.5.8+commit.23d335f2.Emscripten.clang"
  },
  "schemaVersion": "3.0.11",
  "updatedAt": "2019-07-25T19:58:56.769Z",
  "devdoc": {
    "methods": {
      "acceptBid(uint256)": {
        "params": {
          "_id": "is the bid Id"
        }
      },
      "approve(address,uint256)": {
        "details": "Approves another address to transfer the given token ID The zero address indicates there is no approved address. There can only be one approved address per token at a given time. Can only be called by the token owner or an approved operator.",
        "params": {
          "to": "address to be approved for the given token ID",
          "tokenId": "uint256 ID of the token to be approved"
        }
      },
      "balanceOf(address)": {
        "details": "Gets the balance of the specified address.",
        "params": {
          "owner": "address to query the balance of"
        },
        "return": "uint256 representing the amount owned by the passed address"
      },
      "cancelBid(uint256)": {
        "params": {
          "_id": "is the bid Id"
        }
      },
      "changeRunningStatus(uint256)": {
        "params": {
          "_publication_Id": "publication id number"
        }
      },
      "changeSellPrice(uint256,uint256)": {
        "params": {
          "_sell_price": "for the research"
        }
      },
      "changeToAuction(uint256)": {
        "params": {
          "_publication_Id": "publication id number"
        }
      },
      "changeToSale(uint256,uint256)": {
        "params": {
          "_sell_price": "for the research"
        }
      },
      "constructor": {
        "params": {
          "_daiContractAddress": "DAI contract address"
        }
      },
      "createPublication(string,bool,bool,uint256,uint256[],uint256[])": {
        "details": "Add instance to the respective arrays"
      },
      "donate(uint256,uint256)": {
        "params": {
          "_value": "the amount that is being donated"
        }
      },
      "getApproved(uint256)": {
        "details": "Gets the approved address for a token ID, or zero if no address set Reverts if the token ID does not exist.",
        "params": {
          "tokenId": "uint256 ID of the token to query the approval of"
        },
        "return": "address currently approved for the given token ID"
      },
      "getBids(address)": {
        "return": "This function allows anyone to get the list of bids based on address of the user"
      },
      "getLicenceForAddress(address)": {
        "params": {
          "_address": "of the account holder"
        }
      },
      "getPublication(uint256)": {
        "params": {
          "_publication_Id": "publication id number"
        }
      },
      "getPublicationBids(uint256)": {
        "params": {
          "_publication_Id": "publication id number"
        }
      },
      "getPublicationLength()": {
        "return": "This function allows the return of the total number of publications"
      },
      "getPublications(address)": {
        "params": {
          "_address": "eth address for the user"
        }
      },
      "isApprovedForAll(address,address)": {
        "details": "Tells whether an operator is approved by a given owner.",
        "params": {
          "operator": "operator address which you want to query the approval of",
          "owner": "owner address which you want to query the approval of"
        },
        "return": "bool whether the given operator is approved by the given owner"
      },
      "makeBid(uint256,uint256)": {
        "details": "parameters of licence design: buyer_id, publication id, bid_id"
      },
      "name()": {
        "details": "Gets the token name.",
        "return": "string representing the token name"
      },
      "ownerOf(uint256)": {
        "details": "Gets the owner of the specified token ID.",
        "params": {
          "tokenId": "uint256 ID of the token to query the owner of"
        },
        "return": "address currently marked as the owner of the given token ID"
      },
      "registerUser(string)": {
        "details": "Create an instance of the user and add the Id to their address"
      },
      "rejectBid(uint256)": {
        "params": {
          "_id": "is the bid Id"
        }
      },
      "safeTransferFrom(address,address,uint256)": {
        "details": "Safely transfers the ownership of a given token ID to another address If the target address is a contract, it must implement `onERC721Received`, which is called upon a safe transfer, and return the magic value `bytes4(keccak256(\"onERC721Received(address,address,uint256,bytes)\"))`; otherwise, the transfer is reverted. Requires the msg.sender to be the owner, approved, or operator",
        "params": {
          "from": "current owner of the token",
          "to": "address to receive the ownership of the given token ID",
          "tokenId": "uint256 ID of the token to be transferred"
        }
      },
      "safeTransferFrom(address,address,uint256,bytes)": {
        "details": "Safely transfers the ownership of a given token ID to another address If the target address is a contract, it must implement `onERC721Received`, which is called upon a safe transfer, and return the magic value `bytes4(keccak256(\"onERC721Received(address,address,uint256,bytes)\"))`; otherwise, the transfer is reverted. Requires the msg.sender to be the owner, approved, or operator",
        "params": {
          "_data": "bytes data to send along with a safe transfer check",
          "from": "current owner of the token",
          "to": "address to receive the ownership of the given token ID",
          "tokenId": "uint256 ID of the token to be transferred"
        }
      },
      "setApprovalForAll(address,bool)": {
        "details": "Sets or unsets the approval of a given operator An operator is allowed to transfer all tokens of the sender on their behalf.",
        "params": {
          "approved": "representing the status of the approval to be set",
          "to": "operator address to set the approval"
        }
      },
      "supportsInterface(bytes4)": {
        "details": "See `IERC165.supportsInterface`.     * Time complexity O(1), guaranteed to always use less than 30 000 gas."
      },
      "symbol()": {
        "details": "Gets the token symbol.",
        "return": "string representing the token symbol"
      },
      "tokenURI(uint256)": {
        "details": "Returns an URI for a given token ID. Throws if the token ID does not exist. May return an empty string.",
        "params": {
          "tokenId": "uint256 ID of the token to query"
        }
      },
      "transferFrom(address,address,uint256)": {
        "details": "Transfers the ownership of a given token ID to another address. Usage of this method is discouraged, use `safeTransferFrom` whenever possible. Requires the msg.sender to be the owner, approved, or operator.",
        "params": {
          "from": "current owner of the token",
          "to": "address to receive the ownership of the given token ID",
          "tokenId": "uint256 ID of the token to be transferred"
        }
      }
    }
  },
  "userdoc": {
    "methods": {},
    "notice": "contract begins here"
  }
}